{"contracts/Escrow.sol":{"Escrow":{"abi":[{"inputs":[{"internalType":"address","name":"_marketplace","type":"address"},{"internalType":"address","name":"_owner","type":"address"}],"stateMutability":"nonpayable","type":"constructor"},{"inputs":[],"name":"ESCROW_ALREADY_DISPUTED","type":"error"},{"inputs":[],"name":"ESCROW_FAILED_TRANSFER","type":"error"},{"inputs":[],"name":"ESCROW_HOLD_TIME","type":"error"},{"inputs":[],"name":"ESCROW_NOTBUYER","type":"error"},{"inputs":[],"name":"ESCROW_NOTOWNER","type":"error"},{"inputs":[],"name":"ESCROW_NOTSELLER","type":"error"},{"inputs":[],"name":"ESCROW_NOT_DISPUTED","type":"error"},{"inputs":[],"name":"ESCROW_NOT_FROM_MARKETPLACE","type":"error"},{"inputs":[],"name":"ESCROW_NOT_OPEN","type":"error"},{"inputs":[],"name":"ESCROW_NOT_OPEN_OR_DISPUTED","type":"error"},{"inputs":[],"name":"ESCROW_NOT_SELLER_OR_BUYER","type":"error"},{"inputs":[],"name":"ESCROW_ORDER_NOT_FOUND","type":"error"},{"anonymous":false,"inputs":[{"indexed":true,"internalType":"uint256","name":"_orderId","type":"uint256"}],"name":"DisputedOrder","type":"event"},{"anonymous":false,"inputs":[{"indexed":true,"internalType":"uint256","name":"_orderId","type":"uint256"}],"name":"RefundedFunds","type":"event"},{"anonymous":false,"inputs":[{"indexed":true,"internalType":"uint256","name":"_orderId","type":"uint256"}],"name":"ReleasedFunds","type":"event"},{"inputs":[{"internalType":"address","name":"_seller","type":"address"},{"internalType":"address","name":"_buyer","type":"address"},{"internalType":"uint256","name":"_productId","type":"uint256"},{"internalType":"uint256","name":"_orderId","type":"uint256"},{"internalType":"uint256","name":"_quantity","type":"uint256"}],"name":"createEscrow","outputs":[{"internalType":"uint256","name":"","type":"uint256"}],"stateMutability":"payable","type":"function"},{"inputs":[],"name":"getBuyerOrders","outputs":[{"components":[{"internalType":"address","name":"seller","type":"address"},{"internalType":"address","name":"buyer","type":"address"},{"internalType":"uint256","name":"productId","type":"uint256"},{"internalType":"uint256","name":"value","type":"uint256"},{"internalType":"uint256","name":"timestamp","type":"uint256"},{"internalType":"uint256","name":"orderId","type":"uint256"},{"internalType":"enum Escrow.EscrowState","name":"state","type":"uint8"},{"internalType":"uint256","name":"quantity","type":"uint256"}],"internalType":"struct Escrow.Order[]","name":"","type":"tuple[]"}],"stateMutability":"view","type":"function"},{"inputs":[],"name":"getMarketplaceAddress","outputs":[{"internalType":"address","name":"","type":"address"}],"stateMutability":"view","type":"function"},{"inputs":[{"internalType":"uint256","name":"_orderId","type":"uint256"}],"name":"getOrderById","outputs":[{"components":[{"internalType":"address","name":"seller","type":"address"},{"internalType":"address","name":"buyer","type":"address"},{"internalType":"uint256","name":"productId","type":"uint256"},{"internalType":"uint256","name":"value","type":"uint256"},{"internalType":"uint256","name":"timestamp","type":"uint256"},{"internalType":"uint256","name":"orderId","type":"uint256"},{"internalType":"enum Escrow.EscrowState","name":"state","type":"uint8"},{"internalType":"uint256","name":"quantity","type":"uint256"}],"internalType":"struct Escrow.Order","name":"","type":"tuple"}],"stateMutability":"view","type":"function"},{"inputs":[],"name":"getOwner","outputs":[{"internalType":"address","name":"","type":"address"}],"stateMutability":"view","type":"function"},{"inputs":[],"name":"getSellerOrders","outputs":[{"components":[{"internalType":"address","name":"seller","type":"address"},{"internalType":"address","name":"buyer","type":"address"},{"internalType":"uint256","name":"productId","type":"uint256"},{"internalType":"uint256","name":"value","type":"uint256"},{"internalType":"uint256","name":"timestamp","type":"uint256"},{"internalType":"uint256","name":"orderId","type":"uint256"},{"internalType":"enum Escrow.EscrowState","name":"state","type":"uint8"},{"internalType":"uint256","name":"quantity","type":"uint256"}],"internalType":"struct Escrow.Order[]","name":"","type":"tuple[]"}],"stateMutability":"view","type":"function"},{"inputs":[{"internalType":"uint256","name":"_orderId","type":"uint256"}],"name":"refund","outputs":[],"stateMutability":"nonpayable","type":"function"},{"inputs":[{"internalType":"uint256","name":"_orderId","type":"uint256"}],"name":"release","outputs":[],"stateMutability":"nonpayable","type":"function"},{"inputs":[{"internalType":"uint256","name":"_orderId","type":"uint256"}],"name":"startDispute","outputs":[],"stateMutability":"nonpayable","type":"function"}],"evm":{"bytecode":{"linkReferences":{},"object":"60a06040523480156200001157600080fd5b50604051620030dc380380620030dc833981810160405281019062000037919062000174565b62000053671d41a94ba5554dcb60c01b6200010760201b60201c565b6200006f676024235befca135f60c01b6200010760201b60201c565b806000806101000a81548173ffffffffffffffffffffffffffffffffffffffff021916908373ffffffffffffffffffffffffffffffffffffffff160217905550620000cb67a13a725db37137b360c01b6200010760201b60201c565b8173ffffffffffffffffffffffffffffffffffffffff1660808173ffffffffffffffffffffffffffffffffffffffff16815250505050620001bb565b50565b600080fd5b600073ffffffffffffffffffffffffffffffffffffffff82169050919050565b60006200013c826200010f565b9050919050565b6200014e816200012f565b81146200015a57600080fd5b50565b6000815190506200016e8162000143565b92915050565b600080604083850312156200018e576200018d6200010a565b5b60006200019e858286016200015d565b9250506020620001b1858286016200015d565b9150509250929050565b608051612efe620001de6000396000818161173601526122770152612efe6000f3fe6080604052600436106100865760003560e01c8063700db75211610059578063700db7521461014a578063893d20e814610175578063bb8fe785146101a0578063c0cfa7e5146101cb578063c819998b146101f457610086565b8063278ecde11461008b57806337bdc99b146100b45780633bf3110f146100dd57806342b50a7a1461010d575b600080fd5b34801561009757600080fd5b506100b260048036038101906100ad91906129fe565b61021f565b005b3480156100c057600080fd5b506100db60048036038101906100d691906129fe565b610bec565b005b6100f760048036038101906100f29190612a89565b6116e2565b6040516101049190612b13565b60405180910390f35b34801561011957600080fd5b50610134600480360381019061012f91906129fe565b611d30565b6040516101419190612c65565b60405180910390f35b34801561015657600080fd5b5061015f611fb3565b60405161016c9190612dd3565b60405180910390f35b34801561018157600080fd5b5061018a6121d3565b6040516101979190612e04565b60405180910390f35b3480156101ac57600080fd5b506101b5612237565b6040516101c29190612e04565b60405180910390f35b3480156101d757600080fd5b506101f260048036038101906101ed91906129fe565b61229b565b005b34801561020057600080fd5b5061020961271d565b6040516102169190612dd3565b60405180910390f35b610233678adf54609f03c12d60c01b61293d565b8061024867a986cefeec85818760c01b61293d565b61025c679468e128eae60b1a60c01b61293d565b6102706796010dfaecf65cf660c01b61293d565b600060036000838152602001908152602001600020604051806101000160405290816000820160009054906101000a900473ffffffffffffffffffffffffffffffffffffffff1673ffffffffffffffffffffffffffffffffffffffff1673ffffffffffffffffffffffffffffffffffffffff1681526020016001820160009054906101000a900473ffffffffffffffffffffffffffffffffffffffff1673ffffffffffffffffffffffffffffffffffffffff1673ffffffffffffffffffffffffffffffffffffffff168152602001600282015481526020016003820154815260200160048201548152602001600582015481526020016006820160009054906101000a900460ff16600381111561038a57610389612b4c565b5b600381111561039c5761039b612b4c565b5b815260200160078201548152505090506103c0677a4fa443f0dd646b60c01b61293d565b6103d46707ba95f796c8a10260c01b61293d565b600060038111156103e8576103e7612b4c565b5b8160c0015160038111156103ff576103fe612b4c565b5b14158015610435575060038081111561041b5761041a612b4c565b5b8160c00151600381111561043257610431612b4c565b5b14155b156104945761044e67088091dfa12640c660c01b61293d565b610462677d44f4b501c4318360c01b61293d565b6040517f8a22693e00000000000000000000000000000000000000000000000000000000815260040160405180910390fd5b6104a86721c50106825c897d60c01b61293d565b6104bc67a7c7c5dfad30ec6560c01b61293d565b6104d067dfda96af9380697a60c01b61293d565b6104e4672eacbbaf4bd1038160c01b61293d565b826104f967527eb98e367f366c60c01b61293d565b61050d679810e0b36380003060c01b61293d565b61052167010c170a31d2120c60c01b61293d565b600060036000838152602001908152602001600020604051806101000160405290816000820160009054906101000a900473ffffffffffffffffffffffffffffffffffffffff1673ffffffffffffffffffffffffffffffffffffffff1673ffffffffffffffffffffffffffffffffffffffff1681526020016001820160009054906101000a900473ffffffffffffffffffffffffffffffffffffffff1673ffffffffffffffffffffffffffffffffffffffff1673ffffffffffffffffffffffffffffffffffffffff168152602001600282015481526020016003820154815260200160048201548152602001600582015481526020016006820160009054906101000a900460ff16600381111561063b5761063a612b4c565b5b600381111561064d5761064c612b4c565b5b815260200160078201548152505090506106716745d3b41a49d7ae0260c01b61293d565b610685677dd3f87b173f7fd660c01b61293d565b60008054906101000a900473ffffffffffffffffffffffffffffffffffffffff1673ffffffffffffffffffffffffffffffffffffffff163373ffffffffffffffffffffffffffffffffffffffff1614801561070857506003808111156106ee576106ed612b4c565b5b8160c00151600381111561070557610704612b4c565b5b14155b156107675761072167539a28d4bbb2f8bb60c01b61293d565b61073567964e40ee2cdeb52360c01b61293d565b6040517f8ab9b32900000000000000000000000000000000000000000000000000000000815260040160405180910390fd5b61077b6785176212632737a660c01b61293d565b61078f674c7003b2a701628760c01b61293d565b3373ffffffffffffffffffffffffffffffffffffffff16816000015173ffffffffffffffffffffffffffffffffffffffff161415801561081b575060008054906101000a900473ffffffffffffffffffffffffffffffffffffffff1673ffffffffffffffffffffffffffffffffffffffff163373ffffffffffffffffffffffffffffffffffffffff1614155b1561087a5761083467b8512d8a4a233cd460c01b61293d565b6108486722912976bd78484960c01b61293d565b6040517f76df155600000000000000000000000000000000000000000000000000000000815260040160405180910390fd5b61088e671738f3f3759d663d60c01b61293d565b6108a2678e687d28d1f0071d60c01b61293d565b806000015173ffffffffffffffffffffffffffffffffffffffff163373ffffffffffffffffffffffffffffffffffffffff1614801561090857506003808111156108ef576108ee612b4c565b5b8160c00151600381111561090657610905612b4c565b5b145b156109675761092167dfa79c7729e9ccc960c01b61293d565b6109356729062cc8dc02374160c01b61293d565b6040517f26b095e100000000000000000000000000000000000000000000000000000000815260040160405180910390fd5b61097b674bf8d5847ee50bf060c01b61293d565b61098f67a8cf46a670d916b060c01b61293d565b6109a367415590abf35f6c1660c01b61293d565b6109b76720dc0852a289c78660c01b61293d565b6109cb67587e37be3e2a8a9f60c01b61293d565b6109df675f071e8a3096ee0560c01b61293d565b6000600360008781526020019081526020016000209050610a0a67a4f4e0f2571abc7c60c01b61293d565b60028160060160006101000a81548160ff02191690836003811115610a3257610a31612b4c565b5b0217905550610a4b67fef194e3b5a36af260c01b61293d565b610a5f67c7d0a25614147d7a60c01b61293d565b60008160010160009054906101000a900473ffffffffffffffffffffffffffffffffffffffff1673ffffffffffffffffffffffffffffffffffffffff168260030154604051610aad90612e50565b60006040518083038185875af1925050503d8060008114610aea576040519150601f19603f3d011682016040523d82523d6000602084013e610aef565b606091505b50509050610b07676ade4ee43526370060c01b61293d565b610b1b67e5572a0ca148689e60c01b61293d565b80610b7a57610b3467d5fffa5233beb7b360c01b61293d565b610b48676954edc2badc589a60c01b61293d565b6040517f4abcf95000000000000000000000000000000000000000000000000000000000815260040160405180910390fd5b610b8e6762149c2c0697814060c01b61293d565b610ba267f65636fa082b6db760c01b61293d565b610bb667ea9568a7c09d234960c01b61293d565b867f6cbb2f5fc1a460905eb3b50b6c769589d8b1a201f03b7f04b1f3ce09c3aee78b60405160405180910390a250505050505050565b610c00670670fa0c97e324c060c01b61293d565b80610c1567a986cefeec85818760c01b61293d565b610c29679468e128eae60b1a60c01b61293d565b610c3d6796010dfaecf65cf660c01b61293d565b600060036000838152602001908152602001600020604051806101000160405290816000820160009054906101000a900473ffffffffffffffffffffffffffffffffffffffff1673ffffffffffffffffffffffffffffffffffffffff1673ffffffffffffffffffffffffffffffffffffffff1681526020016001820160009054906101000a900473ffffffffffffffffffffffffffffffffffffffff1673ffffffffffffffffffffffffffffffffffffffff1673ffffffffffffffffffffffffffffffffffffffff168152602001600282015481526020016003820154815260200160048201548152602001600582015481526020016006820160009054906101000a900460ff166003811115610d5757610d56612b4c565b5b6003811115610d6957610d68612b4c565b5b81526020016007820154815250509050610d8d677a4fa443f0dd646b60c01b61293d565b610da16707ba95f796c8a10260c01b61293d565b60006003811115610db557610db4612b4c565b5b8160c001516003811115610dcc57610dcb612b4c565b5b14158015610e025750600380811115610de857610de7612b4c565b5b8160c001516003811115610dff57610dfe612b4c565b5b14155b15610e6157610e1b67088091dfa12640c660c01b61293d565b610e2f677d44f4b501c4318360c01b61293d565b6040517f8a22693e00000000000000000000000000000000000000000000000000000000815260040160405180910390fd5b610e756721c50106825c897d60c01b61293d565b610e8967a7c7c5dfad30ec6560c01b61293d565b610e9d6787c4f702bfa41c4960c01b61293d565b610eb16702a89420d0376b4f60c01b61293d565b82610ec667ba63a8469acf7ec760c01b61293d565b610eda671b786cbfc5bbddb660c01b61293d565b610eee67d2a7682fbe9b96a560c01b61293d565b600060036000838152602001908152602001600020604051806101000160405290816000820160009054906101000a900473ffffffffffffffffffffffffffffffffffffffff1673ffffffffffffffffffffffffffffffffffffffff1673ffffffffffffffffffffffffffffffffffffffff1681526020016001820160009054906101000a900473ffffffffffffffffffffffffffffffffffffffff1673ffffffffffffffffffffffffffffffffffffffff1673ffffffffffffffffffffffffffffffffffffffff168152602001600282015481526020016003820154815260200160048201548152602001600582015481526020016006820160009054906101000a900460ff16600381111561100857611007612b4c565b5b600381111561101a57611019612b4c565b5b8152602001600782015481525050905061103e671614c4ab1e3c0e7860c01b61293d565b611052675d9eba9467bf36dc60c01b61293d565b60008054906101000a900473ffffffffffffffffffffffffffffffffffffffff1673ffffffffffffffffffffffffffffffffffffffff163373ffffffffffffffffffffffffffffffffffffffff161480156110d557506003808111156110bb576110ba612b4c565b5b8160c0015160038111156110d2576110d1612b4c565b5b14155b15611134576110ee67daa96c08f8cfbaeb60c01b61293d565b61110267d53a0eeba684915c60c01b61293d565b6040517f8ab9b32900000000000000000000000000000000000000000000000000000000815260040160405180910390fd5b61114867713e500cf31766c860c01b61293d565b61115c67982e8deea799826060c01b61293d565b3373ffffffffffffffffffffffffffffffffffffffff16816000015173ffffffffffffffffffffffffffffffffffffffff160361125c576111a7672910437015357dbb60c01b61293d565b6111bb670577ae683f7dab1060c01b61293d565b6111cf67c517ea917b60667060c01b61293d565b62278d008160800151426111e39190612e94565b1015611243576111fd671a195938f297bfe260c01b61293d565b611211674cf94b57c9058e2260c01b61293d565b6040517f586f49f700000000000000000000000000000000000000000000000000000000815260040160405180910390fd5b611257675f537d3611769a9f60c01b61293d565b611471565b611270678e213de2e7c0f3e960c01b61293d565b611284673da8eb50c5965f2460c01b61293d565b3373ffffffffffffffffffffffffffffffffffffffff16816020015173ffffffffffffffffffffffffffffffffffffffff1614158015611310575060008054906101000a900473ffffffffffffffffffffffffffffffffffffffff1673ffffffffffffffffffffffffffffffffffffffff163373ffffffffffffffffffffffffffffffffffffffff1614155b1561136f5761132967ea6c141a9ec09eee60c01b61293d565b61133d671b8d04d6aa36dae760c01b61293d565b6040517f492aab8600000000000000000000000000000000000000000000000000000000815260040160405180910390fd5b611383674f1337c4080ba2bd60c01b61293d565b61139767797479d6d3ab781160c01b61293d565b806020015173ffffffffffffffffffffffffffffffffffffffff163373ffffffffffffffffffffffffffffffffffffffff161480156113fd57506003808111156113e4576113e3612b4c565b5b8160c0015160038111156113fb576113fa612b4c565b5b145b1561145c57611416679967075ce7c0ed2d60c01b61293d565b61142a6710487ba0b33925a960c01b61293d565b6040517f26b095e100000000000000000000000000000000000000000000000000000000815260040160405180910390fd5b611470671416ec0410b1a7d460c01b61293d565b5b61148567081048211811fab560c01b61293d565b61149967ef0c336e0486155860c01b61293d565b6114ad6788916614ddb5604a60c01b61293d565b6114c16756289fca248217c160c01b61293d565b6114d56774a52728903ebc6860c01b61293d565b6000600360008781526020019081526020016000209050611500677bd10de6a7cabf1e60c01b61293d565b60018160060160006101000a81548160ff0219169083600381111561152857611527612b4c565b5b021790555061154167eca099b30beed68b60c01b61293d565b611555676b42d809763e0cb560c01b61293d565b60008160000160009054906101000a900473ffffffffffffffffffffffffffffffffffffffff1673ffffffffffffffffffffffffffffffffffffffff1682600301546040516115a390612e50565b60006040518083038185875af1925050503d80600081146115e0576040519150601f19603f3d011682016040523d82523d6000602084013e6115e5565b606091505b505090506115fd6772f4c21739eedc9f60c01b61293d565b611611676b52d77bcc5684f160c01b61293d565b806116705761162a67a0cd571f8e1d9e0a60c01b61293d565b61163e6715211b0b91d88cb460c01b61293d565b6040517f4abcf95000000000000000000000000000000000000000000000000000000000815260040160405180910390fd5b61168467befc3620270ff0f260c01b61293d565b611698673be2368da88b39f960c01b61293d565b6116ac671d10082a2ac305ca60c01b61293d565b867fd7c4eded732389526228283d2661ca619ed8096fffca8c0f0c3a6e2a7f4c449d60405160405180910390a250505050505050565b60006116f867067f3ff20160c53a60c01b61293d565b61170c676d8adabdabb8e40860c01b61293d565b611720674b677f51e981752d60c01b61293d565b61173467cc76fcbb1316d35360c01b61293d565b7f000000000000000000000000000000000000000000000000000000000000000073ffffffffffffffffffffffffffffffffffffffff163373ffffffffffffffffffffffffffffffffffffffff16146117e15761179b67298044c1cac2b2c360c01b61293d565b6117af67480d1a4a154abaec60c01b61293d565b6040517fab24dd7c00000000000000000000000000000000000000000000000000000000815260040160405180910390fd5b6117f567fa91eaed2c59f76e60c01b61293d565b611809678682a9107a6fd2c160c01b61293d565b61181d67f02905bc239efdd760c01b61293d565b6118316783bb511f2f4f471b60c01b61293d565b611845673c515e0c4f04e20860c01b61293d565b61185967458b5498b635041460c01b61293d565b60006040518061010001604052808873ffffffffffffffffffffffffffffffffffffffff1681526020018773ffffffffffffffffffffffffffffffffffffffff168152602001868152602001348152602001428152602001858152602001600060038111156118cb576118ca612b4c565b5b81526020018481525090506118ea67d053eb58535e341b60c01b61293d565b6118fe678ef53031548ea11260c01b61293d565b600160008773ffffffffffffffffffffffffffffffffffffffff1673ffffffffffffffffffffffffffffffffffffffff16815260200190815260200160002081908060018154018082558091505060019003906000526020600020906008020160009091909190915060008201518160000160006101000a81548173ffffffffffffffffffffffffffffffffffffffff021916908373ffffffffffffffffffffffffffffffffffffffff16021790555060208201518160010160006101000a81548173ffffffffffffffffffffffffffffffffffffffff021916908373ffffffffffffffffffffffffffffffffffffffff16021790555060408201518160020155606082015181600301556080820151816004015560a0820151816005015560c08201518160060160006101000a81548160ff02191690836003811115611a4857611a47612b4c565b5b021790555060e082015181600701555050611a6d67f64da947f2a6055560c01b61293d565b611a81674b43e0ebd8b8ed4960c01b61293d565b600260008873ffffffffffffffffffffffffffffffffffffffff1673ffffffffffffffffffffffffffffffffffffffff16815260200190815260200160002081908060018154018082558091505060019003906000526020600020906008020160009091909190915060008201518160000160006101000a81548173ffffffffffffffffffffffffffffffffffffffff021916908373ffffffffffffffffffffffffffffffffffffffff16021790555060208201518160010160006101000a81548173ffffffffffffffffffffffffffffffffffffffff021916908373ffffffffffffffffffffffffffffffffffffffff16021790555060408201518160020155606082015181600301556080820151816004015560a0820151816005015560c08201518160060160006101000a81548160ff02191690836003811115611bcb57611bca612b4c565b5b021790555060e082015181600701555050611bf067cd72c06404fb756860c01b61293d565b806003600086815260200190815260200160002060008201518160000160006101000a81548173ffffffffffffffffffffffffffffffffffffffff021916908373ffffffffffffffffffffffffffffffffffffffff16021790555060208201518160010160006101000a81548173ffffffffffffffffffffffffffffffffffffffff021916908373ffffffffffffffffffffffffffffffffffffffff16021790555060408201518160020155606082015181600301556080820151816004015560a0820151816005015560c08201518160060160006101000a81548160ff02191690836003811115611ce557611ce4612b4c565b5b021790555060e08201518160070155905050611d0b670eb3ca56f604eef860c01b61293d565b611d1f673326a407adac532560c01b61293d565b8060a0015191505095945050505050565b611d38612940565b611d4c67178b41e7b125903a60c01b61293d565b611d6067e9aa0b4e1574286860c01b61293d565b611d7467b7b337024c635da460c01b61293d565b600073ffffffffffffffffffffffffffffffffffffffff166003600084815260200190815260200160002060000160009054906101000a900473ffffffffffffffffffffffffffffffffffffffff1673ffffffffffffffffffffffffffffffffffffffff1603611e3857611df267062efda05f81889060c01b61293d565b611e0667628dffc3fab2ddf460c01b61293d565b6040517f56421a5700000000000000000000000000000000000000000000000000000000815260040160405180910390fd5b611e4c67f9165bffd114af6b60c01b61293d565b611e6067782cfc5a013337c960c01b61293d565b611e7467c1839b46b22f3b6360c01b61293d565b60036000838152602001908152602001600020604051806101000160405290816000820160009054906101000a900473ffffffffffffffffffffffffffffffffffffffff1673ffffffffffffffffffffffffffffffffffffffff1673ffffffffffffffffffffffffffffffffffffffff1681526020016001820160009054906101000a900473ffffffffffffffffffffffffffffffffffffffff1673ffffffffffffffffffffffffffffffffffffffff1673ffffffffffffffffffffffffffffffffffffffff168152602001600282015481526020016003820154815260200160048201548152602001600582015481526020016006820160009054906101000a900460ff166003811115611f8c57611f8b612b4c565b5b6003811115611f9e57611f9d612b4c565b5b81526020016007820154815250509050919050565b6060611fc9675630e77e0f7a210d60c01b61293d565b611fdd67548eaf65cf62560260c01b61293d565b611ff1671b8b13407c0938ae60c01b61293d565b6000600260003373ffffffffffffffffffffffffffffffffffffffff1673ffffffffffffffffffffffffffffffffffffffff168152602001908152602001600020805480602002602001604051908101604052809291908181526020016000905b8282101561219e5783829060005260206000209060080201604051806101000160405290816000820160009054906101000a900473ffffffffffffffffffffffffffffffffffffffff1673ffffffffffffffffffffffffffffffffffffffff1673ffffffffffffffffffffffffffffffffffffffff1681526020016001820160009054906101000a900473ffffffffffffffffffffffffffffffffffffffff1673ffffffffffffffffffffffffffffffffffffffff1673ffffffffffffffffffffffffffffffffffffffff168152602001600282015481526020016003820154815260200160048201548152602001600582015481526020016006820160009054906101000a900460ff16600381111561216f5761216e612b4c565b5b600381111561218157612180612b4c565b5b815260200160078201548152505081526020019060010190612052565b5050505090506121b86794793333fe2f079d60c01b61293d565b6121cc67772e1bf2ba854aef60c01b61293d565b8091505090565b60006121e9677d7411a39e1149c360c01b61293d565b6121fd67cf0552636919536060c01b61293d565b61221167f4df7bac6551b71f60c01b61293d565b60008054906101000a900473ffffffffffffffffffffffffffffffffffffffff16905090565b600061224d6768c626dcdd1cee0460c01b61293d565b6122616708dbabe6e49b837860c01b61293d565b612275678d2ffa62da82f61360c01b61293d565b7f0000000000000000000000000000000000000000000000000000000000000000905090565b6122af67b6521838e3348bb060c01b61293d565b806122c46758c8fea77f50a14160c01b61293d565b6122d867fcddb68f9c9cc26d60c01b61293d565b6122ec67ef3f468eca27f67e60c01b61293d565b600060036000838152602001908152602001600020604051806101000160405290816000820160009054906101000a900473ffffffffffffffffffffffffffffffffffffffff1673ffffffffffffffffffffffffffffffffffffffff1673ffffffffffffffffffffffffffffffffffffffff1681526020016001820160009054906101000a900473ffffffffffffffffffffffffffffffffffffffff1673ffffffffffffffffffffffffffffffffffffffff1673ffffffffffffffffffffffffffffffffffffffff168152602001600282015481526020016003820154815260200160048201548152602001600582015481526020016006820160009054906101000a900460ff16600381111561240657612405612b4c565b5b600381111561241857612417612b4c565b5b8152602001600782015481525050905061243c67f145d9f0b5b9eea060c01b61293d565b612450677fc0f059cbb7702260c01b61293d565b806000015173ffffffffffffffffffffffffffffffffffffffff163373ffffffffffffffffffffffffffffffffffffffff16141580156124c05750806020015173ffffffffffffffffffffffffffffffffffffffff163373ffffffffffffffffffffffffffffffffffffffff1614155b1561251f576124d967746f2bdd3eb0fd9c60c01b61293d565b6124ed67c88b3f2a7594271d60c01b61293d565b6040517f96b88c5100000000000000000000000000000000000000000000000000000000815260040160405180910390fd5b6125336747d00b45b5d7c4b060c01b61293d565b6125476783bf8d88684d9e8c60c01b61293d565b61255b67780ada794685c76e60c01b61293d565b61256f6710c326611e268a9160c01b61293d565b61258367265199fb51b21ef360c01b61293d565b61259767803583427c68b03560c01b61293d565b60006003600085815260200190815260200160002090506125c26755a5679af814216860c01b61293d565b6125d667670a39492e2fbec560c01b61293d565b600060038111156125ea576125e9612b4c565b5b8160060160009054906101000a900460ff16600381111561260e5761260d612b4c565b5b1461266d57612627678d4872af48d7af1760c01b61293d565b61263b67f321c11113ce73b260c01b61293d565b6040517ff609f42000000000000000000000000000000000000000000000000000000000815260040160405180910390fd5b61268167eaf59ce00d33cf9e60c01b61293d565b61269567289df4c4ff94ac8a60c01b61293d565b60038160060160006101000a81548160ff021916908360038111156126bd576126bc612b4c565b5b02179055506126d6674ac76f16116646b260c01b61293d565b6126ea674ea2110c63157fda60c01b61293d565b837f912a1e013de32e96d992fc6c81600eb5480705bfabb226c0b69811abf2b3abac60405160405180910390a250505050565b60606127336705e1e19b581157e460c01b61293d565b612747679707f403254cde5a60c01b61293d565b61275b67ceb693f2332168bd60c01b61293d565b6000600160003373ffffffffffffffffffffffffffffffffffffffff1673ffffffffffffffffffffffffffffffffffffffff168152602001908152602001600020805480602002602001604051908101604052809291908181526020016000905b828210156129085783829060005260206000209060080201604051806101000160405290816000820160009054906101000a900473ffffffffffffffffffffffffffffffffffffffff1673ffffffffffffffffffffffffffffffffffffffff1673ffffffffffffffffffffffffffffffffffffffff1681526020016001820160009054906101000a900473ffffffffffffffffffffffffffffffffffffffff1673ffffffffffffffffffffffffffffffffffffffff1673ffffffffffffffffffffffffffffffffffffffff168152602001600282015481526020016003820154815260200160048201548152602001600582015481526020016006820160009054906101000a900460ff1660038111156128d9576128d8612b4c565b5b60038111156128eb576128ea612b4c565b5b8152602001600782015481525050815260200190600101906127bc565b5050505090506129226721dfbe3fccf4c45160c01b61293d565b61293667c4f5d0024044adca60c01b61293d565b8091505090565b50565b604051806101000160405280600073ffffffffffffffffffffffffffffffffffffffff168152602001600073ffffffffffffffffffffffffffffffffffffffff16815260200160008152602001600081526020016000815260200160008152602001600060038111156129b6576129b5612b4c565b5b8152602001600081525090565b600080fd5b6000819050919050565b6129db816129c8565b81146129e657600080fd5b50565b6000813590506129f8816129d2565b92915050565b600060208284031215612a1457612a136129c3565b5b6000612a22848285016129e9565b91505092915050565b600073ffffffffffffffffffffffffffffffffffffffff82169050919050565b6000612a5682612a2b565b9050919050565b612a6681612a4b565b8114612a7157600080fd5b50565b600081359050612a8381612a5d565b92915050565b600080600080600060a08688031215612aa557612aa46129c3565b5b6000612ab388828901612a74565b9550506020612ac488828901612a74565b9450506040612ad5888289016129e9565b9350506060612ae6888289016129e9565b9250506080612af7888289016129e9565b9150509295509295909350565b612b0d816129c8565b82525050565b6000602082019050612b286000830184612b04565b92915050565b612b3781612a4b565b82525050565b612b46816129c8565b82525050565b7f4e487b7100000000000000000000000000000000000000000000000000000000600052602160045260246000fd5b60048110612b8c57612b8b612b4c565b5b50565b6000819050612b9d82612b7b565b919050565b6000612bad82612b8f565b9050919050565b612bbd81612ba2565b82525050565b61010082016000820151612bda6000850182612b2e565b506020820151612bed6020850182612b2e565b506040820151612c006040850182612b3d565b506060820151612c136060850182612b3d565b506080820151612c266080850182612b3d565b5060a0820151612c3960a0850182612b3d565b5060c0820151612c4c60c0850182612bb4565b5060e0820151612c5f60e0850182612b3d565b50505050565b600061010082019050612c7b6000830184612bc3565b92915050565b600081519050919050565b600082825260208201905092915050565b6000819050602082019050919050565b61010082016000820151612cc46000850182612b2e565b506020820151612cd76020850182612b2e565b506040820151612cea6040850182612b3d565b506060820151612cfd6060850182612b3d565b506080820151612d106080850182612b3d565b5060a0820151612d2360a0850182612b3d565b5060c0820151612d3660c0850182612bb4565b5060e0820151612d4960e0850182612b3d565b50505050565b6000612d5b8383612cad565b6101008301905092915050565b6000602082019050919050565b6000612d8082612c81565b612d8a8185612c8c565b9350612d9583612c9d565b8060005b83811015612dc6578151612dad8882612d4f565b9750612db883612d68565b925050600181019050612d99565b5085935050505092915050565b60006020820190508181036000830152612ded8184612d75565b905092915050565b612dfe81612a4b565b82525050565b6000602082019050612e196000830184612df5565b92915050565b600081905092915050565b50565b6000612e3a600083612e1f565b9150612e4582612e2a565b600082019050919050565b6000612e5b82612e2d565b9150819050919050565b7f4e487b7100000000000000000000000000000000000000000000000000000000600052601160045260246000fd5b6000612e9f826129c8565b9150612eaa836129c8565b9250828203905081811115612ec257612ec1612e65565b5b9291505056fea2646970667358221220f10bdd9182d6bcd0dcbb2fa5a3f9f27df11967f9d26290d74106a33ec941241564736f6c63430008130033","opcodes":"PUSH1 0xA0 PUSH1 0x40 MSTORE CALLVALUE DUP1 ISZERO PUSH3 0x11 JUMPI PUSH1 0x0 DUP1 REVERT JUMPDEST POP PUSH1 0x40 MLOAD PUSH3 0x30DC CODESIZE SUB DUP1 PUSH3 0x30DC DUP4 CODECOPY DUP2 DUP2 ADD PUSH1 0x40 MSTORE DUP2 ADD SWAP1 PUSH3 0x37 SWAP2 SWAP1 PUSH3 0x174 JUMP JUMPDEST PUSH3 0x53 PUSH8 0x1D41A94BA5554DCB PUSH1 0xC0 SHL PUSH3 0x107 PUSH1 0x20 SHL PUSH1 0x20 SHR JUMP JUMPDEST PUSH3 0x6F PUSH8 0x6024235BEFCA135F PUSH1 0xC0 SHL PUSH3 0x107 PUSH1 0x20 SHL PUSH1 0x20 SHR JUMP JUMPDEST DUP1 PUSH1 0x0 DUP1 PUSH2 0x100 EXP DUP2 SLOAD DUP2 PUSH20 0xFFFFFFFFFFFFFFFFFFFFFFFFFFFFFFFFFFFFFFFF MUL NOT AND SWAP1 DUP4 PUSH20 0xFFFFFFFFFFFFFFFFFFFFFFFFFFFFFFFFFFFFFFFF AND MUL OR SWAP1 SSTORE POP PUSH3 0xCB PUSH8 0xA13A725DB37137B3 PUSH1 0xC0 SHL PUSH3 0x107 PUSH1 0x20 SHL PUSH1 0x20 SHR JUMP JUMPDEST DUP2 PUSH20 0xFFFFFFFFFFFFFFFFFFFFFFFFFFFFFFFFFFFFFFFF AND PUSH1 0x80 DUP2 PUSH20 0xFFFFFFFFFFFFFFFFFFFFFFFFFFFFFFFFFFFFFFFF AND DUP2 MSTORE POP POP POP POP PUSH3 0x1BB JUMP JUMPDEST POP JUMP JUMPDEST PUSH1 0x0 DUP1 REVERT JUMPDEST PUSH1 0x0 PUSH20 0xFFFFFFFFFFFFFFFFFFFFFFFFFFFFFFFFFFFFFFFF DUP3 AND SWAP1 POP SWAP2 SWAP1 POP JUMP JUMPDEST PUSH1 0x0 PUSH3 0x13C DUP3 PUSH3 0x10F JUMP JUMPDEST SWAP1 POP SWAP2 SWAP1 POP JUMP JUMPDEST PUSH3 0x14E DUP2 PUSH3 0x12F JUMP JUMPDEST DUP2 EQ PUSH3 0x15A JUMPI PUSH1 0x0 DUP1 REVERT JUMPDEST POP JUMP JUMPDEST PUSH1 0x0 DUP2 MLOAD SWAP1 POP PUSH3 0x16E DUP2 PUSH3 0x143 JUMP JUMPDEST SWAP3 SWAP2 POP POP JUMP JUMPDEST PUSH1 0x0 DUP1 PUSH1 0x40 DUP4 DUP6 SUB SLT ISZERO PUSH3 0x18E JUMPI PUSH3 0x18D PUSH3 0x10A JUMP JUMPDEST JUMPDEST PUSH1 0x0 PUSH3 0x19E DUP6 DUP3 DUP7 ADD PUSH3 0x15D JUMP JUMPDEST SWAP3 POP POP PUSH1 0x20 PUSH3 0x1B1 DUP6 DUP3 DUP7 ADD PUSH3 0x15D JUMP JUMPDEST SWAP2 POP POP SWAP3 POP SWAP3 SWAP1 POP JUMP JUMPDEST PUSH1 0x80 MLOAD PUSH2 0x2EFE PUSH3 0x1DE PUSH1 0x0 CODECOPY PUSH1 0x0 DUP2 DUP2 PUSH2 0x1736 ADD MSTORE PUSH2 0x2277 ADD MSTORE PUSH2 0x2EFE PUSH1 0x0 RETURN INVALID PUSH1 0x80 PUSH1 0x40 MSTORE PUSH1 0x4 CALLDATASIZE LT PUSH2 0x86 JUMPI PUSH1 0x0 CALLDATALOAD PUSH1 0xE0 SHR DUP1 PUSH4 0x700DB752 GT PUSH2 0x59 JUMPI DUP1 PUSH4 0x700DB752 EQ PUSH2 0x14A JUMPI DUP1 PUSH4 0x893D20E8 EQ PUSH2 0x175 JUMPI DUP1 PUSH4 0xBB8FE785 EQ PUSH2 0x1A0 JUMPI DUP1 PUSH4 0xC0CFA7E5 EQ PUSH2 0x1CB JUMPI DUP1 PUSH4 0xC819998B EQ PUSH2 0x1F4 JUMPI PUSH2 0x86 JUMP JUMPDEST DUP1 PUSH4 0x278ECDE1 EQ PUSH2 0x8B JUMPI DUP1 PUSH4 0x37BDC99B EQ PUSH2 0xB4 JUMPI DUP1 PUSH4 0x3BF3110F EQ PUSH2 0xDD JUMPI DUP1 PUSH4 0x42B50A7A EQ PUSH2 0x10D JUMPI JUMPDEST PUSH1 0x0 DUP1 REVERT JUMPDEST CALLVALUE DUP1 ISZERO PUSH2 0x97 JUMPI PUSH1 0x0 DUP1 REVERT JUMPDEST POP PUSH2 0xB2 PUSH1 0x4 DUP1 CALLDATASIZE SUB DUP2 ADD SWAP1 PUSH2 0xAD SWAP2 SWAP1 PUSH2 0x29FE JUMP JUMPDEST PUSH2 0x21F JUMP JUMPDEST STOP JUMPDEST CALLVALUE DUP1 ISZERO PUSH2 0xC0 JUMPI PUSH1 0x0 DUP1 REVERT JUMPDEST POP PUSH2 0xDB PUSH1 0x4 DUP1 CALLDATASIZE SUB DUP2 ADD SWAP1 PUSH2 0xD6 SWAP2 SWAP1 PUSH2 0x29FE JUMP JUMPDEST PUSH2 0xBEC JUMP JUMPDEST STOP JUMPDEST PUSH2 0xF7 PUSH1 0x4 DUP1 CALLDATASIZE SUB DUP2 ADD SWAP1 PUSH2 0xF2 SWAP2 SWAP1 PUSH2 0x2A89 JUMP JUMPDEST PUSH2 0x16E2 JUMP JUMPDEST PUSH1 0x40 MLOAD PUSH2 0x104 SWAP2 SWAP1 PUSH2 0x2B13 JUMP JUMPDEST PUSH1 0x40 MLOAD DUP1 SWAP2 SUB SWAP1 RETURN JUMPDEST CALLVALUE DUP1 ISZERO PUSH2 0x119 JUMPI PUSH1 0x0 DUP1 REVERT JUMPDEST POP PUSH2 0x134 PUSH1 0x4 DUP1 CALLDATASIZE SUB DUP2 ADD SWAP1 PUSH2 0x12F SWAP2 SWAP1 PUSH2 0x29FE JUMP JUMPDEST PUSH2 0x1D30 JUMP JUMPDEST PUSH1 0x40 MLOAD PUSH2 0x141 SWAP2 SWAP1 PUSH2 0x2C65 JUMP JUMPDEST PUSH1 0x40 MLOAD DUP1 SWAP2 SUB SWAP1 RETURN JUMPDEST CALLVALUE DUP1 ISZERO PUSH2 0x156 JUMPI PUSH1 0x0 DUP1 REVERT JUMPDEST POP PUSH2 0x15F PUSH2 0x1FB3 JUMP JUMPDEST PUSH1 0x40 MLOAD PUSH2 0x16C SWAP2 SWAP1 PUSH2 0x2DD3 JUMP JUMPDEST PUSH1 0x40 MLOAD DUP1 SWAP2 SUB SWAP1 RETURN JUMPDEST CALLVALUE DUP1 ISZERO PUSH2 0x181 JUMPI PUSH1 0x0 DUP1 REVERT JUMPDEST POP PUSH2 0x18A PUSH2 0x21D3 JUMP JUMPDEST PUSH1 0x40 MLOAD PUSH2 0x197 SWAP2 SWAP1 PUSH2 0x2E04 JUMP JUMPDEST PUSH1 0x40 MLOAD DUP1 SWAP2 SUB SWAP1 RETURN JUMPDEST CALLVALUE DUP1 ISZERO PUSH2 0x1AC JUMPI PUSH1 0x0 DUP1 REVERT JUMPDEST POP PUSH2 0x1B5 PUSH2 0x2237 JUMP JUMPDEST PUSH1 0x40 MLOAD PUSH2 0x1C2 SWAP2 SWAP1 PUSH2 0x2E04 JUMP JUMPDEST PUSH1 0x40 MLOAD DUP1 SWAP2 SUB SWAP1 RETURN JUMPDEST CALLVALUE DUP1 ISZERO PUSH2 0x1D7 JUMPI PUSH1 0x0 DUP1 REVERT JUMPDEST POP PUSH2 0x1F2 PUSH1 0x4 DUP1 CALLDATASIZE SUB DUP2 ADD SWAP1 PUSH2 0x1ED SWAP2 SWAP1 PUSH2 0x29FE JUMP JUMPDEST PUSH2 0x229B JUMP JUMPDEST STOP JUMPDEST CALLVALUE DUP1 ISZERO PUSH2 0x200 JUMPI PUSH1 0x0 DUP1 REVERT JUMPDEST POP PUSH2 0x209 PUSH2 0x271D JUMP JUMPDEST PUSH1 0x40 MLOAD PUSH2 0x216 SWAP2 SWAP1 PUSH2 0x2DD3 JUMP JUMPDEST PUSH1 0x40 MLOAD DUP1 SWAP2 SUB SWAP1 RETURN JUMPDEST PUSH2 0x233 PUSH8 0x8ADF54609F03C12D PUSH1 0xC0 SHL PUSH2 0x293D JUMP JUMPDEST DUP1 PUSH2 0x248 PUSH8 0xA986CEFEEC858187 PUSH1 0xC0 SHL PUSH2 0x293D JUMP JUMPDEST PUSH2 0x25C PUSH8 0x9468E128EAE60B1A PUSH1 0xC0 SHL PUSH2 0x293D JUMP JUMPDEST PUSH2 0x270 PUSH8 0x96010DFAECF65CF6 PUSH1 0xC0 SHL PUSH2 0x293D JUMP JUMPDEST PUSH1 0x0 PUSH1 0x3 PUSH1 0x0 DUP4 DUP2 MSTORE PUSH1 0x20 ADD SWAP1 DUP2 MSTORE PUSH1 0x20 ADD PUSH1 0x0 KECCAK256 PUSH1 0x40 MLOAD DUP1 PUSH2 0x100 ADD PUSH1 0x40 MSTORE SWAP1 DUP2 PUSH1 0x0 DUP3 ADD PUSH1 0x0 SWAP1 SLOAD SWAP1 PUSH2 0x100 EXP SWAP1 DIV PUSH20 0xFFFFFFFFFFFFFFFFFFFFFFFFFFFFFFFFFFFFFFFF AND PUSH20 0xFFFFFFFFFFFFFFFFFFFFFFFFFFFFFFFFFFFFFFFF AND PUSH20 0xFFFFFFFFFFFFFFFFFFFFFFFFFFFFFFFFFFFFFFFF AND DUP2 MSTORE PUSH1 0x20 ADD PUSH1 0x1 DUP3 ADD PUSH1 0x0 SWAP1 SLOAD SWAP1 PUSH2 0x100 EXP SWAP1 DIV PUSH20 0xFFFFFFFFFFFFFFFFFFFFFFFFFFFFFFFFFFFFFFFF AND PUSH20 0xFFFFFFFFFFFFFFFFFFFFFFFFFFFFFFFFFFFFFFFF AND PUSH20 0xFFFFFFFFFFFFFFFFFFFFFFFFFFFFFFFFFFFFFFFF AND DUP2 MSTORE PUSH1 0x20 ADD PUSH1 0x2 DUP3 ADD SLOAD DUP2 MSTORE PUSH1 0x20 ADD PUSH1 0x3 DUP3 ADD SLOAD DUP2 MSTORE PUSH1 0x20 ADD PUSH1 0x4 DUP3 ADD SLOAD DUP2 MSTORE PUSH1 0x20 ADD PUSH1 0x5 DUP3 ADD SLOAD DUP2 MSTORE PUSH1 0x20 ADD PUSH1 0x6 DUP3 ADD PUSH1 0x0 SWAP1 SLOAD SWAP1 PUSH2 0x100 EXP SWAP1 DIV PUSH1 0xFF AND PUSH1 0x3 DUP2 GT ISZERO PUSH2 0x38A JUMPI PUSH2 0x389 PUSH2 0x2B4C JUMP JUMPDEST JUMPDEST PUSH1 0x3 DUP2 GT ISZERO PUSH2 0x39C JUMPI PUSH2 0x39B PUSH2 0x2B4C JUMP JUMPDEST JUMPDEST DUP2 MSTORE PUSH1 0x20 ADD PUSH1 0x7 DUP3 ADD SLOAD DUP2 MSTORE POP POP SWAP1 POP PUSH2 0x3C0 PUSH8 0x7A4FA443F0DD646B PUSH1 0xC0 SHL PUSH2 0x293D JUMP JUMPDEST PUSH2 0x3D4 PUSH8 0x7BA95F796C8A102 PUSH1 0xC0 SHL PUSH2 0x293D JUMP JUMPDEST PUSH1 0x0 PUSH1 0x3 DUP2 GT ISZERO PUSH2 0x3E8 JUMPI PUSH2 0x3E7 PUSH2 0x2B4C JUMP JUMPDEST JUMPDEST DUP2 PUSH1 0xC0 ADD MLOAD PUSH1 0x3 DUP2 GT ISZERO PUSH2 0x3FF JUMPI PUSH2 0x3FE PUSH2 0x2B4C JUMP JUMPDEST JUMPDEST EQ ISZERO DUP1 ISZERO PUSH2 0x435 JUMPI POP PUSH1 0x3 DUP1 DUP2 GT ISZERO PUSH2 0x41B JUMPI PUSH2 0x41A PUSH2 0x2B4C JUMP JUMPDEST JUMPDEST DUP2 PUSH1 0xC0 ADD MLOAD PUSH1 0x3 DUP2 GT ISZERO PUSH2 0x432 JUMPI PUSH2 0x431 PUSH2 0x2B4C JUMP JUMPDEST JUMPDEST EQ ISZERO JUMPDEST ISZERO PUSH2 0x494 JUMPI PUSH2 0x44E PUSH8 0x88091DFA12640C6 PUSH1 0xC0 SHL PUSH2 0x293D JUMP JUMPDEST PUSH2 0x462 PUSH8 0x7D44F4B501C43183 PUSH1 0xC0 SHL PUSH2 0x293D JUMP JUMPDEST PUSH1 0x40 MLOAD PUSH32 0x8A22693E00000000000000000000000000000000000000000000000000000000 DUP2 MSTORE PUSH1 0x4 ADD PUSH1 0x40 MLOAD DUP1 SWAP2 SUB SWAP1 REVERT JUMPDEST PUSH2 0x4A8 PUSH8 0x21C50106825C897D PUSH1 0xC0 SHL PUSH2 0x293D JUMP JUMPDEST PUSH2 0x4BC PUSH8 0xA7C7C5DFAD30EC65 PUSH1 0xC0 SHL PUSH2 0x293D JUMP JUMPDEST PUSH2 0x4D0 PUSH8 0xDFDA96AF9380697A PUSH1 0xC0 SHL PUSH2 0x293D JUMP JUMPDEST PUSH2 0x4E4 PUSH8 0x2EACBBAF4BD10381 PUSH1 0xC0 SHL PUSH2 0x293D JUMP JUMPDEST DUP3 PUSH2 0x4F9 PUSH8 0x527EB98E367F366C PUSH1 0xC0 SHL PUSH2 0x293D JUMP JUMPDEST PUSH2 0x50D PUSH8 0x9810E0B363800030 PUSH1 0xC0 SHL PUSH2 0x293D JUMP JUMPDEST PUSH2 0x521 PUSH8 0x10C170A31D2120C PUSH1 0xC0 SHL PUSH2 0x293D JUMP JUMPDEST PUSH1 0x0 PUSH1 0x3 PUSH1 0x0 DUP4 DUP2 MSTORE PUSH1 0x20 ADD SWAP1 DUP2 MSTORE PUSH1 0x20 ADD PUSH1 0x0 KECCAK256 PUSH1 0x40 MLOAD DUP1 PUSH2 0x100 ADD PUSH1 0x40 MSTORE SWAP1 DUP2 PUSH1 0x0 DUP3 ADD PUSH1 0x0 SWAP1 SLOAD SWAP1 PUSH2 0x100 EXP SWAP1 DIV PUSH20 0xFFFFFFFFFFFFFFFFFFFFFFFFFFFFFFFFFFFFFFFF AND PUSH20 0xFFFFFFFFFFFFFFFFFFFFFFFFFFFFFFFFFFFFFFFF AND PUSH20 0xFFFFFFFFFFFFFFFFFFFFFFFFFFFFFFFFFFFFFFFF AND DUP2 MSTORE PUSH1 0x20 ADD PUSH1 0x1 DUP3 ADD PUSH1 0x0 SWAP1 SLOAD SWAP1 PUSH2 0x100 EXP SWAP1 DIV PUSH20 0xFFFFFFFFFFFFFFFFFFFFFFFFFFFFFFFFFFFFFFFF AND PUSH20 0xFFFFFFFFFFFFFFFFFFFFFFFFFFFFFFFFFFFFFFFF AND PUSH20 0xFFFFFFFFFFFFFFFFFFFFFFFFFFFFFFFFFFFFFFFF AND DUP2 MSTORE PUSH1 0x20 ADD PUSH1 0x2 DUP3 ADD SLOAD DUP2 MSTORE PUSH1 0x20 ADD PUSH1 0x3 DUP3 ADD SLOAD DUP2 MSTORE PUSH1 0x20 ADD PUSH1 0x4 DUP3 ADD SLOAD DUP2 MSTORE PUSH1 0x20 ADD PUSH1 0x5 DUP3 ADD SLOAD DUP2 MSTORE PUSH1 0x20 ADD PUSH1 0x6 DUP3 ADD PUSH1 0x0 SWAP1 SLOAD SWAP1 PUSH2 0x100 EXP SWAP1 DIV PUSH1 0xFF AND PUSH1 0x3 DUP2 GT ISZERO PUSH2 0x63B JUMPI PUSH2 0x63A PUSH2 0x2B4C JUMP JUMPDEST JUMPDEST PUSH1 0x3 DUP2 GT ISZERO PUSH2 0x64D JUMPI PUSH2 0x64C PUSH2 0x2B4C JUMP JUMPDEST JUMPDEST DUP2 MSTORE PUSH1 0x20 ADD PUSH1 0x7 DUP3 ADD SLOAD DUP2 MSTORE POP POP SWAP1 POP PUSH2 0x671 PUSH8 0x45D3B41A49D7AE02 PUSH1 0xC0 SHL PUSH2 0x293D JUMP JUMPDEST PUSH2 0x685 PUSH8 0x7DD3F87B173F7FD6 PUSH1 0xC0 SHL PUSH2 0x293D JUMP JUMPDEST PUSH1 0x0 DUP1 SLOAD SWAP1 PUSH2 0x100 EXP SWAP1 DIV PUSH20 0xFFFFFFFFFFFFFFFFFFFFFFFFFFFFFFFFFFFFFFFF AND PUSH20 0xFFFFFFFFFFFFFFFFFFFFFFFFFFFFFFFFFFFFFFFF AND CALLER PUSH20 0xFFFFFFFFFFFFFFFFFFFFFFFFFFFFFFFFFFFFFFFF AND EQ DUP1 ISZERO PUSH2 0x708 JUMPI POP PUSH1 0x3 DUP1 DUP2 GT ISZERO PUSH2 0x6EE JUMPI PUSH2 0x6ED PUSH2 0x2B4C JUMP JUMPDEST JUMPDEST DUP2 PUSH1 0xC0 ADD MLOAD PUSH1 0x3 DUP2 GT ISZERO PUSH2 0x705 JUMPI PUSH2 0x704 PUSH2 0x2B4C JUMP JUMPDEST JUMPDEST EQ ISZERO JUMPDEST ISZERO PUSH2 0x767 JUMPI PUSH2 0x721 PUSH8 0x539A28D4BBB2F8BB PUSH1 0xC0 SHL PUSH2 0x293D JUMP JUMPDEST PUSH2 0x735 PUSH8 0x964E40EE2CDEB523 PUSH1 0xC0 SHL PUSH2 0x293D JUMP JUMPDEST PUSH1 0x40 MLOAD PUSH32 0x8AB9B32900000000000000000000000000000000000000000000000000000000 DUP2 MSTORE PUSH1 0x4 ADD PUSH1 0x40 MLOAD DUP1 SWAP2 SUB SWAP1 REVERT JUMPDEST PUSH2 0x77B PUSH8 0x85176212632737A6 PUSH1 0xC0 SHL PUSH2 0x293D JUMP JUMPDEST PUSH2 0x78F PUSH8 0x4C7003B2A7016287 PUSH1 0xC0 SHL PUSH2 0x293D JUMP JUMPDEST CALLER PUSH20 0xFFFFFFFFFFFFFFFFFFFFFFFFFFFFFFFFFFFFFFFF AND DUP2 PUSH1 0x0 ADD MLOAD PUSH20 0xFFFFFFFFFFFFFFFFFFFFFFFFFFFFFFFFFFFFFFFF AND EQ ISZERO DUP1 ISZERO PUSH2 0x81B JUMPI POP PUSH1 0x0 DUP1 SLOAD SWAP1 PUSH2 0x100 EXP SWAP1 DIV PUSH20 0xFFFFFFFFFFFFFFFFFFFFFFFFFFFFFFFFFFFFFFFF AND PUSH20 0xFFFFFFFFFFFFFFFFFFFFFFFFFFFFFFFFFFFFFFFF AND CALLER PUSH20 0xFFFFFFFFFFFFFFFFFFFFFFFFFFFFFFFFFFFFFFFF AND EQ ISZERO JUMPDEST ISZERO PUSH2 0x87A JUMPI PUSH2 0x834 PUSH8 0xB8512D8A4A233CD4 PUSH1 0xC0 SHL PUSH2 0x293D JUMP JUMPDEST PUSH2 0x848 PUSH8 0x22912976BD784849 PUSH1 0xC0 SHL PUSH2 0x293D JUMP JUMPDEST PUSH1 0x40 MLOAD PUSH32 0x76DF155600000000000000000000000000000000000000000000000000000000 DUP2 MSTORE PUSH1 0x4 ADD PUSH1 0x40 MLOAD DUP1 SWAP2 SUB SWAP1 REVERT JUMPDEST PUSH2 0x88E PUSH8 0x1738F3F3759D663D PUSH1 0xC0 SHL PUSH2 0x293D JUMP JUMPDEST PUSH2 0x8A2 PUSH8 0x8E687D28D1F0071D PUSH1 0xC0 SHL PUSH2 0x293D JUMP JUMPDEST DUP1 PUSH1 0x0 ADD MLOAD PUSH20 0xFFFFFFFFFFFFFFFFFFFFFFFFFFFFFFFFFFFFFFFF AND CALLER PUSH20 0xFFFFFFFFFFFFFFFFFFFFFFFFFFFFFFFFFFFFFFFF AND EQ DUP1 ISZERO PUSH2 0x908 JUMPI POP PUSH1 0x3 DUP1 DUP2 GT ISZERO PUSH2 0x8EF JUMPI PUSH2 0x8EE PUSH2 0x2B4C JUMP JUMPDEST JUMPDEST DUP2 PUSH1 0xC0 ADD MLOAD PUSH1 0x3 DUP2 GT ISZERO PUSH2 0x906 JUMPI PUSH2 0x905 PUSH2 0x2B4C JUMP JUMPDEST JUMPDEST EQ JUMPDEST ISZERO PUSH2 0x967 JUMPI PUSH2 0x921 PUSH8 0xDFA79C7729E9CCC9 PUSH1 0xC0 SHL PUSH2 0x293D JUMP JUMPDEST PUSH2 0x935 PUSH8 0x29062CC8DC023741 PUSH1 0xC0 SHL PUSH2 0x293D JUMP JUMPDEST PUSH1 0x40 MLOAD PUSH32 0x26B095E100000000000000000000000000000000000000000000000000000000 DUP2 MSTORE PUSH1 0x4 ADD PUSH1 0x40 MLOAD DUP1 SWAP2 SUB SWAP1 REVERT JUMPDEST PUSH2 0x97B PUSH8 0x4BF8D5847EE50BF0 PUSH1 0xC0 SHL PUSH2 0x293D JUMP JUMPDEST PUSH2 0x98F PUSH8 0xA8CF46A670D916B0 PUSH1 0xC0 SHL PUSH2 0x293D JUMP JUMPDEST PUSH2 0x9A3 PUSH8 0x415590ABF35F6C16 PUSH1 0xC0 SHL PUSH2 0x293D JUMP JUMPDEST PUSH2 0x9B7 PUSH8 0x20DC0852A289C786 PUSH1 0xC0 SHL PUSH2 0x293D JUMP JUMPDEST PUSH2 0x9CB PUSH8 0x587E37BE3E2A8A9F PUSH1 0xC0 SHL PUSH2 0x293D JUMP JUMPDEST PUSH2 0x9DF PUSH8 0x5F071E8A3096EE05 PUSH1 0xC0 SHL PUSH2 0x293D JUMP JUMPDEST PUSH1 0x0 PUSH1 0x3 PUSH1 0x0 DUP8 DUP2 MSTORE PUSH1 0x20 ADD SWAP1 DUP2 MSTORE PUSH1 0x20 ADD PUSH1 0x0 KECCAK256 SWAP1 POP PUSH2 0xA0A PUSH8 0xA4F4E0F2571ABC7C PUSH1 0xC0 SHL PUSH2 0x293D JUMP JUMPDEST PUSH1 0x2 DUP2 PUSH1 0x6 ADD PUSH1 0x0 PUSH2 0x100 EXP DUP2 SLOAD DUP2 PUSH1 0xFF MUL NOT AND SWAP1 DUP4 PUSH1 0x3 DUP2 GT ISZERO PUSH2 0xA32 JUMPI PUSH2 0xA31 PUSH2 0x2B4C JUMP JUMPDEST JUMPDEST MUL OR SWAP1 SSTORE POP PUSH2 0xA4B PUSH8 0xFEF194E3B5A36AF2 PUSH1 0xC0 SHL PUSH2 0x293D JUMP JUMPDEST PUSH2 0xA5F PUSH8 0xC7D0A25614147D7A PUSH1 0xC0 SHL PUSH2 0x293D JUMP JUMPDEST PUSH1 0x0 DUP2 PUSH1 0x1 ADD PUSH1 0x0 SWAP1 SLOAD SWAP1 PUSH2 0x100 EXP SWAP1 DIV PUSH20 0xFFFFFFFFFFFFFFFFFFFFFFFFFFFFFFFFFFFFFFFF AND PUSH20 0xFFFFFFFFFFFFFFFFFFFFFFFFFFFFFFFFFFFFFFFF AND DUP3 PUSH1 0x3 ADD SLOAD PUSH1 0x40 MLOAD PUSH2 0xAAD SWAP1 PUSH2 0x2E50 JUMP JUMPDEST PUSH1 0x0 PUSH1 0x40 MLOAD DUP1 DUP4 SUB DUP2 DUP6 DUP8 GAS CALL SWAP3 POP POP POP RETURNDATASIZE DUP1 PUSH1 0x0 DUP2 EQ PUSH2 0xAEA JUMPI PUSH1 0x40 MLOAD SWAP2 POP PUSH1 0x1F NOT PUSH1 0x3F RETURNDATASIZE ADD AND DUP3 ADD PUSH1 0x40 MSTORE RETURNDATASIZE DUP3 MSTORE RETURNDATASIZE PUSH1 0x0 PUSH1 0x20 DUP5 ADD RETURNDATACOPY PUSH2 0xAEF JUMP JUMPDEST PUSH1 0x60 SWAP2 POP JUMPDEST POP POP SWAP1 POP PUSH2 0xB07 PUSH8 0x6ADE4EE435263700 PUSH1 0xC0 SHL PUSH2 0x293D JUMP JUMPDEST PUSH2 0xB1B PUSH8 0xE5572A0CA148689E PUSH1 0xC0 SHL PUSH2 0x293D JUMP JUMPDEST DUP1 PUSH2 0xB7A JUMPI PUSH2 0xB34 PUSH8 0xD5FFFA5233BEB7B3 PUSH1 0xC0 SHL PUSH2 0x293D JUMP JUMPDEST PUSH2 0xB48 PUSH8 0x6954EDC2BADC589A PUSH1 0xC0 SHL PUSH2 0x293D JUMP JUMPDEST PUSH1 0x40 MLOAD PUSH32 0x4ABCF95000000000000000000000000000000000000000000000000000000000 DUP2 MSTORE PUSH1 0x4 ADD PUSH1 0x40 MLOAD DUP1 SWAP2 SUB SWAP1 REVERT JUMPDEST PUSH2 0xB8E PUSH8 0x62149C2C06978140 PUSH1 0xC0 SHL PUSH2 0x293D JUMP JUMPDEST PUSH2 0xBA2 PUSH8 0xF65636FA082B6DB7 PUSH1 0xC0 SHL PUSH2 0x293D JUMP JUMPDEST PUSH2 0xBB6 PUSH8 0xEA9568A7C09D2349 PUSH1 0xC0 SHL PUSH2 0x293D JUMP JUMPDEST DUP7 PUSH32 0x6CBB2F5FC1A460905EB3B50B6C769589D8B1A201F03B7F04B1F3CE09C3AEE78B PUSH1 0x40 MLOAD PUSH1 0x40 MLOAD DUP1 SWAP2 SUB SWAP1 LOG2 POP POP POP POP POP POP POP JUMP JUMPDEST PUSH2 0xC00 PUSH8 0x670FA0C97E324C0 PUSH1 0xC0 SHL PUSH2 0x293D JUMP JUMPDEST DUP1 PUSH2 0xC15 PUSH8 0xA986CEFEEC858187 PUSH1 0xC0 SHL PUSH2 0x293D JUMP JUMPDEST PUSH2 0xC29 PUSH8 0x9468E128EAE60B1A PUSH1 0xC0 SHL PUSH2 0x293D JUMP JUMPDEST PUSH2 0xC3D PUSH8 0x96010DFAECF65CF6 PUSH1 0xC0 SHL PUSH2 0x293D JUMP JUMPDEST PUSH1 0x0 PUSH1 0x3 PUSH1 0x0 DUP4 DUP2 MSTORE PUSH1 0x20 ADD SWAP1 DUP2 MSTORE PUSH1 0x20 ADD PUSH1 0x0 KECCAK256 PUSH1 0x40 MLOAD DUP1 PUSH2 0x100 ADD PUSH1 0x40 MSTORE SWAP1 DUP2 PUSH1 0x0 DUP3 ADD PUSH1 0x0 SWAP1 SLOAD SWAP1 PUSH2 0x100 EXP SWAP1 DIV PUSH20 0xFFFFFFFFFFFFFFFFFFFFFFFFFFFFFFFFFFFFFFFF AND PUSH20 0xFFFFFFFFFFFFFFFFFFFFFFFFFFFFFFFFFFFFFFFF AND PUSH20 0xFFFFFFFFFFFFFFFFFFFFFFFFFFFFFFFFFFFFFFFF AND DUP2 MSTORE PUSH1 0x20 ADD PUSH1 0x1 DUP3 ADD PUSH1 0x0 SWAP1 SLOAD SWAP1 PUSH2 0x100 EXP SWAP1 DIV PUSH20 0xFFFFFFFFFFFFFFFFFFFFFFFFFFFFFFFFFFFFFFFF AND PUSH20 0xFFFFFFFFFFFFFFFFFFFFFFFFFFFFFFFFFFFFFFFF AND PUSH20 0xFFFFFFFFFFFFFFFFFFFFFFFFFFFFFFFFFFFFFFFF AND DUP2 MSTORE PUSH1 0x20 ADD PUSH1 0x2 DUP3 ADD SLOAD DUP2 MSTORE PUSH1 0x20 ADD PUSH1 0x3 DUP3 ADD SLOAD DUP2 MSTORE PUSH1 0x20 ADD PUSH1 0x4 DUP3 ADD SLOAD DUP2 MSTORE PUSH1 0x20 ADD PUSH1 0x5 DUP3 ADD SLOAD DUP2 MSTORE PUSH1 0x20 ADD PUSH1 0x6 DUP3 ADD PUSH1 0x0 SWAP1 SLOAD SWAP1 PUSH2 0x100 EXP SWAP1 DIV PUSH1 0xFF AND PUSH1 0x3 DUP2 GT ISZERO PUSH2 0xD57 JUMPI PUSH2 0xD56 PUSH2 0x2B4C JUMP JUMPDEST JUMPDEST PUSH1 0x3 DUP2 GT ISZERO PUSH2 0xD69 JUMPI PUSH2 0xD68 PUSH2 0x2B4C JUMP JUMPDEST JUMPDEST DUP2 MSTORE PUSH1 0x20 ADD PUSH1 0x7 DUP3 ADD SLOAD DUP2 MSTORE POP POP SWAP1 POP PUSH2 0xD8D PUSH8 0x7A4FA443F0DD646B PUSH1 0xC0 SHL PUSH2 0x293D JUMP JUMPDEST PUSH2 0xDA1 PUSH8 0x7BA95F796C8A102 PUSH1 0xC0 SHL PUSH2 0x293D JUMP JUMPDEST PUSH1 0x0 PUSH1 0x3 DUP2 GT ISZERO PUSH2 0xDB5 JUMPI PUSH2 0xDB4 PUSH2 0x2B4C JUMP JUMPDEST JUMPDEST DUP2 PUSH1 0xC0 ADD MLOAD PUSH1 0x3 DUP2 GT ISZERO PUSH2 0xDCC JUMPI PUSH2 0xDCB PUSH2 0x2B4C JUMP JUMPDEST JUMPDEST EQ ISZERO DUP1 ISZERO PUSH2 0xE02 JUMPI POP PUSH1 0x3 DUP1 DUP2 GT ISZERO PUSH2 0xDE8 JUMPI PUSH2 0xDE7 PUSH2 0x2B4C JUMP JUMPDEST JUMPDEST DUP2 PUSH1 0xC0 ADD MLOAD PUSH1 0x3 DUP2 GT ISZERO PUSH2 0xDFF JUMPI PUSH2 0xDFE PUSH2 0x2B4C JUMP JUMPDEST JUMPDEST EQ ISZERO JUMPDEST ISZERO PUSH2 0xE61 JUMPI PUSH2 0xE1B PUSH8 0x88091DFA12640C6 PUSH1 0xC0 SHL PUSH2 0x293D JUMP JUMPDEST PUSH2 0xE2F PUSH8 0x7D44F4B501C43183 PUSH1 0xC0 SHL PUSH2 0x293D JUMP JUMPDEST PUSH1 0x40 MLOAD PUSH32 0x8A22693E00000000000000000000000000000000000000000000000000000000 DUP2 MSTORE PUSH1 0x4 ADD PUSH1 0x40 MLOAD DUP1 SWAP2 SUB SWAP1 REVERT JUMPDEST PUSH2 0xE75 PUSH8 0x21C50106825C897D PUSH1 0xC0 SHL PUSH2 0x293D JUMP JUMPDEST PUSH2 0xE89 PUSH8 0xA7C7C5DFAD30EC65 PUSH1 0xC0 SHL PUSH2 0x293D JUMP JUMPDEST PUSH2 0xE9D PUSH8 0x87C4F702BFA41C49 PUSH1 0xC0 SHL PUSH2 0x293D JUMP JUMPDEST PUSH2 0xEB1 PUSH8 0x2A89420D0376B4F PUSH1 0xC0 SHL PUSH2 0x293D JUMP JUMPDEST DUP3 PUSH2 0xEC6 PUSH8 0xBA63A8469ACF7EC7 PUSH1 0xC0 SHL PUSH2 0x293D JUMP JUMPDEST PUSH2 0xEDA PUSH8 0x1B786CBFC5BBDDB6 PUSH1 0xC0 SHL PUSH2 0x293D JUMP JUMPDEST PUSH2 0xEEE PUSH8 0xD2A7682FBE9B96A5 PUSH1 0xC0 SHL PUSH2 0x293D JUMP JUMPDEST PUSH1 0x0 PUSH1 0x3 PUSH1 0x0 DUP4 DUP2 MSTORE PUSH1 0x20 ADD SWAP1 DUP2 MSTORE PUSH1 0x20 ADD PUSH1 0x0 KECCAK256 PUSH1 0x40 MLOAD DUP1 PUSH2 0x100 ADD PUSH1 0x40 MSTORE SWAP1 DUP2 PUSH1 0x0 DUP3 ADD PUSH1 0x0 SWAP1 SLOAD SWAP1 PUSH2 0x100 EXP SWAP1 DIV PUSH20 0xFFFFFFFFFFFFFFFFFFFFFFFFFFFFFFFFFFFFFFFF AND PUSH20 0xFFFFFFFFFFFFFFFFFFFFFFFFFFFFFFFFFFFFFFFF AND PUSH20 0xFFFFFFFFFFFFFFFFFFFFFFFFFFFFFFFFFFFFFFFF AND DUP2 MSTORE PUSH1 0x20 ADD PUSH1 0x1 DUP3 ADD PUSH1 0x0 SWAP1 SLOAD SWAP1 PUSH2 0x100 EXP SWAP1 DIV PUSH20 0xFFFFFFFFFFFFFFFFFFFFFFFFFFFFFFFFFFFFFFFF AND PUSH20 0xFFFFFFFFFFFFFFFFFFFFFFFFFFFFFFFFFFFFFFFF AND PUSH20 0xFFFFFFFFFFFFFFFFFFFFFFFFFFFFFFFFFFFFFFFF AND DUP2 MSTORE PUSH1 0x20 ADD PUSH1 0x2 DUP3 ADD SLOAD DUP2 MSTORE PUSH1 0x20 ADD PUSH1 0x3 DUP3 ADD SLOAD DUP2 MSTORE PUSH1 0x20 ADD PUSH1 0x4 DUP3 ADD SLOAD DUP2 MSTORE PUSH1 0x20 ADD PUSH1 0x5 DUP3 ADD SLOAD DUP2 MSTORE PUSH1 0x20 ADD PUSH1 0x6 DUP3 ADD PUSH1 0x0 SWAP1 SLOAD SWAP1 PUSH2 0x100 EXP SWAP1 DIV PUSH1 0xFF AND PUSH1 0x3 DUP2 GT ISZERO PUSH2 0x1008 JUMPI PUSH2 0x1007 PUSH2 0x2B4C JUMP JUMPDEST JUMPDEST PUSH1 0x3 DUP2 GT ISZERO PUSH2 0x101A JUMPI PUSH2 0x1019 PUSH2 0x2B4C JUMP JUMPDEST JUMPDEST DUP2 MSTORE PUSH1 0x20 ADD PUSH1 0x7 DUP3 ADD SLOAD DUP2 MSTORE POP POP SWAP1 POP PUSH2 0x103E PUSH8 0x1614C4AB1E3C0E78 PUSH1 0xC0 SHL PUSH2 0x293D JUMP JUMPDEST PUSH2 0x1052 PUSH8 0x5D9EBA9467BF36DC PUSH1 0xC0 SHL PUSH2 0x293D JUMP JUMPDEST PUSH1 0x0 DUP1 SLOAD SWAP1 PUSH2 0x100 EXP SWAP1 DIV PUSH20 0xFFFFFFFFFFFFFFFFFFFFFFFFFFFFFFFFFFFFFFFF AND PUSH20 0xFFFFFFFFFFFFFFFFFFFFFFFFFFFFFFFFFFFFFFFF AND CALLER PUSH20 0xFFFFFFFFFFFFFFFFFFFFFFFFFFFFFFFFFFFFFFFF AND EQ DUP1 ISZERO PUSH2 0x10D5 JUMPI POP PUSH1 0x3 DUP1 DUP2 GT ISZERO PUSH2 0x10BB JUMPI PUSH2 0x10BA PUSH2 0x2B4C JUMP JUMPDEST JUMPDEST DUP2 PUSH1 0xC0 ADD MLOAD PUSH1 0x3 DUP2 GT ISZERO PUSH2 0x10D2 JUMPI PUSH2 0x10D1 PUSH2 0x2B4C JUMP JUMPDEST JUMPDEST EQ ISZERO JUMPDEST ISZERO PUSH2 0x1134 JUMPI PUSH2 0x10EE PUSH8 0xDAA96C08F8CFBAEB PUSH1 0xC0 SHL PUSH2 0x293D JUMP JUMPDEST PUSH2 0x1102 PUSH8 0xD53A0EEBA684915C PUSH1 0xC0 SHL PUSH2 0x293D JUMP JUMPDEST PUSH1 0x40 MLOAD PUSH32 0x8AB9B32900000000000000000000000000000000000000000000000000000000 DUP2 MSTORE PUSH1 0x4 ADD PUSH1 0x40 MLOAD DUP1 SWAP2 SUB SWAP1 REVERT JUMPDEST PUSH2 0x1148 PUSH8 0x713E500CF31766C8 PUSH1 0xC0 SHL PUSH2 0x293D JUMP JUMPDEST PUSH2 0x115C PUSH8 0x982E8DEEA7998260 PUSH1 0xC0 SHL PUSH2 0x293D JUMP JUMPDEST CALLER PUSH20 0xFFFFFFFFFFFFFFFFFFFFFFFFFFFFFFFFFFFFFFFF AND DUP2 PUSH1 0x0 ADD MLOAD PUSH20 0xFFFFFFFFFFFFFFFFFFFFFFFFFFFFFFFFFFFFFFFF AND SUB PUSH2 0x125C JUMPI PUSH2 0x11A7 PUSH8 0x2910437015357DBB PUSH1 0xC0 SHL PUSH2 0x293D JUMP JUMPDEST PUSH2 0x11BB PUSH8 0x577AE683F7DAB10 PUSH1 0xC0 SHL PUSH2 0x293D JUMP JUMPDEST PUSH2 0x11CF PUSH8 0xC517EA917B606670 PUSH1 0xC0 SHL PUSH2 0x293D JUMP JUMPDEST PUSH3 0x278D00 DUP2 PUSH1 0x80 ADD MLOAD TIMESTAMP PUSH2 0x11E3 SWAP2 SWAP1 PUSH2 0x2E94 JUMP JUMPDEST LT ISZERO PUSH2 0x1243 JUMPI PUSH2 0x11FD PUSH8 0x1A195938F297BFE2 PUSH1 0xC0 SHL PUSH2 0x293D JUMP JUMPDEST PUSH2 0x1211 PUSH8 0x4CF94B57C9058E22 PUSH1 0xC0 SHL PUSH2 0x293D JUMP JUMPDEST PUSH1 0x40 MLOAD PUSH32 0x586F49F700000000000000000000000000000000000000000000000000000000 DUP2 MSTORE PUSH1 0x4 ADD PUSH1 0x40 MLOAD DUP1 SWAP2 SUB SWAP1 REVERT JUMPDEST PUSH2 0x1257 PUSH8 0x5F537D3611769A9F PUSH1 0xC0 SHL PUSH2 0x293D JUMP JUMPDEST PUSH2 0x1471 JUMP JUMPDEST PUSH2 0x1270 PUSH8 0x8E213DE2E7C0F3E9 PUSH1 0xC0 SHL PUSH2 0x293D JUMP JUMPDEST PUSH2 0x1284 PUSH8 0x3DA8EB50C5965F24 PUSH1 0xC0 SHL PUSH2 0x293D JUMP JUMPDEST CALLER PUSH20 0xFFFFFFFFFFFFFFFFFFFFFFFFFFFFFFFFFFFFFFFF AND DUP2 PUSH1 0x20 ADD MLOAD PUSH20 0xFFFFFFFFFFFFFFFFFFFFFFFFFFFFFFFFFFFFFFFF AND EQ ISZERO DUP1 ISZERO PUSH2 0x1310 JUMPI POP PUSH1 0x0 DUP1 SLOAD SWAP1 PUSH2 0x100 EXP SWAP1 DIV PUSH20 0xFFFFFFFFFFFFFFFFFFFFFFFFFFFFFFFFFFFFFFFF AND PUSH20 0xFFFFFFFFFFFFFFFFFFFFFFFFFFFFFFFFFFFFFFFF AND CALLER PUSH20 0xFFFFFFFFFFFFFFFFFFFFFFFFFFFFFFFFFFFFFFFF AND EQ ISZERO JUMPDEST ISZERO PUSH2 0x136F JUMPI PUSH2 0x1329 PUSH8 0xEA6C141A9EC09EEE PUSH1 0xC0 SHL PUSH2 0x293D JUMP JUMPDEST PUSH2 0x133D PUSH8 0x1B8D04D6AA36DAE7 PUSH1 0xC0 SHL PUSH2 0x293D JUMP JUMPDEST PUSH1 0x40 MLOAD PUSH32 0x492AAB8600000000000000000000000000000000000000000000000000000000 DUP2 MSTORE PUSH1 0x4 ADD PUSH1 0x40 MLOAD DUP1 SWAP2 SUB SWAP1 REVERT JUMPDEST PUSH2 0x1383 PUSH8 0x4F1337C4080BA2BD PUSH1 0xC0 SHL PUSH2 0x293D JUMP JUMPDEST PUSH2 0x1397 PUSH8 0x797479D6D3AB7811 PUSH1 0xC0 SHL PUSH2 0x293D JUMP JUMPDEST DUP1 PUSH1 0x20 ADD MLOAD PUSH20 0xFFFFFFFFFFFFFFFFFFFFFFFFFFFFFFFFFFFFFFFF AND CALLER PUSH20 0xFFFFFFFFFFFFFFFFFFFFFFFFFFFFFFFFFFFFFFFF AND EQ DUP1 ISZERO PUSH2 0x13FD JUMPI POP PUSH1 0x3 DUP1 DUP2 GT ISZERO PUSH2 0x13E4 JUMPI PUSH2 0x13E3 PUSH2 0x2B4C JUMP JUMPDEST JUMPDEST DUP2 PUSH1 0xC0 ADD MLOAD PUSH1 0x3 DUP2 GT ISZERO PUSH2 0x13FB JUMPI PUSH2 0x13FA PUSH2 0x2B4C JUMP JUMPDEST JUMPDEST EQ JUMPDEST ISZERO PUSH2 0x145C JUMPI PUSH2 0x1416 PUSH8 0x9967075CE7C0ED2D PUSH1 0xC0 SHL PUSH2 0x293D JUMP JUMPDEST PUSH2 0x142A PUSH8 0x10487BA0B33925A9 PUSH1 0xC0 SHL PUSH2 0x293D JUMP JUMPDEST PUSH1 0x40 MLOAD PUSH32 0x26B095E100000000000000000000000000000000000000000000000000000000 DUP2 MSTORE PUSH1 0x4 ADD PUSH1 0x40 MLOAD DUP1 SWAP2 SUB SWAP1 REVERT JUMPDEST PUSH2 0x1470 PUSH8 0x1416EC0410B1A7D4 PUSH1 0xC0 SHL PUSH2 0x293D JUMP JUMPDEST JUMPDEST PUSH2 0x1485 PUSH8 0x81048211811FAB5 PUSH1 0xC0 SHL PUSH2 0x293D JUMP JUMPDEST PUSH2 0x1499 PUSH8 0xEF0C336E04861558 PUSH1 0xC0 SHL PUSH2 0x293D JUMP JUMPDEST PUSH2 0x14AD PUSH8 0x88916614DDB5604A PUSH1 0xC0 SHL PUSH2 0x293D JUMP JUMPDEST PUSH2 0x14C1 PUSH8 0x56289FCA248217C1 PUSH1 0xC0 SHL PUSH2 0x293D JUMP JUMPDEST PUSH2 0x14D5 PUSH8 0x74A52728903EBC68 PUSH1 0xC0 SHL PUSH2 0x293D JUMP JUMPDEST PUSH1 0x0 PUSH1 0x3 PUSH1 0x0 DUP8 DUP2 MSTORE PUSH1 0x20 ADD SWAP1 DUP2 MSTORE PUSH1 0x20 ADD PUSH1 0x0 KECCAK256 SWAP1 POP PUSH2 0x1500 PUSH8 0x7BD10DE6A7CABF1E PUSH1 0xC0 SHL PUSH2 0x293D JUMP JUMPDEST PUSH1 0x1 DUP2 PUSH1 0x6 ADD PUSH1 0x0 PUSH2 0x100 EXP DUP2 SLOAD DUP2 PUSH1 0xFF MUL NOT AND SWAP1 DUP4 PUSH1 0x3 DUP2 GT ISZERO PUSH2 0x1528 JUMPI PUSH2 0x1527 PUSH2 0x2B4C JUMP JUMPDEST JUMPDEST MUL OR SWAP1 SSTORE POP PUSH2 0x1541 PUSH8 0xECA099B30BEED68B PUSH1 0xC0 SHL PUSH2 0x293D JUMP JUMPDEST PUSH2 0x1555 PUSH8 0x6B42D809763E0CB5 PUSH1 0xC0 SHL PUSH2 0x293D JUMP JUMPDEST PUSH1 0x0 DUP2 PUSH1 0x0 ADD PUSH1 0x0 SWAP1 SLOAD SWAP1 PUSH2 0x100 EXP SWAP1 DIV PUSH20 0xFFFFFFFFFFFFFFFFFFFFFFFFFFFFFFFFFFFFFFFF AND PUSH20 0xFFFFFFFFFFFFFFFFFFFFFFFFFFFFFFFFFFFFFFFF AND DUP3 PUSH1 0x3 ADD SLOAD PUSH1 0x40 MLOAD PUSH2 0x15A3 SWAP1 PUSH2 0x2E50 JUMP JUMPDEST PUSH1 0x0 PUSH1 0x40 MLOAD DUP1 DUP4 SUB DUP2 DUP6 DUP8 GAS CALL SWAP3 POP POP POP RETURNDATASIZE DUP1 PUSH1 0x0 DUP2 EQ PUSH2 0x15E0 JUMPI PUSH1 0x40 MLOAD SWAP2 POP PUSH1 0x1F NOT PUSH1 0x3F RETURNDATASIZE ADD AND DUP3 ADD PUSH1 0x40 MSTORE RETURNDATASIZE DUP3 MSTORE RETURNDATASIZE PUSH1 0x0 PUSH1 0x20 DUP5 ADD RETURNDATACOPY PUSH2 0x15E5 JUMP JUMPDEST PUSH1 0x60 SWAP2 POP JUMPDEST POP POP SWAP1 POP PUSH2 0x15FD PUSH8 0x72F4C21739EEDC9F PUSH1 0xC0 SHL PUSH2 0x293D JUMP JUMPDEST PUSH2 0x1611 PUSH8 0x6B52D77BCC5684F1 PUSH1 0xC0 SHL PUSH2 0x293D JUMP JUMPDEST DUP1 PUSH2 0x1670 JUMPI PUSH2 0x162A PUSH8 0xA0CD571F8E1D9E0A PUSH1 0xC0 SHL PUSH2 0x293D JUMP JUMPDEST PUSH2 0x163E PUSH8 0x15211B0B91D88CB4 PUSH1 0xC0 SHL PUSH2 0x293D JUMP JUMPDEST PUSH1 0x40 MLOAD PUSH32 0x4ABCF95000000000000000000000000000000000000000000000000000000000 DUP2 MSTORE PUSH1 0x4 ADD PUSH1 0x40 MLOAD DUP1 SWAP2 SUB SWAP1 REVERT JUMPDEST PUSH2 0x1684 PUSH8 0xBEFC3620270FF0F2 PUSH1 0xC0 SHL PUSH2 0x293D JUMP JUMPDEST PUSH2 0x1698 PUSH8 0x3BE2368DA88B39F9 PUSH1 0xC0 SHL PUSH2 0x293D JUMP JUMPDEST PUSH2 0x16AC PUSH8 0x1D10082A2AC305CA PUSH1 0xC0 SHL PUSH2 0x293D JUMP JUMPDEST DUP7 PUSH32 0xD7C4EDED732389526228283D2661CA619ED8096FFFCA8C0F0C3A6E2A7F4C449D PUSH1 0x40 MLOAD PUSH1 0x40 MLOAD DUP1 SWAP2 SUB SWAP1 LOG2 POP POP POP POP POP POP POP JUMP JUMPDEST PUSH1 0x0 PUSH2 0x16F8 PUSH8 0x67F3FF20160C53A PUSH1 0xC0 SHL PUSH2 0x293D JUMP JUMPDEST PUSH2 0x170C PUSH8 0x6D8ADABDABB8E408 PUSH1 0xC0 SHL PUSH2 0x293D JUMP JUMPDEST PUSH2 0x1720 PUSH8 0x4B677F51E981752D PUSH1 0xC0 SHL PUSH2 0x293D JUMP JUMPDEST PUSH2 0x1734 PUSH8 0xCC76FCBB1316D353 PUSH1 0xC0 SHL PUSH2 0x293D JUMP JUMPDEST PUSH32 0x0 PUSH20 0xFFFFFFFFFFFFFFFFFFFFFFFFFFFFFFFFFFFFFFFF AND CALLER PUSH20 0xFFFFFFFFFFFFFFFFFFFFFFFFFFFFFFFFFFFFFFFF AND EQ PUSH2 0x17E1 JUMPI PUSH2 0x179B PUSH8 0x298044C1CAC2B2C3 PUSH1 0xC0 SHL PUSH2 0x293D JUMP JUMPDEST PUSH2 0x17AF PUSH8 0x480D1A4A154ABAEC PUSH1 0xC0 SHL PUSH2 0x293D JUMP JUMPDEST PUSH1 0x40 MLOAD PUSH32 0xAB24DD7C00000000000000000000000000000000000000000000000000000000 DUP2 MSTORE PUSH1 0x4 ADD PUSH1 0x40 MLOAD DUP1 SWAP2 SUB SWAP1 REVERT JUMPDEST PUSH2 0x17F5 PUSH8 0xFA91EAED2C59F76E PUSH1 0xC0 SHL PUSH2 0x293D JUMP JUMPDEST PUSH2 0x1809 PUSH8 0x8682A9107A6FD2C1 PUSH1 0xC0 SHL PUSH2 0x293D JUMP JUMPDEST PUSH2 0x181D PUSH8 0xF02905BC239EFDD7 PUSH1 0xC0 SHL PUSH2 0x293D JUMP JUMPDEST PUSH2 0x1831 PUSH8 0x83BB511F2F4F471B PUSH1 0xC0 SHL PUSH2 0x293D JUMP JUMPDEST PUSH2 0x1845 PUSH8 0x3C515E0C4F04E208 PUSH1 0xC0 SHL PUSH2 0x293D JUMP JUMPDEST PUSH2 0x1859 PUSH8 0x458B5498B6350414 PUSH1 0xC0 SHL PUSH2 0x293D JUMP JUMPDEST PUSH1 0x0 PUSH1 0x40 MLOAD DUP1 PUSH2 0x100 ADD PUSH1 0x40 MSTORE DUP1 DUP9 PUSH20 0xFFFFFFFFFFFFFFFFFFFFFFFFFFFFFFFFFFFFFFFF AND DUP2 MSTORE PUSH1 0x20 ADD DUP8 PUSH20 0xFFFFFFFFFFFFFFFFFFFFFFFFFFFFFFFFFFFFFFFF AND DUP2 MSTORE PUSH1 0x20 ADD DUP7 DUP2 MSTORE PUSH1 0x20 ADD CALLVALUE DUP2 MSTORE PUSH1 0x20 ADD TIMESTAMP DUP2 MSTORE PUSH1 0x20 ADD DUP6 DUP2 MSTORE PUSH1 0x20 ADD PUSH1 0x0 PUSH1 0x3 DUP2 GT ISZERO PUSH2 0x18CB JUMPI PUSH2 0x18CA PUSH2 0x2B4C JUMP JUMPDEST JUMPDEST DUP2 MSTORE PUSH1 0x20 ADD DUP5 DUP2 MSTORE POP SWAP1 POP PUSH2 0x18EA PUSH8 0xD053EB58535E341B PUSH1 0xC0 SHL PUSH2 0x293D JUMP JUMPDEST PUSH2 0x18FE PUSH8 0x8EF53031548EA112 PUSH1 0xC0 SHL PUSH2 0x293D JUMP JUMPDEST PUSH1 0x1 PUSH1 0x0 DUP8 PUSH20 0xFFFFFFFFFFFFFFFFFFFFFFFFFFFFFFFFFFFFFFFF AND PUSH20 0xFFFFFFFFFFFFFFFFFFFFFFFFFFFFFFFFFFFFFFFF AND DUP2 MSTORE PUSH1 0x20 ADD SWAP1 DUP2 MSTORE PUSH1 0x20 ADD PUSH1 0x0 KECCAK256 DUP2 SWAP1 DUP1 PUSH1 0x1 DUP2 SLOAD ADD DUP1 DUP3 SSTORE DUP1 SWAP2 POP POP PUSH1 0x1 SWAP1 SUB SWAP1 PUSH1 0x0 MSTORE PUSH1 0x20 PUSH1 0x0 KECCAK256 SWAP1 PUSH1 0x8 MUL ADD PUSH1 0x0 SWAP1 SWAP2 SWAP1 SWAP2 SWAP1 SWAP2 POP PUSH1 0x0 DUP3 ADD MLOAD DUP2 PUSH1 0x0 ADD PUSH1 0x0 PUSH2 0x100 EXP DUP2 SLOAD DUP2 PUSH20 0xFFFFFFFFFFFFFFFFFFFFFFFFFFFFFFFFFFFFFFFF MUL NOT AND SWAP1 DUP4 PUSH20 0xFFFFFFFFFFFFFFFFFFFFFFFFFFFFFFFFFFFFFFFF AND MUL OR SWAP1 SSTORE POP PUSH1 0x20 DUP3 ADD MLOAD DUP2 PUSH1 0x1 ADD PUSH1 0x0 PUSH2 0x100 EXP DUP2 SLOAD DUP2 PUSH20 0xFFFFFFFFFFFFFFFFFFFFFFFFFFFFFFFFFFFFFFFF MUL NOT AND SWAP1 DUP4 PUSH20 0xFFFFFFFFFFFFFFFFFFFFFFFFFFFFFFFFFFFFFFFF AND MUL OR SWAP1 SSTORE POP PUSH1 0x40 DUP3 ADD MLOAD DUP2 PUSH1 0x2 ADD SSTORE PUSH1 0x60 DUP3 ADD MLOAD DUP2 PUSH1 0x3 ADD SSTORE PUSH1 0x80 DUP3 ADD MLOAD DUP2 PUSH1 0x4 ADD SSTORE PUSH1 0xA0 DUP3 ADD MLOAD DUP2 PUSH1 0x5 ADD SSTORE PUSH1 0xC0 DUP3 ADD MLOAD DUP2 PUSH1 0x6 ADD PUSH1 0x0 PUSH2 0x100 EXP DUP2 SLOAD DUP2 PUSH1 0xFF MUL NOT AND SWAP1 DUP4 PUSH1 0x3 DUP2 GT ISZERO PUSH2 0x1A48 JUMPI PUSH2 0x1A47 PUSH2 0x2B4C JUMP JUMPDEST JUMPDEST MUL OR SWAP1 SSTORE POP PUSH1 0xE0 DUP3 ADD MLOAD DUP2 PUSH1 0x7 ADD SSTORE POP POP PUSH2 0x1A6D PUSH8 0xF64DA947F2A60555 PUSH1 0xC0 SHL PUSH2 0x293D JUMP JUMPDEST PUSH2 0x1A81 PUSH8 0x4B43E0EBD8B8ED49 PUSH1 0xC0 SHL PUSH2 0x293D JUMP JUMPDEST PUSH1 0x2 PUSH1 0x0 DUP9 PUSH20 0xFFFFFFFFFFFFFFFFFFFFFFFFFFFFFFFFFFFFFFFF AND PUSH20 0xFFFFFFFFFFFFFFFFFFFFFFFFFFFFFFFFFFFFFFFF AND DUP2 MSTORE PUSH1 0x20 ADD SWAP1 DUP2 MSTORE PUSH1 0x20 ADD PUSH1 0x0 KECCAK256 DUP2 SWAP1 DUP1 PUSH1 0x1 DUP2 SLOAD ADD DUP1 DUP3 SSTORE DUP1 SWAP2 POP POP PUSH1 0x1 SWAP1 SUB SWAP1 PUSH1 0x0 MSTORE PUSH1 0x20 PUSH1 0x0 KECCAK256 SWAP1 PUSH1 0x8 MUL ADD PUSH1 0x0 SWAP1 SWAP2 SWAP1 SWAP2 SWAP1 SWAP2 POP PUSH1 0x0 DUP3 ADD MLOAD DUP2 PUSH1 0x0 ADD PUSH1 0x0 PUSH2 0x100 EXP DUP2 SLOAD DUP2 PUSH20 0xFFFFFFFFFFFFFFFFFFFFFFFFFFFFFFFFFFFFFFFF MUL NOT AND SWAP1 DUP4 PUSH20 0xFFFFFFFFFFFFFFFFFFFFFFFFFFFFFFFFFFFFFFFF AND MUL OR SWAP1 SSTORE POP PUSH1 0x20 DUP3 ADD MLOAD DUP2 PUSH1 0x1 ADD PUSH1 0x0 PUSH2 0x100 EXP DUP2 SLOAD DUP2 PUSH20 0xFFFFFFFFFFFFFFFFFFFFFFFFFFFFFFFFFFFFFFFF MUL NOT AND SWAP1 DUP4 PUSH20 0xFFFFFFFFFFFFFFFFFFFFFFFFFFFFFFFFFFFFFFFF AND MUL OR SWAP1 SSTORE POP PUSH1 0x40 DUP3 ADD MLOAD DUP2 PUSH1 0x2 ADD SSTORE PUSH1 0x60 DUP3 ADD MLOAD DUP2 PUSH1 0x3 ADD SSTORE PUSH1 0x80 DUP3 ADD MLOAD DUP2 PUSH1 0x4 ADD SSTORE PUSH1 0xA0 DUP3 ADD MLOAD DUP2 PUSH1 0x5 ADD SSTORE PUSH1 0xC0 DUP3 ADD MLOAD DUP2 PUSH1 0x6 ADD PUSH1 0x0 PUSH2 0x100 EXP DUP2 SLOAD DUP2 PUSH1 0xFF MUL NOT AND SWAP1 DUP4 PUSH1 0x3 DUP2 GT ISZERO PUSH2 0x1BCB JUMPI PUSH2 0x1BCA PUSH2 0x2B4C JUMP JUMPDEST JUMPDEST MUL OR SWAP1 SSTORE POP PUSH1 0xE0 DUP3 ADD MLOAD DUP2 PUSH1 0x7 ADD SSTORE POP POP PUSH2 0x1BF0 PUSH8 0xCD72C06404FB7568 PUSH1 0xC0 SHL PUSH2 0x293D JUMP JUMPDEST DUP1 PUSH1 0x3 PUSH1 0x0 DUP7 DUP2 MSTORE PUSH1 0x20 ADD SWAP1 DUP2 MSTORE PUSH1 0x20 ADD PUSH1 0x0 KECCAK256 PUSH1 0x0 DUP3 ADD MLOAD DUP2 PUSH1 0x0 ADD PUSH1 0x0 PUSH2 0x100 EXP DUP2 SLOAD DUP2 PUSH20 0xFFFFFFFFFFFFFFFFFFFFFFFFFFFFFFFFFFFFFFFF MUL NOT AND SWAP1 DUP4 PUSH20 0xFFFFFFFFFFFFFFFFFFFFFFFFFFFFFFFFFFFFFFFF AND MUL OR SWAP1 SSTORE POP PUSH1 0x20 DUP3 ADD MLOAD DUP2 PUSH1 0x1 ADD PUSH1 0x0 PUSH2 0x100 EXP DUP2 SLOAD DUP2 PUSH20 0xFFFFFFFFFFFFFFFFFFFFFFFFFFFFFFFFFFFFFFFF MUL NOT AND SWAP1 DUP4 PUSH20 0xFFFFFFFFFFFFFFFFFFFFFFFFFFFFFFFFFFFFFFFF AND MUL OR SWAP1 SSTORE POP PUSH1 0x40 DUP3 ADD MLOAD DUP2 PUSH1 0x2 ADD SSTORE PUSH1 0x60 DUP3 ADD MLOAD DUP2 PUSH1 0x3 ADD SSTORE PUSH1 0x80 DUP3 ADD MLOAD DUP2 PUSH1 0x4 ADD SSTORE PUSH1 0xA0 DUP3 ADD MLOAD DUP2 PUSH1 0x5 ADD SSTORE PUSH1 0xC0 DUP3 ADD MLOAD DUP2 PUSH1 0x6 ADD PUSH1 0x0 PUSH2 0x100 EXP DUP2 SLOAD DUP2 PUSH1 0xFF MUL NOT AND SWAP1 DUP4 PUSH1 0x3 DUP2 GT ISZERO PUSH2 0x1CE5 JUMPI PUSH2 0x1CE4 PUSH2 0x2B4C JUMP JUMPDEST JUMPDEST MUL OR SWAP1 SSTORE POP PUSH1 0xE0 DUP3 ADD MLOAD DUP2 PUSH1 0x7 ADD SSTORE SWAP1 POP POP PUSH2 0x1D0B PUSH8 0xEB3CA56F604EEF8 PUSH1 0xC0 SHL PUSH2 0x293D JUMP JUMPDEST PUSH2 0x1D1F PUSH8 0x3326A407ADAC5325 PUSH1 0xC0 SHL PUSH2 0x293D JUMP JUMPDEST DUP1 PUSH1 0xA0 ADD MLOAD SWAP2 POP POP SWAP6 SWAP5 POP POP POP POP POP JUMP JUMPDEST PUSH2 0x1D38 PUSH2 0x2940 JUMP JUMPDEST PUSH2 0x1D4C PUSH8 0x178B41E7B125903A PUSH1 0xC0 SHL PUSH2 0x293D JUMP JUMPDEST PUSH2 0x1D60 PUSH8 0xE9AA0B4E15742868 PUSH1 0xC0 SHL PUSH2 0x293D JUMP JUMPDEST PUSH2 0x1D74 PUSH8 0xB7B337024C635DA4 PUSH1 0xC0 SHL PUSH2 0x293D JUMP JUMPDEST PUSH1 0x0 PUSH20 0xFFFFFFFFFFFFFFFFFFFFFFFFFFFFFFFFFFFFFFFF AND PUSH1 0x3 PUSH1 0x0 DUP5 DUP2 MSTORE PUSH1 0x20 ADD SWAP1 DUP2 MSTORE PUSH1 0x20 ADD PUSH1 0x0 KECCAK256 PUSH1 0x0 ADD PUSH1 0x0 SWAP1 SLOAD SWAP1 PUSH2 0x100 EXP SWAP1 DIV PUSH20 0xFFFFFFFFFFFFFFFFFFFFFFFFFFFFFFFFFFFFFFFF AND PUSH20 0xFFFFFFFFFFFFFFFFFFFFFFFFFFFFFFFFFFFFFFFF AND SUB PUSH2 0x1E38 JUMPI PUSH2 0x1DF2 PUSH8 0x62EFDA05F818890 PUSH1 0xC0 SHL PUSH2 0x293D JUMP JUMPDEST PUSH2 0x1E06 PUSH8 0x628DFFC3FAB2DDF4 PUSH1 0xC0 SHL PUSH2 0x293D JUMP JUMPDEST PUSH1 0x40 MLOAD PUSH32 0x56421A5700000000000000000000000000000000000000000000000000000000 DUP2 MSTORE PUSH1 0x4 ADD PUSH1 0x40 MLOAD DUP1 SWAP2 SUB SWAP1 REVERT JUMPDEST PUSH2 0x1E4C PUSH8 0xF9165BFFD114AF6B PUSH1 0xC0 SHL PUSH2 0x293D JUMP JUMPDEST PUSH2 0x1E60 PUSH8 0x782CFC5A013337C9 PUSH1 0xC0 SHL PUSH2 0x293D JUMP JUMPDEST PUSH2 0x1E74 PUSH8 0xC1839B46B22F3B63 PUSH1 0xC0 SHL PUSH2 0x293D JUMP JUMPDEST PUSH1 0x3 PUSH1 0x0 DUP4 DUP2 MSTORE PUSH1 0x20 ADD SWAP1 DUP2 MSTORE PUSH1 0x20 ADD PUSH1 0x0 KECCAK256 PUSH1 0x40 MLOAD DUP1 PUSH2 0x100 ADD PUSH1 0x40 MSTORE SWAP1 DUP2 PUSH1 0x0 DUP3 ADD PUSH1 0x0 SWAP1 SLOAD SWAP1 PUSH2 0x100 EXP SWAP1 DIV PUSH20 0xFFFFFFFFFFFFFFFFFFFFFFFFFFFFFFFFFFFFFFFF AND PUSH20 0xFFFFFFFFFFFFFFFFFFFFFFFFFFFFFFFFFFFFFFFF AND PUSH20 0xFFFFFFFFFFFFFFFFFFFFFFFFFFFFFFFFFFFFFFFF AND DUP2 MSTORE PUSH1 0x20 ADD PUSH1 0x1 DUP3 ADD PUSH1 0x0 SWAP1 SLOAD SWAP1 PUSH2 0x100 EXP SWAP1 DIV PUSH20 0xFFFFFFFFFFFFFFFFFFFFFFFFFFFFFFFFFFFFFFFF AND PUSH20 0xFFFFFFFFFFFFFFFFFFFFFFFFFFFFFFFFFFFFFFFF AND PUSH20 0xFFFFFFFFFFFFFFFFFFFFFFFFFFFFFFFFFFFFFFFF AND DUP2 MSTORE PUSH1 0x20 ADD PUSH1 0x2 DUP3 ADD SLOAD DUP2 MSTORE PUSH1 0x20 ADD PUSH1 0x3 DUP3 ADD SLOAD DUP2 MSTORE PUSH1 0x20 ADD PUSH1 0x4 DUP3 ADD SLOAD DUP2 MSTORE PUSH1 0x20 ADD PUSH1 0x5 DUP3 ADD SLOAD DUP2 MSTORE PUSH1 0x20 ADD PUSH1 0x6 DUP3 ADD PUSH1 0x0 SWAP1 SLOAD SWAP1 PUSH2 0x100 EXP SWAP1 DIV PUSH1 0xFF AND PUSH1 0x3 DUP2 GT ISZERO PUSH2 0x1F8C JUMPI PUSH2 0x1F8B PUSH2 0x2B4C JUMP JUMPDEST JUMPDEST PUSH1 0x3 DUP2 GT ISZERO PUSH2 0x1F9E JUMPI PUSH2 0x1F9D PUSH2 0x2B4C JUMP JUMPDEST JUMPDEST DUP2 MSTORE PUSH1 0x20 ADD PUSH1 0x7 DUP3 ADD SLOAD DUP2 MSTORE POP POP SWAP1 POP SWAP2 SWAP1 POP JUMP JUMPDEST PUSH1 0x60 PUSH2 0x1FC9 PUSH8 0x5630E77E0F7A210D PUSH1 0xC0 SHL PUSH2 0x293D JUMP JUMPDEST PUSH2 0x1FDD PUSH8 0x548EAF65CF625602 PUSH1 0xC0 SHL PUSH2 0x293D JUMP JUMPDEST PUSH2 0x1FF1 PUSH8 0x1B8B13407C0938AE PUSH1 0xC0 SHL PUSH2 0x293D JUMP JUMPDEST PUSH1 0x0 PUSH1 0x2 PUSH1 0x0 CALLER PUSH20 0xFFFFFFFFFFFFFFFFFFFFFFFFFFFFFFFFFFFFFFFF AND PUSH20 0xFFFFFFFFFFFFFFFFFFFFFFFFFFFFFFFFFFFFFFFF AND DUP2 MSTORE PUSH1 0x20 ADD SWAP1 DUP2 MSTORE PUSH1 0x20 ADD PUSH1 0x0 KECCAK256 DUP1 SLOAD DUP1 PUSH1 0x20 MUL PUSH1 0x20 ADD PUSH1 0x40 MLOAD SWAP1 DUP2 ADD PUSH1 0x40 MSTORE DUP1 SWAP3 SWAP2 SWAP1 DUP2 DUP2 MSTORE PUSH1 0x20 ADD PUSH1 0x0 SWAP1 JUMPDEST DUP3 DUP3 LT ISZERO PUSH2 0x219E JUMPI DUP4 DUP3 SWAP1 PUSH1 0x0 MSTORE PUSH1 0x20 PUSH1 0x0 KECCAK256 SWAP1 PUSH1 0x8 MUL ADD PUSH1 0x40 MLOAD DUP1 PUSH2 0x100 ADD PUSH1 0x40 MSTORE SWAP1 DUP2 PUSH1 0x0 DUP3 ADD PUSH1 0x0 SWAP1 SLOAD SWAP1 PUSH2 0x100 EXP SWAP1 DIV PUSH20 0xFFFFFFFFFFFFFFFFFFFFFFFFFFFFFFFFFFFFFFFF AND PUSH20 0xFFFFFFFFFFFFFFFFFFFFFFFFFFFFFFFFFFFFFFFF AND PUSH20 0xFFFFFFFFFFFFFFFFFFFFFFFFFFFFFFFFFFFFFFFF AND DUP2 MSTORE PUSH1 0x20 ADD PUSH1 0x1 DUP3 ADD PUSH1 0x0 SWAP1 SLOAD SWAP1 PUSH2 0x100 EXP SWAP1 DIV PUSH20 0xFFFFFFFFFFFFFFFFFFFFFFFFFFFFFFFFFFFFFFFF AND PUSH20 0xFFFFFFFFFFFFFFFFFFFFFFFFFFFFFFFFFFFFFFFF AND PUSH20 0xFFFFFFFFFFFFFFFFFFFFFFFFFFFFFFFFFFFFFFFF AND DUP2 MSTORE PUSH1 0x20 ADD PUSH1 0x2 DUP3 ADD SLOAD DUP2 MSTORE PUSH1 0x20 ADD PUSH1 0x3 DUP3 ADD SLOAD DUP2 MSTORE PUSH1 0x20 ADD PUSH1 0x4 DUP3 ADD SLOAD DUP2 MSTORE PUSH1 0x20 ADD PUSH1 0x5 DUP3 ADD SLOAD DUP2 MSTORE PUSH1 0x20 ADD PUSH1 0x6 DUP3 ADD PUSH1 0x0 SWAP1 SLOAD SWAP1 PUSH2 0x100 EXP SWAP1 DIV PUSH1 0xFF AND PUSH1 0x3 DUP2 GT ISZERO PUSH2 0x216F JUMPI PUSH2 0x216E PUSH2 0x2B4C JUMP JUMPDEST JUMPDEST PUSH1 0x3 DUP2 GT ISZERO PUSH2 0x2181 JUMPI PUSH2 0x2180 PUSH2 0x2B4C JUMP JUMPDEST JUMPDEST DUP2 MSTORE PUSH1 0x20 ADD PUSH1 0x7 DUP3 ADD SLOAD DUP2 MSTORE POP POP DUP2 MSTORE PUSH1 0x20 ADD SWAP1 PUSH1 0x1 ADD SWAP1 PUSH2 0x2052 JUMP JUMPDEST POP POP POP POP SWAP1 POP PUSH2 0x21B8 PUSH8 0x94793333FE2F079D PUSH1 0xC0 SHL PUSH2 0x293D JUMP JUMPDEST PUSH2 0x21CC PUSH8 0x772E1BF2BA854AEF PUSH1 0xC0 SHL PUSH2 0x293D JUMP JUMPDEST DUP1 SWAP2 POP POP SWAP1 JUMP JUMPDEST PUSH1 0x0 PUSH2 0x21E9 PUSH8 0x7D7411A39E1149C3 PUSH1 0xC0 SHL PUSH2 0x293D JUMP JUMPDEST PUSH2 0x21FD PUSH8 0xCF05526369195360 PUSH1 0xC0 SHL PUSH2 0x293D JUMP JUMPDEST PUSH2 0x2211 PUSH8 0xF4DF7BAC6551B71F PUSH1 0xC0 SHL PUSH2 0x293D JUMP JUMPDEST PUSH1 0x0 DUP1 SLOAD SWAP1 PUSH2 0x100 EXP SWAP1 DIV PUSH20 0xFFFFFFFFFFFFFFFFFFFFFFFFFFFFFFFFFFFFFFFF AND SWAP1 POP SWAP1 JUMP JUMPDEST PUSH1 0x0 PUSH2 0x224D PUSH8 0x68C626DCDD1CEE04 PUSH1 0xC0 SHL PUSH2 0x293D JUMP JUMPDEST PUSH2 0x2261 PUSH8 0x8DBABE6E49B8378 PUSH1 0xC0 SHL PUSH2 0x293D JUMP JUMPDEST PUSH2 0x2275 PUSH8 0x8D2FFA62DA82F613 PUSH1 0xC0 SHL PUSH2 0x293D JUMP JUMPDEST PUSH32 0x0 SWAP1 POP SWAP1 JUMP JUMPDEST PUSH2 0x22AF PUSH8 0xB6521838E3348BB0 PUSH1 0xC0 SHL PUSH2 0x293D JUMP JUMPDEST DUP1 PUSH2 0x22C4 PUSH8 0x58C8FEA77F50A141 PUSH1 0xC0 SHL PUSH2 0x293D JUMP JUMPDEST PUSH2 0x22D8 PUSH8 0xFCDDB68F9C9CC26D PUSH1 0xC0 SHL PUSH2 0x293D JUMP JUMPDEST PUSH2 0x22EC PUSH8 0xEF3F468ECA27F67E PUSH1 0xC0 SHL PUSH2 0x293D JUMP JUMPDEST PUSH1 0x0 PUSH1 0x3 PUSH1 0x0 DUP4 DUP2 MSTORE PUSH1 0x20 ADD SWAP1 DUP2 MSTORE PUSH1 0x20 ADD PUSH1 0x0 KECCAK256 PUSH1 0x40 MLOAD DUP1 PUSH2 0x100 ADD PUSH1 0x40 MSTORE SWAP1 DUP2 PUSH1 0x0 DUP3 ADD PUSH1 0x0 SWAP1 SLOAD SWAP1 PUSH2 0x100 EXP SWAP1 DIV PUSH20 0xFFFFFFFFFFFFFFFFFFFFFFFFFFFFFFFFFFFFFFFF AND PUSH20 0xFFFFFFFFFFFFFFFFFFFFFFFFFFFFFFFFFFFFFFFF AND PUSH20 0xFFFFFFFFFFFFFFFFFFFFFFFFFFFFFFFFFFFFFFFF AND DUP2 MSTORE PUSH1 0x20 ADD PUSH1 0x1 DUP3 ADD PUSH1 0x0 SWAP1 SLOAD SWAP1 PUSH2 0x100 EXP SWAP1 DIV PUSH20 0xFFFFFFFFFFFFFFFFFFFFFFFFFFFFFFFFFFFFFFFF AND PUSH20 0xFFFFFFFFFFFFFFFFFFFFFFFFFFFFFFFFFFFFFFFF AND PUSH20 0xFFFFFFFFFFFFFFFFFFFFFFFFFFFFFFFFFFFFFFFF AND DUP2 MSTORE PUSH1 0x20 ADD PUSH1 0x2 DUP3 ADD SLOAD DUP2 MSTORE PUSH1 0x20 ADD PUSH1 0x3 DUP3 ADD SLOAD DUP2 MSTORE PUSH1 0x20 ADD PUSH1 0x4 DUP3 ADD SLOAD DUP2 MSTORE PUSH1 0x20 ADD PUSH1 0x5 DUP3 ADD SLOAD DUP2 MSTORE PUSH1 0x20 ADD PUSH1 0x6 DUP3 ADD PUSH1 0x0 SWAP1 SLOAD SWAP1 PUSH2 0x100 EXP SWAP1 DIV PUSH1 0xFF AND PUSH1 0x3 DUP2 GT ISZERO PUSH2 0x2406 JUMPI PUSH2 0x2405 PUSH2 0x2B4C JUMP JUMPDEST JUMPDEST PUSH1 0x3 DUP2 GT ISZERO PUSH2 0x2418 JUMPI PUSH2 0x2417 PUSH2 0x2B4C JUMP JUMPDEST JUMPDEST DUP2 MSTORE PUSH1 0x20 ADD PUSH1 0x7 DUP3 ADD SLOAD DUP2 MSTORE POP POP SWAP1 POP PUSH2 0x243C PUSH8 0xF145D9F0B5B9EEA0 PUSH1 0xC0 SHL PUSH2 0x293D JUMP JUMPDEST PUSH2 0x2450 PUSH8 0x7FC0F059CBB77022 PUSH1 0xC0 SHL PUSH2 0x293D JUMP JUMPDEST DUP1 PUSH1 0x0 ADD MLOAD PUSH20 0xFFFFFFFFFFFFFFFFFFFFFFFFFFFFFFFFFFFFFFFF AND CALLER PUSH20 0xFFFFFFFFFFFFFFFFFFFFFFFFFFFFFFFFFFFFFFFF AND EQ ISZERO DUP1 ISZERO PUSH2 0x24C0 JUMPI POP DUP1 PUSH1 0x20 ADD MLOAD PUSH20 0xFFFFFFFFFFFFFFFFFFFFFFFFFFFFFFFFFFFFFFFF AND CALLER PUSH20 0xFFFFFFFFFFFFFFFFFFFFFFFFFFFFFFFFFFFFFFFF AND EQ ISZERO JUMPDEST ISZERO PUSH2 0x251F JUMPI PUSH2 0x24D9 PUSH8 0x746F2BDD3EB0FD9C PUSH1 0xC0 SHL PUSH2 0x293D JUMP JUMPDEST PUSH2 0x24ED PUSH8 0xC88B3F2A7594271D PUSH1 0xC0 SHL PUSH2 0x293D JUMP JUMPDEST PUSH1 0x40 MLOAD PUSH32 0x96B88C5100000000000000000000000000000000000000000000000000000000 DUP2 MSTORE PUSH1 0x4 ADD PUSH1 0x40 MLOAD DUP1 SWAP2 SUB SWAP1 REVERT JUMPDEST PUSH2 0x2533 PUSH8 0x47D00B45B5D7C4B0 PUSH1 0xC0 SHL PUSH2 0x293D JUMP JUMPDEST PUSH2 0x2547 PUSH8 0x83BF8D88684D9E8C PUSH1 0xC0 SHL PUSH2 0x293D JUMP JUMPDEST PUSH2 0x255B PUSH8 0x780ADA794685C76E PUSH1 0xC0 SHL PUSH2 0x293D JUMP JUMPDEST PUSH2 0x256F PUSH8 0x10C326611E268A91 PUSH1 0xC0 SHL PUSH2 0x293D JUMP JUMPDEST PUSH2 0x2583 PUSH8 0x265199FB51B21EF3 PUSH1 0xC0 SHL PUSH2 0x293D JUMP JUMPDEST PUSH2 0x2597 PUSH8 0x803583427C68B035 PUSH1 0xC0 SHL PUSH2 0x293D JUMP JUMPDEST PUSH1 0x0 PUSH1 0x3 PUSH1 0x0 DUP6 DUP2 MSTORE PUSH1 0x20 ADD SWAP1 DUP2 MSTORE PUSH1 0x20 ADD PUSH1 0x0 KECCAK256 SWAP1 POP PUSH2 0x25C2 PUSH8 0x55A5679AF8142168 PUSH1 0xC0 SHL PUSH2 0x293D JUMP JUMPDEST PUSH2 0x25D6 PUSH8 0x670A39492E2FBEC5 PUSH1 0xC0 SHL PUSH2 0x293D JUMP JUMPDEST PUSH1 0x0 PUSH1 0x3 DUP2 GT ISZERO PUSH2 0x25EA JUMPI PUSH2 0x25E9 PUSH2 0x2B4C JUMP JUMPDEST JUMPDEST DUP2 PUSH1 0x6 ADD PUSH1 0x0 SWAP1 SLOAD SWAP1 PUSH2 0x100 EXP SWAP1 DIV PUSH1 0xFF AND PUSH1 0x3 DUP2 GT ISZERO PUSH2 0x260E JUMPI PUSH2 0x260D PUSH2 0x2B4C JUMP JUMPDEST JUMPDEST EQ PUSH2 0x266D JUMPI PUSH2 0x2627 PUSH8 0x8D4872AF48D7AF17 PUSH1 0xC0 SHL PUSH2 0x293D JUMP JUMPDEST PUSH2 0x263B PUSH8 0xF321C11113CE73B2 PUSH1 0xC0 SHL PUSH2 0x293D JUMP JUMPDEST PUSH1 0x40 MLOAD PUSH32 0xF609F42000000000000000000000000000000000000000000000000000000000 DUP2 MSTORE PUSH1 0x4 ADD PUSH1 0x40 MLOAD DUP1 SWAP2 SUB SWAP1 REVERT JUMPDEST PUSH2 0x2681 PUSH8 0xEAF59CE00D33CF9E PUSH1 0xC0 SHL PUSH2 0x293D JUMP JUMPDEST PUSH2 0x2695 PUSH8 0x289DF4C4FF94AC8A PUSH1 0xC0 SHL PUSH2 0x293D JUMP JUMPDEST PUSH1 0x3 DUP2 PUSH1 0x6 ADD PUSH1 0x0 PUSH2 0x100 EXP DUP2 SLOAD DUP2 PUSH1 0xFF MUL NOT AND SWAP1 DUP4 PUSH1 0x3 DUP2 GT ISZERO PUSH2 0x26BD JUMPI PUSH2 0x26BC PUSH2 0x2B4C JUMP JUMPDEST JUMPDEST MUL OR SWAP1 SSTORE POP PUSH2 0x26D6 PUSH8 0x4AC76F16116646B2 PUSH1 0xC0 SHL PUSH2 0x293D JUMP JUMPDEST PUSH2 0x26EA PUSH8 0x4EA2110C63157FDA PUSH1 0xC0 SHL PUSH2 0x293D JUMP JUMPDEST DUP4 PUSH32 0x912A1E013DE32E96D992FC6C81600EB5480705BFABB226C0B69811ABF2B3ABAC PUSH1 0x40 MLOAD PUSH1 0x40 MLOAD DUP1 SWAP2 SUB SWAP1 LOG2 POP POP POP POP JUMP JUMPDEST PUSH1 0x60 PUSH2 0x2733 PUSH8 0x5E1E19B581157E4 PUSH1 0xC0 SHL PUSH2 0x293D JUMP JUMPDEST PUSH2 0x2747 PUSH8 0x9707F403254CDE5A PUSH1 0xC0 SHL PUSH2 0x293D JUMP JUMPDEST PUSH2 0x275B PUSH8 0xCEB693F2332168BD PUSH1 0xC0 SHL PUSH2 0x293D JUMP JUMPDEST PUSH1 0x0 PUSH1 0x1 PUSH1 0x0 CALLER PUSH20 0xFFFFFFFFFFFFFFFFFFFFFFFFFFFFFFFFFFFFFFFF AND PUSH20 0xFFFFFFFFFFFFFFFFFFFFFFFFFFFFFFFFFFFFFFFF AND DUP2 MSTORE PUSH1 0x20 ADD SWAP1 DUP2 MSTORE PUSH1 0x20 ADD PUSH1 0x0 KECCAK256 DUP1 SLOAD DUP1 PUSH1 0x20 MUL PUSH1 0x20 ADD PUSH1 0x40 MLOAD SWAP1 DUP2 ADD PUSH1 0x40 MSTORE DUP1 SWAP3 SWAP2 SWAP1 DUP2 DUP2 MSTORE PUSH1 0x20 ADD PUSH1 0x0 SWAP1 JUMPDEST DUP3 DUP3 LT ISZERO PUSH2 0x2908 JUMPI DUP4 DUP3 SWAP1 PUSH1 0x0 MSTORE PUSH1 0x20 PUSH1 0x0 KECCAK256 SWAP1 PUSH1 0x8 MUL ADD PUSH1 0x40 MLOAD DUP1 PUSH2 0x100 ADD PUSH1 0x40 MSTORE SWAP1 DUP2 PUSH1 0x0 DUP3 ADD PUSH1 0x0 SWAP1 SLOAD SWAP1 PUSH2 0x100 EXP SWAP1 DIV PUSH20 0xFFFFFFFFFFFFFFFFFFFFFFFFFFFFFFFFFFFFFFFF AND PUSH20 0xFFFFFFFFFFFFFFFFFFFFFFFFFFFFFFFFFFFFFFFF AND PUSH20 0xFFFFFFFFFFFFFFFFFFFFFFFFFFFFFFFFFFFFFFFF AND DUP2 MSTORE PUSH1 0x20 ADD PUSH1 0x1 DUP3 ADD PUSH1 0x0 SWAP1 SLOAD SWAP1 PUSH2 0x100 EXP SWAP1 DIV PUSH20 0xFFFFFFFFFFFFFFFFFFFFFFFFFFFFFFFFFFFFFFFF AND PUSH20 0xFFFFFFFFFFFFFFFFFFFFFFFFFFFFFFFFFFFFFFFF AND PUSH20 0xFFFFFFFFFFFFFFFFFFFFFFFFFFFFFFFFFFFFFFFF AND DUP2 MSTORE PUSH1 0x20 ADD PUSH1 0x2 DUP3 ADD SLOAD DUP2 MSTORE PUSH1 0x20 ADD PUSH1 0x3 DUP3 ADD SLOAD DUP2 MSTORE PUSH1 0x20 ADD PUSH1 0x4 DUP3 ADD SLOAD DUP2 MSTORE PUSH1 0x20 ADD PUSH1 0x5 DUP3 ADD SLOAD DUP2 MSTORE PUSH1 0x20 ADD PUSH1 0x6 DUP3 ADD PUSH1 0x0 SWAP1 SLOAD SWAP1 PUSH2 0x100 EXP SWAP1 DIV PUSH1 0xFF AND PUSH1 0x3 DUP2 GT ISZERO PUSH2 0x28D9 JUMPI PUSH2 0x28D8 PUSH2 0x2B4C JUMP JUMPDEST JUMPDEST PUSH1 0x3 DUP2 GT ISZERO PUSH2 0x28EB JUMPI PUSH2 0x28EA PUSH2 0x2B4C JUMP JUMPDEST JUMPDEST DUP2 MSTORE PUSH1 0x20 ADD PUSH1 0x7 DUP3 ADD SLOAD DUP2 MSTORE POP POP DUP2 MSTORE PUSH1 0x20 ADD SWAP1 PUSH1 0x1 ADD SWAP1 PUSH2 0x27BC JUMP JUMPDEST POP POP POP POP SWAP1 POP PUSH2 0x2922 PUSH8 0x21DFBE3FCCF4C451 PUSH1 0xC0 SHL PUSH2 0x293D JUMP JUMPDEST PUSH2 0x2936 PUSH8 0xC4F5D0024044ADCA PUSH1 0xC0 SHL PUSH2 0x293D JUMP JUMPDEST DUP1 SWAP2 POP POP SWAP1 JUMP JUMPDEST POP JUMP JUMPDEST PUSH1 0x40 MLOAD DUP1 PUSH2 0x100 ADD PUSH1 0x40 MSTORE DUP1 PUSH1 0x0 PUSH20 0xFFFFFFFFFFFFFFFFFFFFFFFFFFFFFFFFFFFFFFFF AND DUP2 MSTORE PUSH1 0x20 ADD PUSH1 0x0 PUSH20 0xFFFFFFFFFFFFFFFFFFFFFFFFFFFFFFFFFFFFFFFF AND DUP2 MSTORE PUSH1 0x20 ADD PUSH1 0x0 DUP2 MSTORE PUSH1 0x20 ADD PUSH1 0x0 DUP2 MSTORE PUSH1 0x20 ADD PUSH1 0x0 DUP2 MSTORE PUSH1 0x20 ADD PUSH1 0x0 DUP2 MSTORE PUSH1 0x20 ADD PUSH1 0x0 PUSH1 0x3 DUP2 GT ISZERO PUSH2 0x29B6 JUMPI PUSH2 0x29B5 PUSH2 0x2B4C JUMP JUMPDEST JUMPDEST DUP2 MSTORE PUSH1 0x20 ADD PUSH1 0x0 DUP2 MSTORE POP SWAP1 JUMP JUMPDEST PUSH1 0x0 DUP1 REVERT JUMPDEST PUSH1 0x0 DUP2 SWAP1 POP SWAP2 SWAP1 POP JUMP JUMPDEST PUSH2 0x29DB DUP2 PUSH2 0x29C8 JUMP JUMPDEST DUP2 EQ PUSH2 0x29E6 JUMPI PUSH1 0x0 DUP1 REVERT JUMPDEST POP JUMP JUMPDEST PUSH1 0x0 DUP2 CALLDATALOAD SWAP1 POP PUSH2 0x29F8 DUP2 PUSH2 0x29D2 JUMP JUMPDEST SWAP3 SWAP2 POP POP JUMP JUMPDEST PUSH1 0x0 PUSH1 0x20 DUP3 DUP5 SUB SLT ISZERO PUSH2 0x2A14 JUMPI PUSH2 0x2A13 PUSH2 0x29C3 JUMP JUMPDEST JUMPDEST PUSH1 0x0 PUSH2 0x2A22 DUP5 DUP3 DUP6 ADD PUSH2 0x29E9 JUMP JUMPDEST SWAP2 POP POP SWAP3 SWAP2 POP POP JUMP JUMPDEST PUSH1 0x0 PUSH20 0xFFFFFFFFFFFFFFFFFFFFFFFFFFFFFFFFFFFFFFFF DUP3 AND SWAP1 POP SWAP2 SWAP1 POP JUMP JUMPDEST PUSH1 0x0 PUSH2 0x2A56 DUP3 PUSH2 0x2A2B JUMP JUMPDEST SWAP1 POP SWAP2 SWAP1 POP JUMP JUMPDEST PUSH2 0x2A66 DUP2 PUSH2 0x2A4B JUMP JUMPDEST DUP2 EQ PUSH2 0x2A71 JUMPI PUSH1 0x0 DUP1 REVERT JUMPDEST POP JUMP JUMPDEST PUSH1 0x0 DUP2 CALLDATALOAD SWAP1 POP PUSH2 0x2A83 DUP2 PUSH2 0x2A5D JUMP JUMPDEST SWAP3 SWAP2 POP POP JUMP JUMPDEST PUSH1 0x0 DUP1 PUSH1 0x0 DUP1 PUSH1 0x0 PUSH1 0xA0 DUP7 DUP9 SUB SLT ISZERO PUSH2 0x2AA5 JUMPI PUSH2 0x2AA4 PUSH2 0x29C3 JUMP JUMPDEST JUMPDEST PUSH1 0x0 PUSH2 0x2AB3 DUP9 DUP3 DUP10 ADD PUSH2 0x2A74 JUMP JUMPDEST SWAP6 POP POP PUSH1 0x20 PUSH2 0x2AC4 DUP9 DUP3 DUP10 ADD PUSH2 0x2A74 JUMP JUMPDEST SWAP5 POP POP PUSH1 0x40 PUSH2 0x2AD5 DUP9 DUP3 DUP10 ADD PUSH2 0x29E9 JUMP JUMPDEST SWAP4 POP POP PUSH1 0x60 PUSH2 0x2AE6 DUP9 DUP3 DUP10 ADD PUSH2 0x29E9 JUMP JUMPDEST SWAP3 POP POP PUSH1 0x80 PUSH2 0x2AF7 DUP9 DUP3 DUP10 ADD PUSH2 0x29E9 JUMP JUMPDEST SWAP2 POP POP SWAP3 SWAP6 POP SWAP3 SWAP6 SWAP1 SWAP4 POP JUMP JUMPDEST PUSH2 0x2B0D DUP2 PUSH2 0x29C8 JUMP JUMPDEST DUP3 MSTORE POP POP JUMP JUMPDEST PUSH1 0x0 PUSH1 0x20 DUP3 ADD SWAP1 POP PUSH2 0x2B28 PUSH1 0x0 DUP4 ADD DUP5 PUSH2 0x2B04 JUMP JUMPDEST SWAP3 SWAP2 POP POP JUMP JUMPDEST PUSH2 0x2B37 DUP2 PUSH2 0x2A4B JUMP JUMPDEST DUP3 MSTORE POP POP JUMP JUMPDEST PUSH2 0x2B46 DUP2 PUSH2 0x29C8 JUMP JUMPDEST DUP3 MSTORE POP POP JUMP JUMPDEST PUSH32 0x4E487B7100000000000000000000000000000000000000000000000000000000 PUSH1 0x0 MSTORE PUSH1 0x21 PUSH1 0x4 MSTORE PUSH1 0x24 PUSH1 0x0 REVERT JUMPDEST PUSH1 0x4 DUP2 LT PUSH2 0x2B8C JUMPI PUSH2 0x2B8B PUSH2 0x2B4C JUMP JUMPDEST JUMPDEST POP JUMP JUMPDEST PUSH1 0x0 DUP2 SWAP1 POP PUSH2 0x2B9D DUP3 PUSH2 0x2B7B JUMP JUMPDEST SWAP2 SWAP1 POP JUMP JUMPDEST PUSH1 0x0 PUSH2 0x2BAD DUP3 PUSH2 0x2B8F JUMP JUMPDEST SWAP1 POP SWAP2 SWAP1 POP JUMP JUMPDEST PUSH2 0x2BBD DUP2 PUSH2 0x2BA2 JUMP JUMPDEST DUP3 MSTORE POP POP JUMP JUMPDEST PUSH2 0x100 DUP3 ADD PUSH1 0x0 DUP3 ADD MLOAD PUSH2 0x2BDA PUSH1 0x0 DUP6 ADD DUP3 PUSH2 0x2B2E JUMP JUMPDEST POP PUSH1 0x20 DUP3 ADD MLOAD PUSH2 0x2BED PUSH1 0x20 DUP6 ADD DUP3 PUSH2 0x2B2E JUMP JUMPDEST POP PUSH1 0x40 DUP3 ADD MLOAD PUSH2 0x2C00 PUSH1 0x40 DUP6 ADD DUP3 PUSH2 0x2B3D JUMP JUMPDEST POP PUSH1 0x60 DUP3 ADD MLOAD PUSH2 0x2C13 PUSH1 0x60 DUP6 ADD DUP3 PUSH2 0x2B3D JUMP JUMPDEST POP PUSH1 0x80 DUP3 ADD MLOAD PUSH2 0x2C26 PUSH1 0x80 DUP6 ADD DUP3 PUSH2 0x2B3D JUMP JUMPDEST POP PUSH1 0xA0 DUP3 ADD MLOAD PUSH2 0x2C39 PUSH1 0xA0 DUP6 ADD DUP3 PUSH2 0x2B3D JUMP JUMPDEST POP PUSH1 0xC0 DUP3 ADD MLOAD PUSH2 0x2C4C PUSH1 0xC0 DUP6 ADD DUP3 PUSH2 0x2BB4 JUMP JUMPDEST POP PUSH1 0xE0 DUP3 ADD MLOAD PUSH2 0x2C5F PUSH1 0xE0 DUP6 ADD DUP3 PUSH2 0x2B3D JUMP JUMPDEST POP POP POP POP JUMP JUMPDEST PUSH1 0x0 PUSH2 0x100 DUP3 ADD SWAP1 POP PUSH2 0x2C7B PUSH1 0x0 DUP4 ADD DUP5 PUSH2 0x2BC3 JUMP JUMPDEST SWAP3 SWAP2 POP POP JUMP JUMPDEST PUSH1 0x0 DUP2 MLOAD SWAP1 POP SWAP2 SWAP1 POP JUMP JUMPDEST PUSH1 0x0 DUP3 DUP3 MSTORE PUSH1 0x20 DUP3 ADD SWAP1 POP SWAP3 SWAP2 POP POP JUMP JUMPDEST PUSH1 0x0 DUP2 SWAP1 POP PUSH1 0x20 DUP3 ADD SWAP1 POP SWAP2 SWAP1 POP JUMP JUMPDEST PUSH2 0x100 DUP3 ADD PUSH1 0x0 DUP3 ADD MLOAD PUSH2 0x2CC4 PUSH1 0x0 DUP6 ADD DUP3 PUSH2 0x2B2E JUMP JUMPDEST POP PUSH1 0x20 DUP3 ADD MLOAD PUSH2 0x2CD7 PUSH1 0x20 DUP6 ADD DUP3 PUSH2 0x2B2E JUMP JUMPDEST POP PUSH1 0x40 DUP3 ADD MLOAD PUSH2 0x2CEA PUSH1 0x40 DUP6 ADD DUP3 PUSH2 0x2B3D JUMP JUMPDEST POP PUSH1 0x60 DUP3 ADD MLOAD PUSH2 0x2CFD PUSH1 0x60 DUP6 ADD DUP3 PUSH2 0x2B3D JUMP JUMPDEST POP PUSH1 0x80 DUP3 ADD MLOAD PUSH2 0x2D10 PUSH1 0x80 DUP6 ADD DUP3 PUSH2 0x2B3D JUMP JUMPDEST POP PUSH1 0xA0 DUP3 ADD MLOAD PUSH2 0x2D23 PUSH1 0xA0 DUP6 ADD DUP3 PUSH2 0x2B3D JUMP JUMPDEST POP PUSH1 0xC0 DUP3 ADD MLOAD PUSH2 0x2D36 PUSH1 0xC0 DUP6 ADD DUP3 PUSH2 0x2BB4 JUMP JUMPDEST POP PUSH1 0xE0 DUP3 ADD MLOAD PUSH2 0x2D49 PUSH1 0xE0 DUP6 ADD DUP3 PUSH2 0x2B3D JUMP JUMPDEST POP POP POP POP JUMP JUMPDEST PUSH1 0x0 PUSH2 0x2D5B DUP4 DUP4 PUSH2 0x2CAD JUMP JUMPDEST PUSH2 0x100 DUP4 ADD SWAP1 POP SWAP3 SWAP2 POP POP JUMP JUMPDEST PUSH1 0x0 PUSH1 0x20 DUP3 ADD SWAP1 POP SWAP2 SWAP1 POP JUMP JUMPDEST PUSH1 0x0 PUSH2 0x2D80 DUP3 PUSH2 0x2C81 JUMP JUMPDEST PUSH2 0x2D8A DUP2 DUP6 PUSH2 0x2C8C JUMP JUMPDEST SWAP4 POP PUSH2 0x2D95 DUP4 PUSH2 0x2C9D JUMP JUMPDEST DUP1 PUSH1 0x0 JUMPDEST DUP4 DUP2 LT ISZERO PUSH2 0x2DC6 JUMPI DUP2 MLOAD PUSH2 0x2DAD DUP9 DUP3 PUSH2 0x2D4F JUMP JUMPDEST SWAP8 POP PUSH2 0x2DB8 DUP4 PUSH2 0x2D68 JUMP JUMPDEST SWAP3 POP POP PUSH1 0x1 DUP2 ADD SWAP1 POP PUSH2 0x2D99 JUMP JUMPDEST POP DUP6 SWAP4 POP POP POP POP SWAP3 SWAP2 POP POP JUMP JUMPDEST PUSH1 0x0 PUSH1 0x20 DUP3 ADD SWAP1 POP DUP2 DUP2 SUB PUSH1 0x0 DUP4 ADD MSTORE PUSH2 0x2DED DUP2 DUP5 PUSH2 0x2D75 JUMP JUMPDEST SWAP1 POP SWAP3 SWAP2 POP POP JUMP JUMPDEST PUSH2 0x2DFE DUP2 PUSH2 0x2A4B JUMP JUMPDEST DUP3 MSTORE POP POP JUMP JUMPDEST PUSH1 0x0 PUSH1 0x20 DUP3 ADD SWAP1 POP PUSH2 0x2E19 PUSH1 0x0 DUP4 ADD DUP5 PUSH2 0x2DF5 JUMP JUMPDEST SWAP3 SWAP2 POP POP JUMP JUMPDEST PUSH1 0x0 DUP2 SWAP1 POP SWAP3 SWAP2 POP POP JUMP JUMPDEST POP JUMP JUMPDEST PUSH1 0x0 PUSH2 0x2E3A PUSH1 0x0 DUP4 PUSH2 0x2E1F JUMP JUMPDEST SWAP2 POP PUSH2 0x2E45 DUP3 PUSH2 0x2E2A JUMP JUMPDEST PUSH1 0x0 DUP3 ADD SWAP1 POP SWAP2 SWAP1 POP JUMP JUMPDEST PUSH1 0x0 PUSH2 0x2E5B DUP3 PUSH2 0x2E2D JUMP JUMPDEST SWAP2 POP DUP2 SWAP1 POP SWAP2 SWAP1 POP JUMP JUMPDEST PUSH32 0x4E487B7100000000000000000000000000000000000000000000000000000000 PUSH1 0x0 MSTORE PUSH1 0x11 PUSH1 0x4 MSTORE PUSH1 0x24 PUSH1 0x0 REVERT JUMPDEST PUSH1 0x0 PUSH2 0x2E9F DUP3 PUSH2 0x29C8 JUMP JUMPDEST SWAP2 POP PUSH2 0x2EAA DUP4 PUSH2 0x29C8 JUMP JUMPDEST SWAP3 POP DUP3 DUP3 SUB SWAP1 POP DUP2 DUP2 GT ISZERO PUSH2 0x2EC2 JUMPI PUSH2 0x2EC1 PUSH2 0x2E65 JUMP JUMPDEST JUMPDEST SWAP3 SWAP2 POP POP JUMP INVALID LOG2 PUSH5 0x6970667358 0x22 SLT KECCAK256 CALL SIGNEXTEND 0xDD SWAP2 DUP3 0xD6 0xBC 0xD0 0xDC 0xBB 0x2F 0xA5 LOG3 0xF9 CALLCODE PUSH30 0xF11967F9D26290D74106A33EC941241564736F6C63430008130033000000 "},"methodIdentifiers":{"createEscrow(address,address,uint256,uint256,uint256)":"3bf3110f","getBuyerOrders()":"c819998b","getMarketplaceAddress()":"bb8fe785","getOrderById(uint256)":"42b50a7a","getOwner()":"893d20e8","getSellerOrders()":"700db752","refund(uint256)":"278ecde1","release(uint256)":"37bdc99b","startDispute(uint256)":"c0cfa7e5"}}}}}