{"contracts/Marketplace.sol":{"Marketplace":{"abi":[{"inputs":[],"stateMutability":"nonpayable","type":"constructor"},{"inputs":[],"name":"Marketplace__NotEnoughFunds","type":"error"},{"inputs":[],"name":"Marketplace__NotEnoughQuantity","type":"error"},{"inputs":[],"name":"Marketplace__ProductNotFound","type":"error"},{"inputs":[],"name":"Marketplace__Seller_Cant_Buy","type":"error"},{"inputs":[],"name":"Marketplace__TransferFailed","type":"error"},{"anonymous":false,"inputs":[{"indexed":true,"internalType":"uint256","name":"orderId","type":"uint256"}],"name":"CreatedOrder","type":"event"},{"anonymous":false,"inputs":[{"indexed":true,"internalType":"address","name":"owner","type":"address"},{"indexed":true,"internalType":"uint256","name":"productId","type":"uint256"},{"indexed":false,"internalType":"uint256","name":"price","type":"uint256"},{"indexed":false,"internalType":"string","name":"uri","type":"string"}],"name":"CreatedProduct","type":"event"},{"inputs":[{"internalType":"uint256","name":"_productId","type":"uint256"},{"internalType":"uint256","name":"_quantity","type":"uint256"},{"internalType":"uint256","name":"_orderId","type":"uint256"}],"name":"buyProduct","outputs":[],"stateMutability":"payable","type":"function"},{"inputs":[{"internalType":"uint256","name":"_productId","type":"uint256"},{"internalType":"string","name":"uri","type":"string"},{"internalType":"uint256","name":"_price","type":"uint256"},{"internalType":"uint256","name":"_shipping","type":"uint256"},{"internalType":"uint256","name":"_quantity","type":"uint256"}],"name":"createProduct","outputs":[],"stateMutability":"nonpayable","type":"function"},{"inputs":[],"name":"getEscrowAddress","outputs":[{"internalType":"address","name":"","type":"address"}],"stateMutability":"view","type":"function"},{"inputs":[],"name":"getOwner","outputs":[{"internalType":"address","name":"","type":"address"}],"stateMutability":"view","type":"function"},{"inputs":[],"name":"getOwnerProducts","outputs":[{"components":[{"internalType":"address","name":"owner","type":"address"},{"internalType":"uint256","name":"productId","type":"uint256"},{"internalType":"uint256","name":"price","type":"uint256"},{"internalType":"uint256","name":"shipping","type":"uint256"},{"internalType":"uint256","name":"quantity","type":"uint256"},{"internalType":"string","name":"uri","type":"string"}],"internalType":"struct Marketplace.Product[]","name":"","type":"tuple[]"}],"stateMutability":"view","type":"function"},{"inputs":[{"internalType":"uint256","name":"_productId","type":"uint256"}],"name":"getProductById","outputs":[{"components":[{"internalType":"address","name":"owner","type":"address"},{"internalType":"uint256","name":"productId","type":"uint256"},{"internalType":"uint256","name":"price","type":"uint256"},{"internalType":"uint256","name":"shipping","type":"uint256"},{"internalType":"uint256","name":"quantity","type":"uint256"},{"internalType":"string","name":"uri","type":"string"}],"internalType":"struct Marketplace.Product","name":"","type":"tuple"}],"stateMutability":"view","type":"function"}],"evm":{"bytecode":{"linkReferences":{},"object":"60c06040523480156200001157600080fd5b506200002e678cba0718b6baea9d60c01b6200010e60201b60201c565b6200004a672728351abe9847f260c01b6200010e60201b60201c565b30336040516200005a9062000111565b6200006792919062000164565b604051809103906000f08015801562000084573d6000803e3d6000fd5b5073ffffffffffffffffffffffffffffffffffffffff1660808173ffffffffffffffffffffffffffffffffffffffff1681525050620000d4671cec51448ecf20b160c01b6200010e60201b60201c565b3373ffffffffffffffffffffffffffffffffffffffff1660a08173ffffffffffffffffffffffffffffffffffffffff168152505062000191565b50565b6130dc8062001c4083390190565b600073ffffffffffffffffffffffffffffffffffffffff82169050919050565b60006200014c826200011f565b9050919050565b6200015e816200013f565b82525050565b60006040820190506200017b600083018562000153565b6200018a602083018462000153565b9392505050565b60805160a051611a82620001be600039600061068e01526000818161019d01526109520152611a826000f3fe6080604052600436106100555760003560e01c8063122fd48a1461005a5780633873ab24146100855780633f70c2b4146100b0578063893d20e8146100ed578063beff957714610118578063ecb6a82514610134575b600080fd5b34801561006657600080fd5b5061006f61015d565b60405161007c9190610fba565b60405180910390f35b34801561009157600080fd5b5061009a6101c1565b6040516100a791906111d8565b60405180910390f35b3480156100bc57600080fd5b506100d760048036038101906100d2919061123a565b6103d7565b6040516100e491906112f0565b60405180910390f35b3480156100f957600080fd5b5061010261064e565b60405161010f9190610fba565b60405180910390f35b610132600480360381019061012d9190611312565b6106b2565b005b34801561014057600080fd5b5061015b6004803603810190610156919061149a565b610c5f565b005b600061017367a53baa258f9529c560c01b610f2a565b61018767b820cc60119840cc60c01b610f2a565b61019b67d22f2a7586cbdd5f60c01b610f2a565b7f0000000000000000000000000000000000000000000000000000000000000000905090565b60606101d7678f3beef1e6d012cc60c01b610f2a565b6101eb67d93472929deb934260c01b610f2a565b6101ff67afb736e0d00afdb260c01b610f2a565b6000600160003373ffffffffffffffffffffffffffffffffffffffff1673ffffffffffffffffffffffffffffffffffffffff168152602001908152602001600020805480602002602001604051908101604052809291908181526020016000905b828210156103a257838290600052602060002090600602016040518060c00160405290816000820160009054906101000a900473ffffffffffffffffffffffffffffffffffffffff1673ffffffffffffffffffffffffffffffffffffffff1673ffffffffffffffffffffffffffffffffffffffff1681526020016001820154815260200160028201548152602001600382015481526020016004820154815260200160058201805461031190611560565b80601f016020809104026020016040519081016040528092919081815260200182805461033d90611560565b801561038a5780601f1061035f5761010080835404028352916020019161038a565b820191906000526020600020905b81548152906001019060200180831161036d57829003601f168201915b50505050508152505081526020019060010190610260565b5050505090506103bc67304bfc94b862c8a860c01b610f2a565b6103d067013f30b9b3acae8860c01b610f2a565b8091505090565b6103df610f2d565b6103f3672919e17af44cca1260c01b610f2a565b6104076729002e00adc2424160c01b610f2a565b61041b67ca28008dec5fdaf360c01b610f2a565b600073ffffffffffffffffffffffffffffffffffffffff1660008084815260200190815260200160002060000160009054906101000a900473ffffffffffffffffffffffffffffffffffffffff1673ffffffffffffffffffffffffffffffffffffffff16036104de5761049867dbd555c739b803bc60c01b610f2a565b6104ac6718e44bb9899b65e160c01b610f2a565b6040517ffa130d1500000000000000000000000000000000000000000000000000000000815260040160405180910390fd5b6104f2678707fd7731edad7660c01b610f2a565b61050667f3d89efbed7f649e60c01b610f2a565b61051a67e141312109dd5c6460c01b610f2a565b6000808381526020019081526020016000206040518060c00160405290816000820160009054906101000a900473ffffffffffffffffffffffffffffffffffffffff1673ffffffffffffffffffffffffffffffffffffffff1673ffffffffffffffffffffffffffffffffffffffff168152602001600182015481526020016002820154815260200160038201548152602001600482015481526020016005820180546105c590611560565b80601f01602080910402602001604051908101604052809291908181526020018280546105f190611560565b801561063e5780601f106106135761010080835404028352916020019161063e565b820191906000526020600020905b81548152906001019060200180831161062157829003601f168201915b5050505050815250509050919050565b6000610664677c224eca154187de60c01b610f2a565b610678674366aad32eb8da1460c01b610f2a565b61068c6780a9977995c733bf60c01b610f2a565b7f0000000000000000000000000000000000000000000000000000000000000000905090565b6106c667ba4f4f6e70232ab460c01b610f2a565b6106da67b70a2cbca9b61ae560c01b610f2a565b6106ee676cbbf2d75ed3b38760c01b610f2a565b60006106f9846103d7565b905061070f67cdc6124ddae38cdc60c01b610f2a565b61072367bfe1aaf2f28b033460c01b610f2a565b3373ffffffffffffffffffffffffffffffffffffffff16816000015173ffffffffffffffffffffffffffffffffffffffff16036107b45761076e67b310304797123f1960c01b610f2a565b61078267ab891a1c6434d1f160c01b610f2a565b6040517f143bcd5c00000000000000000000000000000000000000000000000000000000815260040160405180910390fd5b6107c867566a2184866756c360c01b610f2a565b6107dc67e43581d3dabf0d3260c01b610f2a565b6107f0676fdd6aff41ebab6e60c01b610f2a565b806080015183111561085657610810679cca827127eb215360c01b610f2a565b610824672bda5d0bdc72ea6260c01b610f2a565b6040517f2b2e799600000000000000000000000000000000000000000000000000000000815260040160405180910390fd5b61086a673f5007c728eb356260c01b610f2a565b61087e6706cd1a06041a98f560c01b610f2a565b61089267c23f32ceb89d37a660c01b610f2a565b80606001518382604001516108a791906115c0565b6108b19190611602565b341015610912576108cc6768218f3b7bfcb19660c01b610f2a565b6108e06757f0086508ebbc7b60c01b610f2a565b6040517f250c003600000000000000000000000000000000000000000000000000000000815260040160405180910390fd5b6109266787443c07dd8fd9e260c01b610f2a565b61093a67bc7b29cfaa113a2360c01b610f2a565b61094e6775ae833b39b8de6f60c01b610f2a565b60007f000000000000000000000000000000000000000000000000000000000000000073ffffffffffffffffffffffffffffffffffffffff16633bf3110f83606001518685604001516109a191906115c0565b6109ab9190611602565b8460000151338660200151888a6040518763ffffffff1660e01b81526004016109d8959493929190611645565b60206040518083038185885af11580156109f6573d6000803e3d6000fd5b50505050506040513d601f19601f82011682018060405250810190610a1b91906116ad565b9050610a3167b790ab9981ab4d9360c01b610f2a565b610a4567bdc8426709bf66a560c01b610f2a565b60008260600151858460400151610a5c91906115c0565b610a669190611602565b34610a7191906116da565b9050610a876705dfa6510fcef07b60c01b610f2a565b610a9b67dc975a4b4aaff93560c01b610f2a565b6000811115610bed57610ab867b3c125875cde631760c01b610f2a565b610acc67f09e8b817b6bfd3e60c01b610f2a565b610ae067e038e8f5d75b29c860c01b610f2a565b60003373ffffffffffffffffffffffffffffffffffffffff1682604051610b069061173f565b60006040518083038185875af1925050503d8060008114610b43576040519150601f19603f3d011682016040523d82523d6000602084013e610b48565b606091505b50509050610b6067bb1749eefa776ca660c01b610f2a565b610b74676aa45fa9af11113160c01b610f2a565b80610bd357610b8d67bdbef0c8e72bc77360c01b610f2a565b610ba1674361d1c7dacea6ca60c01b610f2a565b6040517f3a06d36900000000000000000000000000000000000000000000000000000000815260040160405180910390fd5b610be7670cbad85b3d5c7f4c60c01b610f2a565b50610c02565b610c0167bb1ccc7538e0ab8760c01b610f2a565b5b610c1667fb379026e6d0f73760c01b610f2a565b610c2a6768e17effb2527aa760c01b610f2a565b817fca570940fc0de1684a030665039469593dd4c228a17d8da38a53bbe884c07caf60405160405180910390a2505050505050565b610c7367188d9b6ae7fa488660c01b610f2a565b610c87673c531b4f106d86e760c01b610f2a565b610c9b6792d60c865e6bd71c60c01b610f2a565b60006040518060c001604052803373ffffffffffffffffffffffffffffffffffffffff168152602001878152602001858152602001848152602001838152602001868152509050610cf6674b5d2268eac551fa60c01b610f2a565b8060008088815260200190815260200160002060008201518160000160006101000a81548173ffffffffffffffffffffffffffffffffffffffff021916908373ffffffffffffffffffffffffffffffffffffffff1602179055506020820151816001015560408201518160020155606082015181600301556080820151816004015560a0820151816005019081610d8d9190611900565b50905050610da5676c26e830ff756b9860c01b610f2a565b610db967ad022cef9961901460c01b610f2a565b600160003373ffffffffffffffffffffffffffffffffffffffff1673ffffffffffffffffffffffffffffffffffffffff16815260200190815260200160002081908060018154018082558091505060019003906000526020600020906006020160009091909190915060008201518160000160006101000a81548173ffffffffffffffffffffffffffffffffffffffff021916908373ffffffffffffffffffffffffffffffffffffffff1602179055506020820151816001015560408201518160020155606082015181600301556080820151816004015560a0820151816005019081610ea69190611900565b505050610ebd6755780eb4d433c7fe60c01b610f2a565b610ed167bade7bcacc13433560c01b610f2a565b853373ffffffffffffffffffffffffffffffffffffffff167f752c6e59798f934c2c159f893dcff42eca6bb9529f328570f172e50c9774cb548688604051610f1a929190611a1c565b60405180910390a3505050505050565b50565b6040518060c00160405280600073ffffffffffffffffffffffffffffffffffffffff16815260200160008152602001600081526020016000815260200160008152602001606081525090565b600073ffffffffffffffffffffffffffffffffffffffff82169050919050565b6000610fa482610f79565b9050919050565b610fb481610f99565b82525050565b6000602082019050610fcf6000830184610fab565b92915050565b600081519050919050565b600082825260208201905092915050565b6000819050602082019050919050565b61100a81610f99565b82525050565b6000819050919050565b61102381611010565b82525050565b600081519050919050565b600082825260208201905092915050565b60005b83811015611063578082015181840152602081019050611048565b60008484015250505050565b6000601f19601f8301169050919050565b600061108b82611029565b6110958185611034565b93506110a5818560208601611045565b6110ae8161106f565b840191505092915050565b600060c0830160008301516110d16000860182611001565b5060208301516110e4602086018261101a565b5060408301516110f7604086018261101a565b50606083015161110a606086018261101a565b50608083015161111d608086018261101a565b5060a083015184820360a08601526111358282611080565b9150508091505092915050565b600061114e83836110b9565b905092915050565b6000602082019050919050565b600061116e82610fd5565b6111788185610fe0565b93508360208202850161118a85610ff1565b8060005b858110156111c657848403895281516111a78582611142565b94506111b283611156565b925060208a0199505060018101905061118e565b50829750879550505050505092915050565b600060208201905081810360008301526111f28184611163565b905092915050565b6000604051905090565b600080fd5b600080fd5b61121781611010565b811461122257600080fd5b50565b6000813590506112348161120e565b92915050565b6000602082840312156112505761124f611204565b5b600061125e84828501611225565b91505092915050565b600060c08301600083015161127f6000860182611001565b506020830151611292602086018261101a565b5060408301516112a5604086018261101a565b5060608301516112b8606086018261101a565b5060808301516112cb608086018261101a565b5060a083015184820360a08601526112e38282611080565b9150508091505092915050565b6000602082019050818103600083015261130a8184611267565b905092915050565b60008060006060848603121561132b5761132a611204565b5b600061133986828701611225565b935050602061134a86828701611225565b925050604061135b86828701611225565b9150509250925092565b600080fd5b600080fd5b7f4e487b7100000000000000000000000000000000000000000000000000000000600052604160045260246000fd5b6113a78261106f565b810181811067ffffffffffffffff821117156113c6576113c561136f565b5b80604052505050565b60006113d96111fa565b90506113e5828261139e565b919050565b600067ffffffffffffffff8211156114055761140461136f565b5b61140e8261106f565b9050602081019050919050565b82818337600083830152505050565b600061143d611438846113ea565b6113cf565b9050828152602081018484840111156114595761145861136a565b5b61146484828561141b565b509392505050565b600082601f83011261148157611480611365565b5b813561149184826020860161142a565b91505092915050565b600080600080600060a086880312156114b6576114b5611204565b5b60006114c488828901611225565b955050602086013567ffffffffffffffff8111156114e5576114e4611209565b5b6114f18882890161146c565b945050604061150288828901611225565b935050606061151388828901611225565b925050608061152488828901611225565b9150509295509295909350565b7f4e487b7100000000000000000000000000000000000000000000000000000000600052602260045260246000fd5b6000600282049050600182168061157857607f821691505b60208210810361158b5761158a611531565b5b50919050565b7f4e487b7100000000000000000000000000000000000000000000000000000000600052601160045260246000fd5b60006115cb82611010565b91506115d683611010565b92508282026115e481611010565b915082820484148315176115fb576115fa611591565b5b5092915050565b600061160d82611010565b915061161883611010565b92508282019050808211156116305761162f611591565b5b92915050565b61163f81611010565b82525050565b600060a08201905061165a6000830188610fab565b6116676020830187610fab565b6116746040830186611636565b6116816060830185611636565b61168e6080830184611636565b9695505050505050565b6000815190506116a78161120e565b92915050565b6000602082840312156116c3576116c2611204565b5b60006116d184828501611698565b91505092915050565b60006116e582611010565b91506116f083611010565b925082820390508181111561170857611707611591565b5b92915050565b600081905092915050565b50565b600061172960008361170e565b915061173482611719565b600082019050919050565b600061174a8261171c565b9150819050919050565b60008190508160005260206000209050919050565b60006020601f8301049050919050565b600082821b905092915050565b6000600883026117b67fffffffffffffffffffffffffffffffffffffffffffffffffffffffffffffffff82611779565b6117c08683611779565b95508019841693508086168417925050509392505050565b6000819050919050565b60006117fd6117f86117f384611010565b6117d8565b611010565b9050919050565b6000819050919050565b611817836117e2565b61182b61182382611804565b848454611786565b825550505050565b600090565b611840611833565b61184b81848461180e565b505050565b5b8181101561186f57611864600082611838565b600181019050611851565b5050565b601f8211156118b45761188581611754565b61188e84611769565b8101602085101561189d578190505b6118b16118a985611769565b830182611850565b50505b505050565b600082821c905092915050565b60006118d7600019846008026118b9565b1980831691505092915050565b60006118f083836118c6565b9150826002028217905092915050565b61190982611029565b67ffffffffffffffff8111156119225761192161136f565b5b61192c8254611560565b611937828285611873565b600060209050601f83116001811461196a5760008415611958578287015190505b61196285826118e4565b8655506119ca565b601f19841661197886611754565b60005b828110156119a05784890151825560018201915060208501945060208101905061197b565b868310156119bd57848901516119b9601f8916826118c6565b8355505b6001600288020188555050505b505050505050565b600082825260208201905092915050565b60006119ee82611029565b6119f881856119d2565b9350611a08818560208601611045565b611a118161106f565b840191505092915050565b6000604082019050611a316000830185611636565b8181036020830152611a4381846119e3565b9050939250505056fea26469706673582212203d2bf6d863e6e50c9fa4c2442d27a4fc267a9eb7c695b1262335f500295b6a7f64736f6c6343000813003360a06040523480156200001157600080fd5b50604051620030dc380380620030dc833981810160405281019062000037919062000174565b62000053671d41a94ba5554dcb60c01b6200010760201b60201c565b6200006f676024235befca135f60c01b6200010760201b60201c565b806000806101000a81548173ffffffffffffffffffffffffffffffffffffffff021916908373ffffffffffffffffffffffffffffffffffffffff160217905550620000cb67a13a725db37137b360c01b6200010760201b60201c565b8173ffffffffffffffffffffffffffffffffffffffff1660808173ffffffffffffffffffffffffffffffffffffffff16815250505050620001bb565b50565b600080fd5b600073ffffffffffffffffffffffffffffffffffffffff82169050919050565b60006200013c826200010f565b9050919050565b6200014e816200012f565b81146200015a57600080fd5b50565b6000815190506200016e8162000143565b92915050565b600080604083850312156200018e576200018d6200010a565b5b60006200019e858286016200015d565b9250506020620001b1858286016200015d565b9150509250929050565b608051612efe620001de6000396000818161173601526122770152612efe6000f3fe6080604052600436106100865760003560e01c8063700db75211610059578063700db7521461014a578063893d20e814610175578063bb8fe785146101a0578063c0cfa7e5146101cb578063c819998b146101f457610086565b8063278ecde11461008b57806337bdc99b146100b45780633bf3110f146100dd57806342b50a7a1461010d575b600080fd5b34801561009757600080fd5b506100b260048036038101906100ad91906129fe565b61021f565b005b3480156100c057600080fd5b506100db60048036038101906100d691906129fe565b610bec565b005b6100f760048036038101906100f29190612a89565b6116e2565b6040516101049190612b13565b60405180910390f35b34801561011957600080fd5b50610134600480360381019061012f91906129fe565b611d30565b6040516101419190612c65565b60405180910390f35b34801561015657600080fd5b5061015f611fb3565b60405161016c9190612dd3565b60405180910390f35b34801561018157600080fd5b5061018a6121d3565b6040516101979190612e04565b60405180910390f35b3480156101ac57600080fd5b506101b5612237565b6040516101c29190612e04565b60405180910390f35b3480156101d757600080fd5b506101f260048036038101906101ed91906129fe565b61229b565b005b34801561020057600080fd5b5061020961271d565b6040516102169190612dd3565b60405180910390f35b610233678adf54609f03c12d60c01b61293d565b8061024867a986cefeec85818760c01b61293d565b61025c679468e128eae60b1a60c01b61293d565b6102706796010dfaecf65cf660c01b61293d565b600060036000838152602001908152602001600020604051806101000160405290816000820160009054906101000a900473ffffffffffffffffffffffffffffffffffffffff1673ffffffffffffffffffffffffffffffffffffffff1673ffffffffffffffffffffffffffffffffffffffff1681526020016001820160009054906101000a900473ffffffffffffffffffffffffffffffffffffffff1673ffffffffffffffffffffffffffffffffffffffff1673ffffffffffffffffffffffffffffffffffffffff168152602001600282015481526020016003820154815260200160048201548152602001600582015481526020016006820160009054906101000a900460ff16600381111561038a57610389612b4c565b5b600381111561039c5761039b612b4c565b5b815260200160078201548152505090506103c0677a4fa443f0dd646b60c01b61293d565b6103d46707ba95f796c8a10260c01b61293d565b600060038111156103e8576103e7612b4c565b5b8160c0015160038111156103ff576103fe612b4c565b5b14158015610435575060038081111561041b5761041a612b4c565b5b8160c00151600381111561043257610431612b4c565b5b14155b156104945761044e67088091dfa12640c660c01b61293d565b610462677d44f4b501c4318360c01b61293d565b6040517f8a22693e00000000000000000000000000000000000000000000000000000000815260040160405180910390fd5b6104a86721c50106825c897d60c01b61293d565b6104bc67a7c7c5dfad30ec6560c01b61293d565b6104d067dfda96af9380697a60c01b61293d565b6104e4672eacbbaf4bd1038160c01b61293d565b826104f967527eb98e367f366c60c01b61293d565b61050d679810e0b36380003060c01b61293d565b61052167010c170a31d2120c60c01b61293d565b600060036000838152602001908152602001600020604051806101000160405290816000820160009054906101000a900473ffffffffffffffffffffffffffffffffffffffff1673ffffffffffffffffffffffffffffffffffffffff1673ffffffffffffffffffffffffffffffffffffffff1681526020016001820160009054906101000a900473ffffffffffffffffffffffffffffffffffffffff1673ffffffffffffffffffffffffffffffffffffffff1673ffffffffffffffffffffffffffffffffffffffff168152602001600282015481526020016003820154815260200160048201548152602001600582015481526020016006820160009054906101000a900460ff16600381111561063b5761063a612b4c565b5b600381111561064d5761064c612b4c565b5b815260200160078201548152505090506106716745d3b41a49d7ae0260c01b61293d565b610685677dd3f87b173f7fd660c01b61293d565b60008054906101000a900473ffffffffffffffffffffffffffffffffffffffff1673ffffffffffffffffffffffffffffffffffffffff163373ffffffffffffffffffffffffffffffffffffffff1614801561070857506003808111156106ee576106ed612b4c565b5b8160c00151600381111561070557610704612b4c565b5b14155b156107675761072167539a28d4bbb2f8bb60c01b61293d565b61073567964e40ee2cdeb52360c01b61293d565b6040517f8ab9b32900000000000000000000000000000000000000000000000000000000815260040160405180910390fd5b61077b6785176212632737a660c01b61293d565b61078f674c7003b2a701628760c01b61293d565b3373ffffffffffffffffffffffffffffffffffffffff16816000015173ffffffffffffffffffffffffffffffffffffffff161415801561081b575060008054906101000a900473ffffffffffffffffffffffffffffffffffffffff1673ffffffffffffffffffffffffffffffffffffffff163373ffffffffffffffffffffffffffffffffffffffff1614155b1561087a5761083467b8512d8a4a233cd460c01b61293d565b6108486722912976bd78484960c01b61293d565b6040517f76df155600000000000000000000000000000000000000000000000000000000815260040160405180910390fd5b61088e671738f3f3759d663d60c01b61293d565b6108a2678e687d28d1f0071d60c01b61293d565b806000015173ffffffffffffffffffffffffffffffffffffffff163373ffffffffffffffffffffffffffffffffffffffff1614801561090857506003808111156108ef576108ee612b4c565b5b8160c00151600381111561090657610905612b4c565b5b145b156109675761092167dfa79c7729e9ccc960c01b61293d565b6109356729062cc8dc02374160c01b61293d565b6040517f26b095e100000000000000000000000000000000000000000000000000000000815260040160405180910390fd5b61097b674bf8d5847ee50bf060c01b61293d565b61098f67a8cf46a670d916b060c01b61293d565b6109a367415590abf35f6c1660c01b61293d565b6109b76720dc0852a289c78660c01b61293d565b6109cb67587e37be3e2a8a9f60c01b61293d565b6109df675f071e8a3096ee0560c01b61293d565b6000600360008781526020019081526020016000209050610a0a67a4f4e0f2571abc7c60c01b61293d565b60028160060160006101000a81548160ff02191690836003811115610a3257610a31612b4c565b5b0217905550610a4b67fef194e3b5a36af260c01b61293d565b610a5f67c7d0a25614147d7a60c01b61293d565b60008160010160009054906101000a900473ffffffffffffffffffffffffffffffffffffffff1673ffffffffffffffffffffffffffffffffffffffff168260030154604051610aad90612e50565b60006040518083038185875af1925050503d8060008114610aea576040519150601f19603f3d011682016040523d82523d6000602084013e610aef565b606091505b50509050610b07676ade4ee43526370060c01b61293d565b610b1b67e5572a0ca148689e60c01b61293d565b80610b7a57610b3467d5fffa5233beb7b360c01b61293d565b610b48676954edc2badc589a60c01b61293d565b6040517f4abcf95000000000000000000000000000000000000000000000000000000000815260040160405180910390fd5b610b8e6762149c2c0697814060c01b61293d565b610ba267f65636fa082b6db760c01b61293d565b610bb667ea9568a7c09d234960c01b61293d565b867f6cbb2f5fc1a460905eb3b50b6c769589d8b1a201f03b7f04b1f3ce09c3aee78b60405160405180910390a250505050505050565b610c00670670fa0c97e324c060c01b61293d565b80610c1567a986cefeec85818760c01b61293d565b610c29679468e128eae60b1a60c01b61293d565b610c3d6796010dfaecf65cf660c01b61293d565b600060036000838152602001908152602001600020604051806101000160405290816000820160009054906101000a900473ffffffffffffffffffffffffffffffffffffffff1673ffffffffffffffffffffffffffffffffffffffff1673ffffffffffffffffffffffffffffffffffffffff1681526020016001820160009054906101000a900473ffffffffffffffffffffffffffffffffffffffff1673ffffffffffffffffffffffffffffffffffffffff1673ffffffffffffffffffffffffffffffffffffffff168152602001600282015481526020016003820154815260200160048201548152602001600582015481526020016006820160009054906101000a900460ff166003811115610d5757610d56612b4c565b5b6003811115610d6957610d68612b4c565b5b81526020016007820154815250509050610d8d677a4fa443f0dd646b60c01b61293d565b610da16707ba95f796c8a10260c01b61293d565b60006003811115610db557610db4612b4c565b5b8160c001516003811115610dcc57610dcb612b4c565b5b14158015610e025750600380811115610de857610de7612b4c565b5b8160c001516003811115610dff57610dfe612b4c565b5b14155b15610e6157610e1b67088091dfa12640c660c01b61293d565b610e2f677d44f4b501c4318360c01b61293d565b6040517f8a22693e00000000000000000000000000000000000000000000000000000000815260040160405180910390fd5b610e756721c50106825c897d60c01b61293d565b610e8967a7c7c5dfad30ec6560c01b61293d565b610e9d6787c4f702bfa41c4960c01b61293d565b610eb16702a89420d0376b4f60c01b61293d565b82610ec667ba63a8469acf7ec760c01b61293d565b610eda671b786cbfc5bbddb660c01b61293d565b610eee67d2a7682fbe9b96a560c01b61293d565b600060036000838152602001908152602001600020604051806101000160405290816000820160009054906101000a900473ffffffffffffffffffffffffffffffffffffffff1673ffffffffffffffffffffffffffffffffffffffff1673ffffffffffffffffffffffffffffffffffffffff1681526020016001820160009054906101000a900473ffffffffffffffffffffffffffffffffffffffff1673ffffffffffffffffffffffffffffffffffffffff1673ffffffffffffffffffffffffffffffffffffffff168152602001600282015481526020016003820154815260200160048201548152602001600582015481526020016006820160009054906101000a900460ff16600381111561100857611007612b4c565b5b600381111561101a57611019612b4c565b5b8152602001600782015481525050905061103e671614c4ab1e3c0e7860c01b61293d565b611052675d9eba9467bf36dc60c01b61293d565b60008054906101000a900473ffffffffffffffffffffffffffffffffffffffff1673ffffffffffffffffffffffffffffffffffffffff163373ffffffffffffffffffffffffffffffffffffffff161480156110d557506003808111156110bb576110ba612b4c565b5b8160c0015160038111156110d2576110d1612b4c565b5b14155b15611134576110ee67daa96c08f8cfbaeb60c01b61293d565b61110267d53a0eeba684915c60c01b61293d565b6040517f8ab9b32900000000000000000000000000000000000000000000000000000000815260040160405180910390fd5b61114867713e500cf31766c860c01b61293d565b61115c67982e8deea799826060c01b61293d565b3373ffffffffffffffffffffffffffffffffffffffff16816000015173ffffffffffffffffffffffffffffffffffffffff160361125c576111a7672910437015357dbb60c01b61293d565b6111bb670577ae683f7dab1060c01b61293d565b6111cf67c517ea917b60667060c01b61293d565b62278d008160800151426111e39190612e94565b1015611243576111fd671a195938f297bfe260c01b61293d565b611211674cf94b57c9058e2260c01b61293d565b6040517f586f49f700000000000000000000000000000000000000000000000000000000815260040160405180910390fd5b611257675f537d3611769a9f60c01b61293d565b611471565b611270678e213de2e7c0f3e960c01b61293d565b611284673da8eb50c5965f2460c01b61293d565b3373ffffffffffffffffffffffffffffffffffffffff16816020015173ffffffffffffffffffffffffffffffffffffffff1614158015611310575060008054906101000a900473ffffffffffffffffffffffffffffffffffffffff1673ffffffffffffffffffffffffffffffffffffffff163373ffffffffffffffffffffffffffffffffffffffff1614155b1561136f5761132967ea6c141a9ec09eee60c01b61293d565b61133d671b8d04d6aa36dae760c01b61293d565b6040517f492aab8600000000000000000000000000000000000000000000000000000000815260040160405180910390fd5b611383674f1337c4080ba2bd60c01b61293d565b61139767797479d6d3ab781160c01b61293d565b806020015173ffffffffffffffffffffffffffffffffffffffff163373ffffffffffffffffffffffffffffffffffffffff161480156113fd57506003808111156113e4576113e3612b4c565b5b8160c0015160038111156113fb576113fa612b4c565b5b145b1561145c57611416679967075ce7c0ed2d60c01b61293d565b61142a6710487ba0b33925a960c01b61293d565b6040517f26b095e100000000000000000000000000000000000000000000000000000000815260040160405180910390fd5b611470671416ec0410b1a7d460c01b61293d565b5b61148567081048211811fab560c01b61293d565b61149967ef0c336e0486155860c01b61293d565b6114ad6788916614ddb5604a60c01b61293d565b6114c16756289fca248217c160c01b61293d565b6114d56774a52728903ebc6860c01b61293d565b6000600360008781526020019081526020016000209050611500677bd10de6a7cabf1e60c01b61293d565b60018160060160006101000a81548160ff0219169083600381111561152857611527612b4c565b5b021790555061154167eca099b30beed68b60c01b61293d565b611555676b42d809763e0cb560c01b61293d565b60008160000160009054906101000a900473ffffffffffffffffffffffffffffffffffffffff1673ffffffffffffffffffffffffffffffffffffffff1682600301546040516115a390612e50565b60006040518083038185875af1925050503d80600081146115e0576040519150601f19603f3d011682016040523d82523d6000602084013e6115e5565b606091505b505090506115fd6772f4c21739eedc9f60c01b61293d565b611611676b52d77bcc5684f160c01b61293d565b806116705761162a67a0cd571f8e1d9e0a60c01b61293d565b61163e6715211b0b91d88cb460c01b61293d565b6040517f4abcf95000000000000000000000000000000000000000000000000000000000815260040160405180910390fd5b61168467befc3620270ff0f260c01b61293d565b611698673be2368da88b39f960c01b61293d565b6116ac671d10082a2ac305ca60c01b61293d565b867fd7c4eded732389526228283d2661ca619ed8096fffca8c0f0c3a6e2a7f4c449d60405160405180910390a250505050505050565b60006116f867067f3ff20160c53a60c01b61293d565b61170c676d8adabdabb8e40860c01b61293d565b611720674b677f51e981752d60c01b61293d565b61173467cc76fcbb1316d35360c01b61293d565b7f000000000000000000000000000000000000000000000000000000000000000073ffffffffffffffffffffffffffffffffffffffff163373ffffffffffffffffffffffffffffffffffffffff16146117e15761179b67298044c1cac2b2c360c01b61293d565b6117af67480d1a4a154abaec60c01b61293d565b6040517fab24dd7c00000000000000000000000000000000000000000000000000000000815260040160405180910390fd5b6117f567fa91eaed2c59f76e60c01b61293d565b611809678682a9107a6fd2c160c01b61293d565b61181d67f02905bc239efdd760c01b61293d565b6118316783bb511f2f4f471b60c01b61293d565b611845673c515e0c4f04e20860c01b61293d565b61185967458b5498b635041460c01b61293d565b60006040518061010001604052808873ffffffffffffffffffffffffffffffffffffffff1681526020018773ffffffffffffffffffffffffffffffffffffffff168152602001868152602001348152602001428152602001858152602001600060038111156118cb576118ca612b4c565b5b81526020018481525090506118ea67d053eb58535e341b60c01b61293d565b6118fe678ef53031548ea11260c01b61293d565b600160008773ffffffffffffffffffffffffffffffffffffffff1673ffffffffffffffffffffffffffffffffffffffff16815260200190815260200160002081908060018154018082558091505060019003906000526020600020906008020160009091909190915060008201518160000160006101000a81548173ffffffffffffffffffffffffffffffffffffffff021916908373ffffffffffffffffffffffffffffffffffffffff16021790555060208201518160010160006101000a81548173ffffffffffffffffffffffffffffffffffffffff021916908373ffffffffffffffffffffffffffffffffffffffff16021790555060408201518160020155606082015181600301556080820151816004015560a0820151816005015560c08201518160060160006101000a81548160ff02191690836003811115611a4857611a47612b4c565b5b021790555060e082015181600701555050611a6d67f64da947f2a6055560c01b61293d565b611a81674b43e0ebd8b8ed4960c01b61293d565b600260008873ffffffffffffffffffffffffffffffffffffffff1673ffffffffffffffffffffffffffffffffffffffff16815260200190815260200160002081908060018154018082558091505060019003906000526020600020906008020160009091909190915060008201518160000160006101000a81548173ffffffffffffffffffffffffffffffffffffffff021916908373ffffffffffffffffffffffffffffffffffffffff16021790555060208201518160010160006101000a81548173ffffffffffffffffffffffffffffffffffffffff021916908373ffffffffffffffffffffffffffffffffffffffff16021790555060408201518160020155606082015181600301556080820151816004015560a0820151816005015560c08201518160060160006101000a81548160ff02191690836003811115611bcb57611bca612b4c565b5b021790555060e082015181600701555050611bf067cd72c06404fb756860c01b61293d565b806003600086815260200190815260200160002060008201518160000160006101000a81548173ffffffffffffffffffffffffffffffffffffffff021916908373ffffffffffffffffffffffffffffffffffffffff16021790555060208201518160010160006101000a81548173ffffffffffffffffffffffffffffffffffffffff021916908373ffffffffffffffffffffffffffffffffffffffff16021790555060408201518160020155606082015181600301556080820151816004015560a0820151816005015560c08201518160060160006101000a81548160ff02191690836003811115611ce557611ce4612b4c565b5b021790555060e08201518160070155905050611d0b670eb3ca56f604eef860c01b61293d565b611d1f673326a407adac532560c01b61293d565b8060a0015191505095945050505050565b611d38612940565b611d4c67178b41e7b125903a60c01b61293d565b611d6067e9aa0b4e1574286860c01b61293d565b611d7467b7b337024c635da460c01b61293d565b600073ffffffffffffffffffffffffffffffffffffffff166003600084815260200190815260200160002060000160009054906101000a900473ffffffffffffffffffffffffffffffffffffffff1673ffffffffffffffffffffffffffffffffffffffff1603611e3857611df267062efda05f81889060c01b61293d565b611e0667628dffc3fab2ddf460c01b61293d565b6040517f56421a5700000000000000000000000000000000000000000000000000000000815260040160405180910390fd5b611e4c67f9165bffd114af6b60c01b61293d565b611e6067782cfc5a013337c960c01b61293d565b611e7467c1839b46b22f3b6360c01b61293d565b60036000838152602001908152602001600020604051806101000160405290816000820160009054906101000a900473ffffffffffffffffffffffffffffffffffffffff1673ffffffffffffffffffffffffffffffffffffffff1673ffffffffffffffffffffffffffffffffffffffff1681526020016001820160009054906101000a900473ffffffffffffffffffffffffffffffffffffffff1673ffffffffffffffffffffffffffffffffffffffff1673ffffffffffffffffffffffffffffffffffffffff168152602001600282015481526020016003820154815260200160048201548152602001600582015481526020016006820160009054906101000a900460ff166003811115611f8c57611f8b612b4c565b5b6003811115611f9e57611f9d612b4c565b5b81526020016007820154815250509050919050565b6060611fc9675630e77e0f7a210d60c01b61293d565b611fdd67548eaf65cf62560260c01b61293d565b611ff1671b8b13407c0938ae60c01b61293d565b6000600260003373ffffffffffffffffffffffffffffffffffffffff1673ffffffffffffffffffffffffffffffffffffffff168152602001908152602001600020805480602002602001604051908101604052809291908181526020016000905b8282101561219e5783829060005260206000209060080201604051806101000160405290816000820160009054906101000a900473ffffffffffffffffffffffffffffffffffffffff1673ffffffffffffffffffffffffffffffffffffffff1673ffffffffffffffffffffffffffffffffffffffff1681526020016001820160009054906101000a900473ffffffffffffffffffffffffffffffffffffffff1673ffffffffffffffffffffffffffffffffffffffff1673ffffffffffffffffffffffffffffffffffffffff168152602001600282015481526020016003820154815260200160048201548152602001600582015481526020016006820160009054906101000a900460ff16600381111561216f5761216e612b4c565b5b600381111561218157612180612b4c565b5b815260200160078201548152505081526020019060010190612052565b5050505090506121b86794793333fe2f079d60c01b61293d565b6121cc67772e1bf2ba854aef60c01b61293d565b8091505090565b60006121e9677d7411a39e1149c360c01b61293d565b6121fd67cf0552636919536060c01b61293d565b61221167f4df7bac6551b71f60c01b61293d565b60008054906101000a900473ffffffffffffffffffffffffffffffffffffffff16905090565b600061224d6768c626dcdd1cee0460c01b61293d565b6122616708dbabe6e49b837860c01b61293d565b612275678d2ffa62da82f61360c01b61293d565b7f0000000000000000000000000000000000000000000000000000000000000000905090565b6122af67b6521838e3348bb060c01b61293d565b806122c46758c8fea77f50a14160c01b61293d565b6122d867fcddb68f9c9cc26d60c01b61293d565b6122ec67ef3f468eca27f67e60c01b61293d565b600060036000838152602001908152602001600020604051806101000160405290816000820160009054906101000a900473ffffffffffffffffffffffffffffffffffffffff1673ffffffffffffffffffffffffffffffffffffffff1673ffffffffffffffffffffffffffffffffffffffff1681526020016001820160009054906101000a900473ffffffffffffffffffffffffffffffffffffffff1673ffffffffffffffffffffffffffffffffffffffff1673ffffffffffffffffffffffffffffffffffffffff168152602001600282015481526020016003820154815260200160048201548152602001600582015481526020016006820160009054906101000a900460ff16600381111561240657612405612b4c565b5b600381111561241857612417612b4c565b5b8152602001600782015481525050905061243c67f145d9f0b5b9eea060c01b61293d565b612450677fc0f059cbb7702260c01b61293d565b806000015173ffffffffffffffffffffffffffffffffffffffff163373ffffffffffffffffffffffffffffffffffffffff16141580156124c05750806020015173ffffffffffffffffffffffffffffffffffffffff163373ffffffffffffffffffffffffffffffffffffffff1614155b1561251f576124d967746f2bdd3eb0fd9c60c01b61293d565b6124ed67c88b3f2a7594271d60c01b61293d565b6040517f96b88c5100000000000000000000000000000000000000000000000000000000815260040160405180910390fd5b6125336747d00b45b5d7c4b060c01b61293d565b6125476783bf8d88684d9e8c60c01b61293d565b61255b67780ada794685c76e60c01b61293d565b61256f6710c326611e268a9160c01b61293d565b61258367265199fb51b21ef360c01b61293d565b61259767803583427c68b03560c01b61293d565b60006003600085815260200190815260200160002090506125c26755a5679af814216860c01b61293d565b6125d667670a39492e2fbec560c01b61293d565b600060038111156125ea576125e9612b4c565b5b8160060160009054906101000a900460ff16600381111561260e5761260d612b4c565b5b1461266d57612627678d4872af48d7af1760c01b61293d565b61263b67f321c11113ce73b260c01b61293d565b6040517ff609f42000000000000000000000000000000000000000000000000000000000815260040160405180910390fd5b61268167eaf59ce00d33cf9e60c01b61293d565b61269567289df4c4ff94ac8a60c01b61293d565b60038160060160006101000a81548160ff021916908360038111156126bd576126bc612b4c565b5b02179055506126d6674ac76f16116646b260c01b61293d565b6126ea674ea2110c63157fda60c01b61293d565b837f912a1e013de32e96d992fc6c81600eb5480705bfabb226c0b69811abf2b3abac60405160405180910390a250505050565b60606127336705e1e19b581157e460c01b61293d565b612747679707f403254cde5a60c01b61293d565b61275b67ceb693f2332168bd60c01b61293d565b6000600160003373ffffffffffffffffffffffffffffffffffffffff1673ffffffffffffffffffffffffffffffffffffffff168152602001908152602001600020805480602002602001604051908101604052809291908181526020016000905b828210156129085783829060005260206000209060080201604051806101000160405290816000820160009054906101000a900473ffffffffffffffffffffffffffffffffffffffff1673ffffffffffffffffffffffffffffffffffffffff1673ffffffffffffffffffffffffffffffffffffffff1681526020016001820160009054906101000a900473ffffffffffffffffffffffffffffffffffffffff1673ffffffffffffffffffffffffffffffffffffffff1673ffffffffffffffffffffffffffffffffffffffff168152602001600282015481526020016003820154815260200160048201548152602001600582015481526020016006820160009054906101000a900460ff1660038111156128d9576128d8612b4c565b5b60038111156128eb576128ea612b4c565b5b8152602001600782015481525050815260200190600101906127bc565b5050505090506129226721dfbe3fccf4c45160c01b61293d565b61293667c4f5d0024044adca60c01b61293d565b8091505090565b50565b604051806101000160405280600073ffffffffffffffffffffffffffffffffffffffff168152602001600073ffffffffffffffffffffffffffffffffffffffff16815260200160008152602001600081526020016000815260200160008152602001600060038111156129b6576129b5612b4c565b5b8152602001600081525090565b600080fd5b6000819050919050565b6129db816129c8565b81146129e657600080fd5b50565b6000813590506129f8816129d2565b92915050565b600060208284031215612a1457612a136129c3565b5b6000612a22848285016129e9565b91505092915050565b600073ffffffffffffffffffffffffffffffffffffffff82169050919050565b6000612a5682612a2b565b9050919050565b612a6681612a4b565b8114612a7157600080fd5b50565b600081359050612a8381612a5d565b92915050565b600080600080600060a08688031215612aa557612aa46129c3565b5b6000612ab388828901612a74565b9550506020612ac488828901612a74565b9450506040612ad5888289016129e9565b9350506060612ae6888289016129e9565b9250506080612af7888289016129e9565b9150509295509295909350565b612b0d816129c8565b82525050565b6000602082019050612b286000830184612b04565b92915050565b612b3781612a4b565b82525050565b612b46816129c8565b82525050565b7f4e487b7100000000000000000000000000000000000000000000000000000000600052602160045260246000fd5b60048110612b8c57612b8b612b4c565b5b50565b6000819050612b9d82612b7b565b919050565b6000612bad82612b8f565b9050919050565b612bbd81612ba2565b82525050565b61010082016000820151612bda6000850182612b2e565b506020820151612bed6020850182612b2e565b506040820151612c006040850182612b3d565b506060820151612c136060850182612b3d565b506080820151612c266080850182612b3d565b5060a0820151612c3960a0850182612b3d565b5060c0820151612c4c60c0850182612bb4565b5060e0820151612c5f60e0850182612b3d565b50505050565b600061010082019050612c7b6000830184612bc3565b92915050565b600081519050919050565b600082825260208201905092915050565b6000819050602082019050919050565b61010082016000820151612cc46000850182612b2e565b506020820151612cd76020850182612b2e565b506040820151612cea6040850182612b3d565b506060820151612cfd6060850182612b3d565b506080820151612d106080850182612b3d565b5060a0820151612d2360a0850182612b3d565b5060c0820151612d3660c0850182612bb4565b5060e0820151612d4960e0850182612b3d565b50505050565b6000612d5b8383612cad565b6101008301905092915050565b6000602082019050919050565b6000612d8082612c81565b612d8a8185612c8c565b9350612d9583612c9d565b8060005b83811015612dc6578151612dad8882612d4f565b9750612db883612d68565b925050600181019050612d99565b5085935050505092915050565b60006020820190508181036000830152612ded8184612d75565b905092915050565b612dfe81612a4b565b82525050565b6000602082019050612e196000830184612df5565b92915050565b600081905092915050565b50565b6000612e3a600083612e1f565b9150612e4582612e2a565b600082019050919050565b6000612e5b82612e2d565b9150819050919050565b7f4e487b7100000000000000000000000000000000000000000000000000000000600052601160045260246000fd5b6000612e9f826129c8565b9150612eaa836129c8565b9250828203905081811115612ec257612ec1612e65565b5b9291505056fea2646970667358221220f10bdd9182d6bcd0dcbb2fa5a3f9f27df11967f9d26290d74106a33ec941241564736f6c63430008130033","opcodes":"PUSH1 0xC0 PUSH1 0x40 MSTORE CALLVALUE DUP1 ISZERO PUSH3 0x11 JUMPI PUSH1 0x0 DUP1 REVERT JUMPDEST POP PUSH3 0x2E PUSH8 0x8CBA0718B6BAEA9D PUSH1 0xC0 SHL PUSH3 0x10E PUSH1 0x20 SHL PUSH1 0x20 SHR JUMP JUMPDEST PUSH3 0x4A PUSH8 0x2728351ABE9847F2 PUSH1 0xC0 SHL PUSH3 0x10E PUSH1 0x20 SHL PUSH1 0x20 SHR JUMP JUMPDEST ADDRESS CALLER PUSH1 0x40 MLOAD PUSH3 0x5A SWAP1 PUSH3 0x111 JUMP JUMPDEST PUSH3 0x67 SWAP3 SWAP2 SWAP1 PUSH3 0x164 JUMP JUMPDEST PUSH1 0x40 MLOAD DUP1 SWAP2 SUB SWAP1 PUSH1 0x0 CREATE DUP1 ISZERO DUP1 ISZERO PUSH3 0x84 JUMPI RETURNDATASIZE PUSH1 0x0 DUP1 RETURNDATACOPY RETURNDATASIZE PUSH1 0x0 REVERT JUMPDEST POP PUSH20 0xFFFFFFFFFFFFFFFFFFFFFFFFFFFFFFFFFFFFFFFF AND PUSH1 0x80 DUP2 PUSH20 0xFFFFFFFFFFFFFFFFFFFFFFFFFFFFFFFFFFFFFFFF AND DUP2 MSTORE POP POP PUSH3 0xD4 PUSH8 0x1CEC51448ECF20B1 PUSH1 0xC0 SHL PUSH3 0x10E PUSH1 0x20 SHL PUSH1 0x20 SHR JUMP JUMPDEST CALLER PUSH20 0xFFFFFFFFFFFFFFFFFFFFFFFFFFFFFFFFFFFFFFFF AND PUSH1 0xA0 DUP2 PUSH20 0xFFFFFFFFFFFFFFFFFFFFFFFFFFFFFFFFFFFFFFFF AND DUP2 MSTORE POP POP PUSH3 0x191 JUMP JUMPDEST POP JUMP JUMPDEST PUSH2 0x30DC DUP1 PUSH3 0x1C40 DUP4 CODECOPY ADD SWAP1 JUMP JUMPDEST PUSH1 0x0 PUSH20 0xFFFFFFFFFFFFFFFFFFFFFFFFFFFFFFFFFFFFFFFF DUP3 AND SWAP1 POP SWAP2 SWAP1 POP JUMP JUMPDEST PUSH1 0x0 PUSH3 0x14C DUP3 PUSH3 0x11F JUMP JUMPDEST SWAP1 POP SWAP2 SWAP1 POP JUMP JUMPDEST PUSH3 0x15E DUP2 PUSH3 0x13F JUMP JUMPDEST DUP3 MSTORE POP POP JUMP JUMPDEST PUSH1 0x0 PUSH1 0x40 DUP3 ADD SWAP1 POP PUSH3 0x17B PUSH1 0x0 DUP4 ADD DUP6 PUSH3 0x153 JUMP JUMPDEST PUSH3 0x18A PUSH1 0x20 DUP4 ADD DUP5 PUSH3 0x153 JUMP JUMPDEST SWAP4 SWAP3 POP POP POP JUMP JUMPDEST PUSH1 0x80 MLOAD PUSH1 0xA0 MLOAD PUSH2 0x1A82 PUSH3 0x1BE PUSH1 0x0 CODECOPY PUSH1 0x0 PUSH2 0x68E ADD MSTORE PUSH1 0x0 DUP2 DUP2 PUSH2 0x19D ADD MSTORE PUSH2 0x952 ADD MSTORE PUSH2 0x1A82 PUSH1 0x0 RETURN INVALID PUSH1 0x80 PUSH1 0x40 MSTORE PUSH1 0x4 CALLDATASIZE LT PUSH2 0x55 JUMPI PUSH1 0x0 CALLDATALOAD PUSH1 0xE0 SHR DUP1 PUSH4 0x122FD48A EQ PUSH2 0x5A JUMPI DUP1 PUSH4 0x3873AB24 EQ PUSH2 0x85 JUMPI DUP1 PUSH4 0x3F70C2B4 EQ PUSH2 0xB0 JUMPI DUP1 PUSH4 0x893D20E8 EQ PUSH2 0xED JUMPI DUP1 PUSH4 0xBEFF9577 EQ PUSH2 0x118 JUMPI DUP1 PUSH4 0xECB6A825 EQ PUSH2 0x134 JUMPI JUMPDEST PUSH1 0x0 DUP1 REVERT JUMPDEST CALLVALUE DUP1 ISZERO PUSH2 0x66 JUMPI PUSH1 0x0 DUP1 REVERT JUMPDEST POP PUSH2 0x6F PUSH2 0x15D JUMP JUMPDEST PUSH1 0x40 MLOAD PUSH2 0x7C SWAP2 SWAP1 PUSH2 0xFBA JUMP JUMPDEST PUSH1 0x40 MLOAD DUP1 SWAP2 SUB SWAP1 RETURN JUMPDEST CALLVALUE DUP1 ISZERO PUSH2 0x91 JUMPI PUSH1 0x0 DUP1 REVERT JUMPDEST POP PUSH2 0x9A PUSH2 0x1C1 JUMP JUMPDEST PUSH1 0x40 MLOAD PUSH2 0xA7 SWAP2 SWAP1 PUSH2 0x11D8 JUMP JUMPDEST PUSH1 0x40 MLOAD DUP1 SWAP2 SUB SWAP1 RETURN JUMPDEST CALLVALUE DUP1 ISZERO PUSH2 0xBC JUMPI PUSH1 0x0 DUP1 REVERT JUMPDEST POP PUSH2 0xD7 PUSH1 0x4 DUP1 CALLDATASIZE SUB DUP2 ADD SWAP1 PUSH2 0xD2 SWAP2 SWAP1 PUSH2 0x123A JUMP JUMPDEST PUSH2 0x3D7 JUMP JUMPDEST PUSH1 0x40 MLOAD PUSH2 0xE4 SWAP2 SWAP1 PUSH2 0x12F0 JUMP JUMPDEST PUSH1 0x40 MLOAD DUP1 SWAP2 SUB SWAP1 RETURN JUMPDEST CALLVALUE DUP1 ISZERO PUSH2 0xF9 JUMPI PUSH1 0x0 DUP1 REVERT JUMPDEST POP PUSH2 0x102 PUSH2 0x64E JUMP JUMPDEST PUSH1 0x40 MLOAD PUSH2 0x10F SWAP2 SWAP1 PUSH2 0xFBA JUMP JUMPDEST PUSH1 0x40 MLOAD DUP1 SWAP2 SUB SWAP1 RETURN JUMPDEST PUSH2 0x132 PUSH1 0x4 DUP1 CALLDATASIZE SUB DUP2 ADD SWAP1 PUSH2 0x12D SWAP2 SWAP1 PUSH2 0x1312 JUMP JUMPDEST PUSH2 0x6B2 JUMP JUMPDEST STOP JUMPDEST CALLVALUE DUP1 ISZERO PUSH2 0x140 JUMPI PUSH1 0x0 DUP1 REVERT JUMPDEST POP PUSH2 0x15B PUSH1 0x4 DUP1 CALLDATASIZE SUB DUP2 ADD SWAP1 PUSH2 0x156 SWAP2 SWAP1 PUSH2 0x149A JUMP JUMPDEST PUSH2 0xC5F JUMP JUMPDEST STOP JUMPDEST PUSH1 0x0 PUSH2 0x173 PUSH8 0xA53BAA258F9529C5 PUSH1 0xC0 SHL PUSH2 0xF2A JUMP JUMPDEST PUSH2 0x187 PUSH8 0xB820CC60119840CC PUSH1 0xC0 SHL PUSH2 0xF2A JUMP JUMPDEST PUSH2 0x19B PUSH8 0xD22F2A7586CBDD5F PUSH1 0xC0 SHL PUSH2 0xF2A JUMP JUMPDEST PUSH32 0x0 SWAP1 POP SWAP1 JUMP JUMPDEST PUSH1 0x60 PUSH2 0x1D7 PUSH8 0x8F3BEEF1E6D012CC PUSH1 0xC0 SHL PUSH2 0xF2A JUMP JUMPDEST PUSH2 0x1EB PUSH8 0xD93472929DEB9342 PUSH1 0xC0 SHL PUSH2 0xF2A JUMP JUMPDEST PUSH2 0x1FF PUSH8 0xAFB736E0D00AFDB2 PUSH1 0xC0 SHL PUSH2 0xF2A JUMP JUMPDEST PUSH1 0x0 PUSH1 0x1 PUSH1 0x0 CALLER PUSH20 0xFFFFFFFFFFFFFFFFFFFFFFFFFFFFFFFFFFFFFFFF AND PUSH20 0xFFFFFFFFFFFFFFFFFFFFFFFFFFFFFFFFFFFFFFFF AND DUP2 MSTORE PUSH1 0x20 ADD SWAP1 DUP2 MSTORE PUSH1 0x20 ADD PUSH1 0x0 KECCAK256 DUP1 SLOAD DUP1 PUSH1 0x20 MUL PUSH1 0x20 ADD PUSH1 0x40 MLOAD SWAP1 DUP2 ADD PUSH1 0x40 MSTORE DUP1 SWAP3 SWAP2 SWAP1 DUP2 DUP2 MSTORE PUSH1 0x20 ADD PUSH1 0x0 SWAP1 JUMPDEST DUP3 DUP3 LT ISZERO PUSH2 0x3A2 JUMPI DUP4 DUP3 SWAP1 PUSH1 0x0 MSTORE PUSH1 0x20 PUSH1 0x0 KECCAK256 SWAP1 PUSH1 0x6 MUL ADD PUSH1 0x40 MLOAD DUP1 PUSH1 0xC0 ADD PUSH1 0x40 MSTORE SWAP1 DUP2 PUSH1 0x0 DUP3 ADD PUSH1 0x0 SWAP1 SLOAD SWAP1 PUSH2 0x100 EXP SWAP1 DIV PUSH20 0xFFFFFFFFFFFFFFFFFFFFFFFFFFFFFFFFFFFFFFFF AND PUSH20 0xFFFFFFFFFFFFFFFFFFFFFFFFFFFFFFFFFFFFFFFF AND PUSH20 0xFFFFFFFFFFFFFFFFFFFFFFFFFFFFFFFFFFFFFFFF AND DUP2 MSTORE PUSH1 0x20 ADD PUSH1 0x1 DUP3 ADD SLOAD DUP2 MSTORE PUSH1 0x20 ADD PUSH1 0x2 DUP3 ADD SLOAD DUP2 MSTORE PUSH1 0x20 ADD PUSH1 0x3 DUP3 ADD SLOAD DUP2 MSTORE PUSH1 0x20 ADD PUSH1 0x4 DUP3 ADD SLOAD DUP2 MSTORE PUSH1 0x20 ADD PUSH1 0x5 DUP3 ADD DUP1 SLOAD PUSH2 0x311 SWAP1 PUSH2 0x1560 JUMP JUMPDEST DUP1 PUSH1 0x1F ADD PUSH1 0x20 DUP1 SWAP2 DIV MUL PUSH1 0x20 ADD PUSH1 0x40 MLOAD SWAP1 DUP2 ADD PUSH1 0x40 MSTORE DUP1 SWAP3 SWAP2 SWAP1 DUP2 DUP2 MSTORE PUSH1 0x20 ADD DUP3 DUP1 SLOAD PUSH2 0x33D SWAP1 PUSH2 0x1560 JUMP JUMPDEST DUP1 ISZERO PUSH2 0x38A JUMPI DUP1 PUSH1 0x1F LT PUSH2 0x35F JUMPI PUSH2 0x100 DUP1 DUP4 SLOAD DIV MUL DUP4 MSTORE SWAP2 PUSH1 0x20 ADD SWAP2 PUSH2 0x38A JUMP JUMPDEST DUP3 ADD SWAP2 SWAP1 PUSH1 0x0 MSTORE PUSH1 0x20 PUSH1 0x0 KECCAK256 SWAP1 JUMPDEST DUP2 SLOAD DUP2 MSTORE SWAP1 PUSH1 0x1 ADD SWAP1 PUSH1 0x20 ADD DUP1 DUP4 GT PUSH2 0x36D JUMPI DUP3 SWAP1 SUB PUSH1 0x1F AND DUP3 ADD SWAP2 JUMPDEST POP POP POP POP POP DUP2 MSTORE POP POP DUP2 MSTORE PUSH1 0x20 ADD SWAP1 PUSH1 0x1 ADD SWAP1 PUSH2 0x260 JUMP JUMPDEST POP POP POP POP SWAP1 POP PUSH2 0x3BC PUSH8 0x304BFC94B862C8A8 PUSH1 0xC0 SHL PUSH2 0xF2A JUMP JUMPDEST PUSH2 0x3D0 PUSH8 0x13F30B9B3ACAE88 PUSH1 0xC0 SHL PUSH2 0xF2A JUMP JUMPDEST DUP1 SWAP2 POP POP SWAP1 JUMP JUMPDEST PUSH2 0x3DF PUSH2 0xF2D JUMP JUMPDEST PUSH2 0x3F3 PUSH8 0x2919E17AF44CCA12 PUSH1 0xC0 SHL PUSH2 0xF2A JUMP JUMPDEST PUSH2 0x407 PUSH8 0x29002E00ADC24241 PUSH1 0xC0 SHL PUSH2 0xF2A JUMP JUMPDEST PUSH2 0x41B PUSH8 0xCA28008DEC5FDAF3 PUSH1 0xC0 SHL PUSH2 0xF2A JUMP JUMPDEST PUSH1 0x0 PUSH20 0xFFFFFFFFFFFFFFFFFFFFFFFFFFFFFFFFFFFFFFFF AND PUSH1 0x0 DUP1 DUP5 DUP2 MSTORE PUSH1 0x20 ADD SWAP1 DUP2 MSTORE PUSH1 0x20 ADD PUSH1 0x0 KECCAK256 PUSH1 0x0 ADD PUSH1 0x0 SWAP1 SLOAD SWAP1 PUSH2 0x100 EXP SWAP1 DIV PUSH20 0xFFFFFFFFFFFFFFFFFFFFFFFFFFFFFFFFFFFFFFFF AND PUSH20 0xFFFFFFFFFFFFFFFFFFFFFFFFFFFFFFFFFFFFFFFF AND SUB PUSH2 0x4DE JUMPI PUSH2 0x498 PUSH8 0xDBD555C739B803BC PUSH1 0xC0 SHL PUSH2 0xF2A JUMP JUMPDEST PUSH2 0x4AC PUSH8 0x18E44BB9899B65E1 PUSH1 0xC0 SHL PUSH2 0xF2A JUMP JUMPDEST PUSH1 0x40 MLOAD PUSH32 0xFA130D1500000000000000000000000000000000000000000000000000000000 DUP2 MSTORE PUSH1 0x4 ADD PUSH1 0x40 MLOAD DUP1 SWAP2 SUB SWAP1 REVERT JUMPDEST PUSH2 0x4F2 PUSH8 0x8707FD7731EDAD76 PUSH1 0xC0 SHL PUSH2 0xF2A JUMP JUMPDEST PUSH2 0x506 PUSH8 0xF3D89EFBED7F649E PUSH1 0xC0 SHL PUSH2 0xF2A JUMP JUMPDEST PUSH2 0x51A PUSH8 0xE141312109DD5C64 PUSH1 0xC0 SHL PUSH2 0xF2A JUMP JUMPDEST PUSH1 0x0 DUP1 DUP4 DUP2 MSTORE PUSH1 0x20 ADD SWAP1 DUP2 MSTORE PUSH1 0x20 ADD PUSH1 0x0 KECCAK256 PUSH1 0x40 MLOAD DUP1 PUSH1 0xC0 ADD PUSH1 0x40 MSTORE SWAP1 DUP2 PUSH1 0x0 DUP3 ADD PUSH1 0x0 SWAP1 SLOAD SWAP1 PUSH2 0x100 EXP SWAP1 DIV PUSH20 0xFFFFFFFFFFFFFFFFFFFFFFFFFFFFFFFFFFFFFFFF AND PUSH20 0xFFFFFFFFFFFFFFFFFFFFFFFFFFFFFFFFFFFFFFFF AND PUSH20 0xFFFFFFFFFFFFFFFFFFFFFFFFFFFFFFFFFFFFFFFF AND DUP2 MSTORE PUSH1 0x20 ADD PUSH1 0x1 DUP3 ADD SLOAD DUP2 MSTORE PUSH1 0x20 ADD PUSH1 0x2 DUP3 ADD SLOAD DUP2 MSTORE PUSH1 0x20 ADD PUSH1 0x3 DUP3 ADD SLOAD DUP2 MSTORE PUSH1 0x20 ADD PUSH1 0x4 DUP3 ADD SLOAD DUP2 MSTORE PUSH1 0x20 ADD PUSH1 0x5 DUP3 ADD DUP1 SLOAD PUSH2 0x5C5 SWAP1 PUSH2 0x1560 JUMP JUMPDEST DUP1 PUSH1 0x1F ADD PUSH1 0x20 DUP1 SWAP2 DIV MUL PUSH1 0x20 ADD PUSH1 0x40 MLOAD SWAP1 DUP2 ADD PUSH1 0x40 MSTORE DUP1 SWAP3 SWAP2 SWAP1 DUP2 DUP2 MSTORE PUSH1 0x20 ADD DUP3 DUP1 SLOAD PUSH2 0x5F1 SWAP1 PUSH2 0x1560 JUMP JUMPDEST DUP1 ISZERO PUSH2 0x63E JUMPI DUP1 PUSH1 0x1F LT PUSH2 0x613 JUMPI PUSH2 0x100 DUP1 DUP4 SLOAD DIV MUL DUP4 MSTORE SWAP2 PUSH1 0x20 ADD SWAP2 PUSH2 0x63E JUMP JUMPDEST DUP3 ADD SWAP2 SWAP1 PUSH1 0x0 MSTORE PUSH1 0x20 PUSH1 0x0 KECCAK256 SWAP1 JUMPDEST DUP2 SLOAD DUP2 MSTORE SWAP1 PUSH1 0x1 ADD SWAP1 PUSH1 0x20 ADD DUP1 DUP4 GT PUSH2 0x621 JUMPI DUP3 SWAP1 SUB PUSH1 0x1F AND DUP3 ADD SWAP2 JUMPDEST POP POP POP POP POP DUP2 MSTORE POP POP SWAP1 POP SWAP2 SWAP1 POP JUMP JUMPDEST PUSH1 0x0 PUSH2 0x664 PUSH8 0x7C224ECA154187DE PUSH1 0xC0 SHL PUSH2 0xF2A JUMP JUMPDEST PUSH2 0x678 PUSH8 0x4366AAD32EB8DA14 PUSH1 0xC0 SHL PUSH2 0xF2A JUMP JUMPDEST PUSH2 0x68C PUSH8 0x80A9977995C733BF PUSH1 0xC0 SHL PUSH2 0xF2A JUMP JUMPDEST PUSH32 0x0 SWAP1 POP SWAP1 JUMP JUMPDEST PUSH2 0x6C6 PUSH8 0xBA4F4F6E70232AB4 PUSH1 0xC0 SHL PUSH2 0xF2A JUMP JUMPDEST PUSH2 0x6DA PUSH8 0xB70A2CBCA9B61AE5 PUSH1 0xC0 SHL PUSH2 0xF2A JUMP JUMPDEST PUSH2 0x6EE PUSH8 0x6CBBF2D75ED3B387 PUSH1 0xC0 SHL PUSH2 0xF2A JUMP JUMPDEST PUSH1 0x0 PUSH2 0x6F9 DUP5 PUSH2 0x3D7 JUMP JUMPDEST SWAP1 POP PUSH2 0x70F PUSH8 0xCDC6124DDAE38CDC PUSH1 0xC0 SHL PUSH2 0xF2A JUMP JUMPDEST PUSH2 0x723 PUSH8 0xBFE1AAF2F28B0334 PUSH1 0xC0 SHL PUSH2 0xF2A JUMP JUMPDEST CALLER PUSH20 0xFFFFFFFFFFFFFFFFFFFFFFFFFFFFFFFFFFFFFFFF AND DUP2 PUSH1 0x0 ADD MLOAD PUSH20 0xFFFFFFFFFFFFFFFFFFFFFFFFFFFFFFFFFFFFFFFF AND SUB PUSH2 0x7B4 JUMPI PUSH2 0x76E PUSH8 0xB310304797123F19 PUSH1 0xC0 SHL PUSH2 0xF2A JUMP JUMPDEST PUSH2 0x782 PUSH8 0xAB891A1C6434D1F1 PUSH1 0xC0 SHL PUSH2 0xF2A JUMP JUMPDEST PUSH1 0x40 MLOAD PUSH32 0x143BCD5C00000000000000000000000000000000000000000000000000000000 DUP2 MSTORE PUSH1 0x4 ADD PUSH1 0x40 MLOAD DUP1 SWAP2 SUB SWAP1 REVERT JUMPDEST PUSH2 0x7C8 PUSH8 0x566A2184866756C3 PUSH1 0xC0 SHL PUSH2 0xF2A JUMP JUMPDEST PUSH2 0x7DC PUSH8 0xE43581D3DABF0D32 PUSH1 0xC0 SHL PUSH2 0xF2A JUMP JUMPDEST PUSH2 0x7F0 PUSH8 0x6FDD6AFF41EBAB6E PUSH1 0xC0 SHL PUSH2 0xF2A JUMP JUMPDEST DUP1 PUSH1 0x80 ADD MLOAD DUP4 GT ISZERO PUSH2 0x856 JUMPI PUSH2 0x810 PUSH8 0x9CCA827127EB2153 PUSH1 0xC0 SHL PUSH2 0xF2A JUMP JUMPDEST PUSH2 0x824 PUSH8 0x2BDA5D0BDC72EA62 PUSH1 0xC0 SHL PUSH2 0xF2A JUMP JUMPDEST PUSH1 0x40 MLOAD PUSH32 0x2B2E799600000000000000000000000000000000000000000000000000000000 DUP2 MSTORE PUSH1 0x4 ADD PUSH1 0x40 MLOAD DUP1 SWAP2 SUB SWAP1 REVERT JUMPDEST PUSH2 0x86A PUSH8 0x3F5007C728EB3562 PUSH1 0xC0 SHL PUSH2 0xF2A JUMP JUMPDEST PUSH2 0x87E PUSH8 0x6CD1A06041A98F5 PUSH1 0xC0 SHL PUSH2 0xF2A JUMP JUMPDEST PUSH2 0x892 PUSH8 0xC23F32CEB89D37A6 PUSH1 0xC0 SHL PUSH2 0xF2A JUMP JUMPDEST DUP1 PUSH1 0x60 ADD MLOAD DUP4 DUP3 PUSH1 0x40 ADD MLOAD PUSH2 0x8A7 SWAP2 SWAP1 PUSH2 0x15C0 JUMP JUMPDEST PUSH2 0x8B1 SWAP2 SWAP1 PUSH2 0x1602 JUMP JUMPDEST CALLVALUE LT ISZERO PUSH2 0x912 JUMPI PUSH2 0x8CC PUSH8 0x68218F3B7BFCB196 PUSH1 0xC0 SHL PUSH2 0xF2A JUMP JUMPDEST PUSH2 0x8E0 PUSH8 0x57F0086508EBBC7B PUSH1 0xC0 SHL PUSH2 0xF2A JUMP JUMPDEST PUSH1 0x40 MLOAD PUSH32 0x250C003600000000000000000000000000000000000000000000000000000000 DUP2 MSTORE PUSH1 0x4 ADD PUSH1 0x40 MLOAD DUP1 SWAP2 SUB SWAP1 REVERT JUMPDEST PUSH2 0x926 PUSH8 0x87443C07DD8FD9E2 PUSH1 0xC0 SHL PUSH2 0xF2A JUMP JUMPDEST PUSH2 0x93A PUSH8 0xBC7B29CFAA113A23 PUSH1 0xC0 SHL PUSH2 0xF2A JUMP JUMPDEST PUSH2 0x94E PUSH8 0x75AE833B39B8DE6F PUSH1 0xC0 SHL PUSH2 0xF2A JUMP JUMPDEST PUSH1 0x0 PUSH32 0x0 PUSH20 0xFFFFFFFFFFFFFFFFFFFFFFFFFFFFFFFFFFFFFFFF AND PUSH4 0x3BF3110F DUP4 PUSH1 0x60 ADD MLOAD DUP7 DUP6 PUSH1 0x40 ADD MLOAD PUSH2 0x9A1 SWAP2 SWAP1 PUSH2 0x15C0 JUMP JUMPDEST PUSH2 0x9AB SWAP2 SWAP1 PUSH2 0x1602 JUMP JUMPDEST DUP5 PUSH1 0x0 ADD MLOAD CALLER DUP7 PUSH1 0x20 ADD MLOAD DUP9 DUP11 PUSH1 0x40 MLOAD DUP8 PUSH4 0xFFFFFFFF AND PUSH1 0xE0 SHL DUP2 MSTORE PUSH1 0x4 ADD PUSH2 0x9D8 SWAP6 SWAP5 SWAP4 SWAP3 SWAP2 SWAP1 PUSH2 0x1645 JUMP JUMPDEST PUSH1 0x20 PUSH1 0x40 MLOAD DUP1 DUP4 SUB DUP2 DUP6 DUP9 GAS CALL ISZERO DUP1 ISZERO PUSH2 0x9F6 JUMPI RETURNDATASIZE PUSH1 0x0 DUP1 RETURNDATACOPY RETURNDATASIZE PUSH1 0x0 REVERT JUMPDEST POP POP POP POP POP PUSH1 0x40 MLOAD RETURNDATASIZE PUSH1 0x1F NOT PUSH1 0x1F DUP3 ADD AND DUP3 ADD DUP1 PUSH1 0x40 MSTORE POP DUP2 ADD SWAP1 PUSH2 0xA1B SWAP2 SWAP1 PUSH2 0x16AD JUMP JUMPDEST SWAP1 POP PUSH2 0xA31 PUSH8 0xB790AB9981AB4D93 PUSH1 0xC0 SHL PUSH2 0xF2A JUMP JUMPDEST PUSH2 0xA45 PUSH8 0xBDC8426709BF66A5 PUSH1 0xC0 SHL PUSH2 0xF2A JUMP JUMPDEST PUSH1 0x0 DUP3 PUSH1 0x60 ADD MLOAD DUP6 DUP5 PUSH1 0x40 ADD MLOAD PUSH2 0xA5C SWAP2 SWAP1 PUSH2 0x15C0 JUMP JUMPDEST PUSH2 0xA66 SWAP2 SWAP1 PUSH2 0x1602 JUMP JUMPDEST CALLVALUE PUSH2 0xA71 SWAP2 SWAP1 PUSH2 0x16DA JUMP JUMPDEST SWAP1 POP PUSH2 0xA87 PUSH8 0x5DFA6510FCEF07B PUSH1 0xC0 SHL PUSH2 0xF2A JUMP JUMPDEST PUSH2 0xA9B PUSH8 0xDC975A4B4AAFF935 PUSH1 0xC0 SHL PUSH2 0xF2A JUMP JUMPDEST PUSH1 0x0 DUP2 GT ISZERO PUSH2 0xBED JUMPI PUSH2 0xAB8 PUSH8 0xB3C125875CDE6317 PUSH1 0xC0 SHL PUSH2 0xF2A JUMP JUMPDEST PUSH2 0xACC PUSH8 0xF09E8B817B6BFD3E PUSH1 0xC0 SHL PUSH2 0xF2A JUMP JUMPDEST PUSH2 0xAE0 PUSH8 0xE038E8F5D75B29C8 PUSH1 0xC0 SHL PUSH2 0xF2A JUMP JUMPDEST PUSH1 0x0 CALLER PUSH20 0xFFFFFFFFFFFFFFFFFFFFFFFFFFFFFFFFFFFFFFFF AND DUP3 PUSH1 0x40 MLOAD PUSH2 0xB06 SWAP1 PUSH2 0x173F JUMP JUMPDEST PUSH1 0x0 PUSH1 0x40 MLOAD DUP1 DUP4 SUB DUP2 DUP6 DUP8 GAS CALL SWAP3 POP POP POP RETURNDATASIZE DUP1 PUSH1 0x0 DUP2 EQ PUSH2 0xB43 JUMPI PUSH1 0x40 MLOAD SWAP2 POP PUSH1 0x1F NOT PUSH1 0x3F RETURNDATASIZE ADD AND DUP3 ADD PUSH1 0x40 MSTORE RETURNDATASIZE DUP3 MSTORE RETURNDATASIZE PUSH1 0x0 PUSH1 0x20 DUP5 ADD RETURNDATACOPY PUSH2 0xB48 JUMP JUMPDEST PUSH1 0x60 SWAP2 POP JUMPDEST POP POP SWAP1 POP PUSH2 0xB60 PUSH8 0xBB1749EEFA776CA6 PUSH1 0xC0 SHL PUSH2 0xF2A JUMP JUMPDEST PUSH2 0xB74 PUSH8 0x6AA45FA9AF111131 PUSH1 0xC0 SHL PUSH2 0xF2A JUMP JUMPDEST DUP1 PUSH2 0xBD3 JUMPI PUSH2 0xB8D PUSH8 0xBDBEF0C8E72BC773 PUSH1 0xC0 SHL PUSH2 0xF2A JUMP JUMPDEST PUSH2 0xBA1 PUSH8 0x4361D1C7DACEA6CA PUSH1 0xC0 SHL PUSH2 0xF2A JUMP JUMPDEST PUSH1 0x40 MLOAD PUSH32 0x3A06D36900000000000000000000000000000000000000000000000000000000 DUP2 MSTORE PUSH1 0x4 ADD PUSH1 0x40 MLOAD DUP1 SWAP2 SUB SWAP1 REVERT JUMPDEST PUSH2 0xBE7 PUSH8 0xCBAD85B3D5C7F4C PUSH1 0xC0 SHL PUSH2 0xF2A JUMP JUMPDEST POP PUSH2 0xC02 JUMP JUMPDEST PUSH2 0xC01 PUSH8 0xBB1CCC7538E0AB87 PUSH1 0xC0 SHL PUSH2 0xF2A JUMP JUMPDEST JUMPDEST PUSH2 0xC16 PUSH8 0xFB379026E6D0F737 PUSH1 0xC0 SHL PUSH2 0xF2A JUMP JUMPDEST PUSH2 0xC2A PUSH8 0x68E17EFFB2527AA7 PUSH1 0xC0 SHL PUSH2 0xF2A JUMP JUMPDEST DUP2 PUSH32 0xCA570940FC0DE1684A030665039469593DD4C228A17D8DA38A53BBE884C07CAF PUSH1 0x40 MLOAD PUSH1 0x40 MLOAD DUP1 SWAP2 SUB SWAP1 LOG2 POP POP POP POP POP POP JUMP JUMPDEST PUSH2 0xC73 PUSH8 0x188D9B6AE7FA4886 PUSH1 0xC0 SHL PUSH2 0xF2A JUMP JUMPDEST PUSH2 0xC87 PUSH8 0x3C531B4F106D86E7 PUSH1 0xC0 SHL PUSH2 0xF2A JUMP JUMPDEST PUSH2 0xC9B PUSH8 0x92D60C865E6BD71C PUSH1 0xC0 SHL PUSH2 0xF2A JUMP JUMPDEST PUSH1 0x0 PUSH1 0x40 MLOAD DUP1 PUSH1 0xC0 ADD PUSH1 0x40 MSTORE DUP1 CALLER PUSH20 0xFFFFFFFFFFFFFFFFFFFFFFFFFFFFFFFFFFFFFFFF AND DUP2 MSTORE PUSH1 0x20 ADD DUP8 DUP2 MSTORE PUSH1 0x20 ADD DUP6 DUP2 MSTORE PUSH1 0x20 ADD DUP5 DUP2 MSTORE PUSH1 0x20 ADD DUP4 DUP2 MSTORE PUSH1 0x20 ADD DUP7 DUP2 MSTORE POP SWAP1 POP PUSH2 0xCF6 PUSH8 0x4B5D2268EAC551FA PUSH1 0xC0 SHL PUSH2 0xF2A JUMP JUMPDEST DUP1 PUSH1 0x0 DUP1 DUP9 DUP2 MSTORE PUSH1 0x20 ADD SWAP1 DUP2 MSTORE PUSH1 0x20 ADD PUSH1 0x0 KECCAK256 PUSH1 0x0 DUP3 ADD MLOAD DUP2 PUSH1 0x0 ADD PUSH1 0x0 PUSH2 0x100 EXP DUP2 SLOAD DUP2 PUSH20 0xFFFFFFFFFFFFFFFFFFFFFFFFFFFFFFFFFFFFFFFF MUL NOT AND SWAP1 DUP4 PUSH20 0xFFFFFFFFFFFFFFFFFFFFFFFFFFFFFFFFFFFFFFFF AND MUL OR SWAP1 SSTORE POP PUSH1 0x20 DUP3 ADD MLOAD DUP2 PUSH1 0x1 ADD SSTORE PUSH1 0x40 DUP3 ADD MLOAD DUP2 PUSH1 0x2 ADD SSTORE PUSH1 0x60 DUP3 ADD MLOAD DUP2 PUSH1 0x3 ADD SSTORE PUSH1 0x80 DUP3 ADD MLOAD DUP2 PUSH1 0x4 ADD SSTORE PUSH1 0xA0 DUP3 ADD MLOAD DUP2 PUSH1 0x5 ADD SWAP1 DUP2 PUSH2 0xD8D SWAP2 SWAP1 PUSH2 0x1900 JUMP JUMPDEST POP SWAP1 POP POP PUSH2 0xDA5 PUSH8 0x6C26E830FF756B98 PUSH1 0xC0 SHL PUSH2 0xF2A JUMP JUMPDEST PUSH2 0xDB9 PUSH8 0xAD022CEF99619014 PUSH1 0xC0 SHL PUSH2 0xF2A JUMP JUMPDEST PUSH1 0x1 PUSH1 0x0 CALLER PUSH20 0xFFFFFFFFFFFFFFFFFFFFFFFFFFFFFFFFFFFFFFFF AND PUSH20 0xFFFFFFFFFFFFFFFFFFFFFFFFFFFFFFFFFFFFFFFF AND DUP2 MSTORE PUSH1 0x20 ADD SWAP1 DUP2 MSTORE PUSH1 0x20 ADD PUSH1 0x0 KECCAK256 DUP2 SWAP1 DUP1 PUSH1 0x1 DUP2 SLOAD ADD DUP1 DUP3 SSTORE DUP1 SWAP2 POP POP PUSH1 0x1 SWAP1 SUB SWAP1 PUSH1 0x0 MSTORE PUSH1 0x20 PUSH1 0x0 KECCAK256 SWAP1 PUSH1 0x6 MUL ADD PUSH1 0x0 SWAP1 SWAP2 SWAP1 SWAP2 SWAP1 SWAP2 POP PUSH1 0x0 DUP3 ADD MLOAD DUP2 PUSH1 0x0 ADD PUSH1 0x0 PUSH2 0x100 EXP DUP2 SLOAD DUP2 PUSH20 0xFFFFFFFFFFFFFFFFFFFFFFFFFFFFFFFFFFFFFFFF MUL NOT AND SWAP1 DUP4 PUSH20 0xFFFFFFFFFFFFFFFFFFFFFFFFFFFFFFFFFFFFFFFF AND MUL OR SWAP1 SSTORE POP PUSH1 0x20 DUP3 ADD MLOAD DUP2 PUSH1 0x1 ADD SSTORE PUSH1 0x40 DUP3 ADD MLOAD DUP2 PUSH1 0x2 ADD SSTORE PUSH1 0x60 DUP3 ADD MLOAD DUP2 PUSH1 0x3 ADD SSTORE PUSH1 0x80 DUP3 ADD MLOAD DUP2 PUSH1 0x4 ADD SSTORE PUSH1 0xA0 DUP3 ADD MLOAD DUP2 PUSH1 0x5 ADD SWAP1 DUP2 PUSH2 0xEA6 SWAP2 SWAP1 PUSH2 0x1900 JUMP JUMPDEST POP POP POP PUSH2 0xEBD PUSH8 0x55780EB4D433C7FE PUSH1 0xC0 SHL PUSH2 0xF2A JUMP JUMPDEST PUSH2 0xED1 PUSH8 0xBADE7BCACC134335 PUSH1 0xC0 SHL PUSH2 0xF2A JUMP JUMPDEST DUP6 CALLER PUSH20 0xFFFFFFFFFFFFFFFFFFFFFFFFFFFFFFFFFFFFFFFF AND PUSH32 0x752C6E59798F934C2C159F893DCFF42ECA6BB9529F328570F172E50C9774CB54 DUP7 DUP9 PUSH1 0x40 MLOAD PUSH2 0xF1A SWAP3 SWAP2 SWAP1 PUSH2 0x1A1C JUMP JUMPDEST PUSH1 0x40 MLOAD DUP1 SWAP2 SUB SWAP1 LOG3 POP POP POP POP POP POP JUMP JUMPDEST POP JUMP JUMPDEST PUSH1 0x40 MLOAD DUP1 PUSH1 0xC0 ADD PUSH1 0x40 MSTORE DUP1 PUSH1 0x0 PUSH20 0xFFFFFFFFFFFFFFFFFFFFFFFFFFFFFFFFFFFFFFFF AND DUP2 MSTORE PUSH1 0x20 ADD PUSH1 0x0 DUP2 MSTORE PUSH1 0x20 ADD PUSH1 0x0 DUP2 MSTORE PUSH1 0x20 ADD PUSH1 0x0 DUP2 MSTORE PUSH1 0x20 ADD PUSH1 0x0 DUP2 MSTORE PUSH1 0x20 ADD PUSH1 0x60 DUP2 MSTORE POP SWAP1 JUMP JUMPDEST PUSH1 0x0 PUSH20 0xFFFFFFFFFFFFFFFFFFFFFFFFFFFFFFFFFFFFFFFF DUP3 AND SWAP1 POP SWAP2 SWAP1 POP JUMP JUMPDEST PUSH1 0x0 PUSH2 0xFA4 DUP3 PUSH2 0xF79 JUMP JUMPDEST SWAP1 POP SWAP2 SWAP1 POP JUMP JUMPDEST PUSH2 0xFB4 DUP2 PUSH2 0xF99 JUMP JUMPDEST DUP3 MSTORE POP POP JUMP JUMPDEST PUSH1 0x0 PUSH1 0x20 DUP3 ADD SWAP1 POP PUSH2 0xFCF PUSH1 0x0 DUP4 ADD DUP5 PUSH2 0xFAB JUMP JUMPDEST SWAP3 SWAP2 POP POP JUMP JUMPDEST PUSH1 0x0 DUP2 MLOAD SWAP1 POP SWAP2 SWAP1 POP JUMP JUMPDEST PUSH1 0x0 DUP3 DUP3 MSTORE PUSH1 0x20 DUP3 ADD SWAP1 POP SWAP3 SWAP2 POP POP JUMP JUMPDEST PUSH1 0x0 DUP2 SWAP1 POP PUSH1 0x20 DUP3 ADD SWAP1 POP SWAP2 SWAP1 POP JUMP JUMPDEST PUSH2 0x100A DUP2 PUSH2 0xF99 JUMP JUMPDEST DUP3 MSTORE POP POP JUMP JUMPDEST PUSH1 0x0 DUP2 SWAP1 POP SWAP2 SWAP1 POP JUMP JUMPDEST PUSH2 0x1023 DUP2 PUSH2 0x1010 JUMP JUMPDEST DUP3 MSTORE POP POP JUMP JUMPDEST PUSH1 0x0 DUP2 MLOAD SWAP1 POP SWAP2 SWAP1 POP JUMP JUMPDEST PUSH1 0x0 DUP3 DUP3 MSTORE PUSH1 0x20 DUP3 ADD SWAP1 POP SWAP3 SWAP2 POP POP JUMP JUMPDEST PUSH1 0x0 JUMPDEST DUP4 DUP2 LT ISZERO PUSH2 0x1063 JUMPI DUP1 DUP3 ADD MLOAD DUP2 DUP5 ADD MSTORE PUSH1 0x20 DUP2 ADD SWAP1 POP PUSH2 0x1048 JUMP JUMPDEST PUSH1 0x0 DUP5 DUP5 ADD MSTORE POP POP POP POP JUMP JUMPDEST PUSH1 0x0 PUSH1 0x1F NOT PUSH1 0x1F DUP4 ADD AND SWAP1 POP SWAP2 SWAP1 POP JUMP JUMPDEST PUSH1 0x0 PUSH2 0x108B DUP3 PUSH2 0x1029 JUMP JUMPDEST PUSH2 0x1095 DUP2 DUP6 PUSH2 0x1034 JUMP JUMPDEST SWAP4 POP PUSH2 0x10A5 DUP2 DUP6 PUSH1 0x20 DUP7 ADD PUSH2 0x1045 JUMP JUMPDEST PUSH2 0x10AE DUP2 PUSH2 0x106F JUMP JUMPDEST DUP5 ADD SWAP2 POP POP SWAP3 SWAP2 POP POP JUMP JUMPDEST PUSH1 0x0 PUSH1 0xC0 DUP4 ADD PUSH1 0x0 DUP4 ADD MLOAD PUSH2 0x10D1 PUSH1 0x0 DUP7 ADD DUP3 PUSH2 0x1001 JUMP JUMPDEST POP PUSH1 0x20 DUP4 ADD MLOAD PUSH2 0x10E4 PUSH1 0x20 DUP7 ADD DUP3 PUSH2 0x101A JUMP JUMPDEST POP PUSH1 0x40 DUP4 ADD MLOAD PUSH2 0x10F7 PUSH1 0x40 DUP7 ADD DUP3 PUSH2 0x101A JUMP JUMPDEST POP PUSH1 0x60 DUP4 ADD MLOAD PUSH2 0x110A PUSH1 0x60 DUP7 ADD DUP3 PUSH2 0x101A JUMP JUMPDEST POP PUSH1 0x80 DUP4 ADD MLOAD PUSH2 0x111D PUSH1 0x80 DUP7 ADD DUP3 PUSH2 0x101A JUMP JUMPDEST POP PUSH1 0xA0 DUP4 ADD MLOAD DUP5 DUP3 SUB PUSH1 0xA0 DUP7 ADD MSTORE PUSH2 0x1135 DUP3 DUP3 PUSH2 0x1080 JUMP JUMPDEST SWAP2 POP POP DUP1 SWAP2 POP POP SWAP3 SWAP2 POP POP JUMP JUMPDEST PUSH1 0x0 PUSH2 0x114E DUP4 DUP4 PUSH2 0x10B9 JUMP JUMPDEST SWAP1 POP SWAP3 SWAP2 POP POP JUMP JUMPDEST PUSH1 0x0 PUSH1 0x20 DUP3 ADD SWAP1 POP SWAP2 SWAP1 POP JUMP JUMPDEST PUSH1 0x0 PUSH2 0x116E DUP3 PUSH2 0xFD5 JUMP JUMPDEST PUSH2 0x1178 DUP2 DUP6 PUSH2 0xFE0 JUMP JUMPDEST SWAP4 POP DUP4 PUSH1 0x20 DUP3 MUL DUP6 ADD PUSH2 0x118A DUP6 PUSH2 0xFF1 JUMP JUMPDEST DUP1 PUSH1 0x0 JUMPDEST DUP6 DUP2 LT ISZERO PUSH2 0x11C6 JUMPI DUP5 DUP5 SUB DUP10 MSTORE DUP2 MLOAD PUSH2 0x11A7 DUP6 DUP3 PUSH2 0x1142 JUMP JUMPDEST SWAP5 POP PUSH2 0x11B2 DUP4 PUSH2 0x1156 JUMP JUMPDEST SWAP3 POP PUSH1 0x20 DUP11 ADD SWAP10 POP POP PUSH1 0x1 DUP2 ADD SWAP1 POP PUSH2 0x118E JUMP JUMPDEST POP DUP3 SWAP8 POP DUP8 SWAP6 POP POP POP POP POP POP SWAP3 SWAP2 POP POP JUMP JUMPDEST PUSH1 0x0 PUSH1 0x20 DUP3 ADD SWAP1 POP DUP2 DUP2 SUB PUSH1 0x0 DUP4 ADD MSTORE PUSH2 0x11F2 DUP2 DUP5 PUSH2 0x1163 JUMP JUMPDEST SWAP1 POP SWAP3 SWAP2 POP POP JUMP JUMPDEST PUSH1 0x0 PUSH1 0x40 MLOAD SWAP1 POP SWAP1 JUMP JUMPDEST PUSH1 0x0 DUP1 REVERT JUMPDEST PUSH1 0x0 DUP1 REVERT JUMPDEST PUSH2 0x1217 DUP2 PUSH2 0x1010 JUMP JUMPDEST DUP2 EQ PUSH2 0x1222 JUMPI PUSH1 0x0 DUP1 REVERT JUMPDEST POP JUMP JUMPDEST PUSH1 0x0 DUP2 CALLDATALOAD SWAP1 POP PUSH2 0x1234 DUP2 PUSH2 0x120E JUMP JUMPDEST SWAP3 SWAP2 POP POP JUMP JUMPDEST PUSH1 0x0 PUSH1 0x20 DUP3 DUP5 SUB SLT ISZERO PUSH2 0x1250 JUMPI PUSH2 0x124F PUSH2 0x1204 JUMP JUMPDEST JUMPDEST PUSH1 0x0 PUSH2 0x125E DUP5 DUP3 DUP6 ADD PUSH2 0x1225 JUMP JUMPDEST SWAP2 POP POP SWAP3 SWAP2 POP POP JUMP JUMPDEST PUSH1 0x0 PUSH1 0xC0 DUP4 ADD PUSH1 0x0 DUP4 ADD MLOAD PUSH2 0x127F PUSH1 0x0 DUP7 ADD DUP3 PUSH2 0x1001 JUMP JUMPDEST POP PUSH1 0x20 DUP4 ADD MLOAD PUSH2 0x1292 PUSH1 0x20 DUP7 ADD DUP3 PUSH2 0x101A JUMP JUMPDEST POP PUSH1 0x40 DUP4 ADD MLOAD PUSH2 0x12A5 PUSH1 0x40 DUP7 ADD DUP3 PUSH2 0x101A JUMP JUMPDEST POP PUSH1 0x60 DUP4 ADD MLOAD PUSH2 0x12B8 PUSH1 0x60 DUP7 ADD DUP3 PUSH2 0x101A JUMP JUMPDEST POP PUSH1 0x80 DUP4 ADD MLOAD PUSH2 0x12CB PUSH1 0x80 DUP7 ADD DUP3 PUSH2 0x101A JUMP JUMPDEST POP PUSH1 0xA0 DUP4 ADD MLOAD DUP5 DUP3 SUB PUSH1 0xA0 DUP7 ADD MSTORE PUSH2 0x12E3 DUP3 DUP3 PUSH2 0x1080 JUMP JUMPDEST SWAP2 POP POP DUP1 SWAP2 POP POP SWAP3 SWAP2 POP POP JUMP JUMPDEST PUSH1 0x0 PUSH1 0x20 DUP3 ADD SWAP1 POP DUP2 DUP2 SUB PUSH1 0x0 DUP4 ADD MSTORE PUSH2 0x130A DUP2 DUP5 PUSH2 0x1267 JUMP JUMPDEST SWAP1 POP SWAP3 SWAP2 POP POP JUMP JUMPDEST PUSH1 0x0 DUP1 PUSH1 0x0 PUSH1 0x60 DUP5 DUP7 SUB SLT ISZERO PUSH2 0x132B JUMPI PUSH2 0x132A PUSH2 0x1204 JUMP JUMPDEST JUMPDEST PUSH1 0x0 PUSH2 0x1339 DUP7 DUP3 DUP8 ADD PUSH2 0x1225 JUMP JUMPDEST SWAP4 POP POP PUSH1 0x20 PUSH2 0x134A DUP7 DUP3 DUP8 ADD PUSH2 0x1225 JUMP JUMPDEST SWAP3 POP POP PUSH1 0x40 PUSH2 0x135B DUP7 DUP3 DUP8 ADD PUSH2 0x1225 JUMP JUMPDEST SWAP2 POP POP SWAP3 POP SWAP3 POP SWAP3 JUMP JUMPDEST PUSH1 0x0 DUP1 REVERT JUMPDEST PUSH1 0x0 DUP1 REVERT JUMPDEST PUSH32 0x4E487B7100000000000000000000000000000000000000000000000000000000 PUSH1 0x0 MSTORE PUSH1 0x41 PUSH1 0x4 MSTORE PUSH1 0x24 PUSH1 0x0 REVERT JUMPDEST PUSH2 0x13A7 DUP3 PUSH2 0x106F JUMP JUMPDEST DUP2 ADD DUP2 DUP2 LT PUSH8 0xFFFFFFFFFFFFFFFF DUP3 GT OR ISZERO PUSH2 0x13C6 JUMPI PUSH2 0x13C5 PUSH2 0x136F JUMP JUMPDEST JUMPDEST DUP1 PUSH1 0x40 MSTORE POP POP POP JUMP JUMPDEST PUSH1 0x0 PUSH2 0x13D9 PUSH2 0x11FA JUMP JUMPDEST SWAP1 POP PUSH2 0x13E5 DUP3 DUP3 PUSH2 0x139E JUMP JUMPDEST SWAP2 SWAP1 POP JUMP JUMPDEST PUSH1 0x0 PUSH8 0xFFFFFFFFFFFFFFFF DUP3 GT ISZERO PUSH2 0x1405 JUMPI PUSH2 0x1404 PUSH2 0x136F JUMP JUMPDEST JUMPDEST PUSH2 0x140E DUP3 PUSH2 0x106F JUMP JUMPDEST SWAP1 POP PUSH1 0x20 DUP2 ADD SWAP1 POP SWAP2 SWAP1 POP JUMP JUMPDEST DUP3 DUP2 DUP4 CALLDATACOPY PUSH1 0x0 DUP4 DUP4 ADD MSTORE POP POP POP JUMP JUMPDEST PUSH1 0x0 PUSH2 0x143D PUSH2 0x1438 DUP5 PUSH2 0x13EA JUMP JUMPDEST PUSH2 0x13CF JUMP JUMPDEST SWAP1 POP DUP3 DUP2 MSTORE PUSH1 0x20 DUP2 ADD DUP5 DUP5 DUP5 ADD GT ISZERO PUSH2 0x1459 JUMPI PUSH2 0x1458 PUSH2 0x136A JUMP JUMPDEST JUMPDEST PUSH2 0x1464 DUP5 DUP3 DUP6 PUSH2 0x141B JUMP JUMPDEST POP SWAP4 SWAP3 POP POP POP JUMP JUMPDEST PUSH1 0x0 DUP3 PUSH1 0x1F DUP4 ADD SLT PUSH2 0x1481 JUMPI PUSH2 0x1480 PUSH2 0x1365 JUMP JUMPDEST JUMPDEST DUP2 CALLDATALOAD PUSH2 0x1491 DUP5 DUP3 PUSH1 0x20 DUP7 ADD PUSH2 0x142A JUMP JUMPDEST SWAP2 POP POP SWAP3 SWAP2 POP POP JUMP JUMPDEST PUSH1 0x0 DUP1 PUSH1 0x0 DUP1 PUSH1 0x0 PUSH1 0xA0 DUP7 DUP9 SUB SLT ISZERO PUSH2 0x14B6 JUMPI PUSH2 0x14B5 PUSH2 0x1204 JUMP JUMPDEST JUMPDEST PUSH1 0x0 PUSH2 0x14C4 DUP9 DUP3 DUP10 ADD PUSH2 0x1225 JUMP JUMPDEST SWAP6 POP POP PUSH1 0x20 DUP7 ADD CALLDATALOAD PUSH8 0xFFFFFFFFFFFFFFFF DUP2 GT ISZERO PUSH2 0x14E5 JUMPI PUSH2 0x14E4 PUSH2 0x1209 JUMP JUMPDEST JUMPDEST PUSH2 0x14F1 DUP9 DUP3 DUP10 ADD PUSH2 0x146C JUMP JUMPDEST SWAP5 POP POP PUSH1 0x40 PUSH2 0x1502 DUP9 DUP3 DUP10 ADD PUSH2 0x1225 JUMP JUMPDEST SWAP4 POP POP PUSH1 0x60 PUSH2 0x1513 DUP9 DUP3 DUP10 ADD PUSH2 0x1225 JUMP JUMPDEST SWAP3 POP POP PUSH1 0x80 PUSH2 0x1524 DUP9 DUP3 DUP10 ADD PUSH2 0x1225 JUMP JUMPDEST SWAP2 POP POP SWAP3 SWAP6 POP SWAP3 SWAP6 SWAP1 SWAP4 POP JUMP JUMPDEST PUSH32 0x4E487B7100000000000000000000000000000000000000000000000000000000 PUSH1 0x0 MSTORE PUSH1 0x22 PUSH1 0x4 MSTORE PUSH1 0x24 PUSH1 0x0 REVERT JUMPDEST PUSH1 0x0 PUSH1 0x2 DUP3 DIV SWAP1 POP PUSH1 0x1 DUP3 AND DUP1 PUSH2 0x1578 JUMPI PUSH1 0x7F DUP3 AND SWAP2 POP JUMPDEST PUSH1 0x20 DUP3 LT DUP2 SUB PUSH2 0x158B JUMPI PUSH2 0x158A PUSH2 0x1531 JUMP JUMPDEST JUMPDEST POP SWAP2 SWAP1 POP JUMP JUMPDEST PUSH32 0x4E487B7100000000000000000000000000000000000000000000000000000000 PUSH1 0x0 MSTORE PUSH1 0x11 PUSH1 0x4 MSTORE PUSH1 0x24 PUSH1 0x0 REVERT JUMPDEST PUSH1 0x0 PUSH2 0x15CB DUP3 PUSH2 0x1010 JUMP JUMPDEST SWAP2 POP PUSH2 0x15D6 DUP4 PUSH2 0x1010 JUMP JUMPDEST SWAP3 POP DUP3 DUP3 MUL PUSH2 0x15E4 DUP2 PUSH2 0x1010 JUMP JUMPDEST SWAP2 POP DUP3 DUP3 DIV DUP5 EQ DUP4 ISZERO OR PUSH2 0x15FB JUMPI PUSH2 0x15FA PUSH2 0x1591 JUMP JUMPDEST JUMPDEST POP SWAP3 SWAP2 POP POP JUMP JUMPDEST PUSH1 0x0 PUSH2 0x160D DUP3 PUSH2 0x1010 JUMP JUMPDEST SWAP2 POP PUSH2 0x1618 DUP4 PUSH2 0x1010 JUMP JUMPDEST SWAP3 POP DUP3 DUP3 ADD SWAP1 POP DUP1 DUP3 GT ISZERO PUSH2 0x1630 JUMPI PUSH2 0x162F PUSH2 0x1591 JUMP JUMPDEST JUMPDEST SWAP3 SWAP2 POP POP JUMP JUMPDEST PUSH2 0x163F DUP2 PUSH2 0x1010 JUMP JUMPDEST DUP3 MSTORE POP POP JUMP JUMPDEST PUSH1 0x0 PUSH1 0xA0 DUP3 ADD SWAP1 POP PUSH2 0x165A PUSH1 0x0 DUP4 ADD DUP9 PUSH2 0xFAB JUMP JUMPDEST PUSH2 0x1667 PUSH1 0x20 DUP4 ADD DUP8 PUSH2 0xFAB JUMP JUMPDEST PUSH2 0x1674 PUSH1 0x40 DUP4 ADD DUP7 PUSH2 0x1636 JUMP JUMPDEST PUSH2 0x1681 PUSH1 0x60 DUP4 ADD DUP6 PUSH2 0x1636 JUMP JUMPDEST PUSH2 0x168E PUSH1 0x80 DUP4 ADD DUP5 PUSH2 0x1636 JUMP JUMPDEST SWAP7 SWAP6 POP POP POP POP POP POP JUMP JUMPDEST PUSH1 0x0 DUP2 MLOAD SWAP1 POP PUSH2 0x16A7 DUP2 PUSH2 0x120E JUMP JUMPDEST SWAP3 SWAP2 POP POP JUMP JUMPDEST PUSH1 0x0 PUSH1 0x20 DUP3 DUP5 SUB SLT ISZERO PUSH2 0x16C3 JUMPI PUSH2 0x16C2 PUSH2 0x1204 JUMP JUMPDEST JUMPDEST PUSH1 0x0 PUSH2 0x16D1 DUP5 DUP3 DUP6 ADD PUSH2 0x1698 JUMP JUMPDEST SWAP2 POP POP SWAP3 SWAP2 POP POP JUMP JUMPDEST PUSH1 0x0 PUSH2 0x16E5 DUP3 PUSH2 0x1010 JUMP JUMPDEST SWAP2 POP PUSH2 0x16F0 DUP4 PUSH2 0x1010 JUMP JUMPDEST SWAP3 POP DUP3 DUP3 SUB SWAP1 POP DUP2 DUP2 GT ISZERO PUSH2 0x1708 JUMPI PUSH2 0x1707 PUSH2 0x1591 JUMP JUMPDEST JUMPDEST SWAP3 SWAP2 POP POP JUMP JUMPDEST PUSH1 0x0 DUP2 SWAP1 POP SWAP3 SWAP2 POP POP JUMP JUMPDEST POP JUMP JUMPDEST PUSH1 0x0 PUSH2 0x1729 PUSH1 0x0 DUP4 PUSH2 0x170E JUMP JUMPDEST SWAP2 POP PUSH2 0x1734 DUP3 PUSH2 0x1719 JUMP JUMPDEST PUSH1 0x0 DUP3 ADD SWAP1 POP SWAP2 SWAP1 POP JUMP JUMPDEST PUSH1 0x0 PUSH2 0x174A DUP3 PUSH2 0x171C JUMP JUMPDEST SWAP2 POP DUP2 SWAP1 POP SWAP2 SWAP1 POP JUMP JUMPDEST PUSH1 0x0 DUP2 SWAP1 POP DUP2 PUSH1 0x0 MSTORE PUSH1 0x20 PUSH1 0x0 KECCAK256 SWAP1 POP SWAP2 SWAP1 POP JUMP JUMPDEST PUSH1 0x0 PUSH1 0x20 PUSH1 0x1F DUP4 ADD DIV SWAP1 POP SWAP2 SWAP1 POP JUMP JUMPDEST PUSH1 0x0 DUP3 DUP3 SHL SWAP1 POP SWAP3 SWAP2 POP POP JUMP JUMPDEST PUSH1 0x0 PUSH1 0x8 DUP4 MUL PUSH2 0x17B6 PUSH32 0xFFFFFFFFFFFFFFFFFFFFFFFFFFFFFFFFFFFFFFFFFFFFFFFFFFFFFFFFFFFFFFFF DUP3 PUSH2 0x1779 JUMP JUMPDEST PUSH2 0x17C0 DUP7 DUP4 PUSH2 0x1779 JUMP JUMPDEST SWAP6 POP DUP1 NOT DUP5 AND SWAP4 POP DUP1 DUP7 AND DUP5 OR SWAP3 POP POP POP SWAP4 SWAP3 POP POP POP JUMP JUMPDEST PUSH1 0x0 DUP2 SWAP1 POP SWAP2 SWAP1 POP JUMP JUMPDEST PUSH1 0x0 PUSH2 0x17FD PUSH2 0x17F8 PUSH2 0x17F3 DUP5 PUSH2 0x1010 JUMP JUMPDEST PUSH2 0x17D8 JUMP JUMPDEST PUSH2 0x1010 JUMP JUMPDEST SWAP1 POP SWAP2 SWAP1 POP JUMP JUMPDEST PUSH1 0x0 DUP2 SWAP1 POP SWAP2 SWAP1 POP JUMP JUMPDEST PUSH2 0x1817 DUP4 PUSH2 0x17E2 JUMP JUMPDEST PUSH2 0x182B PUSH2 0x1823 DUP3 PUSH2 0x1804 JUMP JUMPDEST DUP5 DUP5 SLOAD PUSH2 0x1786 JUMP JUMPDEST DUP3 SSTORE POP POP POP POP JUMP JUMPDEST PUSH1 0x0 SWAP1 JUMP JUMPDEST PUSH2 0x1840 PUSH2 0x1833 JUMP JUMPDEST PUSH2 0x184B DUP2 DUP5 DUP5 PUSH2 0x180E JUMP JUMPDEST POP POP POP JUMP JUMPDEST JUMPDEST DUP2 DUP2 LT ISZERO PUSH2 0x186F JUMPI PUSH2 0x1864 PUSH1 0x0 DUP3 PUSH2 0x1838 JUMP JUMPDEST PUSH1 0x1 DUP2 ADD SWAP1 POP PUSH2 0x1851 JUMP JUMPDEST POP POP JUMP JUMPDEST PUSH1 0x1F DUP3 GT ISZERO PUSH2 0x18B4 JUMPI PUSH2 0x1885 DUP2 PUSH2 0x1754 JUMP JUMPDEST PUSH2 0x188E DUP5 PUSH2 0x1769 JUMP JUMPDEST DUP2 ADD PUSH1 0x20 DUP6 LT ISZERO PUSH2 0x189D JUMPI DUP2 SWAP1 POP JUMPDEST PUSH2 0x18B1 PUSH2 0x18A9 DUP6 PUSH2 0x1769 JUMP JUMPDEST DUP4 ADD DUP3 PUSH2 0x1850 JUMP JUMPDEST POP POP JUMPDEST POP POP POP JUMP JUMPDEST PUSH1 0x0 DUP3 DUP3 SHR SWAP1 POP SWAP3 SWAP2 POP POP JUMP JUMPDEST PUSH1 0x0 PUSH2 0x18D7 PUSH1 0x0 NOT DUP5 PUSH1 0x8 MUL PUSH2 0x18B9 JUMP JUMPDEST NOT DUP1 DUP4 AND SWAP2 POP POP SWAP3 SWAP2 POP POP JUMP JUMPDEST PUSH1 0x0 PUSH2 0x18F0 DUP4 DUP4 PUSH2 0x18C6 JUMP JUMPDEST SWAP2 POP DUP3 PUSH1 0x2 MUL DUP3 OR SWAP1 POP SWAP3 SWAP2 POP POP JUMP JUMPDEST PUSH2 0x1909 DUP3 PUSH2 0x1029 JUMP JUMPDEST PUSH8 0xFFFFFFFFFFFFFFFF DUP2 GT ISZERO PUSH2 0x1922 JUMPI PUSH2 0x1921 PUSH2 0x136F JUMP JUMPDEST JUMPDEST PUSH2 0x192C DUP3 SLOAD PUSH2 0x1560 JUMP JUMPDEST PUSH2 0x1937 DUP3 DUP3 DUP6 PUSH2 0x1873 JUMP JUMPDEST PUSH1 0x0 PUSH1 0x20 SWAP1 POP PUSH1 0x1F DUP4 GT PUSH1 0x1 DUP2 EQ PUSH2 0x196A JUMPI PUSH1 0x0 DUP5 ISZERO PUSH2 0x1958 JUMPI DUP3 DUP8 ADD MLOAD SWAP1 POP JUMPDEST PUSH2 0x1962 DUP6 DUP3 PUSH2 0x18E4 JUMP JUMPDEST DUP7 SSTORE POP PUSH2 0x19CA JUMP JUMPDEST PUSH1 0x1F NOT DUP5 AND PUSH2 0x1978 DUP7 PUSH2 0x1754 JUMP JUMPDEST PUSH1 0x0 JUMPDEST DUP3 DUP2 LT ISZERO PUSH2 0x19A0 JUMPI DUP5 DUP10 ADD MLOAD DUP3 SSTORE PUSH1 0x1 DUP3 ADD SWAP2 POP PUSH1 0x20 DUP6 ADD SWAP5 POP PUSH1 0x20 DUP2 ADD SWAP1 POP PUSH2 0x197B JUMP JUMPDEST DUP7 DUP4 LT ISZERO PUSH2 0x19BD JUMPI DUP5 DUP10 ADD MLOAD PUSH2 0x19B9 PUSH1 0x1F DUP10 AND DUP3 PUSH2 0x18C6 JUMP JUMPDEST DUP4 SSTORE POP JUMPDEST PUSH1 0x1 PUSH1 0x2 DUP9 MUL ADD DUP9 SSTORE POP POP POP JUMPDEST POP POP POP POP POP POP JUMP JUMPDEST PUSH1 0x0 DUP3 DUP3 MSTORE PUSH1 0x20 DUP3 ADD SWAP1 POP SWAP3 SWAP2 POP POP JUMP JUMPDEST PUSH1 0x0 PUSH2 0x19EE DUP3 PUSH2 0x1029 JUMP JUMPDEST PUSH2 0x19F8 DUP2 DUP6 PUSH2 0x19D2 JUMP JUMPDEST SWAP4 POP PUSH2 0x1A08 DUP2 DUP6 PUSH1 0x20 DUP7 ADD PUSH2 0x1045 JUMP JUMPDEST PUSH2 0x1A11 DUP2 PUSH2 0x106F JUMP JUMPDEST DUP5 ADD SWAP2 POP POP SWAP3 SWAP2 POP POP JUMP JUMPDEST PUSH1 0x0 PUSH1 0x40 DUP3 ADD SWAP1 POP PUSH2 0x1A31 PUSH1 0x0 DUP4 ADD DUP6 PUSH2 0x1636 JUMP JUMPDEST DUP2 DUP2 SUB PUSH1 0x20 DUP4 ADD MSTORE PUSH2 0x1A43 DUP2 DUP5 PUSH2 0x19E3 JUMP JUMPDEST SWAP1 POP SWAP4 SWAP3 POP POP POP JUMP INVALID LOG2 PUSH5 0x6970667358 0x22 SLT KECCAK256 RETURNDATASIZE 0x2B 0xF6 0xD8 PUSH4 0xE6E50C9F LOG4 0xC2 PREVRANDAO 0x2D 0x27 LOG4 0xFC 0x26 PUSH27 0x9EB7C695B1262335F500295B6A7F64736F6C6343000813003360A0 PUSH1 0x40 MSTORE CALLVALUE DUP1 ISZERO PUSH3 0x11 JUMPI PUSH1 0x0 DUP1 REVERT JUMPDEST POP PUSH1 0x40 MLOAD PUSH3 0x30DC CODESIZE SUB DUP1 PUSH3 0x30DC DUP4 CODECOPY DUP2 DUP2 ADD PUSH1 0x40 MSTORE DUP2 ADD SWAP1 PUSH3 0x37 SWAP2 SWAP1 PUSH3 0x174 JUMP JUMPDEST PUSH3 0x53 PUSH8 0x1D41A94BA5554DCB PUSH1 0xC0 SHL PUSH3 0x107 PUSH1 0x20 SHL PUSH1 0x20 SHR JUMP JUMPDEST PUSH3 0x6F PUSH8 0x6024235BEFCA135F PUSH1 0xC0 SHL PUSH3 0x107 PUSH1 0x20 SHL PUSH1 0x20 SHR JUMP JUMPDEST DUP1 PUSH1 0x0 DUP1 PUSH2 0x100 EXP DUP2 SLOAD DUP2 PUSH20 0xFFFFFFFFFFFFFFFFFFFFFFFFFFFFFFFFFFFFFFFF MUL NOT AND SWAP1 DUP4 PUSH20 0xFFFFFFFFFFFFFFFFFFFFFFFFFFFFFFFFFFFFFFFF AND MUL OR SWAP1 SSTORE POP PUSH3 0xCB PUSH8 0xA13A725DB37137B3 PUSH1 0xC0 SHL PUSH3 0x107 PUSH1 0x20 SHL PUSH1 0x20 SHR JUMP JUMPDEST DUP2 PUSH20 0xFFFFFFFFFFFFFFFFFFFFFFFFFFFFFFFFFFFFFFFF AND PUSH1 0x80 DUP2 PUSH20 0xFFFFFFFFFFFFFFFFFFFFFFFFFFFFFFFFFFFFFFFF AND DUP2 MSTORE POP POP POP POP PUSH3 0x1BB JUMP JUMPDEST POP JUMP JUMPDEST PUSH1 0x0 DUP1 REVERT JUMPDEST PUSH1 0x0 PUSH20 0xFFFFFFFFFFFFFFFFFFFFFFFFFFFFFFFFFFFFFFFF DUP3 AND SWAP1 POP SWAP2 SWAP1 POP JUMP JUMPDEST PUSH1 0x0 PUSH3 0x13C DUP3 PUSH3 0x10F JUMP JUMPDEST SWAP1 POP SWAP2 SWAP1 POP JUMP JUMPDEST PUSH3 0x14E DUP2 PUSH3 0x12F JUMP JUMPDEST DUP2 EQ PUSH3 0x15A JUMPI PUSH1 0x0 DUP1 REVERT JUMPDEST POP JUMP JUMPDEST PUSH1 0x0 DUP2 MLOAD SWAP1 POP PUSH3 0x16E DUP2 PUSH3 0x143 JUMP JUMPDEST SWAP3 SWAP2 POP POP JUMP JUMPDEST PUSH1 0x0 DUP1 PUSH1 0x40 DUP4 DUP6 SUB SLT ISZERO PUSH3 0x18E JUMPI PUSH3 0x18D PUSH3 0x10A JUMP JUMPDEST JUMPDEST PUSH1 0x0 PUSH3 0x19E DUP6 DUP3 DUP7 ADD PUSH3 0x15D JUMP JUMPDEST SWAP3 POP POP PUSH1 0x20 PUSH3 0x1B1 DUP6 DUP3 DUP7 ADD PUSH3 0x15D JUMP JUMPDEST SWAP2 POP POP SWAP3 POP SWAP3 SWAP1 POP JUMP JUMPDEST PUSH1 0x80 MLOAD PUSH2 0x2EFE PUSH3 0x1DE PUSH1 0x0 CODECOPY PUSH1 0x0 DUP2 DUP2 PUSH2 0x1736 ADD MSTORE PUSH2 0x2277 ADD MSTORE PUSH2 0x2EFE PUSH1 0x0 RETURN INVALID PUSH1 0x80 PUSH1 0x40 MSTORE PUSH1 0x4 CALLDATASIZE LT PUSH2 0x86 JUMPI PUSH1 0x0 CALLDATALOAD PUSH1 0xE0 SHR DUP1 PUSH4 0x700DB752 GT PUSH2 0x59 JUMPI DUP1 PUSH4 0x700DB752 EQ PUSH2 0x14A JUMPI DUP1 PUSH4 0x893D20E8 EQ PUSH2 0x175 JUMPI DUP1 PUSH4 0xBB8FE785 EQ PUSH2 0x1A0 JUMPI DUP1 PUSH4 0xC0CFA7E5 EQ PUSH2 0x1CB JUMPI DUP1 PUSH4 0xC819998B EQ PUSH2 0x1F4 JUMPI PUSH2 0x86 JUMP JUMPDEST DUP1 PUSH4 0x278ECDE1 EQ PUSH2 0x8B JUMPI DUP1 PUSH4 0x37BDC99B EQ PUSH2 0xB4 JUMPI DUP1 PUSH4 0x3BF3110F EQ PUSH2 0xDD JUMPI DUP1 PUSH4 0x42B50A7A EQ PUSH2 0x10D JUMPI JUMPDEST PUSH1 0x0 DUP1 REVERT JUMPDEST CALLVALUE DUP1 ISZERO PUSH2 0x97 JUMPI PUSH1 0x0 DUP1 REVERT JUMPDEST POP PUSH2 0xB2 PUSH1 0x4 DUP1 CALLDATASIZE SUB DUP2 ADD SWAP1 PUSH2 0xAD SWAP2 SWAP1 PUSH2 0x29FE JUMP JUMPDEST PUSH2 0x21F JUMP JUMPDEST STOP JUMPDEST CALLVALUE DUP1 ISZERO PUSH2 0xC0 JUMPI PUSH1 0x0 DUP1 REVERT JUMPDEST POP PUSH2 0xDB PUSH1 0x4 DUP1 CALLDATASIZE SUB DUP2 ADD SWAP1 PUSH2 0xD6 SWAP2 SWAP1 PUSH2 0x29FE JUMP JUMPDEST PUSH2 0xBEC JUMP JUMPDEST STOP JUMPDEST PUSH2 0xF7 PUSH1 0x4 DUP1 CALLDATASIZE SUB DUP2 ADD SWAP1 PUSH2 0xF2 SWAP2 SWAP1 PUSH2 0x2A89 JUMP JUMPDEST PUSH2 0x16E2 JUMP JUMPDEST PUSH1 0x40 MLOAD PUSH2 0x104 SWAP2 SWAP1 PUSH2 0x2B13 JUMP JUMPDEST PUSH1 0x40 MLOAD DUP1 SWAP2 SUB SWAP1 RETURN JUMPDEST CALLVALUE DUP1 ISZERO PUSH2 0x119 JUMPI PUSH1 0x0 DUP1 REVERT JUMPDEST POP PUSH2 0x134 PUSH1 0x4 DUP1 CALLDATASIZE SUB DUP2 ADD SWAP1 PUSH2 0x12F SWAP2 SWAP1 PUSH2 0x29FE JUMP JUMPDEST PUSH2 0x1D30 JUMP JUMPDEST PUSH1 0x40 MLOAD PUSH2 0x141 SWAP2 SWAP1 PUSH2 0x2C65 JUMP JUMPDEST PUSH1 0x40 MLOAD DUP1 SWAP2 SUB SWAP1 RETURN JUMPDEST CALLVALUE DUP1 ISZERO PUSH2 0x156 JUMPI PUSH1 0x0 DUP1 REVERT JUMPDEST POP PUSH2 0x15F PUSH2 0x1FB3 JUMP JUMPDEST PUSH1 0x40 MLOAD PUSH2 0x16C SWAP2 SWAP1 PUSH2 0x2DD3 JUMP JUMPDEST PUSH1 0x40 MLOAD DUP1 SWAP2 SUB SWAP1 RETURN JUMPDEST CALLVALUE DUP1 ISZERO PUSH2 0x181 JUMPI PUSH1 0x0 DUP1 REVERT JUMPDEST POP PUSH2 0x18A PUSH2 0x21D3 JUMP JUMPDEST PUSH1 0x40 MLOAD PUSH2 0x197 SWAP2 SWAP1 PUSH2 0x2E04 JUMP JUMPDEST PUSH1 0x40 MLOAD DUP1 SWAP2 SUB SWAP1 RETURN JUMPDEST CALLVALUE DUP1 ISZERO PUSH2 0x1AC JUMPI PUSH1 0x0 DUP1 REVERT JUMPDEST POP PUSH2 0x1B5 PUSH2 0x2237 JUMP JUMPDEST PUSH1 0x40 MLOAD PUSH2 0x1C2 SWAP2 SWAP1 PUSH2 0x2E04 JUMP JUMPDEST PUSH1 0x40 MLOAD DUP1 SWAP2 SUB SWAP1 RETURN JUMPDEST CALLVALUE DUP1 ISZERO PUSH2 0x1D7 JUMPI PUSH1 0x0 DUP1 REVERT JUMPDEST POP PUSH2 0x1F2 PUSH1 0x4 DUP1 CALLDATASIZE SUB DUP2 ADD SWAP1 PUSH2 0x1ED SWAP2 SWAP1 PUSH2 0x29FE JUMP JUMPDEST PUSH2 0x229B JUMP JUMPDEST STOP JUMPDEST CALLVALUE DUP1 ISZERO PUSH2 0x200 JUMPI PUSH1 0x0 DUP1 REVERT JUMPDEST POP PUSH2 0x209 PUSH2 0x271D JUMP JUMPDEST PUSH1 0x40 MLOAD PUSH2 0x216 SWAP2 SWAP1 PUSH2 0x2DD3 JUMP JUMPDEST PUSH1 0x40 MLOAD DUP1 SWAP2 SUB SWAP1 RETURN JUMPDEST PUSH2 0x233 PUSH8 0x8ADF54609F03C12D PUSH1 0xC0 SHL PUSH2 0x293D JUMP JUMPDEST DUP1 PUSH2 0x248 PUSH8 0xA986CEFEEC858187 PUSH1 0xC0 SHL PUSH2 0x293D JUMP JUMPDEST PUSH2 0x25C PUSH8 0x9468E128EAE60B1A PUSH1 0xC0 SHL PUSH2 0x293D JUMP JUMPDEST PUSH2 0x270 PUSH8 0x96010DFAECF65CF6 PUSH1 0xC0 SHL PUSH2 0x293D JUMP JUMPDEST PUSH1 0x0 PUSH1 0x3 PUSH1 0x0 DUP4 DUP2 MSTORE PUSH1 0x20 ADD SWAP1 DUP2 MSTORE PUSH1 0x20 ADD PUSH1 0x0 KECCAK256 PUSH1 0x40 MLOAD DUP1 PUSH2 0x100 ADD PUSH1 0x40 MSTORE SWAP1 DUP2 PUSH1 0x0 DUP3 ADD PUSH1 0x0 SWAP1 SLOAD SWAP1 PUSH2 0x100 EXP SWAP1 DIV PUSH20 0xFFFFFFFFFFFFFFFFFFFFFFFFFFFFFFFFFFFFFFFF AND PUSH20 0xFFFFFFFFFFFFFFFFFFFFFFFFFFFFFFFFFFFFFFFF AND PUSH20 0xFFFFFFFFFFFFFFFFFFFFFFFFFFFFFFFFFFFFFFFF AND DUP2 MSTORE PUSH1 0x20 ADD PUSH1 0x1 DUP3 ADD PUSH1 0x0 SWAP1 SLOAD SWAP1 PUSH2 0x100 EXP SWAP1 DIV PUSH20 0xFFFFFFFFFFFFFFFFFFFFFFFFFFFFFFFFFFFFFFFF AND PUSH20 0xFFFFFFFFFFFFFFFFFFFFFFFFFFFFFFFFFFFFFFFF AND PUSH20 0xFFFFFFFFFFFFFFFFFFFFFFFFFFFFFFFFFFFFFFFF AND DUP2 MSTORE PUSH1 0x20 ADD PUSH1 0x2 DUP3 ADD SLOAD DUP2 MSTORE PUSH1 0x20 ADD PUSH1 0x3 DUP3 ADD SLOAD DUP2 MSTORE PUSH1 0x20 ADD PUSH1 0x4 DUP3 ADD SLOAD DUP2 MSTORE PUSH1 0x20 ADD PUSH1 0x5 DUP3 ADD SLOAD DUP2 MSTORE PUSH1 0x20 ADD PUSH1 0x6 DUP3 ADD PUSH1 0x0 SWAP1 SLOAD SWAP1 PUSH2 0x100 EXP SWAP1 DIV PUSH1 0xFF AND PUSH1 0x3 DUP2 GT ISZERO PUSH2 0x38A JUMPI PUSH2 0x389 PUSH2 0x2B4C JUMP JUMPDEST JUMPDEST PUSH1 0x3 DUP2 GT ISZERO PUSH2 0x39C JUMPI PUSH2 0x39B PUSH2 0x2B4C JUMP JUMPDEST JUMPDEST DUP2 MSTORE PUSH1 0x20 ADD PUSH1 0x7 DUP3 ADD SLOAD DUP2 MSTORE POP POP SWAP1 POP PUSH2 0x3C0 PUSH8 0x7A4FA443F0DD646B PUSH1 0xC0 SHL PUSH2 0x293D JUMP JUMPDEST PUSH2 0x3D4 PUSH8 0x7BA95F796C8A102 PUSH1 0xC0 SHL PUSH2 0x293D JUMP JUMPDEST PUSH1 0x0 PUSH1 0x3 DUP2 GT ISZERO PUSH2 0x3E8 JUMPI PUSH2 0x3E7 PUSH2 0x2B4C JUMP JUMPDEST JUMPDEST DUP2 PUSH1 0xC0 ADD MLOAD PUSH1 0x3 DUP2 GT ISZERO PUSH2 0x3FF JUMPI PUSH2 0x3FE PUSH2 0x2B4C JUMP JUMPDEST JUMPDEST EQ ISZERO DUP1 ISZERO PUSH2 0x435 JUMPI POP PUSH1 0x3 DUP1 DUP2 GT ISZERO PUSH2 0x41B JUMPI PUSH2 0x41A PUSH2 0x2B4C JUMP JUMPDEST JUMPDEST DUP2 PUSH1 0xC0 ADD MLOAD PUSH1 0x3 DUP2 GT ISZERO PUSH2 0x432 JUMPI PUSH2 0x431 PUSH2 0x2B4C JUMP JUMPDEST JUMPDEST EQ ISZERO JUMPDEST ISZERO PUSH2 0x494 JUMPI PUSH2 0x44E PUSH8 0x88091DFA12640C6 PUSH1 0xC0 SHL PUSH2 0x293D JUMP JUMPDEST PUSH2 0x462 PUSH8 0x7D44F4B501C43183 PUSH1 0xC0 SHL PUSH2 0x293D JUMP JUMPDEST PUSH1 0x40 MLOAD PUSH32 0x8A22693E00000000000000000000000000000000000000000000000000000000 DUP2 MSTORE PUSH1 0x4 ADD PUSH1 0x40 MLOAD DUP1 SWAP2 SUB SWAP1 REVERT JUMPDEST PUSH2 0x4A8 PUSH8 0x21C50106825C897D PUSH1 0xC0 SHL PUSH2 0x293D JUMP JUMPDEST PUSH2 0x4BC PUSH8 0xA7C7C5DFAD30EC65 PUSH1 0xC0 SHL PUSH2 0x293D JUMP JUMPDEST PUSH2 0x4D0 PUSH8 0xDFDA96AF9380697A PUSH1 0xC0 SHL PUSH2 0x293D JUMP JUMPDEST PUSH2 0x4E4 PUSH8 0x2EACBBAF4BD10381 PUSH1 0xC0 SHL PUSH2 0x293D JUMP JUMPDEST DUP3 PUSH2 0x4F9 PUSH8 0x527EB98E367F366C PUSH1 0xC0 SHL PUSH2 0x293D JUMP JUMPDEST PUSH2 0x50D PUSH8 0x9810E0B363800030 PUSH1 0xC0 SHL PUSH2 0x293D JUMP JUMPDEST PUSH2 0x521 PUSH8 0x10C170A31D2120C PUSH1 0xC0 SHL PUSH2 0x293D JUMP JUMPDEST PUSH1 0x0 PUSH1 0x3 PUSH1 0x0 DUP4 DUP2 MSTORE PUSH1 0x20 ADD SWAP1 DUP2 MSTORE PUSH1 0x20 ADD PUSH1 0x0 KECCAK256 PUSH1 0x40 MLOAD DUP1 PUSH2 0x100 ADD PUSH1 0x40 MSTORE SWAP1 DUP2 PUSH1 0x0 DUP3 ADD PUSH1 0x0 SWAP1 SLOAD SWAP1 PUSH2 0x100 EXP SWAP1 DIV PUSH20 0xFFFFFFFFFFFFFFFFFFFFFFFFFFFFFFFFFFFFFFFF AND PUSH20 0xFFFFFFFFFFFFFFFFFFFFFFFFFFFFFFFFFFFFFFFF AND PUSH20 0xFFFFFFFFFFFFFFFFFFFFFFFFFFFFFFFFFFFFFFFF AND DUP2 MSTORE PUSH1 0x20 ADD PUSH1 0x1 DUP3 ADD PUSH1 0x0 SWAP1 SLOAD SWAP1 PUSH2 0x100 EXP SWAP1 DIV PUSH20 0xFFFFFFFFFFFFFFFFFFFFFFFFFFFFFFFFFFFFFFFF AND PUSH20 0xFFFFFFFFFFFFFFFFFFFFFFFFFFFFFFFFFFFFFFFF AND PUSH20 0xFFFFFFFFFFFFFFFFFFFFFFFFFFFFFFFFFFFFFFFF AND DUP2 MSTORE PUSH1 0x20 ADD PUSH1 0x2 DUP3 ADD SLOAD DUP2 MSTORE PUSH1 0x20 ADD PUSH1 0x3 DUP3 ADD SLOAD DUP2 MSTORE PUSH1 0x20 ADD PUSH1 0x4 DUP3 ADD SLOAD DUP2 MSTORE PUSH1 0x20 ADD PUSH1 0x5 DUP3 ADD SLOAD DUP2 MSTORE PUSH1 0x20 ADD PUSH1 0x6 DUP3 ADD PUSH1 0x0 SWAP1 SLOAD SWAP1 PUSH2 0x100 EXP SWAP1 DIV PUSH1 0xFF AND PUSH1 0x3 DUP2 GT ISZERO PUSH2 0x63B JUMPI PUSH2 0x63A PUSH2 0x2B4C JUMP JUMPDEST JUMPDEST PUSH1 0x3 DUP2 GT ISZERO PUSH2 0x64D JUMPI PUSH2 0x64C PUSH2 0x2B4C JUMP JUMPDEST JUMPDEST DUP2 MSTORE PUSH1 0x20 ADD PUSH1 0x7 DUP3 ADD SLOAD DUP2 MSTORE POP POP SWAP1 POP PUSH2 0x671 PUSH8 0x45D3B41A49D7AE02 PUSH1 0xC0 SHL PUSH2 0x293D JUMP JUMPDEST PUSH2 0x685 PUSH8 0x7DD3F87B173F7FD6 PUSH1 0xC0 SHL PUSH2 0x293D JUMP JUMPDEST PUSH1 0x0 DUP1 SLOAD SWAP1 PUSH2 0x100 EXP SWAP1 DIV PUSH20 0xFFFFFFFFFFFFFFFFFFFFFFFFFFFFFFFFFFFFFFFF AND PUSH20 0xFFFFFFFFFFFFFFFFFFFFFFFFFFFFFFFFFFFFFFFF AND CALLER PUSH20 0xFFFFFFFFFFFFFFFFFFFFFFFFFFFFFFFFFFFFFFFF AND EQ DUP1 ISZERO PUSH2 0x708 JUMPI POP PUSH1 0x3 DUP1 DUP2 GT ISZERO PUSH2 0x6EE JUMPI PUSH2 0x6ED PUSH2 0x2B4C JUMP JUMPDEST JUMPDEST DUP2 PUSH1 0xC0 ADD MLOAD PUSH1 0x3 DUP2 GT ISZERO PUSH2 0x705 JUMPI PUSH2 0x704 PUSH2 0x2B4C JUMP JUMPDEST JUMPDEST EQ ISZERO JUMPDEST ISZERO PUSH2 0x767 JUMPI PUSH2 0x721 PUSH8 0x539A28D4BBB2F8BB PUSH1 0xC0 SHL PUSH2 0x293D JUMP JUMPDEST PUSH2 0x735 PUSH8 0x964E40EE2CDEB523 PUSH1 0xC0 SHL PUSH2 0x293D JUMP JUMPDEST PUSH1 0x40 MLOAD PUSH32 0x8AB9B32900000000000000000000000000000000000000000000000000000000 DUP2 MSTORE PUSH1 0x4 ADD PUSH1 0x40 MLOAD DUP1 SWAP2 SUB SWAP1 REVERT JUMPDEST PUSH2 0x77B PUSH8 0x85176212632737A6 PUSH1 0xC0 SHL PUSH2 0x293D JUMP JUMPDEST PUSH2 0x78F PUSH8 0x4C7003B2A7016287 PUSH1 0xC0 SHL PUSH2 0x293D JUMP JUMPDEST CALLER PUSH20 0xFFFFFFFFFFFFFFFFFFFFFFFFFFFFFFFFFFFFFFFF AND DUP2 PUSH1 0x0 ADD MLOAD PUSH20 0xFFFFFFFFFFFFFFFFFFFFFFFFFFFFFFFFFFFFFFFF AND EQ ISZERO DUP1 ISZERO PUSH2 0x81B JUMPI POP PUSH1 0x0 DUP1 SLOAD SWAP1 PUSH2 0x100 EXP SWAP1 DIV PUSH20 0xFFFFFFFFFFFFFFFFFFFFFFFFFFFFFFFFFFFFFFFF AND PUSH20 0xFFFFFFFFFFFFFFFFFFFFFFFFFFFFFFFFFFFFFFFF AND CALLER PUSH20 0xFFFFFFFFFFFFFFFFFFFFFFFFFFFFFFFFFFFFFFFF AND EQ ISZERO JUMPDEST ISZERO PUSH2 0x87A JUMPI PUSH2 0x834 PUSH8 0xB8512D8A4A233CD4 PUSH1 0xC0 SHL PUSH2 0x293D JUMP JUMPDEST PUSH2 0x848 PUSH8 0x22912976BD784849 PUSH1 0xC0 SHL PUSH2 0x293D JUMP JUMPDEST PUSH1 0x40 MLOAD PUSH32 0x76DF155600000000000000000000000000000000000000000000000000000000 DUP2 MSTORE PUSH1 0x4 ADD PUSH1 0x40 MLOAD DUP1 SWAP2 SUB SWAP1 REVERT JUMPDEST PUSH2 0x88E PUSH8 0x1738F3F3759D663D PUSH1 0xC0 SHL PUSH2 0x293D JUMP JUMPDEST PUSH2 0x8A2 PUSH8 0x8E687D28D1F0071D PUSH1 0xC0 SHL PUSH2 0x293D JUMP JUMPDEST DUP1 PUSH1 0x0 ADD MLOAD PUSH20 0xFFFFFFFFFFFFFFFFFFFFFFFFFFFFFFFFFFFFFFFF AND CALLER PUSH20 0xFFFFFFFFFFFFFFFFFFFFFFFFFFFFFFFFFFFFFFFF AND EQ DUP1 ISZERO PUSH2 0x908 JUMPI POP PUSH1 0x3 DUP1 DUP2 GT ISZERO PUSH2 0x8EF JUMPI PUSH2 0x8EE PUSH2 0x2B4C JUMP JUMPDEST JUMPDEST DUP2 PUSH1 0xC0 ADD MLOAD PUSH1 0x3 DUP2 GT ISZERO PUSH2 0x906 JUMPI PUSH2 0x905 PUSH2 0x2B4C JUMP JUMPDEST JUMPDEST EQ JUMPDEST ISZERO PUSH2 0x967 JUMPI PUSH2 0x921 PUSH8 0xDFA79C7729E9CCC9 PUSH1 0xC0 SHL PUSH2 0x293D JUMP JUMPDEST PUSH2 0x935 PUSH8 0x29062CC8DC023741 PUSH1 0xC0 SHL PUSH2 0x293D JUMP JUMPDEST PUSH1 0x40 MLOAD PUSH32 0x26B095E100000000000000000000000000000000000000000000000000000000 DUP2 MSTORE PUSH1 0x4 ADD PUSH1 0x40 MLOAD DUP1 SWAP2 SUB SWAP1 REVERT JUMPDEST PUSH2 0x97B PUSH8 0x4BF8D5847EE50BF0 PUSH1 0xC0 SHL PUSH2 0x293D JUMP JUMPDEST PUSH2 0x98F PUSH8 0xA8CF46A670D916B0 PUSH1 0xC0 SHL PUSH2 0x293D JUMP JUMPDEST PUSH2 0x9A3 PUSH8 0x415590ABF35F6C16 PUSH1 0xC0 SHL PUSH2 0x293D JUMP JUMPDEST PUSH2 0x9B7 PUSH8 0x20DC0852A289C786 PUSH1 0xC0 SHL PUSH2 0x293D JUMP JUMPDEST PUSH2 0x9CB PUSH8 0x587E37BE3E2A8A9F PUSH1 0xC0 SHL PUSH2 0x293D JUMP JUMPDEST PUSH2 0x9DF PUSH8 0x5F071E8A3096EE05 PUSH1 0xC0 SHL PUSH2 0x293D JUMP JUMPDEST PUSH1 0x0 PUSH1 0x3 PUSH1 0x0 DUP8 DUP2 MSTORE PUSH1 0x20 ADD SWAP1 DUP2 MSTORE PUSH1 0x20 ADD PUSH1 0x0 KECCAK256 SWAP1 POP PUSH2 0xA0A PUSH8 0xA4F4E0F2571ABC7C PUSH1 0xC0 SHL PUSH2 0x293D JUMP JUMPDEST PUSH1 0x2 DUP2 PUSH1 0x6 ADD PUSH1 0x0 PUSH2 0x100 EXP DUP2 SLOAD DUP2 PUSH1 0xFF MUL NOT AND SWAP1 DUP4 PUSH1 0x3 DUP2 GT ISZERO PUSH2 0xA32 JUMPI PUSH2 0xA31 PUSH2 0x2B4C JUMP JUMPDEST JUMPDEST MUL OR SWAP1 SSTORE POP PUSH2 0xA4B PUSH8 0xFEF194E3B5A36AF2 PUSH1 0xC0 SHL PUSH2 0x293D JUMP JUMPDEST PUSH2 0xA5F PUSH8 0xC7D0A25614147D7A PUSH1 0xC0 SHL PUSH2 0x293D JUMP JUMPDEST PUSH1 0x0 DUP2 PUSH1 0x1 ADD PUSH1 0x0 SWAP1 SLOAD SWAP1 PUSH2 0x100 EXP SWAP1 DIV PUSH20 0xFFFFFFFFFFFFFFFFFFFFFFFFFFFFFFFFFFFFFFFF AND PUSH20 0xFFFFFFFFFFFFFFFFFFFFFFFFFFFFFFFFFFFFFFFF AND DUP3 PUSH1 0x3 ADD SLOAD PUSH1 0x40 MLOAD PUSH2 0xAAD SWAP1 PUSH2 0x2E50 JUMP JUMPDEST PUSH1 0x0 PUSH1 0x40 MLOAD DUP1 DUP4 SUB DUP2 DUP6 DUP8 GAS CALL SWAP3 POP POP POP RETURNDATASIZE DUP1 PUSH1 0x0 DUP2 EQ PUSH2 0xAEA JUMPI PUSH1 0x40 MLOAD SWAP2 POP PUSH1 0x1F NOT PUSH1 0x3F RETURNDATASIZE ADD AND DUP3 ADD PUSH1 0x40 MSTORE RETURNDATASIZE DUP3 MSTORE RETURNDATASIZE PUSH1 0x0 PUSH1 0x20 DUP5 ADD RETURNDATACOPY PUSH2 0xAEF JUMP JUMPDEST PUSH1 0x60 SWAP2 POP JUMPDEST POP POP SWAP1 POP PUSH2 0xB07 PUSH8 0x6ADE4EE435263700 PUSH1 0xC0 SHL PUSH2 0x293D JUMP JUMPDEST PUSH2 0xB1B PUSH8 0xE5572A0CA148689E PUSH1 0xC0 SHL PUSH2 0x293D JUMP JUMPDEST DUP1 PUSH2 0xB7A JUMPI PUSH2 0xB34 PUSH8 0xD5FFFA5233BEB7B3 PUSH1 0xC0 SHL PUSH2 0x293D JUMP JUMPDEST PUSH2 0xB48 PUSH8 0x6954EDC2BADC589A PUSH1 0xC0 SHL PUSH2 0x293D JUMP JUMPDEST PUSH1 0x40 MLOAD PUSH32 0x4ABCF95000000000000000000000000000000000000000000000000000000000 DUP2 MSTORE PUSH1 0x4 ADD PUSH1 0x40 MLOAD DUP1 SWAP2 SUB SWAP1 REVERT JUMPDEST PUSH2 0xB8E PUSH8 0x62149C2C06978140 PUSH1 0xC0 SHL PUSH2 0x293D JUMP JUMPDEST PUSH2 0xBA2 PUSH8 0xF65636FA082B6DB7 PUSH1 0xC0 SHL PUSH2 0x293D JUMP JUMPDEST PUSH2 0xBB6 PUSH8 0xEA9568A7C09D2349 PUSH1 0xC0 SHL PUSH2 0x293D JUMP JUMPDEST DUP7 PUSH32 0x6CBB2F5FC1A460905EB3B50B6C769589D8B1A201F03B7F04B1F3CE09C3AEE78B PUSH1 0x40 MLOAD PUSH1 0x40 MLOAD DUP1 SWAP2 SUB SWAP1 LOG2 POP POP POP POP POP POP POP JUMP JUMPDEST PUSH2 0xC00 PUSH8 0x670FA0C97E324C0 PUSH1 0xC0 SHL PUSH2 0x293D JUMP JUMPDEST DUP1 PUSH2 0xC15 PUSH8 0xA986CEFEEC858187 PUSH1 0xC0 SHL PUSH2 0x293D JUMP JUMPDEST PUSH2 0xC29 PUSH8 0x9468E128EAE60B1A PUSH1 0xC0 SHL PUSH2 0x293D JUMP JUMPDEST PUSH2 0xC3D PUSH8 0x96010DFAECF65CF6 PUSH1 0xC0 SHL PUSH2 0x293D JUMP JUMPDEST PUSH1 0x0 PUSH1 0x3 PUSH1 0x0 DUP4 DUP2 MSTORE PUSH1 0x20 ADD SWAP1 DUP2 MSTORE PUSH1 0x20 ADD PUSH1 0x0 KECCAK256 PUSH1 0x40 MLOAD DUP1 PUSH2 0x100 ADD PUSH1 0x40 MSTORE SWAP1 DUP2 PUSH1 0x0 DUP3 ADD PUSH1 0x0 SWAP1 SLOAD SWAP1 PUSH2 0x100 EXP SWAP1 DIV PUSH20 0xFFFFFFFFFFFFFFFFFFFFFFFFFFFFFFFFFFFFFFFF AND PUSH20 0xFFFFFFFFFFFFFFFFFFFFFFFFFFFFFFFFFFFFFFFF AND PUSH20 0xFFFFFFFFFFFFFFFFFFFFFFFFFFFFFFFFFFFFFFFF AND DUP2 MSTORE PUSH1 0x20 ADD PUSH1 0x1 DUP3 ADD PUSH1 0x0 SWAP1 SLOAD SWAP1 PUSH2 0x100 EXP SWAP1 DIV PUSH20 0xFFFFFFFFFFFFFFFFFFFFFFFFFFFFFFFFFFFFFFFF AND PUSH20 0xFFFFFFFFFFFFFFFFFFFFFFFFFFFFFFFFFFFFFFFF AND PUSH20 0xFFFFFFFFFFFFFFFFFFFFFFFFFFFFFFFFFFFFFFFF AND DUP2 MSTORE PUSH1 0x20 ADD PUSH1 0x2 DUP3 ADD SLOAD DUP2 MSTORE PUSH1 0x20 ADD PUSH1 0x3 DUP3 ADD SLOAD DUP2 MSTORE PUSH1 0x20 ADD PUSH1 0x4 DUP3 ADD SLOAD DUP2 MSTORE PUSH1 0x20 ADD PUSH1 0x5 DUP3 ADD SLOAD DUP2 MSTORE PUSH1 0x20 ADD PUSH1 0x6 DUP3 ADD PUSH1 0x0 SWAP1 SLOAD SWAP1 PUSH2 0x100 EXP SWAP1 DIV PUSH1 0xFF AND PUSH1 0x3 DUP2 GT ISZERO PUSH2 0xD57 JUMPI PUSH2 0xD56 PUSH2 0x2B4C JUMP JUMPDEST JUMPDEST PUSH1 0x3 DUP2 GT ISZERO PUSH2 0xD69 JUMPI PUSH2 0xD68 PUSH2 0x2B4C JUMP JUMPDEST JUMPDEST DUP2 MSTORE PUSH1 0x20 ADD PUSH1 0x7 DUP3 ADD SLOAD DUP2 MSTORE POP POP SWAP1 POP PUSH2 0xD8D PUSH8 0x7A4FA443F0DD646B PUSH1 0xC0 SHL PUSH2 0x293D JUMP JUMPDEST PUSH2 0xDA1 PUSH8 0x7BA95F796C8A102 PUSH1 0xC0 SHL PUSH2 0x293D JUMP JUMPDEST PUSH1 0x0 PUSH1 0x3 DUP2 GT ISZERO PUSH2 0xDB5 JUMPI PUSH2 0xDB4 PUSH2 0x2B4C JUMP JUMPDEST JUMPDEST DUP2 PUSH1 0xC0 ADD MLOAD PUSH1 0x3 DUP2 GT ISZERO PUSH2 0xDCC JUMPI PUSH2 0xDCB PUSH2 0x2B4C JUMP JUMPDEST JUMPDEST EQ ISZERO DUP1 ISZERO PUSH2 0xE02 JUMPI POP PUSH1 0x3 DUP1 DUP2 GT ISZERO PUSH2 0xDE8 JUMPI PUSH2 0xDE7 PUSH2 0x2B4C JUMP JUMPDEST JUMPDEST DUP2 PUSH1 0xC0 ADD MLOAD PUSH1 0x3 DUP2 GT ISZERO PUSH2 0xDFF JUMPI PUSH2 0xDFE PUSH2 0x2B4C JUMP JUMPDEST JUMPDEST EQ ISZERO JUMPDEST ISZERO PUSH2 0xE61 JUMPI PUSH2 0xE1B PUSH8 0x88091DFA12640C6 PUSH1 0xC0 SHL PUSH2 0x293D JUMP JUMPDEST PUSH2 0xE2F PUSH8 0x7D44F4B501C43183 PUSH1 0xC0 SHL PUSH2 0x293D JUMP JUMPDEST PUSH1 0x40 MLOAD PUSH32 0x8A22693E00000000000000000000000000000000000000000000000000000000 DUP2 MSTORE PUSH1 0x4 ADD PUSH1 0x40 MLOAD DUP1 SWAP2 SUB SWAP1 REVERT JUMPDEST PUSH2 0xE75 PUSH8 0x21C50106825C897D PUSH1 0xC0 SHL PUSH2 0x293D JUMP JUMPDEST PUSH2 0xE89 PUSH8 0xA7C7C5DFAD30EC65 PUSH1 0xC0 SHL PUSH2 0x293D JUMP JUMPDEST PUSH2 0xE9D PUSH8 0x87C4F702BFA41C49 PUSH1 0xC0 SHL PUSH2 0x293D JUMP JUMPDEST PUSH2 0xEB1 PUSH8 0x2A89420D0376B4F PUSH1 0xC0 SHL PUSH2 0x293D JUMP JUMPDEST DUP3 PUSH2 0xEC6 PUSH8 0xBA63A8469ACF7EC7 PUSH1 0xC0 SHL PUSH2 0x293D JUMP JUMPDEST PUSH2 0xEDA PUSH8 0x1B786CBFC5BBDDB6 PUSH1 0xC0 SHL PUSH2 0x293D JUMP JUMPDEST PUSH2 0xEEE PUSH8 0xD2A7682FBE9B96A5 PUSH1 0xC0 SHL PUSH2 0x293D JUMP JUMPDEST PUSH1 0x0 PUSH1 0x3 PUSH1 0x0 DUP4 DUP2 MSTORE PUSH1 0x20 ADD SWAP1 DUP2 MSTORE PUSH1 0x20 ADD PUSH1 0x0 KECCAK256 PUSH1 0x40 MLOAD DUP1 PUSH2 0x100 ADD PUSH1 0x40 MSTORE SWAP1 DUP2 PUSH1 0x0 DUP3 ADD PUSH1 0x0 SWAP1 SLOAD SWAP1 PUSH2 0x100 EXP SWAP1 DIV PUSH20 0xFFFFFFFFFFFFFFFFFFFFFFFFFFFFFFFFFFFFFFFF AND PUSH20 0xFFFFFFFFFFFFFFFFFFFFFFFFFFFFFFFFFFFFFFFF AND PUSH20 0xFFFFFFFFFFFFFFFFFFFFFFFFFFFFFFFFFFFFFFFF AND DUP2 MSTORE PUSH1 0x20 ADD PUSH1 0x1 DUP3 ADD PUSH1 0x0 SWAP1 SLOAD SWAP1 PUSH2 0x100 EXP SWAP1 DIV PUSH20 0xFFFFFFFFFFFFFFFFFFFFFFFFFFFFFFFFFFFFFFFF AND PUSH20 0xFFFFFFFFFFFFFFFFFFFFFFFFFFFFFFFFFFFFFFFF AND PUSH20 0xFFFFFFFFFFFFFFFFFFFFFFFFFFFFFFFFFFFFFFFF AND DUP2 MSTORE PUSH1 0x20 ADD PUSH1 0x2 DUP3 ADD SLOAD DUP2 MSTORE PUSH1 0x20 ADD PUSH1 0x3 DUP3 ADD SLOAD DUP2 MSTORE PUSH1 0x20 ADD PUSH1 0x4 DUP3 ADD SLOAD DUP2 MSTORE PUSH1 0x20 ADD PUSH1 0x5 DUP3 ADD SLOAD DUP2 MSTORE PUSH1 0x20 ADD PUSH1 0x6 DUP3 ADD PUSH1 0x0 SWAP1 SLOAD SWAP1 PUSH2 0x100 EXP SWAP1 DIV PUSH1 0xFF AND PUSH1 0x3 DUP2 GT ISZERO PUSH2 0x1008 JUMPI PUSH2 0x1007 PUSH2 0x2B4C JUMP JUMPDEST JUMPDEST PUSH1 0x3 DUP2 GT ISZERO PUSH2 0x101A JUMPI PUSH2 0x1019 PUSH2 0x2B4C JUMP JUMPDEST JUMPDEST DUP2 MSTORE PUSH1 0x20 ADD PUSH1 0x7 DUP3 ADD SLOAD DUP2 MSTORE POP POP SWAP1 POP PUSH2 0x103E PUSH8 0x1614C4AB1E3C0E78 PUSH1 0xC0 SHL PUSH2 0x293D JUMP JUMPDEST PUSH2 0x1052 PUSH8 0x5D9EBA9467BF36DC PUSH1 0xC0 SHL PUSH2 0x293D JUMP JUMPDEST PUSH1 0x0 DUP1 SLOAD SWAP1 PUSH2 0x100 EXP SWAP1 DIV PUSH20 0xFFFFFFFFFFFFFFFFFFFFFFFFFFFFFFFFFFFFFFFF AND PUSH20 0xFFFFFFFFFFFFFFFFFFFFFFFFFFFFFFFFFFFFFFFF AND CALLER PUSH20 0xFFFFFFFFFFFFFFFFFFFFFFFFFFFFFFFFFFFFFFFF AND EQ DUP1 ISZERO PUSH2 0x10D5 JUMPI POP PUSH1 0x3 DUP1 DUP2 GT ISZERO PUSH2 0x10BB JUMPI PUSH2 0x10BA PUSH2 0x2B4C JUMP JUMPDEST JUMPDEST DUP2 PUSH1 0xC0 ADD MLOAD PUSH1 0x3 DUP2 GT ISZERO PUSH2 0x10D2 JUMPI PUSH2 0x10D1 PUSH2 0x2B4C JUMP JUMPDEST JUMPDEST EQ ISZERO JUMPDEST ISZERO PUSH2 0x1134 JUMPI PUSH2 0x10EE PUSH8 0xDAA96C08F8CFBAEB PUSH1 0xC0 SHL PUSH2 0x293D JUMP JUMPDEST PUSH2 0x1102 PUSH8 0xD53A0EEBA684915C PUSH1 0xC0 SHL PUSH2 0x293D JUMP JUMPDEST PUSH1 0x40 MLOAD PUSH32 0x8AB9B32900000000000000000000000000000000000000000000000000000000 DUP2 MSTORE PUSH1 0x4 ADD PUSH1 0x40 MLOAD DUP1 SWAP2 SUB SWAP1 REVERT JUMPDEST PUSH2 0x1148 PUSH8 0x713E500CF31766C8 PUSH1 0xC0 SHL PUSH2 0x293D JUMP JUMPDEST PUSH2 0x115C PUSH8 0x982E8DEEA7998260 PUSH1 0xC0 SHL PUSH2 0x293D JUMP JUMPDEST CALLER PUSH20 0xFFFFFFFFFFFFFFFFFFFFFFFFFFFFFFFFFFFFFFFF AND DUP2 PUSH1 0x0 ADD MLOAD PUSH20 0xFFFFFFFFFFFFFFFFFFFFFFFFFFFFFFFFFFFFFFFF AND SUB PUSH2 0x125C JUMPI PUSH2 0x11A7 PUSH8 0x2910437015357DBB PUSH1 0xC0 SHL PUSH2 0x293D JUMP JUMPDEST PUSH2 0x11BB PUSH8 0x577AE683F7DAB10 PUSH1 0xC0 SHL PUSH2 0x293D JUMP JUMPDEST PUSH2 0x11CF PUSH8 0xC517EA917B606670 PUSH1 0xC0 SHL PUSH2 0x293D JUMP JUMPDEST PUSH3 0x278D00 DUP2 PUSH1 0x80 ADD MLOAD TIMESTAMP PUSH2 0x11E3 SWAP2 SWAP1 PUSH2 0x2E94 JUMP JUMPDEST LT ISZERO PUSH2 0x1243 JUMPI PUSH2 0x11FD PUSH8 0x1A195938F297BFE2 PUSH1 0xC0 SHL PUSH2 0x293D JUMP JUMPDEST PUSH2 0x1211 PUSH8 0x4CF94B57C9058E22 PUSH1 0xC0 SHL PUSH2 0x293D JUMP JUMPDEST PUSH1 0x40 MLOAD PUSH32 0x586F49F700000000000000000000000000000000000000000000000000000000 DUP2 MSTORE PUSH1 0x4 ADD PUSH1 0x40 MLOAD DUP1 SWAP2 SUB SWAP1 REVERT JUMPDEST PUSH2 0x1257 PUSH8 0x5F537D3611769A9F PUSH1 0xC0 SHL PUSH2 0x293D JUMP JUMPDEST PUSH2 0x1471 JUMP JUMPDEST PUSH2 0x1270 PUSH8 0x8E213DE2E7C0F3E9 PUSH1 0xC0 SHL PUSH2 0x293D JUMP JUMPDEST PUSH2 0x1284 PUSH8 0x3DA8EB50C5965F24 PUSH1 0xC0 SHL PUSH2 0x293D JUMP JUMPDEST CALLER PUSH20 0xFFFFFFFFFFFFFFFFFFFFFFFFFFFFFFFFFFFFFFFF AND DUP2 PUSH1 0x20 ADD MLOAD PUSH20 0xFFFFFFFFFFFFFFFFFFFFFFFFFFFFFFFFFFFFFFFF AND EQ ISZERO DUP1 ISZERO PUSH2 0x1310 JUMPI POP PUSH1 0x0 DUP1 SLOAD SWAP1 PUSH2 0x100 EXP SWAP1 DIV PUSH20 0xFFFFFFFFFFFFFFFFFFFFFFFFFFFFFFFFFFFFFFFF AND PUSH20 0xFFFFFFFFFFFFFFFFFFFFFFFFFFFFFFFFFFFFFFFF AND CALLER PUSH20 0xFFFFFFFFFFFFFFFFFFFFFFFFFFFFFFFFFFFFFFFF AND EQ ISZERO JUMPDEST ISZERO PUSH2 0x136F JUMPI PUSH2 0x1329 PUSH8 0xEA6C141A9EC09EEE PUSH1 0xC0 SHL PUSH2 0x293D JUMP JUMPDEST PUSH2 0x133D PUSH8 0x1B8D04D6AA36DAE7 PUSH1 0xC0 SHL PUSH2 0x293D JUMP JUMPDEST PUSH1 0x40 MLOAD PUSH32 0x492AAB8600000000000000000000000000000000000000000000000000000000 DUP2 MSTORE PUSH1 0x4 ADD PUSH1 0x40 MLOAD DUP1 SWAP2 SUB SWAP1 REVERT JUMPDEST PUSH2 0x1383 PUSH8 0x4F1337C4080BA2BD PUSH1 0xC0 SHL PUSH2 0x293D JUMP JUMPDEST PUSH2 0x1397 PUSH8 0x797479D6D3AB7811 PUSH1 0xC0 SHL PUSH2 0x293D JUMP JUMPDEST DUP1 PUSH1 0x20 ADD MLOAD PUSH20 0xFFFFFFFFFFFFFFFFFFFFFFFFFFFFFFFFFFFFFFFF AND CALLER PUSH20 0xFFFFFFFFFFFFFFFFFFFFFFFFFFFFFFFFFFFFFFFF AND EQ DUP1 ISZERO PUSH2 0x13FD JUMPI POP PUSH1 0x3 DUP1 DUP2 GT ISZERO PUSH2 0x13E4 JUMPI PUSH2 0x13E3 PUSH2 0x2B4C JUMP JUMPDEST JUMPDEST DUP2 PUSH1 0xC0 ADD MLOAD PUSH1 0x3 DUP2 GT ISZERO PUSH2 0x13FB JUMPI PUSH2 0x13FA PUSH2 0x2B4C JUMP JUMPDEST JUMPDEST EQ JUMPDEST ISZERO PUSH2 0x145C JUMPI PUSH2 0x1416 PUSH8 0x9967075CE7C0ED2D PUSH1 0xC0 SHL PUSH2 0x293D JUMP JUMPDEST PUSH2 0x142A PUSH8 0x10487BA0B33925A9 PUSH1 0xC0 SHL PUSH2 0x293D JUMP JUMPDEST PUSH1 0x40 MLOAD PUSH32 0x26B095E100000000000000000000000000000000000000000000000000000000 DUP2 MSTORE PUSH1 0x4 ADD PUSH1 0x40 MLOAD DUP1 SWAP2 SUB SWAP1 REVERT JUMPDEST PUSH2 0x1470 PUSH8 0x1416EC0410B1A7D4 PUSH1 0xC0 SHL PUSH2 0x293D JUMP JUMPDEST JUMPDEST PUSH2 0x1485 PUSH8 0x81048211811FAB5 PUSH1 0xC0 SHL PUSH2 0x293D JUMP JUMPDEST PUSH2 0x1499 PUSH8 0xEF0C336E04861558 PUSH1 0xC0 SHL PUSH2 0x293D JUMP JUMPDEST PUSH2 0x14AD PUSH8 0x88916614DDB5604A PUSH1 0xC0 SHL PUSH2 0x293D JUMP JUMPDEST PUSH2 0x14C1 PUSH8 0x56289FCA248217C1 PUSH1 0xC0 SHL PUSH2 0x293D JUMP JUMPDEST PUSH2 0x14D5 PUSH8 0x74A52728903EBC68 PUSH1 0xC0 SHL PUSH2 0x293D JUMP JUMPDEST PUSH1 0x0 PUSH1 0x3 PUSH1 0x0 DUP8 DUP2 MSTORE PUSH1 0x20 ADD SWAP1 DUP2 MSTORE PUSH1 0x20 ADD PUSH1 0x0 KECCAK256 SWAP1 POP PUSH2 0x1500 PUSH8 0x7BD10DE6A7CABF1E PUSH1 0xC0 SHL PUSH2 0x293D JUMP JUMPDEST PUSH1 0x1 DUP2 PUSH1 0x6 ADD PUSH1 0x0 PUSH2 0x100 EXP DUP2 SLOAD DUP2 PUSH1 0xFF MUL NOT AND SWAP1 DUP4 PUSH1 0x3 DUP2 GT ISZERO PUSH2 0x1528 JUMPI PUSH2 0x1527 PUSH2 0x2B4C JUMP JUMPDEST JUMPDEST MUL OR SWAP1 SSTORE POP PUSH2 0x1541 PUSH8 0xECA099B30BEED68B PUSH1 0xC0 SHL PUSH2 0x293D JUMP JUMPDEST PUSH2 0x1555 PUSH8 0x6B42D809763E0CB5 PUSH1 0xC0 SHL PUSH2 0x293D JUMP JUMPDEST PUSH1 0x0 DUP2 PUSH1 0x0 ADD PUSH1 0x0 SWAP1 SLOAD SWAP1 PUSH2 0x100 EXP SWAP1 DIV PUSH20 0xFFFFFFFFFFFFFFFFFFFFFFFFFFFFFFFFFFFFFFFF AND PUSH20 0xFFFFFFFFFFFFFFFFFFFFFFFFFFFFFFFFFFFFFFFF AND DUP3 PUSH1 0x3 ADD SLOAD PUSH1 0x40 MLOAD PUSH2 0x15A3 SWAP1 PUSH2 0x2E50 JUMP JUMPDEST PUSH1 0x0 PUSH1 0x40 MLOAD DUP1 DUP4 SUB DUP2 DUP6 DUP8 GAS CALL SWAP3 POP POP POP RETURNDATASIZE DUP1 PUSH1 0x0 DUP2 EQ PUSH2 0x15E0 JUMPI PUSH1 0x40 MLOAD SWAP2 POP PUSH1 0x1F NOT PUSH1 0x3F RETURNDATASIZE ADD AND DUP3 ADD PUSH1 0x40 MSTORE RETURNDATASIZE DUP3 MSTORE RETURNDATASIZE PUSH1 0x0 PUSH1 0x20 DUP5 ADD RETURNDATACOPY PUSH2 0x15E5 JUMP JUMPDEST PUSH1 0x60 SWAP2 POP JUMPDEST POP POP SWAP1 POP PUSH2 0x15FD PUSH8 0x72F4C21739EEDC9F PUSH1 0xC0 SHL PUSH2 0x293D JUMP JUMPDEST PUSH2 0x1611 PUSH8 0x6B52D77BCC5684F1 PUSH1 0xC0 SHL PUSH2 0x293D JUMP JUMPDEST DUP1 PUSH2 0x1670 JUMPI PUSH2 0x162A PUSH8 0xA0CD571F8E1D9E0A PUSH1 0xC0 SHL PUSH2 0x293D JUMP JUMPDEST PUSH2 0x163E PUSH8 0x15211B0B91D88CB4 PUSH1 0xC0 SHL PUSH2 0x293D JUMP JUMPDEST PUSH1 0x40 MLOAD PUSH32 0x4ABCF95000000000000000000000000000000000000000000000000000000000 DUP2 MSTORE PUSH1 0x4 ADD PUSH1 0x40 MLOAD DUP1 SWAP2 SUB SWAP1 REVERT JUMPDEST PUSH2 0x1684 PUSH8 0xBEFC3620270FF0F2 PUSH1 0xC0 SHL PUSH2 0x293D JUMP JUMPDEST PUSH2 0x1698 PUSH8 0x3BE2368DA88B39F9 PUSH1 0xC0 SHL PUSH2 0x293D JUMP JUMPDEST PUSH2 0x16AC PUSH8 0x1D10082A2AC305CA PUSH1 0xC0 SHL PUSH2 0x293D JUMP JUMPDEST DUP7 PUSH32 0xD7C4EDED732389526228283D2661CA619ED8096FFFCA8C0F0C3A6E2A7F4C449D PUSH1 0x40 MLOAD PUSH1 0x40 MLOAD DUP1 SWAP2 SUB SWAP1 LOG2 POP POP POP POP POP POP POP JUMP JUMPDEST PUSH1 0x0 PUSH2 0x16F8 PUSH8 0x67F3FF20160C53A PUSH1 0xC0 SHL PUSH2 0x293D JUMP JUMPDEST PUSH2 0x170C PUSH8 0x6D8ADABDABB8E408 PUSH1 0xC0 SHL PUSH2 0x293D JUMP JUMPDEST PUSH2 0x1720 PUSH8 0x4B677F51E981752D PUSH1 0xC0 SHL PUSH2 0x293D JUMP JUMPDEST PUSH2 0x1734 PUSH8 0xCC76FCBB1316D353 PUSH1 0xC0 SHL PUSH2 0x293D JUMP JUMPDEST PUSH32 0x0 PUSH20 0xFFFFFFFFFFFFFFFFFFFFFFFFFFFFFFFFFFFFFFFF AND CALLER PUSH20 0xFFFFFFFFFFFFFFFFFFFFFFFFFFFFFFFFFFFFFFFF AND EQ PUSH2 0x17E1 JUMPI PUSH2 0x179B PUSH8 0x298044C1CAC2B2C3 PUSH1 0xC0 SHL PUSH2 0x293D JUMP JUMPDEST PUSH2 0x17AF PUSH8 0x480D1A4A154ABAEC PUSH1 0xC0 SHL PUSH2 0x293D JUMP JUMPDEST PUSH1 0x40 MLOAD PUSH32 0xAB24DD7C00000000000000000000000000000000000000000000000000000000 DUP2 MSTORE PUSH1 0x4 ADD PUSH1 0x40 MLOAD DUP1 SWAP2 SUB SWAP1 REVERT JUMPDEST PUSH2 0x17F5 PUSH8 0xFA91EAED2C59F76E PUSH1 0xC0 SHL PUSH2 0x293D JUMP JUMPDEST PUSH2 0x1809 PUSH8 0x8682A9107A6FD2C1 PUSH1 0xC0 SHL PUSH2 0x293D JUMP JUMPDEST PUSH2 0x181D PUSH8 0xF02905BC239EFDD7 PUSH1 0xC0 SHL PUSH2 0x293D JUMP JUMPDEST PUSH2 0x1831 PUSH8 0x83BB511F2F4F471B PUSH1 0xC0 SHL PUSH2 0x293D JUMP JUMPDEST PUSH2 0x1845 PUSH8 0x3C515E0C4F04E208 PUSH1 0xC0 SHL PUSH2 0x293D JUMP JUMPDEST PUSH2 0x1859 PUSH8 0x458B5498B6350414 PUSH1 0xC0 SHL PUSH2 0x293D JUMP JUMPDEST PUSH1 0x0 PUSH1 0x40 MLOAD DUP1 PUSH2 0x100 ADD PUSH1 0x40 MSTORE DUP1 DUP9 PUSH20 0xFFFFFFFFFFFFFFFFFFFFFFFFFFFFFFFFFFFFFFFF AND DUP2 MSTORE PUSH1 0x20 ADD DUP8 PUSH20 0xFFFFFFFFFFFFFFFFFFFFFFFFFFFFFFFFFFFFFFFF AND DUP2 MSTORE PUSH1 0x20 ADD DUP7 DUP2 MSTORE PUSH1 0x20 ADD CALLVALUE DUP2 MSTORE PUSH1 0x20 ADD TIMESTAMP DUP2 MSTORE PUSH1 0x20 ADD DUP6 DUP2 MSTORE PUSH1 0x20 ADD PUSH1 0x0 PUSH1 0x3 DUP2 GT ISZERO PUSH2 0x18CB JUMPI PUSH2 0x18CA PUSH2 0x2B4C JUMP JUMPDEST JUMPDEST DUP2 MSTORE PUSH1 0x20 ADD DUP5 DUP2 MSTORE POP SWAP1 POP PUSH2 0x18EA PUSH8 0xD053EB58535E341B PUSH1 0xC0 SHL PUSH2 0x293D JUMP JUMPDEST PUSH2 0x18FE PUSH8 0x8EF53031548EA112 PUSH1 0xC0 SHL PUSH2 0x293D JUMP JUMPDEST PUSH1 0x1 PUSH1 0x0 DUP8 PUSH20 0xFFFFFFFFFFFFFFFFFFFFFFFFFFFFFFFFFFFFFFFF AND PUSH20 0xFFFFFFFFFFFFFFFFFFFFFFFFFFFFFFFFFFFFFFFF AND DUP2 MSTORE PUSH1 0x20 ADD SWAP1 DUP2 MSTORE PUSH1 0x20 ADD PUSH1 0x0 KECCAK256 DUP2 SWAP1 DUP1 PUSH1 0x1 DUP2 SLOAD ADD DUP1 DUP3 SSTORE DUP1 SWAP2 POP POP PUSH1 0x1 SWAP1 SUB SWAP1 PUSH1 0x0 MSTORE PUSH1 0x20 PUSH1 0x0 KECCAK256 SWAP1 PUSH1 0x8 MUL ADD PUSH1 0x0 SWAP1 SWAP2 SWAP1 SWAP2 SWAP1 SWAP2 POP PUSH1 0x0 DUP3 ADD MLOAD DUP2 PUSH1 0x0 ADD PUSH1 0x0 PUSH2 0x100 EXP DUP2 SLOAD DUP2 PUSH20 0xFFFFFFFFFFFFFFFFFFFFFFFFFFFFFFFFFFFFFFFF MUL NOT AND SWAP1 DUP4 PUSH20 0xFFFFFFFFFFFFFFFFFFFFFFFFFFFFFFFFFFFFFFFF AND MUL OR SWAP1 SSTORE POP PUSH1 0x20 DUP3 ADD MLOAD DUP2 PUSH1 0x1 ADD PUSH1 0x0 PUSH2 0x100 EXP DUP2 SLOAD DUP2 PUSH20 0xFFFFFFFFFFFFFFFFFFFFFFFFFFFFFFFFFFFFFFFF MUL NOT AND SWAP1 DUP4 PUSH20 0xFFFFFFFFFFFFFFFFFFFFFFFFFFFFFFFFFFFFFFFF AND MUL OR SWAP1 SSTORE POP PUSH1 0x40 DUP3 ADD MLOAD DUP2 PUSH1 0x2 ADD SSTORE PUSH1 0x60 DUP3 ADD MLOAD DUP2 PUSH1 0x3 ADD SSTORE PUSH1 0x80 DUP3 ADD MLOAD DUP2 PUSH1 0x4 ADD SSTORE PUSH1 0xA0 DUP3 ADD MLOAD DUP2 PUSH1 0x5 ADD SSTORE PUSH1 0xC0 DUP3 ADD MLOAD DUP2 PUSH1 0x6 ADD PUSH1 0x0 PUSH2 0x100 EXP DUP2 SLOAD DUP2 PUSH1 0xFF MUL NOT AND SWAP1 DUP4 PUSH1 0x3 DUP2 GT ISZERO PUSH2 0x1A48 JUMPI PUSH2 0x1A47 PUSH2 0x2B4C JUMP JUMPDEST JUMPDEST MUL OR SWAP1 SSTORE POP PUSH1 0xE0 DUP3 ADD MLOAD DUP2 PUSH1 0x7 ADD SSTORE POP POP PUSH2 0x1A6D PUSH8 0xF64DA947F2A60555 PUSH1 0xC0 SHL PUSH2 0x293D JUMP JUMPDEST PUSH2 0x1A81 PUSH8 0x4B43E0EBD8B8ED49 PUSH1 0xC0 SHL PUSH2 0x293D JUMP JUMPDEST PUSH1 0x2 PUSH1 0x0 DUP9 PUSH20 0xFFFFFFFFFFFFFFFFFFFFFFFFFFFFFFFFFFFFFFFF AND PUSH20 0xFFFFFFFFFFFFFFFFFFFFFFFFFFFFFFFFFFFFFFFF AND DUP2 MSTORE PUSH1 0x20 ADD SWAP1 DUP2 MSTORE PUSH1 0x20 ADD PUSH1 0x0 KECCAK256 DUP2 SWAP1 DUP1 PUSH1 0x1 DUP2 SLOAD ADD DUP1 DUP3 SSTORE DUP1 SWAP2 POP POP PUSH1 0x1 SWAP1 SUB SWAP1 PUSH1 0x0 MSTORE PUSH1 0x20 PUSH1 0x0 KECCAK256 SWAP1 PUSH1 0x8 MUL ADD PUSH1 0x0 SWAP1 SWAP2 SWAP1 SWAP2 SWAP1 SWAP2 POP PUSH1 0x0 DUP3 ADD MLOAD DUP2 PUSH1 0x0 ADD PUSH1 0x0 PUSH2 0x100 EXP DUP2 SLOAD DUP2 PUSH20 0xFFFFFFFFFFFFFFFFFFFFFFFFFFFFFFFFFFFFFFFF MUL NOT AND SWAP1 DUP4 PUSH20 0xFFFFFFFFFFFFFFFFFFFFFFFFFFFFFFFFFFFFFFFF AND MUL OR SWAP1 SSTORE POP PUSH1 0x20 DUP3 ADD MLOAD DUP2 PUSH1 0x1 ADD PUSH1 0x0 PUSH2 0x100 EXP DUP2 SLOAD DUP2 PUSH20 0xFFFFFFFFFFFFFFFFFFFFFFFFFFFFFFFFFFFFFFFF MUL NOT AND SWAP1 DUP4 PUSH20 0xFFFFFFFFFFFFFFFFFFFFFFFFFFFFFFFFFFFFFFFF AND MUL OR SWAP1 SSTORE POP PUSH1 0x40 DUP3 ADD MLOAD DUP2 PUSH1 0x2 ADD SSTORE PUSH1 0x60 DUP3 ADD MLOAD DUP2 PUSH1 0x3 ADD SSTORE PUSH1 0x80 DUP3 ADD MLOAD DUP2 PUSH1 0x4 ADD SSTORE PUSH1 0xA0 DUP3 ADD MLOAD DUP2 PUSH1 0x5 ADD SSTORE PUSH1 0xC0 DUP3 ADD MLOAD DUP2 PUSH1 0x6 ADD PUSH1 0x0 PUSH2 0x100 EXP DUP2 SLOAD DUP2 PUSH1 0xFF MUL NOT AND SWAP1 DUP4 PUSH1 0x3 DUP2 GT ISZERO PUSH2 0x1BCB JUMPI PUSH2 0x1BCA PUSH2 0x2B4C JUMP JUMPDEST JUMPDEST MUL OR SWAP1 SSTORE POP PUSH1 0xE0 DUP3 ADD MLOAD DUP2 PUSH1 0x7 ADD SSTORE POP POP PUSH2 0x1BF0 PUSH8 0xCD72C06404FB7568 PUSH1 0xC0 SHL PUSH2 0x293D JUMP JUMPDEST DUP1 PUSH1 0x3 PUSH1 0x0 DUP7 DUP2 MSTORE PUSH1 0x20 ADD SWAP1 DUP2 MSTORE PUSH1 0x20 ADD PUSH1 0x0 KECCAK256 PUSH1 0x0 DUP3 ADD MLOAD DUP2 PUSH1 0x0 ADD PUSH1 0x0 PUSH2 0x100 EXP DUP2 SLOAD DUP2 PUSH20 0xFFFFFFFFFFFFFFFFFFFFFFFFFFFFFFFFFFFFFFFF MUL NOT AND SWAP1 DUP4 PUSH20 0xFFFFFFFFFFFFFFFFFFFFFFFFFFFFFFFFFFFFFFFF AND MUL OR SWAP1 SSTORE POP PUSH1 0x20 DUP3 ADD MLOAD DUP2 PUSH1 0x1 ADD PUSH1 0x0 PUSH2 0x100 EXP DUP2 SLOAD DUP2 PUSH20 0xFFFFFFFFFFFFFFFFFFFFFFFFFFFFFFFFFFFFFFFF MUL NOT AND SWAP1 DUP4 PUSH20 0xFFFFFFFFFFFFFFFFFFFFFFFFFFFFFFFFFFFFFFFF AND MUL OR SWAP1 SSTORE POP PUSH1 0x40 DUP3 ADD MLOAD DUP2 PUSH1 0x2 ADD SSTORE PUSH1 0x60 DUP3 ADD MLOAD DUP2 PUSH1 0x3 ADD SSTORE PUSH1 0x80 DUP3 ADD MLOAD DUP2 PUSH1 0x4 ADD SSTORE PUSH1 0xA0 DUP3 ADD MLOAD DUP2 PUSH1 0x5 ADD SSTORE PUSH1 0xC0 DUP3 ADD MLOAD DUP2 PUSH1 0x6 ADD PUSH1 0x0 PUSH2 0x100 EXP DUP2 SLOAD DUP2 PUSH1 0xFF MUL NOT AND SWAP1 DUP4 PUSH1 0x3 DUP2 GT ISZERO PUSH2 0x1CE5 JUMPI PUSH2 0x1CE4 PUSH2 0x2B4C JUMP JUMPDEST JUMPDEST MUL OR SWAP1 SSTORE POP PUSH1 0xE0 DUP3 ADD MLOAD DUP2 PUSH1 0x7 ADD SSTORE SWAP1 POP POP PUSH2 0x1D0B PUSH8 0xEB3CA56F604EEF8 PUSH1 0xC0 SHL PUSH2 0x293D JUMP JUMPDEST PUSH2 0x1D1F PUSH8 0x3326A407ADAC5325 PUSH1 0xC0 SHL PUSH2 0x293D JUMP JUMPDEST DUP1 PUSH1 0xA0 ADD MLOAD SWAP2 POP POP SWAP6 SWAP5 POP POP POP POP POP JUMP JUMPDEST PUSH2 0x1D38 PUSH2 0x2940 JUMP JUMPDEST PUSH2 0x1D4C PUSH8 0x178B41E7B125903A PUSH1 0xC0 SHL PUSH2 0x293D JUMP JUMPDEST PUSH2 0x1D60 PUSH8 0xE9AA0B4E15742868 PUSH1 0xC0 SHL PUSH2 0x293D JUMP JUMPDEST PUSH2 0x1D74 PUSH8 0xB7B337024C635DA4 PUSH1 0xC0 SHL PUSH2 0x293D JUMP JUMPDEST PUSH1 0x0 PUSH20 0xFFFFFFFFFFFFFFFFFFFFFFFFFFFFFFFFFFFFFFFF AND PUSH1 0x3 PUSH1 0x0 DUP5 DUP2 MSTORE PUSH1 0x20 ADD SWAP1 DUP2 MSTORE PUSH1 0x20 ADD PUSH1 0x0 KECCAK256 PUSH1 0x0 ADD PUSH1 0x0 SWAP1 SLOAD SWAP1 PUSH2 0x100 EXP SWAP1 DIV PUSH20 0xFFFFFFFFFFFFFFFFFFFFFFFFFFFFFFFFFFFFFFFF AND PUSH20 0xFFFFFFFFFFFFFFFFFFFFFFFFFFFFFFFFFFFFFFFF AND SUB PUSH2 0x1E38 JUMPI PUSH2 0x1DF2 PUSH8 0x62EFDA05F818890 PUSH1 0xC0 SHL PUSH2 0x293D JUMP JUMPDEST PUSH2 0x1E06 PUSH8 0x628DFFC3FAB2DDF4 PUSH1 0xC0 SHL PUSH2 0x293D JUMP JUMPDEST PUSH1 0x40 MLOAD PUSH32 0x56421A5700000000000000000000000000000000000000000000000000000000 DUP2 MSTORE PUSH1 0x4 ADD PUSH1 0x40 MLOAD DUP1 SWAP2 SUB SWAP1 REVERT JUMPDEST PUSH2 0x1E4C PUSH8 0xF9165BFFD114AF6B PUSH1 0xC0 SHL PUSH2 0x293D JUMP JUMPDEST PUSH2 0x1E60 PUSH8 0x782CFC5A013337C9 PUSH1 0xC0 SHL PUSH2 0x293D JUMP JUMPDEST PUSH2 0x1E74 PUSH8 0xC1839B46B22F3B63 PUSH1 0xC0 SHL PUSH2 0x293D JUMP JUMPDEST PUSH1 0x3 PUSH1 0x0 DUP4 DUP2 MSTORE PUSH1 0x20 ADD SWAP1 DUP2 MSTORE PUSH1 0x20 ADD PUSH1 0x0 KECCAK256 PUSH1 0x40 MLOAD DUP1 PUSH2 0x100 ADD PUSH1 0x40 MSTORE SWAP1 DUP2 PUSH1 0x0 DUP3 ADD PUSH1 0x0 SWAP1 SLOAD SWAP1 PUSH2 0x100 EXP SWAP1 DIV PUSH20 0xFFFFFFFFFFFFFFFFFFFFFFFFFFFFFFFFFFFFFFFF AND PUSH20 0xFFFFFFFFFFFFFFFFFFFFFFFFFFFFFFFFFFFFFFFF AND PUSH20 0xFFFFFFFFFFFFFFFFFFFFFFFFFFFFFFFFFFFFFFFF AND DUP2 MSTORE PUSH1 0x20 ADD PUSH1 0x1 DUP3 ADD PUSH1 0x0 SWAP1 SLOAD SWAP1 PUSH2 0x100 EXP SWAP1 DIV PUSH20 0xFFFFFFFFFFFFFFFFFFFFFFFFFFFFFFFFFFFFFFFF AND PUSH20 0xFFFFFFFFFFFFFFFFFFFFFFFFFFFFFFFFFFFFFFFF AND PUSH20 0xFFFFFFFFFFFFFFFFFFFFFFFFFFFFFFFFFFFFFFFF AND DUP2 MSTORE PUSH1 0x20 ADD PUSH1 0x2 DUP3 ADD SLOAD DUP2 MSTORE PUSH1 0x20 ADD PUSH1 0x3 DUP3 ADD SLOAD DUP2 MSTORE PUSH1 0x20 ADD PUSH1 0x4 DUP3 ADD SLOAD DUP2 MSTORE PUSH1 0x20 ADD PUSH1 0x5 DUP3 ADD SLOAD DUP2 MSTORE PUSH1 0x20 ADD PUSH1 0x6 DUP3 ADD PUSH1 0x0 SWAP1 SLOAD SWAP1 PUSH2 0x100 EXP SWAP1 DIV PUSH1 0xFF AND PUSH1 0x3 DUP2 GT ISZERO PUSH2 0x1F8C JUMPI PUSH2 0x1F8B PUSH2 0x2B4C JUMP JUMPDEST JUMPDEST PUSH1 0x3 DUP2 GT ISZERO PUSH2 0x1F9E JUMPI PUSH2 0x1F9D PUSH2 0x2B4C JUMP JUMPDEST JUMPDEST DUP2 MSTORE PUSH1 0x20 ADD PUSH1 0x7 DUP3 ADD SLOAD DUP2 MSTORE POP POP SWAP1 POP SWAP2 SWAP1 POP JUMP JUMPDEST PUSH1 0x60 PUSH2 0x1FC9 PUSH8 0x5630E77E0F7A210D PUSH1 0xC0 SHL PUSH2 0x293D JUMP JUMPDEST PUSH2 0x1FDD PUSH8 0x548EAF65CF625602 PUSH1 0xC0 SHL PUSH2 0x293D JUMP JUMPDEST PUSH2 0x1FF1 PUSH8 0x1B8B13407C0938AE PUSH1 0xC0 SHL PUSH2 0x293D JUMP JUMPDEST PUSH1 0x0 PUSH1 0x2 PUSH1 0x0 CALLER PUSH20 0xFFFFFFFFFFFFFFFFFFFFFFFFFFFFFFFFFFFFFFFF AND PUSH20 0xFFFFFFFFFFFFFFFFFFFFFFFFFFFFFFFFFFFFFFFF AND DUP2 MSTORE PUSH1 0x20 ADD SWAP1 DUP2 MSTORE PUSH1 0x20 ADD PUSH1 0x0 KECCAK256 DUP1 SLOAD DUP1 PUSH1 0x20 MUL PUSH1 0x20 ADD PUSH1 0x40 MLOAD SWAP1 DUP2 ADD PUSH1 0x40 MSTORE DUP1 SWAP3 SWAP2 SWAP1 DUP2 DUP2 MSTORE PUSH1 0x20 ADD PUSH1 0x0 SWAP1 JUMPDEST DUP3 DUP3 LT ISZERO PUSH2 0x219E JUMPI DUP4 DUP3 SWAP1 PUSH1 0x0 MSTORE PUSH1 0x20 PUSH1 0x0 KECCAK256 SWAP1 PUSH1 0x8 MUL ADD PUSH1 0x40 MLOAD DUP1 PUSH2 0x100 ADD PUSH1 0x40 MSTORE SWAP1 DUP2 PUSH1 0x0 DUP3 ADD PUSH1 0x0 SWAP1 SLOAD SWAP1 PUSH2 0x100 EXP SWAP1 DIV PUSH20 0xFFFFFFFFFFFFFFFFFFFFFFFFFFFFFFFFFFFFFFFF AND PUSH20 0xFFFFFFFFFFFFFFFFFFFFFFFFFFFFFFFFFFFFFFFF AND PUSH20 0xFFFFFFFFFFFFFFFFFFFFFFFFFFFFFFFFFFFFFFFF AND DUP2 MSTORE PUSH1 0x20 ADD PUSH1 0x1 DUP3 ADD PUSH1 0x0 SWAP1 SLOAD SWAP1 PUSH2 0x100 EXP SWAP1 DIV PUSH20 0xFFFFFFFFFFFFFFFFFFFFFFFFFFFFFFFFFFFFFFFF AND PUSH20 0xFFFFFFFFFFFFFFFFFFFFFFFFFFFFFFFFFFFFFFFF AND PUSH20 0xFFFFFFFFFFFFFFFFFFFFFFFFFFFFFFFFFFFFFFFF AND DUP2 MSTORE PUSH1 0x20 ADD PUSH1 0x2 DUP3 ADD SLOAD DUP2 MSTORE PUSH1 0x20 ADD PUSH1 0x3 DUP3 ADD SLOAD DUP2 MSTORE PUSH1 0x20 ADD PUSH1 0x4 DUP3 ADD SLOAD DUP2 MSTORE PUSH1 0x20 ADD PUSH1 0x5 DUP3 ADD SLOAD DUP2 MSTORE PUSH1 0x20 ADD PUSH1 0x6 DUP3 ADD PUSH1 0x0 SWAP1 SLOAD SWAP1 PUSH2 0x100 EXP SWAP1 DIV PUSH1 0xFF AND PUSH1 0x3 DUP2 GT ISZERO PUSH2 0x216F JUMPI PUSH2 0x216E PUSH2 0x2B4C JUMP JUMPDEST JUMPDEST PUSH1 0x3 DUP2 GT ISZERO PUSH2 0x2181 JUMPI PUSH2 0x2180 PUSH2 0x2B4C JUMP JUMPDEST JUMPDEST DUP2 MSTORE PUSH1 0x20 ADD PUSH1 0x7 DUP3 ADD SLOAD DUP2 MSTORE POP POP DUP2 MSTORE PUSH1 0x20 ADD SWAP1 PUSH1 0x1 ADD SWAP1 PUSH2 0x2052 JUMP JUMPDEST POP POP POP POP SWAP1 POP PUSH2 0x21B8 PUSH8 0x94793333FE2F079D PUSH1 0xC0 SHL PUSH2 0x293D JUMP JUMPDEST PUSH2 0x21CC PUSH8 0x772E1BF2BA854AEF PUSH1 0xC0 SHL PUSH2 0x293D JUMP JUMPDEST DUP1 SWAP2 POP POP SWAP1 JUMP JUMPDEST PUSH1 0x0 PUSH2 0x21E9 PUSH8 0x7D7411A39E1149C3 PUSH1 0xC0 SHL PUSH2 0x293D JUMP JUMPDEST PUSH2 0x21FD PUSH8 0xCF05526369195360 PUSH1 0xC0 SHL PUSH2 0x293D JUMP JUMPDEST PUSH2 0x2211 PUSH8 0xF4DF7BAC6551B71F PUSH1 0xC0 SHL PUSH2 0x293D JUMP JUMPDEST PUSH1 0x0 DUP1 SLOAD SWAP1 PUSH2 0x100 EXP SWAP1 DIV PUSH20 0xFFFFFFFFFFFFFFFFFFFFFFFFFFFFFFFFFFFFFFFF AND SWAP1 POP SWAP1 JUMP JUMPDEST PUSH1 0x0 PUSH2 0x224D PUSH8 0x68C626DCDD1CEE04 PUSH1 0xC0 SHL PUSH2 0x293D JUMP JUMPDEST PUSH2 0x2261 PUSH8 0x8DBABE6E49B8378 PUSH1 0xC0 SHL PUSH2 0x293D JUMP JUMPDEST PUSH2 0x2275 PUSH8 0x8D2FFA62DA82F613 PUSH1 0xC0 SHL PUSH2 0x293D JUMP JUMPDEST PUSH32 0x0 SWAP1 POP SWAP1 JUMP JUMPDEST PUSH2 0x22AF PUSH8 0xB6521838E3348BB0 PUSH1 0xC0 SHL PUSH2 0x293D JUMP JUMPDEST DUP1 PUSH2 0x22C4 PUSH8 0x58C8FEA77F50A141 PUSH1 0xC0 SHL PUSH2 0x293D JUMP JUMPDEST PUSH2 0x22D8 PUSH8 0xFCDDB68F9C9CC26D PUSH1 0xC0 SHL PUSH2 0x293D JUMP JUMPDEST PUSH2 0x22EC PUSH8 0xEF3F468ECA27F67E PUSH1 0xC0 SHL PUSH2 0x293D JUMP JUMPDEST PUSH1 0x0 PUSH1 0x3 PUSH1 0x0 DUP4 DUP2 MSTORE PUSH1 0x20 ADD SWAP1 DUP2 MSTORE PUSH1 0x20 ADD PUSH1 0x0 KECCAK256 PUSH1 0x40 MLOAD DUP1 PUSH2 0x100 ADD PUSH1 0x40 MSTORE SWAP1 DUP2 PUSH1 0x0 DUP3 ADD PUSH1 0x0 SWAP1 SLOAD SWAP1 PUSH2 0x100 EXP SWAP1 DIV PUSH20 0xFFFFFFFFFFFFFFFFFFFFFFFFFFFFFFFFFFFFFFFF AND PUSH20 0xFFFFFFFFFFFFFFFFFFFFFFFFFFFFFFFFFFFFFFFF AND PUSH20 0xFFFFFFFFFFFFFFFFFFFFFFFFFFFFFFFFFFFFFFFF AND DUP2 MSTORE PUSH1 0x20 ADD PUSH1 0x1 DUP3 ADD PUSH1 0x0 SWAP1 SLOAD SWAP1 PUSH2 0x100 EXP SWAP1 DIV PUSH20 0xFFFFFFFFFFFFFFFFFFFFFFFFFFFFFFFFFFFFFFFF AND PUSH20 0xFFFFFFFFFFFFFFFFFFFFFFFFFFFFFFFFFFFFFFFF AND PUSH20 0xFFFFFFFFFFFFFFFFFFFFFFFFFFFFFFFFFFFFFFFF AND DUP2 MSTORE PUSH1 0x20 ADD PUSH1 0x2 DUP3 ADD SLOAD DUP2 MSTORE PUSH1 0x20 ADD PUSH1 0x3 DUP3 ADD SLOAD DUP2 MSTORE PUSH1 0x20 ADD PUSH1 0x4 DUP3 ADD SLOAD DUP2 MSTORE PUSH1 0x20 ADD PUSH1 0x5 DUP3 ADD SLOAD DUP2 MSTORE PUSH1 0x20 ADD PUSH1 0x6 DUP3 ADD PUSH1 0x0 SWAP1 SLOAD SWAP1 PUSH2 0x100 EXP SWAP1 DIV PUSH1 0xFF AND PUSH1 0x3 DUP2 GT ISZERO PUSH2 0x2406 JUMPI PUSH2 0x2405 PUSH2 0x2B4C JUMP JUMPDEST JUMPDEST PUSH1 0x3 DUP2 GT ISZERO PUSH2 0x2418 JUMPI PUSH2 0x2417 PUSH2 0x2B4C JUMP JUMPDEST JUMPDEST DUP2 MSTORE PUSH1 0x20 ADD PUSH1 0x7 DUP3 ADD SLOAD DUP2 MSTORE POP POP SWAP1 POP PUSH2 0x243C PUSH8 0xF145D9F0B5B9EEA0 PUSH1 0xC0 SHL PUSH2 0x293D JUMP JUMPDEST PUSH2 0x2450 PUSH8 0x7FC0F059CBB77022 PUSH1 0xC0 SHL PUSH2 0x293D JUMP JUMPDEST DUP1 PUSH1 0x0 ADD MLOAD PUSH20 0xFFFFFFFFFFFFFFFFFFFFFFFFFFFFFFFFFFFFFFFF AND CALLER PUSH20 0xFFFFFFFFFFFFFFFFFFFFFFFFFFFFFFFFFFFFFFFF AND EQ ISZERO DUP1 ISZERO PUSH2 0x24C0 JUMPI POP DUP1 PUSH1 0x20 ADD MLOAD PUSH20 0xFFFFFFFFFFFFFFFFFFFFFFFFFFFFFFFFFFFFFFFF AND CALLER PUSH20 0xFFFFFFFFFFFFFFFFFFFFFFFFFFFFFFFFFFFFFFFF AND EQ ISZERO JUMPDEST ISZERO PUSH2 0x251F JUMPI PUSH2 0x24D9 PUSH8 0x746F2BDD3EB0FD9C PUSH1 0xC0 SHL PUSH2 0x293D JUMP JUMPDEST PUSH2 0x24ED PUSH8 0xC88B3F2A7594271D PUSH1 0xC0 SHL PUSH2 0x293D JUMP JUMPDEST PUSH1 0x40 MLOAD PUSH32 0x96B88C5100000000000000000000000000000000000000000000000000000000 DUP2 MSTORE PUSH1 0x4 ADD PUSH1 0x40 MLOAD DUP1 SWAP2 SUB SWAP1 REVERT JUMPDEST PUSH2 0x2533 PUSH8 0x47D00B45B5D7C4B0 PUSH1 0xC0 SHL PUSH2 0x293D JUMP JUMPDEST PUSH2 0x2547 PUSH8 0x83BF8D88684D9E8C PUSH1 0xC0 SHL PUSH2 0x293D JUMP JUMPDEST PUSH2 0x255B PUSH8 0x780ADA794685C76E PUSH1 0xC0 SHL PUSH2 0x293D JUMP JUMPDEST PUSH2 0x256F PUSH8 0x10C326611E268A91 PUSH1 0xC0 SHL PUSH2 0x293D JUMP JUMPDEST PUSH2 0x2583 PUSH8 0x265199FB51B21EF3 PUSH1 0xC0 SHL PUSH2 0x293D JUMP JUMPDEST PUSH2 0x2597 PUSH8 0x803583427C68B035 PUSH1 0xC0 SHL PUSH2 0x293D JUMP JUMPDEST PUSH1 0x0 PUSH1 0x3 PUSH1 0x0 DUP6 DUP2 MSTORE PUSH1 0x20 ADD SWAP1 DUP2 MSTORE PUSH1 0x20 ADD PUSH1 0x0 KECCAK256 SWAP1 POP PUSH2 0x25C2 PUSH8 0x55A5679AF8142168 PUSH1 0xC0 SHL PUSH2 0x293D JUMP JUMPDEST PUSH2 0x25D6 PUSH8 0x670A39492E2FBEC5 PUSH1 0xC0 SHL PUSH2 0x293D JUMP JUMPDEST PUSH1 0x0 PUSH1 0x3 DUP2 GT ISZERO PUSH2 0x25EA JUMPI PUSH2 0x25E9 PUSH2 0x2B4C JUMP JUMPDEST JUMPDEST DUP2 PUSH1 0x6 ADD PUSH1 0x0 SWAP1 SLOAD SWAP1 PUSH2 0x100 EXP SWAP1 DIV PUSH1 0xFF AND PUSH1 0x3 DUP2 GT ISZERO PUSH2 0x260E JUMPI PUSH2 0x260D PUSH2 0x2B4C JUMP JUMPDEST JUMPDEST EQ PUSH2 0x266D JUMPI PUSH2 0x2627 PUSH8 0x8D4872AF48D7AF17 PUSH1 0xC0 SHL PUSH2 0x293D JUMP JUMPDEST PUSH2 0x263B PUSH8 0xF321C11113CE73B2 PUSH1 0xC0 SHL PUSH2 0x293D JUMP JUMPDEST PUSH1 0x40 MLOAD PUSH32 0xF609F42000000000000000000000000000000000000000000000000000000000 DUP2 MSTORE PUSH1 0x4 ADD PUSH1 0x40 MLOAD DUP1 SWAP2 SUB SWAP1 REVERT JUMPDEST PUSH2 0x2681 PUSH8 0xEAF59CE00D33CF9E PUSH1 0xC0 SHL PUSH2 0x293D JUMP JUMPDEST PUSH2 0x2695 PUSH8 0x289DF4C4FF94AC8A PUSH1 0xC0 SHL PUSH2 0x293D JUMP JUMPDEST PUSH1 0x3 DUP2 PUSH1 0x6 ADD PUSH1 0x0 PUSH2 0x100 EXP DUP2 SLOAD DUP2 PUSH1 0xFF MUL NOT AND SWAP1 DUP4 PUSH1 0x3 DUP2 GT ISZERO PUSH2 0x26BD JUMPI PUSH2 0x26BC PUSH2 0x2B4C JUMP JUMPDEST JUMPDEST MUL OR SWAP1 SSTORE POP PUSH2 0x26D6 PUSH8 0x4AC76F16116646B2 PUSH1 0xC0 SHL PUSH2 0x293D JUMP JUMPDEST PUSH2 0x26EA PUSH8 0x4EA2110C63157FDA PUSH1 0xC0 SHL PUSH2 0x293D JUMP JUMPDEST DUP4 PUSH32 0x912A1E013DE32E96D992FC6C81600EB5480705BFABB226C0B69811ABF2B3ABAC PUSH1 0x40 MLOAD PUSH1 0x40 MLOAD DUP1 SWAP2 SUB SWAP1 LOG2 POP POP POP POP JUMP JUMPDEST PUSH1 0x60 PUSH2 0x2733 PUSH8 0x5E1E19B581157E4 PUSH1 0xC0 SHL PUSH2 0x293D JUMP JUMPDEST PUSH2 0x2747 PUSH8 0x9707F403254CDE5A PUSH1 0xC0 SHL PUSH2 0x293D JUMP JUMPDEST PUSH2 0x275B PUSH8 0xCEB693F2332168BD PUSH1 0xC0 SHL PUSH2 0x293D JUMP JUMPDEST PUSH1 0x0 PUSH1 0x1 PUSH1 0x0 CALLER PUSH20 0xFFFFFFFFFFFFFFFFFFFFFFFFFFFFFFFFFFFFFFFF AND PUSH20 0xFFFFFFFFFFFFFFFFFFFFFFFFFFFFFFFFFFFFFFFF AND DUP2 MSTORE PUSH1 0x20 ADD SWAP1 DUP2 MSTORE PUSH1 0x20 ADD PUSH1 0x0 KECCAK256 DUP1 SLOAD DUP1 PUSH1 0x20 MUL PUSH1 0x20 ADD PUSH1 0x40 MLOAD SWAP1 DUP2 ADD PUSH1 0x40 MSTORE DUP1 SWAP3 SWAP2 SWAP1 DUP2 DUP2 MSTORE PUSH1 0x20 ADD PUSH1 0x0 SWAP1 JUMPDEST DUP3 DUP3 LT ISZERO PUSH2 0x2908 JUMPI DUP4 DUP3 SWAP1 PUSH1 0x0 MSTORE PUSH1 0x20 PUSH1 0x0 KECCAK256 SWAP1 PUSH1 0x8 MUL ADD PUSH1 0x40 MLOAD DUP1 PUSH2 0x100 ADD PUSH1 0x40 MSTORE SWAP1 DUP2 PUSH1 0x0 DUP3 ADD PUSH1 0x0 SWAP1 SLOAD SWAP1 PUSH2 0x100 EXP SWAP1 DIV PUSH20 0xFFFFFFFFFFFFFFFFFFFFFFFFFFFFFFFFFFFFFFFF AND PUSH20 0xFFFFFFFFFFFFFFFFFFFFFFFFFFFFFFFFFFFFFFFF AND PUSH20 0xFFFFFFFFFFFFFFFFFFFFFFFFFFFFFFFFFFFFFFFF AND DUP2 MSTORE PUSH1 0x20 ADD PUSH1 0x1 DUP3 ADD PUSH1 0x0 SWAP1 SLOAD SWAP1 PUSH2 0x100 EXP SWAP1 DIV PUSH20 0xFFFFFFFFFFFFFFFFFFFFFFFFFFFFFFFFFFFFFFFF AND PUSH20 0xFFFFFFFFFFFFFFFFFFFFFFFFFFFFFFFFFFFFFFFF AND PUSH20 0xFFFFFFFFFFFFFFFFFFFFFFFFFFFFFFFFFFFFFFFF AND DUP2 MSTORE PUSH1 0x20 ADD PUSH1 0x2 DUP3 ADD SLOAD DUP2 MSTORE PUSH1 0x20 ADD PUSH1 0x3 DUP3 ADD SLOAD DUP2 MSTORE PUSH1 0x20 ADD PUSH1 0x4 DUP3 ADD SLOAD DUP2 MSTORE PUSH1 0x20 ADD PUSH1 0x5 DUP3 ADD SLOAD DUP2 MSTORE PUSH1 0x20 ADD PUSH1 0x6 DUP3 ADD PUSH1 0x0 SWAP1 SLOAD SWAP1 PUSH2 0x100 EXP SWAP1 DIV PUSH1 0xFF AND PUSH1 0x3 DUP2 GT ISZERO PUSH2 0x28D9 JUMPI PUSH2 0x28D8 PUSH2 0x2B4C JUMP JUMPDEST JUMPDEST PUSH1 0x3 DUP2 GT ISZERO PUSH2 0x28EB JUMPI PUSH2 0x28EA PUSH2 0x2B4C JUMP JUMPDEST JUMPDEST DUP2 MSTORE PUSH1 0x20 ADD PUSH1 0x7 DUP3 ADD SLOAD DUP2 MSTORE POP POP DUP2 MSTORE PUSH1 0x20 ADD SWAP1 PUSH1 0x1 ADD SWAP1 PUSH2 0x27BC JUMP JUMPDEST POP POP POP POP SWAP1 POP PUSH2 0x2922 PUSH8 0x21DFBE3FCCF4C451 PUSH1 0xC0 SHL PUSH2 0x293D JUMP JUMPDEST PUSH2 0x2936 PUSH8 0xC4F5D0024044ADCA PUSH1 0xC0 SHL PUSH2 0x293D JUMP JUMPDEST DUP1 SWAP2 POP POP SWAP1 JUMP JUMPDEST POP JUMP JUMPDEST PUSH1 0x40 MLOAD DUP1 PUSH2 0x100 ADD PUSH1 0x40 MSTORE DUP1 PUSH1 0x0 PUSH20 0xFFFFFFFFFFFFFFFFFFFFFFFFFFFFFFFFFFFFFFFF AND DUP2 MSTORE PUSH1 0x20 ADD PUSH1 0x0 PUSH20 0xFFFFFFFFFFFFFFFFFFFFFFFFFFFFFFFFFFFFFFFF AND DUP2 MSTORE PUSH1 0x20 ADD PUSH1 0x0 DUP2 MSTORE PUSH1 0x20 ADD PUSH1 0x0 DUP2 MSTORE PUSH1 0x20 ADD PUSH1 0x0 DUP2 MSTORE PUSH1 0x20 ADD PUSH1 0x0 DUP2 MSTORE PUSH1 0x20 ADD PUSH1 0x0 PUSH1 0x3 DUP2 GT ISZERO PUSH2 0x29B6 JUMPI PUSH2 0x29B5 PUSH2 0x2B4C JUMP JUMPDEST JUMPDEST DUP2 MSTORE PUSH1 0x20 ADD PUSH1 0x0 DUP2 MSTORE POP SWAP1 JUMP JUMPDEST PUSH1 0x0 DUP1 REVERT JUMPDEST PUSH1 0x0 DUP2 SWAP1 POP SWAP2 SWAP1 POP JUMP JUMPDEST PUSH2 0x29DB DUP2 PUSH2 0x29C8 JUMP JUMPDEST DUP2 EQ PUSH2 0x29E6 JUMPI PUSH1 0x0 DUP1 REVERT JUMPDEST POP JUMP JUMPDEST PUSH1 0x0 DUP2 CALLDATALOAD SWAP1 POP PUSH2 0x29F8 DUP2 PUSH2 0x29D2 JUMP JUMPDEST SWAP3 SWAP2 POP POP JUMP JUMPDEST PUSH1 0x0 PUSH1 0x20 DUP3 DUP5 SUB SLT ISZERO PUSH2 0x2A14 JUMPI PUSH2 0x2A13 PUSH2 0x29C3 JUMP JUMPDEST JUMPDEST PUSH1 0x0 PUSH2 0x2A22 DUP5 DUP3 DUP6 ADD PUSH2 0x29E9 JUMP JUMPDEST SWAP2 POP POP SWAP3 SWAP2 POP POP JUMP JUMPDEST PUSH1 0x0 PUSH20 0xFFFFFFFFFFFFFFFFFFFFFFFFFFFFFFFFFFFFFFFF DUP3 AND SWAP1 POP SWAP2 SWAP1 POP JUMP JUMPDEST PUSH1 0x0 PUSH2 0x2A56 DUP3 PUSH2 0x2A2B JUMP JUMPDEST SWAP1 POP SWAP2 SWAP1 POP JUMP JUMPDEST PUSH2 0x2A66 DUP2 PUSH2 0x2A4B JUMP JUMPDEST DUP2 EQ PUSH2 0x2A71 JUMPI PUSH1 0x0 DUP1 REVERT JUMPDEST POP JUMP JUMPDEST PUSH1 0x0 DUP2 CALLDATALOAD SWAP1 POP PUSH2 0x2A83 DUP2 PUSH2 0x2A5D JUMP JUMPDEST SWAP3 SWAP2 POP POP JUMP JUMPDEST PUSH1 0x0 DUP1 PUSH1 0x0 DUP1 PUSH1 0x0 PUSH1 0xA0 DUP7 DUP9 SUB SLT ISZERO PUSH2 0x2AA5 JUMPI PUSH2 0x2AA4 PUSH2 0x29C3 JUMP JUMPDEST JUMPDEST PUSH1 0x0 PUSH2 0x2AB3 DUP9 DUP3 DUP10 ADD PUSH2 0x2A74 JUMP JUMPDEST SWAP6 POP POP PUSH1 0x20 PUSH2 0x2AC4 DUP9 DUP3 DUP10 ADD PUSH2 0x2A74 JUMP JUMPDEST SWAP5 POP POP PUSH1 0x40 PUSH2 0x2AD5 DUP9 DUP3 DUP10 ADD PUSH2 0x29E9 JUMP JUMPDEST SWAP4 POP POP PUSH1 0x60 PUSH2 0x2AE6 DUP9 DUP3 DUP10 ADD PUSH2 0x29E9 JUMP JUMPDEST SWAP3 POP POP PUSH1 0x80 PUSH2 0x2AF7 DUP9 DUP3 DUP10 ADD PUSH2 0x29E9 JUMP JUMPDEST SWAP2 POP POP SWAP3 SWAP6 POP SWAP3 SWAP6 SWAP1 SWAP4 POP JUMP JUMPDEST PUSH2 0x2B0D DUP2 PUSH2 0x29C8 JUMP JUMPDEST DUP3 MSTORE POP POP JUMP JUMPDEST PUSH1 0x0 PUSH1 0x20 DUP3 ADD SWAP1 POP PUSH2 0x2B28 PUSH1 0x0 DUP4 ADD DUP5 PUSH2 0x2B04 JUMP JUMPDEST SWAP3 SWAP2 POP POP JUMP JUMPDEST PUSH2 0x2B37 DUP2 PUSH2 0x2A4B JUMP JUMPDEST DUP3 MSTORE POP POP JUMP JUMPDEST PUSH2 0x2B46 DUP2 PUSH2 0x29C8 JUMP JUMPDEST DUP3 MSTORE POP POP JUMP JUMPDEST PUSH32 0x4E487B7100000000000000000000000000000000000000000000000000000000 PUSH1 0x0 MSTORE PUSH1 0x21 PUSH1 0x4 MSTORE PUSH1 0x24 PUSH1 0x0 REVERT JUMPDEST PUSH1 0x4 DUP2 LT PUSH2 0x2B8C JUMPI PUSH2 0x2B8B PUSH2 0x2B4C JUMP JUMPDEST JUMPDEST POP JUMP JUMPDEST PUSH1 0x0 DUP2 SWAP1 POP PUSH2 0x2B9D DUP3 PUSH2 0x2B7B JUMP JUMPDEST SWAP2 SWAP1 POP JUMP JUMPDEST PUSH1 0x0 PUSH2 0x2BAD DUP3 PUSH2 0x2B8F JUMP JUMPDEST SWAP1 POP SWAP2 SWAP1 POP JUMP JUMPDEST PUSH2 0x2BBD DUP2 PUSH2 0x2BA2 JUMP JUMPDEST DUP3 MSTORE POP POP JUMP JUMPDEST PUSH2 0x100 DUP3 ADD PUSH1 0x0 DUP3 ADD MLOAD PUSH2 0x2BDA PUSH1 0x0 DUP6 ADD DUP3 PUSH2 0x2B2E JUMP JUMPDEST POP PUSH1 0x20 DUP3 ADD MLOAD PUSH2 0x2BED PUSH1 0x20 DUP6 ADD DUP3 PUSH2 0x2B2E JUMP JUMPDEST POP PUSH1 0x40 DUP3 ADD MLOAD PUSH2 0x2C00 PUSH1 0x40 DUP6 ADD DUP3 PUSH2 0x2B3D JUMP JUMPDEST POP PUSH1 0x60 DUP3 ADD MLOAD PUSH2 0x2C13 PUSH1 0x60 DUP6 ADD DUP3 PUSH2 0x2B3D JUMP JUMPDEST POP PUSH1 0x80 DUP3 ADD MLOAD PUSH2 0x2C26 PUSH1 0x80 DUP6 ADD DUP3 PUSH2 0x2B3D JUMP JUMPDEST POP PUSH1 0xA0 DUP3 ADD MLOAD PUSH2 0x2C39 PUSH1 0xA0 DUP6 ADD DUP3 PUSH2 0x2B3D JUMP JUMPDEST POP PUSH1 0xC0 DUP3 ADD MLOAD PUSH2 0x2C4C PUSH1 0xC0 DUP6 ADD DUP3 PUSH2 0x2BB4 JUMP JUMPDEST POP PUSH1 0xE0 DUP3 ADD MLOAD PUSH2 0x2C5F PUSH1 0xE0 DUP6 ADD DUP3 PUSH2 0x2B3D JUMP JUMPDEST POP POP POP POP JUMP JUMPDEST PUSH1 0x0 PUSH2 0x100 DUP3 ADD SWAP1 POP PUSH2 0x2C7B PUSH1 0x0 DUP4 ADD DUP5 PUSH2 0x2BC3 JUMP JUMPDEST SWAP3 SWAP2 POP POP JUMP JUMPDEST PUSH1 0x0 DUP2 MLOAD SWAP1 POP SWAP2 SWAP1 POP JUMP JUMPDEST PUSH1 0x0 DUP3 DUP3 MSTORE PUSH1 0x20 DUP3 ADD SWAP1 POP SWAP3 SWAP2 POP POP JUMP JUMPDEST PUSH1 0x0 DUP2 SWAP1 POP PUSH1 0x20 DUP3 ADD SWAP1 POP SWAP2 SWAP1 POP JUMP JUMPDEST PUSH2 0x100 DUP3 ADD PUSH1 0x0 DUP3 ADD MLOAD PUSH2 0x2CC4 PUSH1 0x0 DUP6 ADD DUP3 PUSH2 0x2B2E JUMP JUMPDEST POP PUSH1 0x20 DUP3 ADD MLOAD PUSH2 0x2CD7 PUSH1 0x20 DUP6 ADD DUP3 PUSH2 0x2B2E JUMP JUMPDEST POP PUSH1 0x40 DUP3 ADD MLOAD PUSH2 0x2CEA PUSH1 0x40 DUP6 ADD DUP3 PUSH2 0x2B3D JUMP JUMPDEST POP PUSH1 0x60 DUP3 ADD MLOAD PUSH2 0x2CFD PUSH1 0x60 DUP6 ADD DUP3 PUSH2 0x2B3D JUMP JUMPDEST POP PUSH1 0x80 DUP3 ADD MLOAD PUSH2 0x2D10 PUSH1 0x80 DUP6 ADD DUP3 PUSH2 0x2B3D JUMP JUMPDEST POP PUSH1 0xA0 DUP3 ADD MLOAD PUSH2 0x2D23 PUSH1 0xA0 DUP6 ADD DUP3 PUSH2 0x2B3D JUMP JUMPDEST POP PUSH1 0xC0 DUP3 ADD MLOAD PUSH2 0x2D36 PUSH1 0xC0 DUP6 ADD DUP3 PUSH2 0x2BB4 JUMP JUMPDEST POP PUSH1 0xE0 DUP3 ADD MLOAD PUSH2 0x2D49 PUSH1 0xE0 DUP6 ADD DUP3 PUSH2 0x2B3D JUMP JUMPDEST POP POP POP POP JUMP JUMPDEST PUSH1 0x0 PUSH2 0x2D5B DUP4 DUP4 PUSH2 0x2CAD JUMP JUMPDEST PUSH2 0x100 DUP4 ADD SWAP1 POP SWAP3 SWAP2 POP POP JUMP JUMPDEST PUSH1 0x0 PUSH1 0x20 DUP3 ADD SWAP1 POP SWAP2 SWAP1 POP JUMP JUMPDEST PUSH1 0x0 PUSH2 0x2D80 DUP3 PUSH2 0x2C81 JUMP JUMPDEST PUSH2 0x2D8A DUP2 DUP6 PUSH2 0x2C8C JUMP JUMPDEST SWAP4 POP PUSH2 0x2D95 DUP4 PUSH2 0x2C9D JUMP JUMPDEST DUP1 PUSH1 0x0 JUMPDEST DUP4 DUP2 LT ISZERO PUSH2 0x2DC6 JUMPI DUP2 MLOAD PUSH2 0x2DAD DUP9 DUP3 PUSH2 0x2D4F JUMP JUMPDEST SWAP8 POP PUSH2 0x2DB8 DUP4 PUSH2 0x2D68 JUMP JUMPDEST SWAP3 POP POP PUSH1 0x1 DUP2 ADD SWAP1 POP PUSH2 0x2D99 JUMP JUMPDEST POP DUP6 SWAP4 POP POP POP POP SWAP3 SWAP2 POP POP JUMP JUMPDEST PUSH1 0x0 PUSH1 0x20 DUP3 ADD SWAP1 POP DUP2 DUP2 SUB PUSH1 0x0 DUP4 ADD MSTORE PUSH2 0x2DED DUP2 DUP5 PUSH2 0x2D75 JUMP JUMPDEST SWAP1 POP SWAP3 SWAP2 POP POP JUMP JUMPDEST PUSH2 0x2DFE DUP2 PUSH2 0x2A4B JUMP JUMPDEST DUP3 MSTORE POP POP JUMP JUMPDEST PUSH1 0x0 PUSH1 0x20 DUP3 ADD SWAP1 POP PUSH2 0x2E19 PUSH1 0x0 DUP4 ADD DUP5 PUSH2 0x2DF5 JUMP JUMPDEST SWAP3 SWAP2 POP POP JUMP JUMPDEST PUSH1 0x0 DUP2 SWAP1 POP SWAP3 SWAP2 POP POP JUMP JUMPDEST POP JUMP JUMPDEST PUSH1 0x0 PUSH2 0x2E3A PUSH1 0x0 DUP4 PUSH2 0x2E1F JUMP JUMPDEST SWAP2 POP PUSH2 0x2E45 DUP3 PUSH2 0x2E2A JUMP JUMPDEST PUSH1 0x0 DUP3 ADD SWAP1 POP SWAP2 SWAP1 POP JUMP JUMPDEST PUSH1 0x0 PUSH2 0x2E5B DUP3 PUSH2 0x2E2D JUMP JUMPDEST SWAP2 POP DUP2 SWAP1 POP SWAP2 SWAP1 POP JUMP JUMPDEST PUSH32 0x4E487B7100000000000000000000000000000000000000000000000000000000 PUSH1 0x0 MSTORE PUSH1 0x11 PUSH1 0x4 MSTORE PUSH1 0x24 PUSH1 0x0 REVERT JUMPDEST PUSH1 0x0 PUSH2 0x2E9F DUP3 PUSH2 0x29C8 JUMP JUMPDEST SWAP2 POP PUSH2 0x2EAA DUP4 PUSH2 0x29C8 JUMP JUMPDEST SWAP3 POP DUP3 DUP3 SUB SWAP1 POP DUP2 DUP2 GT ISZERO PUSH2 0x2EC2 JUMPI PUSH2 0x2EC1 PUSH2 0x2E65 JUMP JUMPDEST JUMPDEST SWAP3 SWAP2 POP POP JUMP INVALID LOG2 PUSH5 0x6970667358 0x22 SLT KECCAK256 CALL SIGNEXTEND 0xDD SWAP2 DUP3 0xD6 0xBC 0xD0 0xDC 0xBB 0x2F 0xA5 LOG3 0xF9 CALLCODE PUSH30 0xF11967F9D26290D74106A33EC941241564736F6C63430008130033000000 "},"methodIdentifiers":{"buyProduct(uint256,uint256,uint256)":"beff9577","createProduct(uint256,string,uint256,uint256,uint256)":"ecb6a825","getEscrowAddress()":"122fd48a","getOwner()":"893d20e8","getOwnerProducts()":"3873ab24","getProductById(uint256)":"3f70c2b4"}}}}}