{"contracts/Escrow.sol":{"Escrow":{"abi":[{"inputs":[{"internalType":"address","name":"_marketplace","type":"address"},{"internalType":"address","name":"_owner","type":"address"}],"stateMutability":"nonpayable","type":"constructor"},{"inputs":[],"name":"ESCROW_ALREADY_DISPUTED","type":"error"},{"inputs":[],"name":"ESCROW_FAILED_TRANSFER","type":"error"},{"inputs":[],"name":"ESCROW_HOLD_TIME","type":"error"},{"inputs":[],"name":"ESCROW_NOTBUYER","type":"error"},{"inputs":[],"name":"ESCROW_NOTOWNER","type":"error"},{"inputs":[],"name":"ESCROW_NOTSELLER","type":"error"},{"inputs":[],"name":"ESCROW_NOT_DISPUTED","type":"error"},{"inputs":[],"name":"ESCROW_NOT_FROM_MARKETPLACE","type":"error"},{"inputs":[],"name":"ESCROW_NOT_OPEN","type":"error"},{"inputs":[],"name":"ESCROW_NOT_OPEN_OR_DISPUTED","type":"error"},{"inputs":[],"name":"ESCROW_NOT_SELLER_OR_BUYER","type":"error"},{"inputs":[],"name":"ESCROW_ORDER_NOT_FOUND","type":"error"},{"anonymous":false,"inputs":[{"indexed":true,"internalType":"uint256","name":"_orderId","type":"uint256"}],"name":"DisputedOrder","type":"event"},{"anonymous":false,"inputs":[{"indexed":true,"internalType":"uint256","name":"_orderId","type":"uint256"}],"name":"RefundedFunds","type":"event"},{"anonymous":false,"inputs":[{"indexed":true,"internalType":"uint256","name":"_orderId","type":"uint256"}],"name":"ReleasedFunds","type":"event"},{"inputs":[{"internalType":"address","name":"_seller","type":"address"},{"internalType":"address","name":"_buyer","type":"address"},{"internalType":"uint256","name":"_productId","type":"uint256"}],"name":"createEscrow","outputs":[{"internalType":"uint256","name":"","type":"uint256"}],"stateMutability":"payable","type":"function"},{"inputs":[],"name":"getBuyerOrders","outputs":[{"components":[{"internalType":"address","name":"seller","type":"address"},{"internalType":"address","name":"buyer","type":"address"},{"internalType":"uint256","name":"productId","type":"uint256"},{"internalType":"uint256","name":"value","type":"uint256"},{"internalType":"uint256","name":"timestamp","type":"uint256"},{"internalType":"uint256","name":"orderId","type":"uint256"},{"internalType":"enum Escrow.EscrowState","name":"state","type":"uint8"}],"internalType":"struct Escrow.Order[]","name":"","type":"tuple[]"}],"stateMutability":"view","type":"function"},{"inputs":[],"name":"getMarketplaceAddress","outputs":[{"internalType":"address","name":"","type":"address"}],"stateMutability":"view","type":"function"},{"inputs":[{"internalType":"uint256","name":"_orderId","type":"uint256"}],"name":"getOrderById","outputs":[{"components":[{"internalType":"address","name":"seller","type":"address"},{"internalType":"address","name":"buyer","type":"address"},{"internalType":"uint256","name":"productId","type":"uint256"},{"internalType":"uint256","name":"value","type":"uint256"},{"internalType":"uint256","name":"timestamp","type":"uint256"},{"internalType":"uint256","name":"orderId","type":"uint256"},{"internalType":"enum Escrow.EscrowState","name":"state","type":"uint8"}],"internalType":"struct Escrow.Order","name":"","type":"tuple"}],"stateMutability":"view","type":"function"},{"inputs":[],"name":"getOwner","outputs":[{"internalType":"address","name":"","type":"address"}],"stateMutability":"view","type":"function"},{"inputs":[],"name":"getSellerOrders","outputs":[{"components":[{"internalType":"address","name":"seller","type":"address"},{"internalType":"address","name":"buyer","type":"address"},{"internalType":"uint256","name":"productId","type":"uint256"},{"internalType":"uint256","name":"value","type":"uint256"},{"internalType":"uint256","name":"timestamp","type":"uint256"},{"internalType":"uint256","name":"orderId","type":"uint256"},{"internalType":"enum Escrow.EscrowState","name":"state","type":"uint8"}],"internalType":"struct Escrow.Order[]","name":"","type":"tuple[]"}],"stateMutability":"view","type":"function"},{"inputs":[{"internalType":"uint256","name":"_orderId","type":"uint256"}],"name":"refund","outputs":[],"stateMutability":"nonpayable","type":"function"},{"inputs":[{"internalType":"uint256","name":"_orderId","type":"uint256"}],"name":"release","outputs":[],"stateMutability":"nonpayable","type":"function"},{"inputs":[{"internalType":"uint256","name":"_orderId","type":"uint256"}],"name":"startDispute","outputs":[],"stateMutability":"nonpayable","type":"function"}],"evm":{"bytecode":{"linkReferences":{},"object":"60a0604052600180553480156200001557600080fd5b506040516200307f3803806200307f83398181016040528101906200003b919062000178565b62000057678682a9107a6fd2c160c01b6200010b60201b60201c565b62000073671d41a94ba5554dcb60c01b6200010b60201b60201c565b806000806101000a81548173ffffffffffffffffffffffffffffffffffffffff021916908373ffffffffffffffffffffffffffffffffffffffff160217905550620000cf676024235befca135f60c01b6200010b60201b60201c565b8173ffffffffffffffffffffffffffffffffffffffff1660808173ffffffffffffffffffffffffffffffffffffffff16815250505050620001bf565b50565b600080fd5b600073ffffffffffffffffffffffffffffffffffffffff82169050919050565b6000620001408262000113565b9050919050565b620001528162000133565b81146200015e57600080fd5b50565b600081519050620001728162000147565b92915050565b600080604083850312156200019257620001916200010e565b5b6000620001a28582860162000161565b9250506020620001b58582860162000161565b9150509250929050565b608051612e9d620001e260003960008181611be701526120d60152612e9d6000f3fe6080604052600436106100865760003560e01c8063893d20e811610059578063893d20e814610145578063bb8fe78514610170578063c0cfa7e51461019b578063c3617650146101c4578063c819998b146101f457610086565b8063278ecde11461008b57806337bdc99b146100b457806342b50a7a146100dd578063700db7521461011a575b600080fd5b34801561009757600080fd5b506100b260048036038101906100ad91906129a7565b61021f565b005b3480156100c057600080fd5b506100db60048036038101906100d691906129a7565b610bd6565b005b3480156100e957600080fd5b5061010460048036038101906100ff91906129a7565b6116b6565b6040516101119190612b29565b60405180910390f35b34801561012657600080fd5b5061012f61192e565b60405161013c9190612c81565b60405180910390f35b34801561015157600080fd5b5061015a611b43565b6040516101679190612cb2565b60405180910390f35b34801561017c57600080fd5b50610185611ba7565b6040516101929190612cb2565b60405180910390f35b3480156101a757600080fd5b506101c260048036038101906101bd91906129a7565b611c0b565b005b6101de60048036038101906101d99190612cf9565b612082565b6040516101eb9190612d5b565b60405180910390f35b34801561020057600080fd5b506102096126d9565b6040516102169190612c81565b60405180910390f35b6102336728bdba660bf3974f60c01b6128ee565b8061024867a8cf46a670d916b060c01b6128ee565b61025c67a986cefeec85818760c01b6128ee565b610270679468e128eae60b1a60c01b6128ee565b6000600460008381526020019081526020016000206040518060e00160405290816000820160009054906101000a900473ffffffffffffffffffffffffffffffffffffffff1673ffffffffffffffffffffffffffffffffffffffff1673ffffffffffffffffffffffffffffffffffffffff1681526020016001820160009054906101000a900473ffffffffffffffffffffffffffffffffffffffff1673ffffffffffffffffffffffffffffffffffffffff1673ffffffffffffffffffffffffffffffffffffffff168152602001600282015481526020016003820154815260200160048201548152602001600582015481526020016006820160009054906101000a900460ff16600381111561038957610388612a24565b5b600381111561039b5761039a612a24565b5b8152505090506103b56796010dfaecf65cf660c01b6128ee565b6103c9677a4fa443f0dd646b60c01b6128ee565b600060038111156103dd576103dc612a24565b5b8160c0015160038111156103f4576103f3612a24565b5b1415801561042a57506003808111156104105761040f612a24565b5b8160c00151600381111561042757610426612a24565b5b14155b15610489576104436707ba95f796c8a10260c01b6128ee565b61045767088091dfa12640c660c01b6128ee565b6040517f8a22693e00000000000000000000000000000000000000000000000000000000815260040160405180910390fd5b61049d677d44f4b501c4318360c01b6128ee565b6104b16721c50106825c897d60c01b6128ee565b6104c5677b4f954d76e7895060c01b6128ee565b6104d967b3fcfb8b1a7f9ef960c01b6128ee565b826104ee6767894023de97c25560c01b6128ee565b61050267527eb98e367f366c60c01b6128ee565b610516679810e0b36380003060c01b6128ee565b6000600460008381526020019081526020016000206040518060e00160405290816000820160009054906101000a900473ffffffffffffffffffffffffffffffffffffffff1673ffffffffffffffffffffffffffffffffffffffff1673ffffffffffffffffffffffffffffffffffffffff1681526020016001820160009054906101000a900473ffffffffffffffffffffffffffffffffffffffff1673ffffffffffffffffffffffffffffffffffffffff1673ffffffffffffffffffffffffffffffffffffffff168152602001600282015481526020016003820154815260200160048201548152602001600582015481526020016006820160009054906101000a900460ff16600381111561062f5761062e612a24565b5b600381111561064157610640612a24565b5b81525050905061065b67010c170a31d2120c60c01b6128ee565b61066f6745d3b41a49d7ae0260c01b6128ee565b60008054906101000a900473ffffffffffffffffffffffffffffffffffffffff1673ffffffffffffffffffffffffffffffffffffffff163373ffffffffffffffffffffffffffffffffffffffff161480156106f257506003808111156106d8576106d7612a24565b5b8160c0015160038111156106ef576106ee612a24565b5b14155b156107515761070b677dd3f87b173f7fd660c01b6128ee565b61071f67539a28d4bbb2f8bb60c01b6128ee565b6040517f8ab9b32900000000000000000000000000000000000000000000000000000000815260040160405180910390fd5b61076567964e40ee2cdeb52360c01b6128ee565b6107796785176212632737a660c01b6128ee565b3373ffffffffffffffffffffffffffffffffffffffff16816000015173ffffffffffffffffffffffffffffffffffffffff1614158015610805575060008054906101000a900473ffffffffffffffffffffffffffffffffffffffff1673ffffffffffffffffffffffffffffffffffffffff163373ffffffffffffffffffffffffffffffffffffffff1614155b156108645761081e674c7003b2a701628760c01b6128ee565b61083267b8512d8a4a233cd460c01b6128ee565b6040517f76df155600000000000000000000000000000000000000000000000000000000815260040160405180910390fd5b6108786722912976bd78484960c01b6128ee565b61088c671738f3f3759d663d60c01b6128ee565b806000015173ffffffffffffffffffffffffffffffffffffffff163373ffffffffffffffffffffffffffffffffffffffff161480156108f257506003808111156108d9576108d8612a24565b5b8160c0015160038111156108f0576108ef612a24565b5b145b156109515761090b678e687d28d1f0071d60c01b6128ee565b61091f67dfa79c7729e9ccc960c01b6128ee565b6040517f26b095e100000000000000000000000000000000000000000000000000000000815260040160405180910390fd5b6109656729062cc8dc02374160c01b6128ee565b610979674bf8d5847ee50bf060c01b6128ee565b61098d677e1bc537d91b06a960c01b6128ee565b6109a16720dc0852a289c78660c01b6128ee565b6109b567587e37be3e2a8a9f60c01b6128ee565b6109c9675f071e8a3096ee0560c01b6128ee565b60006004600087815260200190815260200160002090506109f467a4f4e0f2571abc7c60c01b6128ee565b60028160060160006101000a81548160ff02191690836003811115610a1c57610a1b612a24565b5b0217905550610a3567fef194e3b5a36af260c01b6128ee565b610a4967c7d0a25614147d7a60c01b6128ee565b60008160010160009054906101000a900473ffffffffffffffffffffffffffffffffffffffff1673ffffffffffffffffffffffffffffffffffffffff168260030154604051610a9790612da7565b60006040518083038185875af1925050503d8060008114610ad4576040519150601f19603f3d011682016040523d82523d6000602084013e610ad9565b606091505b50509050610af1676ade4ee43526370060c01b6128ee565b610b0567e5572a0ca148689e60c01b6128ee565b80610b6457610b1e67d5fffa5233beb7b360c01b6128ee565b610b32676954edc2badc589a60c01b6128ee565b6040517f4abcf95000000000000000000000000000000000000000000000000000000000815260040160405180910390fd5b610b786762149c2c0697814060c01b6128ee565b610b8c67f65636fa082b6db760c01b6128ee565b610ba067ea9568a7c09d234960c01b6128ee565b867f6cbb2f5fc1a460905eb3b50b6c769589d8b1a201f03b7f04b1f3ce09c3aee78b60405160405180910390a250505050505050565b610bea67c356e2b0d3d3803660c01b6128ee565b80610bff67a8cf46a670d916b060c01b6128ee565b610c1367a986cefeec85818760c01b6128ee565b610c27679468e128eae60b1a60c01b6128ee565b6000600460008381526020019081526020016000206040518060e00160405290816000820160009054906101000a900473ffffffffffffffffffffffffffffffffffffffff1673ffffffffffffffffffffffffffffffffffffffff1673ffffffffffffffffffffffffffffffffffffffff1681526020016001820160009054906101000a900473ffffffffffffffffffffffffffffffffffffffff1673ffffffffffffffffffffffffffffffffffffffff1673ffffffffffffffffffffffffffffffffffffffff168152602001600282015481526020016003820154815260200160048201548152602001600582015481526020016006820160009054906101000a900460ff166003811115610d4057610d3f612a24565b5b6003811115610d5257610d51612a24565b5b815250509050610d6c6796010dfaecf65cf660c01b6128ee565b610d80677a4fa443f0dd646b60c01b6128ee565b60006003811115610d9457610d93612a24565b5b8160c001516003811115610dab57610daa612a24565b5b14158015610de15750600380811115610dc757610dc6612a24565b5b8160c001516003811115610dde57610ddd612a24565b5b14155b15610e4057610dfa6707ba95f796c8a10260c01b6128ee565b610e0e67088091dfa12640c660c01b6128ee565b6040517f8a22693e00000000000000000000000000000000000000000000000000000000815260040160405180910390fd5b610e54677d44f4b501c4318360c01b6128ee565b610e686721c50106825c897d60c01b6128ee565b610e7c67a8b7a9aaad801b6160c01b6128ee565b610e90672d30535f88340f5960c01b6128ee565b82610ea567a7c7c5dfad30ec6560c01b6128ee565b610eb967ba63a8469acf7ec760c01b6128ee565b610ecd671b786cbfc5bbddb660c01b6128ee565b6000600460008381526020019081526020016000206040518060e00160405290816000820160009054906101000a900473ffffffffffffffffffffffffffffffffffffffff1673ffffffffffffffffffffffffffffffffffffffff1673ffffffffffffffffffffffffffffffffffffffff1681526020016001820160009054906101000a900473ffffffffffffffffffffffffffffffffffffffff1673ffffffffffffffffffffffffffffffffffffffff1673ffffffffffffffffffffffffffffffffffffffff168152602001600282015481526020016003820154815260200160048201548152602001600582015481526020016006820160009054906101000a900460ff166003811115610fe657610fe5612a24565b5b6003811115610ff857610ff7612a24565b5b81525050905061101267d2a7682fbe9b96a560c01b6128ee565b611026671614c4ab1e3c0e7860c01b6128ee565b60008054906101000a900473ffffffffffffffffffffffffffffffffffffffff1673ffffffffffffffffffffffffffffffffffffffff163373ffffffffffffffffffffffffffffffffffffffff161480156110a9575060038081111561108f5761108e612a24565b5b8160c0015160038111156110a6576110a5612a24565b5b14155b15611108576110c2675d9eba9467bf36dc60c01b6128ee565b6110d667daa96c08f8cfbaeb60c01b6128ee565b6040517f8ab9b32900000000000000000000000000000000000000000000000000000000815260040160405180910390fd5b61111c67d53a0eeba684915c60c01b6128ee565b61113067713e500cf31766c860c01b6128ee565b3373ffffffffffffffffffffffffffffffffffffffff16816000015173ffffffffffffffffffffffffffffffffffffffff16036112305761117b67982e8deea799826060c01b6128ee565b61118f672910437015357dbb60c01b6128ee565b6111a3670577ae683f7dab1060c01b6128ee565b62278d008160800151426111b79190612deb565b1015611217576111d167c517ea917b60667060c01b6128ee565b6111e5671a195938f297bfe260c01b6128ee565b6040517f586f49f700000000000000000000000000000000000000000000000000000000815260040160405180910390fd5b61122b674cf94b57c9058e2260c01b6128ee565b611445565b611244675f537d3611769a9f60c01b6128ee565b611258678e213de2e7c0f3e960c01b6128ee565b3373ffffffffffffffffffffffffffffffffffffffff16816020015173ffffffffffffffffffffffffffffffffffffffff16141580156112e4575060008054906101000a900473ffffffffffffffffffffffffffffffffffffffff1673ffffffffffffffffffffffffffffffffffffffff163373ffffffffffffffffffffffffffffffffffffffff1614155b15611343576112fd673da8eb50c5965f2460c01b6128ee565b61131167ea6c141a9ec09eee60c01b6128ee565b6040517f492aab8600000000000000000000000000000000000000000000000000000000815260040160405180910390fd5b611357671b8d04d6aa36dae760c01b6128ee565b61136b674f1337c4080ba2bd60c01b6128ee565b806020015173ffffffffffffffffffffffffffffffffffffffff163373ffffffffffffffffffffffffffffffffffffffff161480156113d157506003808111156113b8576113b7612a24565b5b8160c0015160038111156113cf576113ce612a24565b5b145b15611430576113ea67797479d6d3ab781160c01b6128ee565b6113fe679967075ce7c0ed2d60c01b6128ee565b6040517f26b095e100000000000000000000000000000000000000000000000000000000815260040160405180910390fd5b6114446710487ba0b33925a960c01b6128ee565b5b611459671416ec0410b1a7d460c01b6128ee565b61146d672e08703d3e28ffa260c01b6128ee565b6114816788916614ddb5604a60c01b6128ee565b6114956756289fca248217c160c01b6128ee565b6114a96774a52728903ebc6860c01b6128ee565b60006004600087815260200190815260200160002090506114d4677bd10de6a7cabf1e60c01b6128ee565b60018160060160006101000a81548160ff021916908360038111156114fc576114fb612a24565b5b021790555061151567eca099b30beed68b60c01b6128ee565b611529676b42d809763e0cb560c01b6128ee565b60008160000160009054906101000a900473ffffffffffffffffffffffffffffffffffffffff1673ffffffffffffffffffffffffffffffffffffffff16826003015460405161157790612da7565b60006040518083038185875af1925050503d80600081146115b4576040519150601f19603f3d011682016040523d82523d6000602084013e6115b9565b606091505b505090506115d16772f4c21739eedc9f60c01b6128ee565b6115e5676b52d77bcc5684f160c01b6128ee565b80611644576115fe67a0cd571f8e1d9e0a60c01b6128ee565b6116126715211b0b91d88cb460c01b6128ee565b6040517f4abcf95000000000000000000000000000000000000000000000000000000000815260040160405180910390fd5b61165867befc3620270ff0f260c01b6128ee565b61166c673be2368da88b39f960c01b6128ee565b611680671d10082a2ac305ca60c01b6128ee565b867fd7c4eded732389526228283d2661ca619ed8096fffca8c0f0c3a6e2a7f4c449d60405160405180910390a250505050505050565b6116be6128f1565b6116d267178b41e7b125903a60c01b6128ee565b6116e667e9aa0b4e1574286860c01b6128ee565b6116fa67b7b337024c635da460c01b6128ee565b600073ffffffffffffffffffffffffffffffffffffffff166004600084815260200190815260200160002060000160009054906101000a900473ffffffffffffffffffffffffffffffffffffffff1673ffffffffffffffffffffffffffffffffffffffff16036117be5761177867062efda05f81889060c01b6128ee565b61178c67628dffc3fab2ddf460c01b6128ee565b6040517f56421a5700000000000000000000000000000000000000000000000000000000815260040160405180910390fd5b6117d267f9165bffd114af6b60c01b6128ee565b6117e667782cfc5a013337c960c01b6128ee565b6117fa67c1839b46b22f3b6360c01b6128ee565b600460008381526020019081526020016000206040518060e00160405290816000820160009054906101000a900473ffffffffffffffffffffffffffffffffffffffff1673ffffffffffffffffffffffffffffffffffffffff1673ffffffffffffffffffffffffffffffffffffffff1681526020016001820160009054906101000a900473ffffffffffffffffffffffffffffffffffffffff1673ffffffffffffffffffffffffffffffffffffffff1673ffffffffffffffffffffffffffffffffffffffff168152602001600282015481526020016003820154815260200160048201548152602001600582015481526020016006820160009054906101000a900460ff16600381111561191157611910612a24565b5b600381111561192357611922612a24565b5b815250509050919050565b6060611944675630e77e0f7a210d60c01b6128ee565b61195867548eaf65cf62560260c01b6128ee565b61196c671b8b13407c0938ae60c01b6128ee565b6000600360003373ffffffffffffffffffffffffffffffffffffffff1673ffffffffffffffffffffffffffffffffffffffff168152602001908152602001600020805480602002602001604051908101604052809291908181526020016000905b82821015611b0e57838290600052602060002090600702016040518060e00160405290816000820160009054906101000a900473ffffffffffffffffffffffffffffffffffffffff1673ffffffffffffffffffffffffffffffffffffffff1673ffffffffffffffffffffffffffffffffffffffff1681526020016001820160009054906101000a900473ffffffffffffffffffffffffffffffffffffffff1673ffffffffffffffffffffffffffffffffffffffff1673ffffffffffffffffffffffffffffffffffffffff168152602001600282015481526020016003820154815260200160048201548152602001600582015481526020016006820160009054906101000a900460ff166003811115611ae957611ae8612a24565b5b6003811115611afb57611afa612a24565b5b81525050815260200190600101906119cd565b505050509050611b286794793333fe2f079d60c01b6128ee565b611b3c67772e1bf2ba854aef60c01b6128ee565b8091505090565b6000611b59677d7411a39e1149c360c01b6128ee565b611b6d67cf0552636919536060c01b6128ee565b611b8167f4df7bac6551b71f60c01b6128ee565b60008054906101000a900473ffffffffffffffffffffffffffffffffffffffff16905090565b6000611bbd6768c626dcdd1cee0460c01b6128ee565b611bd16708dbabe6e49b837860c01b6128ee565b611be5678d2ffa62da82f61360c01b6128ee565b7f0000000000000000000000000000000000000000000000000000000000000000905090565b611c1f67a7269d2cb5d0c5fb60c01b6128ee565b80611c3467081048211811fab560c01b6128ee565b611c486758c8fea77f50a14160c01b6128ee565b611c5c67fcddb68f9c9cc26d60c01b6128ee565b6000600460008381526020019081526020016000206040518060e00160405290816000820160009054906101000a900473ffffffffffffffffffffffffffffffffffffffff1673ffffffffffffffffffffffffffffffffffffffff1673ffffffffffffffffffffffffffffffffffffffff1681526020016001820160009054906101000a900473ffffffffffffffffffffffffffffffffffffffff1673ffffffffffffffffffffffffffffffffffffffff1673ffffffffffffffffffffffffffffffffffffffff168152602001600282015481526020016003820154815260200160048201548152602001600582015481526020016006820160009054906101000a900460ff166003811115611d7557611d74612a24565b5b6003811115611d8757611d86612a24565b5b815250509050611da167ef3f468eca27f67e60c01b6128ee565b611db567f145d9f0b5b9eea060c01b6128ee565b806000015173ffffffffffffffffffffffffffffffffffffffff163373ffffffffffffffffffffffffffffffffffffffff1614158015611e255750806020015173ffffffffffffffffffffffffffffffffffffffff163373ffffffffffffffffffffffffffffffffffffffff1614155b15611e8457611e3e677fc0f059cbb7702260c01b6128ee565b611e5267746f2bdd3eb0fd9c60c01b6128ee565b6040517f96b88c5100000000000000000000000000000000000000000000000000000000815260040160405180910390fd5b611e9867c88b3f2a7594271d60c01b6128ee565b611eac6747d00b45b5d7c4b060c01b6128ee565b611ec067507f9dfbb59cd9f360c01b6128ee565b611ed46710c326611e268a9160c01b6128ee565b611ee867265199fb51b21ef360c01b6128ee565b611efc67803583427c68b03560c01b6128ee565b6000600460008581526020019081526020016000209050611f276755a5679af814216860c01b6128ee565b611f3b67670a39492e2fbec560c01b6128ee565b60006003811115611f4f57611f4e612a24565b5b8160060160009054906101000a900460ff166003811115611f7357611f72612a24565b5b14611fd257611f8c678d4872af48d7af1760c01b6128ee565b611fa067f321c11113ce73b260c01b6128ee565b6040517ff609f42000000000000000000000000000000000000000000000000000000000815260040160405180910390fd5b611fe667eaf59ce00d33cf9e60c01b6128ee565b611ffa67289df4c4ff94ac8a60c01b6128ee565b60038160060160006101000a81548160ff0219169083600381111561202257612021612a24565b5b021790555061203b674ac76f16116646b260c01b6128ee565b61204f674ea2110c63157fda60c01b6128ee565b837f912a1e013de32e96d992fc6c81600eb5480705bfabb226c0b69811abf2b3abac60405160405180910390a250505050565b600061209867d5cbec34601eb5db60c01b6128ee565b6120ac670e16a17776e9ee9460c01b6128ee565b6120c0676d8adabdabb8e40860c01b6128ee565b6120d4674b677f51e981752d60c01b6128ee565b7f000000000000000000000000000000000000000000000000000000000000000073ffffffffffffffffffffffffffffffffffffffff163373ffffffffffffffffffffffffffffffffffffffff16146121815761213b67cc76fcbb1316d35360c01b6128ee565b61214f67298044c1cac2b2c360c01b6128ee565b6040517fab24dd7c00000000000000000000000000000000000000000000000000000000815260040160405180910390fd5b61219567480d1a4a154abaec60c01b6128ee565b6121a967fa91eaed2c59f76e60c01b6128ee565b6121bd6703c0c50c471587ee60c01b6128ee565b6121d16743f05359225e3f8960c01b6128ee565b6121e56783bb511f2f4f471b60c01b6128ee565b6121f9673c515e0c4f04e20860c01b6128ee565b60006040518060e001604052808673ffffffffffffffffffffffffffffffffffffffff1681526020018573ffffffffffffffffffffffffffffffffffffffff16815260200184815260200134815260200142815260200160015481526020016000600381111561226c5761226b612a24565b5b815250905061228567458b5498b635041460c01b6128ee565b61229967d053eb58535e341b60c01b6128ee565b600260008573ffffffffffffffffffffffffffffffffffffffff1673ffffffffffffffffffffffffffffffffffffffff16815260200190815260200160002081908060018154018082558091505060019003906000526020600020906007020160009091909190915060008201518160000160006101000a81548173ffffffffffffffffffffffffffffffffffffffff021916908373ffffffffffffffffffffffffffffffffffffffff16021790555060208201518160010160006101000a81548173ffffffffffffffffffffffffffffffffffffffff021916908373ffffffffffffffffffffffffffffffffffffffff16021790555060408201518160020155606082015181600301556080820151816004015560a0820151816005015560c08201518160060160006101000a81548160ff021916908360038111156123e3576123e2612a24565b5b021790555050506123fe678ef53031548ea11260c01b6128ee565b61241267f64da947f2a6055560c01b6128ee565b600360008673ffffffffffffffffffffffffffffffffffffffff1673ffffffffffffffffffffffffffffffffffffffff16815260200190815260200160002081908060018154018082558091505060019003906000526020600020906007020160009091909190915060008201518160000160006101000a81548173ffffffffffffffffffffffffffffffffffffffff021916908373ffffffffffffffffffffffffffffffffffffffff16021790555060208201518160010160006101000a81548173ffffffffffffffffffffffffffffffffffffffff021916908373ffffffffffffffffffffffffffffffffffffffff16021790555060408201518160020155606082015181600301556080820151816004015560a0820151816005015560c08201518160060160006101000a81548160ff0219169083600381111561255c5761255b612a24565b5b02179055505050612577674b43e0ebd8b8ed4960c01b6128ee565b8060046000600154815260200190815260200160002060008201518160000160006101000a81548173ffffffffffffffffffffffffffffffffffffffff021916908373ffffffffffffffffffffffffffffffffffffffff16021790555060208201518160010160006101000a81548173ffffffffffffffffffffffffffffffffffffffff021916908373ffffffffffffffffffffffffffffffffffffffff16021790555060408201518160020155606082015181600301556080820151816004015560a0820151816005015560c08201518160060160006101000a81548160ff0219169083600381111561266e5761266d612a24565b5b021790555090505061268a67cd72c06404fb756860c01b6128ee565b6001600081548092919061269d90612e1f565b91905055506126b6670eb3ca56f604eef860c01b6128ee565b6126ca673326a407adac532560c01b6128ee565b8060a001519150509392505050565b60606126ef6705e1e19b581157e460c01b6128ee565b612703679707f403254cde5a60c01b6128ee565b61271767ceb693f2332168bd60c01b6128ee565b6000600260003373ffffffffffffffffffffffffffffffffffffffff1673ffffffffffffffffffffffffffffffffffffffff168152602001908152602001600020805480602002602001604051908101604052809291908181526020016000905b828210156128b957838290600052602060002090600702016040518060e00160405290816000820160009054906101000a900473ffffffffffffffffffffffffffffffffffffffff1673ffffffffffffffffffffffffffffffffffffffff1673ffffffffffffffffffffffffffffffffffffffff1681526020016001820160009054906101000a900473ffffffffffffffffffffffffffffffffffffffff1673ffffffffffffffffffffffffffffffffffffffff1673ffffffffffffffffffffffffffffffffffffffff168152602001600282015481526020016003820154815260200160048201548152602001600582015481526020016006820160009054906101000a900460ff16600381111561289457612893612a24565b5b60038111156128a6576128a5612a24565b5b8152505081526020019060010190612778565b5050505090506128d36721dfbe3fccf4c45160c01b6128ee565b6128e767c4f5d0024044adca60c01b6128ee565b8091505090565b50565b6040518060e00160405280600073ffffffffffffffffffffffffffffffffffffffff168152602001600073ffffffffffffffffffffffffffffffffffffffff168152602001600081526020016000815260200160008152602001600081526020016000600381111561296657612965612a24565b5b81525090565b600080fd5b6000819050919050565b61298481612971565b811461298f57600080fd5b50565b6000813590506129a18161297b565b92915050565b6000602082840312156129bd576129bc61296c565b5b60006129cb84828501612992565b91505092915050565b600073ffffffffffffffffffffffffffffffffffffffff82169050919050565b60006129ff826129d4565b9050919050565b612a0f816129f4565b82525050565b612a1e81612971565b82525050565b7f4e487b7100000000000000000000000000000000000000000000000000000000600052602160045260246000fd5b60048110612a6457612a63612a24565b5b50565b6000819050612a7582612a53565b919050565b6000612a8582612a67565b9050919050565b612a9581612a7a565b82525050565b60e082016000820151612ab16000850182612a06565b506020820151612ac46020850182612a06565b506040820151612ad76040850182612a15565b506060820151612aea6060850182612a15565b506080820151612afd6080850182612a15565b5060a0820151612b1060a0850182612a15565b5060c0820151612b2360c0850182612a8c565b50505050565b600060e082019050612b3e6000830184612a9b565b92915050565b600081519050919050565b600082825260208201905092915050565b6000819050602082019050919050565b60e082016000820151612b866000850182612a06565b506020820151612b996020850182612a06565b506040820151612bac6040850182612a15565b506060820151612bbf6060850182612a15565b506080820151612bd26080850182612a15565b5060a0820151612be560a0850182612a15565b5060c0820151612bf860c0850182612a8c565b50505050565b6000612c0a8383612b70565b60e08301905092915050565b6000602082019050919050565b6000612c2e82612b44565b612c388185612b4f565b9350612c4383612b60565b8060005b83811015612c74578151612c5b8882612bfe565b9750612c6683612c16565b925050600181019050612c47565b5085935050505092915050565b60006020820190508181036000830152612c9b8184612c23565b905092915050565b612cac816129f4565b82525050565b6000602082019050612cc76000830184612ca3565b92915050565b612cd6816129f4565b8114612ce157600080fd5b50565b600081359050612cf381612ccd565b92915050565b600080600060608486031215612d1257612d1161296c565b5b6000612d2086828701612ce4565b9350506020612d3186828701612ce4565b9250506040612d4286828701612992565b9150509250925092565b612d5581612971565b82525050565b6000602082019050612d706000830184612d4c565b92915050565b600081905092915050565b50565b6000612d91600083612d76565b9150612d9c82612d81565b600082019050919050565b6000612db282612d84565b9150819050919050565b7f4e487b7100000000000000000000000000000000000000000000000000000000600052601160045260246000fd5b6000612df682612971565b9150612e0183612971565b9250828203905081811115612e1957612e18612dbc565b5b92915050565b6000612e2a82612971565b91507fffffffffffffffffffffffffffffffffffffffffffffffffffffffffffffffff8203612e5c57612e5b612dbc565b5b60018201905091905056fea26469706673582212209b625a3c1a9269b271bfca3db2dcdbf5ecb3b0342d6b752f15a6a98694f4b5c664736f6c63430008130033","opcodes":"PUSH1 0xA0 PUSH1 0x40 MSTORE PUSH1 0x1 DUP1 SSTORE CALLVALUE DUP1 ISZERO PUSH3 0x15 JUMPI PUSH1 0x0 DUP1 REVERT JUMPDEST POP PUSH1 0x40 MLOAD PUSH3 0x307F CODESIZE SUB DUP1 PUSH3 0x307F DUP4 CODECOPY DUP2 DUP2 ADD PUSH1 0x40 MSTORE DUP2 ADD SWAP1 PUSH3 0x3B SWAP2 SWAP1 PUSH3 0x178 JUMP JUMPDEST PUSH3 0x57 PUSH8 0x8682A9107A6FD2C1 PUSH1 0xC0 SHL PUSH3 0x10B PUSH1 0x20 SHL PUSH1 0x20 SHR JUMP JUMPDEST PUSH3 0x73 PUSH8 0x1D41A94BA5554DCB PUSH1 0xC0 SHL PUSH3 0x10B PUSH1 0x20 SHL PUSH1 0x20 SHR JUMP JUMPDEST DUP1 PUSH1 0x0 DUP1 PUSH2 0x100 EXP DUP2 SLOAD DUP2 PUSH20 0xFFFFFFFFFFFFFFFFFFFFFFFFFFFFFFFFFFFFFFFF MUL NOT AND SWAP1 DUP4 PUSH20 0xFFFFFFFFFFFFFFFFFFFFFFFFFFFFFFFFFFFFFFFF AND MUL OR SWAP1 SSTORE POP PUSH3 0xCF PUSH8 0x6024235BEFCA135F PUSH1 0xC0 SHL PUSH3 0x10B PUSH1 0x20 SHL PUSH1 0x20 SHR JUMP JUMPDEST DUP2 PUSH20 0xFFFFFFFFFFFFFFFFFFFFFFFFFFFFFFFFFFFFFFFF AND PUSH1 0x80 DUP2 PUSH20 0xFFFFFFFFFFFFFFFFFFFFFFFFFFFFFFFFFFFFFFFF AND DUP2 MSTORE POP POP POP POP PUSH3 0x1BF JUMP JUMPDEST POP JUMP JUMPDEST PUSH1 0x0 DUP1 REVERT JUMPDEST PUSH1 0x0 PUSH20 0xFFFFFFFFFFFFFFFFFFFFFFFFFFFFFFFFFFFFFFFF DUP3 AND SWAP1 POP SWAP2 SWAP1 POP JUMP JUMPDEST PUSH1 0x0 PUSH3 0x140 DUP3 PUSH3 0x113 JUMP JUMPDEST SWAP1 POP SWAP2 SWAP1 POP JUMP JUMPDEST PUSH3 0x152 DUP2 PUSH3 0x133 JUMP JUMPDEST DUP2 EQ PUSH3 0x15E JUMPI PUSH1 0x0 DUP1 REVERT JUMPDEST POP JUMP JUMPDEST PUSH1 0x0 DUP2 MLOAD SWAP1 POP PUSH3 0x172 DUP2 PUSH3 0x147 JUMP JUMPDEST SWAP3 SWAP2 POP POP JUMP JUMPDEST PUSH1 0x0 DUP1 PUSH1 0x40 DUP4 DUP6 SUB SLT ISZERO PUSH3 0x192 JUMPI PUSH3 0x191 PUSH3 0x10E JUMP JUMPDEST JUMPDEST PUSH1 0x0 PUSH3 0x1A2 DUP6 DUP3 DUP7 ADD PUSH3 0x161 JUMP JUMPDEST SWAP3 POP POP PUSH1 0x20 PUSH3 0x1B5 DUP6 DUP3 DUP7 ADD PUSH3 0x161 JUMP JUMPDEST SWAP2 POP POP SWAP3 POP SWAP3 SWAP1 POP JUMP JUMPDEST PUSH1 0x80 MLOAD PUSH2 0x2E9D PUSH3 0x1E2 PUSH1 0x0 CODECOPY PUSH1 0x0 DUP2 DUP2 PUSH2 0x1BE7 ADD MSTORE PUSH2 0x20D6 ADD MSTORE PUSH2 0x2E9D PUSH1 0x0 RETURN INVALID PUSH1 0x80 PUSH1 0x40 MSTORE PUSH1 0x4 CALLDATASIZE LT PUSH2 0x86 JUMPI PUSH1 0x0 CALLDATALOAD PUSH1 0xE0 SHR DUP1 PUSH4 0x893D20E8 GT PUSH2 0x59 JUMPI DUP1 PUSH4 0x893D20E8 EQ PUSH2 0x145 JUMPI DUP1 PUSH4 0xBB8FE785 EQ PUSH2 0x170 JUMPI DUP1 PUSH4 0xC0CFA7E5 EQ PUSH2 0x19B JUMPI DUP1 PUSH4 0xC3617650 EQ PUSH2 0x1C4 JUMPI DUP1 PUSH4 0xC819998B EQ PUSH2 0x1F4 JUMPI PUSH2 0x86 JUMP JUMPDEST DUP1 PUSH4 0x278ECDE1 EQ PUSH2 0x8B JUMPI DUP1 PUSH4 0x37BDC99B EQ PUSH2 0xB4 JUMPI DUP1 PUSH4 0x42B50A7A EQ PUSH2 0xDD JUMPI DUP1 PUSH4 0x700DB752 EQ PUSH2 0x11A JUMPI JUMPDEST PUSH1 0x0 DUP1 REVERT JUMPDEST CALLVALUE DUP1 ISZERO PUSH2 0x97 JUMPI PUSH1 0x0 DUP1 REVERT JUMPDEST POP PUSH2 0xB2 PUSH1 0x4 DUP1 CALLDATASIZE SUB DUP2 ADD SWAP1 PUSH2 0xAD SWAP2 SWAP1 PUSH2 0x29A7 JUMP JUMPDEST PUSH2 0x21F JUMP JUMPDEST STOP JUMPDEST CALLVALUE DUP1 ISZERO PUSH2 0xC0 JUMPI PUSH1 0x0 DUP1 REVERT JUMPDEST POP PUSH2 0xDB PUSH1 0x4 DUP1 CALLDATASIZE SUB DUP2 ADD SWAP1 PUSH2 0xD6 SWAP2 SWAP1 PUSH2 0x29A7 JUMP JUMPDEST PUSH2 0xBD6 JUMP JUMPDEST STOP JUMPDEST CALLVALUE DUP1 ISZERO PUSH2 0xE9 JUMPI PUSH1 0x0 DUP1 REVERT JUMPDEST POP PUSH2 0x104 PUSH1 0x4 DUP1 CALLDATASIZE SUB DUP2 ADD SWAP1 PUSH2 0xFF SWAP2 SWAP1 PUSH2 0x29A7 JUMP JUMPDEST PUSH2 0x16B6 JUMP JUMPDEST PUSH1 0x40 MLOAD PUSH2 0x111 SWAP2 SWAP1 PUSH2 0x2B29 JUMP JUMPDEST PUSH1 0x40 MLOAD DUP1 SWAP2 SUB SWAP1 RETURN JUMPDEST CALLVALUE DUP1 ISZERO PUSH2 0x126 JUMPI PUSH1 0x0 DUP1 REVERT JUMPDEST POP PUSH2 0x12F PUSH2 0x192E JUMP JUMPDEST PUSH1 0x40 MLOAD PUSH2 0x13C SWAP2 SWAP1 PUSH2 0x2C81 JUMP JUMPDEST PUSH1 0x40 MLOAD DUP1 SWAP2 SUB SWAP1 RETURN JUMPDEST CALLVALUE DUP1 ISZERO PUSH2 0x151 JUMPI PUSH1 0x0 DUP1 REVERT JUMPDEST POP PUSH2 0x15A PUSH2 0x1B43 JUMP JUMPDEST PUSH1 0x40 MLOAD PUSH2 0x167 SWAP2 SWAP1 PUSH2 0x2CB2 JUMP JUMPDEST PUSH1 0x40 MLOAD DUP1 SWAP2 SUB SWAP1 RETURN JUMPDEST CALLVALUE DUP1 ISZERO PUSH2 0x17C JUMPI PUSH1 0x0 DUP1 REVERT JUMPDEST POP PUSH2 0x185 PUSH2 0x1BA7 JUMP JUMPDEST PUSH1 0x40 MLOAD PUSH2 0x192 SWAP2 SWAP1 PUSH2 0x2CB2 JUMP JUMPDEST PUSH1 0x40 MLOAD DUP1 SWAP2 SUB SWAP1 RETURN JUMPDEST CALLVALUE DUP1 ISZERO PUSH2 0x1A7 JUMPI PUSH1 0x0 DUP1 REVERT JUMPDEST POP PUSH2 0x1C2 PUSH1 0x4 DUP1 CALLDATASIZE SUB DUP2 ADD SWAP1 PUSH2 0x1BD SWAP2 SWAP1 PUSH2 0x29A7 JUMP JUMPDEST PUSH2 0x1C0B JUMP JUMPDEST STOP JUMPDEST PUSH2 0x1DE PUSH1 0x4 DUP1 CALLDATASIZE SUB DUP2 ADD SWAP1 PUSH2 0x1D9 SWAP2 SWAP1 PUSH2 0x2CF9 JUMP JUMPDEST PUSH2 0x2082 JUMP JUMPDEST PUSH1 0x40 MLOAD PUSH2 0x1EB SWAP2 SWAP1 PUSH2 0x2D5B JUMP JUMPDEST PUSH1 0x40 MLOAD DUP1 SWAP2 SUB SWAP1 RETURN JUMPDEST CALLVALUE DUP1 ISZERO PUSH2 0x200 JUMPI PUSH1 0x0 DUP1 REVERT JUMPDEST POP PUSH2 0x209 PUSH2 0x26D9 JUMP JUMPDEST PUSH1 0x40 MLOAD PUSH2 0x216 SWAP2 SWAP1 PUSH2 0x2C81 JUMP JUMPDEST PUSH1 0x40 MLOAD DUP1 SWAP2 SUB SWAP1 RETURN JUMPDEST PUSH2 0x233 PUSH8 0x28BDBA660BF3974F PUSH1 0xC0 SHL PUSH2 0x28EE JUMP JUMPDEST DUP1 PUSH2 0x248 PUSH8 0xA8CF46A670D916B0 PUSH1 0xC0 SHL PUSH2 0x28EE JUMP JUMPDEST PUSH2 0x25C PUSH8 0xA986CEFEEC858187 PUSH1 0xC0 SHL PUSH2 0x28EE JUMP JUMPDEST PUSH2 0x270 PUSH8 0x9468E128EAE60B1A PUSH1 0xC0 SHL PUSH2 0x28EE JUMP JUMPDEST PUSH1 0x0 PUSH1 0x4 PUSH1 0x0 DUP4 DUP2 MSTORE PUSH1 0x20 ADD SWAP1 DUP2 MSTORE PUSH1 0x20 ADD PUSH1 0x0 KECCAK256 PUSH1 0x40 MLOAD DUP1 PUSH1 0xE0 ADD PUSH1 0x40 MSTORE SWAP1 DUP2 PUSH1 0x0 DUP3 ADD PUSH1 0x0 SWAP1 SLOAD SWAP1 PUSH2 0x100 EXP SWAP1 DIV PUSH20 0xFFFFFFFFFFFFFFFFFFFFFFFFFFFFFFFFFFFFFFFF AND PUSH20 0xFFFFFFFFFFFFFFFFFFFFFFFFFFFFFFFFFFFFFFFF AND PUSH20 0xFFFFFFFFFFFFFFFFFFFFFFFFFFFFFFFFFFFFFFFF AND DUP2 MSTORE PUSH1 0x20 ADD PUSH1 0x1 DUP3 ADD PUSH1 0x0 SWAP1 SLOAD SWAP1 PUSH2 0x100 EXP SWAP1 DIV PUSH20 0xFFFFFFFFFFFFFFFFFFFFFFFFFFFFFFFFFFFFFFFF AND PUSH20 0xFFFFFFFFFFFFFFFFFFFFFFFFFFFFFFFFFFFFFFFF AND PUSH20 0xFFFFFFFFFFFFFFFFFFFFFFFFFFFFFFFFFFFFFFFF AND DUP2 MSTORE PUSH1 0x20 ADD PUSH1 0x2 DUP3 ADD SLOAD DUP2 MSTORE PUSH1 0x20 ADD PUSH1 0x3 DUP3 ADD SLOAD DUP2 MSTORE PUSH1 0x20 ADD PUSH1 0x4 DUP3 ADD SLOAD DUP2 MSTORE PUSH1 0x20 ADD PUSH1 0x5 DUP3 ADD SLOAD DUP2 MSTORE PUSH1 0x20 ADD PUSH1 0x6 DUP3 ADD PUSH1 0x0 SWAP1 SLOAD SWAP1 PUSH2 0x100 EXP SWAP1 DIV PUSH1 0xFF AND PUSH1 0x3 DUP2 GT ISZERO PUSH2 0x389 JUMPI PUSH2 0x388 PUSH2 0x2A24 JUMP JUMPDEST JUMPDEST PUSH1 0x3 DUP2 GT ISZERO PUSH2 0x39B JUMPI PUSH2 0x39A PUSH2 0x2A24 JUMP JUMPDEST JUMPDEST DUP2 MSTORE POP POP SWAP1 POP PUSH2 0x3B5 PUSH8 0x96010DFAECF65CF6 PUSH1 0xC0 SHL PUSH2 0x28EE JUMP JUMPDEST PUSH2 0x3C9 PUSH8 0x7A4FA443F0DD646B PUSH1 0xC0 SHL PUSH2 0x28EE JUMP JUMPDEST PUSH1 0x0 PUSH1 0x3 DUP2 GT ISZERO PUSH2 0x3DD JUMPI PUSH2 0x3DC PUSH2 0x2A24 JUMP JUMPDEST JUMPDEST DUP2 PUSH1 0xC0 ADD MLOAD PUSH1 0x3 DUP2 GT ISZERO PUSH2 0x3F4 JUMPI PUSH2 0x3F3 PUSH2 0x2A24 JUMP JUMPDEST JUMPDEST EQ ISZERO DUP1 ISZERO PUSH2 0x42A JUMPI POP PUSH1 0x3 DUP1 DUP2 GT ISZERO PUSH2 0x410 JUMPI PUSH2 0x40F PUSH2 0x2A24 JUMP JUMPDEST JUMPDEST DUP2 PUSH1 0xC0 ADD MLOAD PUSH1 0x3 DUP2 GT ISZERO PUSH2 0x427 JUMPI PUSH2 0x426 PUSH2 0x2A24 JUMP JUMPDEST JUMPDEST EQ ISZERO JUMPDEST ISZERO PUSH2 0x489 JUMPI PUSH2 0x443 PUSH8 0x7BA95F796C8A102 PUSH1 0xC0 SHL PUSH2 0x28EE JUMP JUMPDEST PUSH2 0x457 PUSH8 0x88091DFA12640C6 PUSH1 0xC0 SHL PUSH2 0x28EE JUMP JUMPDEST PUSH1 0x40 MLOAD PUSH32 0x8A22693E00000000000000000000000000000000000000000000000000000000 DUP2 MSTORE PUSH1 0x4 ADD PUSH1 0x40 MLOAD DUP1 SWAP2 SUB SWAP1 REVERT JUMPDEST PUSH2 0x49D PUSH8 0x7D44F4B501C43183 PUSH1 0xC0 SHL PUSH2 0x28EE JUMP JUMPDEST PUSH2 0x4B1 PUSH8 0x21C50106825C897D PUSH1 0xC0 SHL PUSH2 0x28EE JUMP JUMPDEST PUSH2 0x4C5 PUSH8 0x7B4F954D76E78950 PUSH1 0xC0 SHL PUSH2 0x28EE JUMP JUMPDEST PUSH2 0x4D9 PUSH8 0xB3FCFB8B1A7F9EF9 PUSH1 0xC0 SHL PUSH2 0x28EE JUMP JUMPDEST DUP3 PUSH2 0x4EE PUSH8 0x67894023DE97C255 PUSH1 0xC0 SHL PUSH2 0x28EE JUMP JUMPDEST PUSH2 0x502 PUSH8 0x527EB98E367F366C PUSH1 0xC0 SHL PUSH2 0x28EE JUMP JUMPDEST PUSH2 0x516 PUSH8 0x9810E0B363800030 PUSH1 0xC0 SHL PUSH2 0x28EE JUMP JUMPDEST PUSH1 0x0 PUSH1 0x4 PUSH1 0x0 DUP4 DUP2 MSTORE PUSH1 0x20 ADD SWAP1 DUP2 MSTORE PUSH1 0x20 ADD PUSH1 0x0 KECCAK256 PUSH1 0x40 MLOAD DUP1 PUSH1 0xE0 ADD PUSH1 0x40 MSTORE SWAP1 DUP2 PUSH1 0x0 DUP3 ADD PUSH1 0x0 SWAP1 SLOAD SWAP1 PUSH2 0x100 EXP SWAP1 DIV PUSH20 0xFFFFFFFFFFFFFFFFFFFFFFFFFFFFFFFFFFFFFFFF AND PUSH20 0xFFFFFFFFFFFFFFFFFFFFFFFFFFFFFFFFFFFFFFFF AND PUSH20 0xFFFFFFFFFFFFFFFFFFFFFFFFFFFFFFFFFFFFFFFF AND DUP2 MSTORE PUSH1 0x20 ADD PUSH1 0x1 DUP3 ADD PUSH1 0x0 SWAP1 SLOAD SWAP1 PUSH2 0x100 EXP SWAP1 DIV PUSH20 0xFFFFFFFFFFFFFFFFFFFFFFFFFFFFFFFFFFFFFFFF AND PUSH20 0xFFFFFFFFFFFFFFFFFFFFFFFFFFFFFFFFFFFFFFFF AND PUSH20 0xFFFFFFFFFFFFFFFFFFFFFFFFFFFFFFFFFFFFFFFF AND DUP2 MSTORE PUSH1 0x20 ADD PUSH1 0x2 DUP3 ADD SLOAD DUP2 MSTORE PUSH1 0x20 ADD PUSH1 0x3 DUP3 ADD SLOAD DUP2 MSTORE PUSH1 0x20 ADD PUSH1 0x4 DUP3 ADD SLOAD DUP2 MSTORE PUSH1 0x20 ADD PUSH1 0x5 DUP3 ADD SLOAD DUP2 MSTORE PUSH1 0x20 ADD PUSH1 0x6 DUP3 ADD PUSH1 0x0 SWAP1 SLOAD SWAP1 PUSH2 0x100 EXP SWAP1 DIV PUSH1 0xFF AND PUSH1 0x3 DUP2 GT ISZERO PUSH2 0x62F JUMPI PUSH2 0x62E PUSH2 0x2A24 JUMP JUMPDEST JUMPDEST PUSH1 0x3 DUP2 GT ISZERO PUSH2 0x641 JUMPI PUSH2 0x640 PUSH2 0x2A24 JUMP JUMPDEST JUMPDEST DUP2 MSTORE POP POP SWAP1 POP PUSH2 0x65B PUSH8 0x10C170A31D2120C PUSH1 0xC0 SHL PUSH2 0x28EE JUMP JUMPDEST PUSH2 0x66F PUSH8 0x45D3B41A49D7AE02 PUSH1 0xC0 SHL PUSH2 0x28EE JUMP JUMPDEST PUSH1 0x0 DUP1 SLOAD SWAP1 PUSH2 0x100 EXP SWAP1 DIV PUSH20 0xFFFFFFFFFFFFFFFFFFFFFFFFFFFFFFFFFFFFFFFF AND PUSH20 0xFFFFFFFFFFFFFFFFFFFFFFFFFFFFFFFFFFFFFFFF AND CALLER PUSH20 0xFFFFFFFFFFFFFFFFFFFFFFFFFFFFFFFFFFFFFFFF AND EQ DUP1 ISZERO PUSH2 0x6F2 JUMPI POP PUSH1 0x3 DUP1 DUP2 GT ISZERO PUSH2 0x6D8 JUMPI PUSH2 0x6D7 PUSH2 0x2A24 JUMP JUMPDEST JUMPDEST DUP2 PUSH1 0xC0 ADD MLOAD PUSH1 0x3 DUP2 GT ISZERO PUSH2 0x6EF JUMPI PUSH2 0x6EE PUSH2 0x2A24 JUMP JUMPDEST JUMPDEST EQ ISZERO JUMPDEST ISZERO PUSH2 0x751 JUMPI PUSH2 0x70B PUSH8 0x7DD3F87B173F7FD6 PUSH1 0xC0 SHL PUSH2 0x28EE JUMP JUMPDEST PUSH2 0x71F PUSH8 0x539A28D4BBB2F8BB PUSH1 0xC0 SHL PUSH2 0x28EE JUMP JUMPDEST PUSH1 0x40 MLOAD PUSH32 0x8AB9B32900000000000000000000000000000000000000000000000000000000 DUP2 MSTORE PUSH1 0x4 ADD PUSH1 0x40 MLOAD DUP1 SWAP2 SUB SWAP1 REVERT JUMPDEST PUSH2 0x765 PUSH8 0x964E40EE2CDEB523 PUSH1 0xC0 SHL PUSH2 0x28EE JUMP JUMPDEST PUSH2 0x779 PUSH8 0x85176212632737A6 PUSH1 0xC0 SHL PUSH2 0x28EE JUMP JUMPDEST CALLER PUSH20 0xFFFFFFFFFFFFFFFFFFFFFFFFFFFFFFFFFFFFFFFF AND DUP2 PUSH1 0x0 ADD MLOAD PUSH20 0xFFFFFFFFFFFFFFFFFFFFFFFFFFFFFFFFFFFFFFFF AND EQ ISZERO DUP1 ISZERO PUSH2 0x805 JUMPI POP PUSH1 0x0 DUP1 SLOAD SWAP1 PUSH2 0x100 EXP SWAP1 DIV PUSH20 0xFFFFFFFFFFFFFFFFFFFFFFFFFFFFFFFFFFFFFFFF AND PUSH20 0xFFFFFFFFFFFFFFFFFFFFFFFFFFFFFFFFFFFFFFFF AND CALLER PUSH20 0xFFFFFFFFFFFFFFFFFFFFFFFFFFFFFFFFFFFFFFFF AND EQ ISZERO JUMPDEST ISZERO PUSH2 0x864 JUMPI PUSH2 0x81E PUSH8 0x4C7003B2A7016287 PUSH1 0xC0 SHL PUSH2 0x28EE JUMP JUMPDEST PUSH2 0x832 PUSH8 0xB8512D8A4A233CD4 PUSH1 0xC0 SHL PUSH2 0x28EE JUMP JUMPDEST PUSH1 0x40 MLOAD PUSH32 0x76DF155600000000000000000000000000000000000000000000000000000000 DUP2 MSTORE PUSH1 0x4 ADD PUSH1 0x40 MLOAD DUP1 SWAP2 SUB SWAP1 REVERT JUMPDEST PUSH2 0x878 PUSH8 0x22912976BD784849 PUSH1 0xC0 SHL PUSH2 0x28EE JUMP JUMPDEST PUSH2 0x88C PUSH8 0x1738F3F3759D663D PUSH1 0xC0 SHL PUSH2 0x28EE JUMP JUMPDEST DUP1 PUSH1 0x0 ADD MLOAD PUSH20 0xFFFFFFFFFFFFFFFFFFFFFFFFFFFFFFFFFFFFFFFF AND CALLER PUSH20 0xFFFFFFFFFFFFFFFFFFFFFFFFFFFFFFFFFFFFFFFF AND EQ DUP1 ISZERO PUSH2 0x8F2 JUMPI POP PUSH1 0x3 DUP1 DUP2 GT ISZERO PUSH2 0x8D9 JUMPI PUSH2 0x8D8 PUSH2 0x2A24 JUMP JUMPDEST JUMPDEST DUP2 PUSH1 0xC0 ADD MLOAD PUSH1 0x3 DUP2 GT ISZERO PUSH2 0x8F0 JUMPI PUSH2 0x8EF PUSH2 0x2A24 JUMP JUMPDEST JUMPDEST EQ JUMPDEST ISZERO PUSH2 0x951 JUMPI PUSH2 0x90B PUSH8 0x8E687D28D1F0071D PUSH1 0xC0 SHL PUSH2 0x28EE JUMP JUMPDEST PUSH2 0x91F PUSH8 0xDFA79C7729E9CCC9 PUSH1 0xC0 SHL PUSH2 0x28EE JUMP JUMPDEST PUSH1 0x40 MLOAD PUSH32 0x26B095E100000000000000000000000000000000000000000000000000000000 DUP2 MSTORE PUSH1 0x4 ADD PUSH1 0x40 MLOAD DUP1 SWAP2 SUB SWAP1 REVERT JUMPDEST PUSH2 0x965 PUSH8 0x29062CC8DC023741 PUSH1 0xC0 SHL PUSH2 0x28EE JUMP JUMPDEST PUSH2 0x979 PUSH8 0x4BF8D5847EE50BF0 PUSH1 0xC0 SHL PUSH2 0x28EE JUMP JUMPDEST PUSH2 0x98D PUSH8 0x7E1BC537D91B06A9 PUSH1 0xC0 SHL PUSH2 0x28EE JUMP JUMPDEST PUSH2 0x9A1 PUSH8 0x20DC0852A289C786 PUSH1 0xC0 SHL PUSH2 0x28EE JUMP JUMPDEST PUSH2 0x9B5 PUSH8 0x587E37BE3E2A8A9F PUSH1 0xC0 SHL PUSH2 0x28EE JUMP JUMPDEST PUSH2 0x9C9 PUSH8 0x5F071E8A3096EE05 PUSH1 0xC0 SHL PUSH2 0x28EE JUMP JUMPDEST PUSH1 0x0 PUSH1 0x4 PUSH1 0x0 DUP8 DUP2 MSTORE PUSH1 0x20 ADD SWAP1 DUP2 MSTORE PUSH1 0x20 ADD PUSH1 0x0 KECCAK256 SWAP1 POP PUSH2 0x9F4 PUSH8 0xA4F4E0F2571ABC7C PUSH1 0xC0 SHL PUSH2 0x28EE JUMP JUMPDEST PUSH1 0x2 DUP2 PUSH1 0x6 ADD PUSH1 0x0 PUSH2 0x100 EXP DUP2 SLOAD DUP2 PUSH1 0xFF MUL NOT AND SWAP1 DUP4 PUSH1 0x3 DUP2 GT ISZERO PUSH2 0xA1C JUMPI PUSH2 0xA1B PUSH2 0x2A24 JUMP JUMPDEST JUMPDEST MUL OR SWAP1 SSTORE POP PUSH2 0xA35 PUSH8 0xFEF194E3B5A36AF2 PUSH1 0xC0 SHL PUSH2 0x28EE JUMP JUMPDEST PUSH2 0xA49 PUSH8 0xC7D0A25614147D7A PUSH1 0xC0 SHL PUSH2 0x28EE JUMP JUMPDEST PUSH1 0x0 DUP2 PUSH1 0x1 ADD PUSH1 0x0 SWAP1 SLOAD SWAP1 PUSH2 0x100 EXP SWAP1 DIV PUSH20 0xFFFFFFFFFFFFFFFFFFFFFFFFFFFFFFFFFFFFFFFF AND PUSH20 0xFFFFFFFFFFFFFFFFFFFFFFFFFFFFFFFFFFFFFFFF AND DUP3 PUSH1 0x3 ADD SLOAD PUSH1 0x40 MLOAD PUSH2 0xA97 SWAP1 PUSH2 0x2DA7 JUMP JUMPDEST PUSH1 0x0 PUSH1 0x40 MLOAD DUP1 DUP4 SUB DUP2 DUP6 DUP8 GAS CALL SWAP3 POP POP POP RETURNDATASIZE DUP1 PUSH1 0x0 DUP2 EQ PUSH2 0xAD4 JUMPI PUSH1 0x40 MLOAD SWAP2 POP PUSH1 0x1F NOT PUSH1 0x3F RETURNDATASIZE ADD AND DUP3 ADD PUSH1 0x40 MSTORE RETURNDATASIZE DUP3 MSTORE RETURNDATASIZE PUSH1 0x0 PUSH1 0x20 DUP5 ADD RETURNDATACOPY PUSH2 0xAD9 JUMP JUMPDEST PUSH1 0x60 SWAP2 POP JUMPDEST POP POP SWAP1 POP PUSH2 0xAF1 PUSH8 0x6ADE4EE435263700 PUSH1 0xC0 SHL PUSH2 0x28EE JUMP JUMPDEST PUSH2 0xB05 PUSH8 0xE5572A0CA148689E PUSH1 0xC0 SHL PUSH2 0x28EE JUMP JUMPDEST DUP1 PUSH2 0xB64 JUMPI PUSH2 0xB1E PUSH8 0xD5FFFA5233BEB7B3 PUSH1 0xC0 SHL PUSH2 0x28EE JUMP JUMPDEST PUSH2 0xB32 PUSH8 0x6954EDC2BADC589A PUSH1 0xC0 SHL PUSH2 0x28EE JUMP JUMPDEST PUSH1 0x40 MLOAD PUSH32 0x4ABCF95000000000000000000000000000000000000000000000000000000000 DUP2 MSTORE PUSH1 0x4 ADD PUSH1 0x40 MLOAD DUP1 SWAP2 SUB SWAP1 REVERT JUMPDEST PUSH2 0xB78 PUSH8 0x62149C2C06978140 PUSH1 0xC0 SHL PUSH2 0x28EE JUMP JUMPDEST PUSH2 0xB8C PUSH8 0xF65636FA082B6DB7 PUSH1 0xC0 SHL PUSH2 0x28EE JUMP JUMPDEST PUSH2 0xBA0 PUSH8 0xEA9568A7C09D2349 PUSH1 0xC0 SHL PUSH2 0x28EE JUMP JUMPDEST DUP7 PUSH32 0x6CBB2F5FC1A460905EB3B50B6C769589D8B1A201F03B7F04B1F3CE09C3AEE78B PUSH1 0x40 MLOAD PUSH1 0x40 MLOAD DUP1 SWAP2 SUB SWAP1 LOG2 POP POP POP POP POP POP POP JUMP JUMPDEST PUSH2 0xBEA PUSH8 0xC356E2B0D3D38036 PUSH1 0xC0 SHL PUSH2 0x28EE JUMP JUMPDEST DUP1 PUSH2 0xBFF PUSH8 0xA8CF46A670D916B0 PUSH1 0xC0 SHL PUSH2 0x28EE JUMP JUMPDEST PUSH2 0xC13 PUSH8 0xA986CEFEEC858187 PUSH1 0xC0 SHL PUSH2 0x28EE JUMP JUMPDEST PUSH2 0xC27 PUSH8 0x9468E128EAE60B1A PUSH1 0xC0 SHL PUSH2 0x28EE JUMP JUMPDEST PUSH1 0x0 PUSH1 0x4 PUSH1 0x0 DUP4 DUP2 MSTORE PUSH1 0x20 ADD SWAP1 DUP2 MSTORE PUSH1 0x20 ADD PUSH1 0x0 KECCAK256 PUSH1 0x40 MLOAD DUP1 PUSH1 0xE0 ADD PUSH1 0x40 MSTORE SWAP1 DUP2 PUSH1 0x0 DUP3 ADD PUSH1 0x0 SWAP1 SLOAD SWAP1 PUSH2 0x100 EXP SWAP1 DIV PUSH20 0xFFFFFFFFFFFFFFFFFFFFFFFFFFFFFFFFFFFFFFFF AND PUSH20 0xFFFFFFFFFFFFFFFFFFFFFFFFFFFFFFFFFFFFFFFF AND PUSH20 0xFFFFFFFFFFFFFFFFFFFFFFFFFFFFFFFFFFFFFFFF AND DUP2 MSTORE PUSH1 0x20 ADD PUSH1 0x1 DUP3 ADD PUSH1 0x0 SWAP1 SLOAD SWAP1 PUSH2 0x100 EXP SWAP1 DIV PUSH20 0xFFFFFFFFFFFFFFFFFFFFFFFFFFFFFFFFFFFFFFFF AND PUSH20 0xFFFFFFFFFFFFFFFFFFFFFFFFFFFFFFFFFFFFFFFF AND PUSH20 0xFFFFFFFFFFFFFFFFFFFFFFFFFFFFFFFFFFFFFFFF AND DUP2 MSTORE PUSH1 0x20 ADD PUSH1 0x2 DUP3 ADD SLOAD DUP2 MSTORE PUSH1 0x20 ADD PUSH1 0x3 DUP3 ADD SLOAD DUP2 MSTORE PUSH1 0x20 ADD PUSH1 0x4 DUP3 ADD SLOAD DUP2 MSTORE PUSH1 0x20 ADD PUSH1 0x5 DUP3 ADD SLOAD DUP2 MSTORE PUSH1 0x20 ADD PUSH1 0x6 DUP3 ADD PUSH1 0x0 SWAP1 SLOAD SWAP1 PUSH2 0x100 EXP SWAP1 DIV PUSH1 0xFF AND PUSH1 0x3 DUP2 GT ISZERO PUSH2 0xD40 JUMPI PUSH2 0xD3F PUSH2 0x2A24 JUMP JUMPDEST JUMPDEST PUSH1 0x3 DUP2 GT ISZERO PUSH2 0xD52 JUMPI PUSH2 0xD51 PUSH2 0x2A24 JUMP JUMPDEST JUMPDEST DUP2 MSTORE POP POP SWAP1 POP PUSH2 0xD6C PUSH8 0x96010DFAECF65CF6 PUSH1 0xC0 SHL PUSH2 0x28EE JUMP JUMPDEST PUSH2 0xD80 PUSH8 0x7A4FA443F0DD646B PUSH1 0xC0 SHL PUSH2 0x28EE JUMP JUMPDEST PUSH1 0x0 PUSH1 0x3 DUP2 GT ISZERO PUSH2 0xD94 JUMPI PUSH2 0xD93 PUSH2 0x2A24 JUMP JUMPDEST JUMPDEST DUP2 PUSH1 0xC0 ADD MLOAD PUSH1 0x3 DUP2 GT ISZERO PUSH2 0xDAB JUMPI PUSH2 0xDAA PUSH2 0x2A24 JUMP JUMPDEST JUMPDEST EQ ISZERO DUP1 ISZERO PUSH2 0xDE1 JUMPI POP PUSH1 0x3 DUP1 DUP2 GT ISZERO PUSH2 0xDC7 JUMPI PUSH2 0xDC6 PUSH2 0x2A24 JUMP JUMPDEST JUMPDEST DUP2 PUSH1 0xC0 ADD MLOAD PUSH1 0x3 DUP2 GT ISZERO PUSH2 0xDDE JUMPI PUSH2 0xDDD PUSH2 0x2A24 JUMP JUMPDEST JUMPDEST EQ ISZERO JUMPDEST ISZERO PUSH2 0xE40 JUMPI PUSH2 0xDFA PUSH8 0x7BA95F796C8A102 PUSH1 0xC0 SHL PUSH2 0x28EE JUMP JUMPDEST PUSH2 0xE0E PUSH8 0x88091DFA12640C6 PUSH1 0xC0 SHL PUSH2 0x28EE JUMP JUMPDEST PUSH1 0x40 MLOAD PUSH32 0x8A22693E00000000000000000000000000000000000000000000000000000000 DUP2 MSTORE PUSH1 0x4 ADD PUSH1 0x40 MLOAD DUP1 SWAP2 SUB SWAP1 REVERT JUMPDEST PUSH2 0xE54 PUSH8 0x7D44F4B501C43183 PUSH1 0xC0 SHL PUSH2 0x28EE JUMP JUMPDEST PUSH2 0xE68 PUSH8 0x21C50106825C897D PUSH1 0xC0 SHL PUSH2 0x28EE JUMP JUMPDEST PUSH2 0xE7C PUSH8 0xA8B7A9AAAD801B61 PUSH1 0xC0 SHL PUSH2 0x28EE JUMP JUMPDEST PUSH2 0xE90 PUSH8 0x2D30535F88340F59 PUSH1 0xC0 SHL PUSH2 0x28EE JUMP JUMPDEST DUP3 PUSH2 0xEA5 PUSH8 0xA7C7C5DFAD30EC65 PUSH1 0xC0 SHL PUSH2 0x28EE JUMP JUMPDEST PUSH2 0xEB9 PUSH8 0xBA63A8469ACF7EC7 PUSH1 0xC0 SHL PUSH2 0x28EE JUMP JUMPDEST PUSH2 0xECD PUSH8 0x1B786CBFC5BBDDB6 PUSH1 0xC0 SHL PUSH2 0x28EE JUMP JUMPDEST PUSH1 0x0 PUSH1 0x4 PUSH1 0x0 DUP4 DUP2 MSTORE PUSH1 0x20 ADD SWAP1 DUP2 MSTORE PUSH1 0x20 ADD PUSH1 0x0 KECCAK256 PUSH1 0x40 MLOAD DUP1 PUSH1 0xE0 ADD PUSH1 0x40 MSTORE SWAP1 DUP2 PUSH1 0x0 DUP3 ADD PUSH1 0x0 SWAP1 SLOAD SWAP1 PUSH2 0x100 EXP SWAP1 DIV PUSH20 0xFFFFFFFFFFFFFFFFFFFFFFFFFFFFFFFFFFFFFFFF AND PUSH20 0xFFFFFFFFFFFFFFFFFFFFFFFFFFFFFFFFFFFFFFFF AND PUSH20 0xFFFFFFFFFFFFFFFFFFFFFFFFFFFFFFFFFFFFFFFF AND DUP2 MSTORE PUSH1 0x20 ADD PUSH1 0x1 DUP3 ADD PUSH1 0x0 SWAP1 SLOAD SWAP1 PUSH2 0x100 EXP SWAP1 DIV PUSH20 0xFFFFFFFFFFFFFFFFFFFFFFFFFFFFFFFFFFFFFFFF AND PUSH20 0xFFFFFFFFFFFFFFFFFFFFFFFFFFFFFFFFFFFFFFFF AND PUSH20 0xFFFFFFFFFFFFFFFFFFFFFFFFFFFFFFFFFFFFFFFF AND DUP2 MSTORE PUSH1 0x20 ADD PUSH1 0x2 DUP3 ADD SLOAD DUP2 MSTORE PUSH1 0x20 ADD PUSH1 0x3 DUP3 ADD SLOAD DUP2 MSTORE PUSH1 0x20 ADD PUSH1 0x4 DUP3 ADD SLOAD DUP2 MSTORE PUSH1 0x20 ADD PUSH1 0x5 DUP3 ADD SLOAD DUP2 MSTORE PUSH1 0x20 ADD PUSH1 0x6 DUP3 ADD PUSH1 0x0 SWAP1 SLOAD SWAP1 PUSH2 0x100 EXP SWAP1 DIV PUSH1 0xFF AND PUSH1 0x3 DUP2 GT ISZERO PUSH2 0xFE6 JUMPI PUSH2 0xFE5 PUSH2 0x2A24 JUMP JUMPDEST JUMPDEST PUSH1 0x3 DUP2 GT ISZERO PUSH2 0xFF8 JUMPI PUSH2 0xFF7 PUSH2 0x2A24 JUMP JUMPDEST JUMPDEST DUP2 MSTORE POP POP SWAP1 POP PUSH2 0x1012 PUSH8 0xD2A7682FBE9B96A5 PUSH1 0xC0 SHL PUSH2 0x28EE JUMP JUMPDEST PUSH2 0x1026 PUSH8 0x1614C4AB1E3C0E78 PUSH1 0xC0 SHL PUSH2 0x28EE JUMP JUMPDEST PUSH1 0x0 DUP1 SLOAD SWAP1 PUSH2 0x100 EXP SWAP1 DIV PUSH20 0xFFFFFFFFFFFFFFFFFFFFFFFFFFFFFFFFFFFFFFFF AND PUSH20 0xFFFFFFFFFFFFFFFFFFFFFFFFFFFFFFFFFFFFFFFF AND CALLER PUSH20 0xFFFFFFFFFFFFFFFFFFFFFFFFFFFFFFFFFFFFFFFF AND EQ DUP1 ISZERO PUSH2 0x10A9 JUMPI POP PUSH1 0x3 DUP1 DUP2 GT ISZERO PUSH2 0x108F JUMPI PUSH2 0x108E PUSH2 0x2A24 JUMP JUMPDEST JUMPDEST DUP2 PUSH1 0xC0 ADD MLOAD PUSH1 0x3 DUP2 GT ISZERO PUSH2 0x10A6 JUMPI PUSH2 0x10A5 PUSH2 0x2A24 JUMP JUMPDEST JUMPDEST EQ ISZERO JUMPDEST ISZERO PUSH2 0x1108 JUMPI PUSH2 0x10C2 PUSH8 0x5D9EBA9467BF36DC PUSH1 0xC0 SHL PUSH2 0x28EE JUMP JUMPDEST PUSH2 0x10D6 PUSH8 0xDAA96C08F8CFBAEB PUSH1 0xC0 SHL PUSH2 0x28EE JUMP JUMPDEST PUSH1 0x40 MLOAD PUSH32 0x8AB9B32900000000000000000000000000000000000000000000000000000000 DUP2 MSTORE PUSH1 0x4 ADD PUSH1 0x40 MLOAD DUP1 SWAP2 SUB SWAP1 REVERT JUMPDEST PUSH2 0x111C PUSH8 0xD53A0EEBA684915C PUSH1 0xC0 SHL PUSH2 0x28EE JUMP JUMPDEST PUSH2 0x1130 PUSH8 0x713E500CF31766C8 PUSH1 0xC0 SHL PUSH2 0x28EE JUMP JUMPDEST CALLER PUSH20 0xFFFFFFFFFFFFFFFFFFFFFFFFFFFFFFFFFFFFFFFF AND DUP2 PUSH1 0x0 ADD MLOAD PUSH20 0xFFFFFFFFFFFFFFFFFFFFFFFFFFFFFFFFFFFFFFFF AND SUB PUSH2 0x1230 JUMPI PUSH2 0x117B PUSH8 0x982E8DEEA7998260 PUSH1 0xC0 SHL PUSH2 0x28EE JUMP JUMPDEST PUSH2 0x118F PUSH8 0x2910437015357DBB PUSH1 0xC0 SHL PUSH2 0x28EE JUMP JUMPDEST PUSH2 0x11A3 PUSH8 0x577AE683F7DAB10 PUSH1 0xC0 SHL PUSH2 0x28EE JUMP JUMPDEST PUSH3 0x278D00 DUP2 PUSH1 0x80 ADD MLOAD TIMESTAMP PUSH2 0x11B7 SWAP2 SWAP1 PUSH2 0x2DEB JUMP JUMPDEST LT ISZERO PUSH2 0x1217 JUMPI PUSH2 0x11D1 PUSH8 0xC517EA917B606670 PUSH1 0xC0 SHL PUSH2 0x28EE JUMP JUMPDEST PUSH2 0x11E5 PUSH8 0x1A195938F297BFE2 PUSH1 0xC0 SHL PUSH2 0x28EE JUMP JUMPDEST PUSH1 0x40 MLOAD PUSH32 0x586F49F700000000000000000000000000000000000000000000000000000000 DUP2 MSTORE PUSH1 0x4 ADD PUSH1 0x40 MLOAD DUP1 SWAP2 SUB SWAP1 REVERT JUMPDEST PUSH2 0x122B PUSH8 0x4CF94B57C9058E22 PUSH1 0xC0 SHL PUSH2 0x28EE JUMP JUMPDEST PUSH2 0x1445 JUMP JUMPDEST PUSH2 0x1244 PUSH8 0x5F537D3611769A9F PUSH1 0xC0 SHL PUSH2 0x28EE JUMP JUMPDEST PUSH2 0x1258 PUSH8 0x8E213DE2E7C0F3E9 PUSH1 0xC0 SHL PUSH2 0x28EE JUMP JUMPDEST CALLER PUSH20 0xFFFFFFFFFFFFFFFFFFFFFFFFFFFFFFFFFFFFFFFF AND DUP2 PUSH1 0x20 ADD MLOAD PUSH20 0xFFFFFFFFFFFFFFFFFFFFFFFFFFFFFFFFFFFFFFFF AND EQ ISZERO DUP1 ISZERO PUSH2 0x12E4 JUMPI POP PUSH1 0x0 DUP1 SLOAD SWAP1 PUSH2 0x100 EXP SWAP1 DIV PUSH20 0xFFFFFFFFFFFFFFFFFFFFFFFFFFFFFFFFFFFFFFFF AND PUSH20 0xFFFFFFFFFFFFFFFFFFFFFFFFFFFFFFFFFFFFFFFF AND CALLER PUSH20 0xFFFFFFFFFFFFFFFFFFFFFFFFFFFFFFFFFFFFFFFF AND EQ ISZERO JUMPDEST ISZERO PUSH2 0x1343 JUMPI PUSH2 0x12FD PUSH8 0x3DA8EB50C5965F24 PUSH1 0xC0 SHL PUSH2 0x28EE JUMP JUMPDEST PUSH2 0x1311 PUSH8 0xEA6C141A9EC09EEE PUSH1 0xC0 SHL PUSH2 0x28EE JUMP JUMPDEST PUSH1 0x40 MLOAD PUSH32 0x492AAB8600000000000000000000000000000000000000000000000000000000 DUP2 MSTORE PUSH1 0x4 ADD PUSH1 0x40 MLOAD DUP1 SWAP2 SUB SWAP1 REVERT JUMPDEST PUSH2 0x1357 PUSH8 0x1B8D04D6AA36DAE7 PUSH1 0xC0 SHL PUSH2 0x28EE JUMP JUMPDEST PUSH2 0x136B PUSH8 0x4F1337C4080BA2BD PUSH1 0xC0 SHL PUSH2 0x28EE JUMP JUMPDEST DUP1 PUSH1 0x20 ADD MLOAD PUSH20 0xFFFFFFFFFFFFFFFFFFFFFFFFFFFFFFFFFFFFFFFF AND CALLER PUSH20 0xFFFFFFFFFFFFFFFFFFFFFFFFFFFFFFFFFFFFFFFF AND EQ DUP1 ISZERO PUSH2 0x13D1 JUMPI POP PUSH1 0x3 DUP1 DUP2 GT ISZERO PUSH2 0x13B8 JUMPI PUSH2 0x13B7 PUSH2 0x2A24 JUMP JUMPDEST JUMPDEST DUP2 PUSH1 0xC0 ADD MLOAD PUSH1 0x3 DUP2 GT ISZERO PUSH2 0x13CF JUMPI PUSH2 0x13CE PUSH2 0x2A24 JUMP JUMPDEST JUMPDEST EQ JUMPDEST ISZERO PUSH2 0x1430 JUMPI PUSH2 0x13EA PUSH8 0x797479D6D3AB7811 PUSH1 0xC0 SHL PUSH2 0x28EE JUMP JUMPDEST PUSH2 0x13FE PUSH8 0x9967075CE7C0ED2D PUSH1 0xC0 SHL PUSH2 0x28EE JUMP JUMPDEST PUSH1 0x40 MLOAD PUSH32 0x26B095E100000000000000000000000000000000000000000000000000000000 DUP2 MSTORE PUSH1 0x4 ADD PUSH1 0x40 MLOAD DUP1 SWAP2 SUB SWAP1 REVERT JUMPDEST PUSH2 0x1444 PUSH8 0x10487BA0B33925A9 PUSH1 0xC0 SHL PUSH2 0x28EE JUMP JUMPDEST JUMPDEST PUSH2 0x1459 PUSH8 0x1416EC0410B1A7D4 PUSH1 0xC0 SHL PUSH2 0x28EE JUMP JUMPDEST PUSH2 0x146D PUSH8 0x2E08703D3E28FFA2 PUSH1 0xC0 SHL PUSH2 0x28EE JUMP JUMPDEST PUSH2 0x1481 PUSH8 0x88916614DDB5604A PUSH1 0xC0 SHL PUSH2 0x28EE JUMP JUMPDEST PUSH2 0x1495 PUSH8 0x56289FCA248217C1 PUSH1 0xC0 SHL PUSH2 0x28EE JUMP JUMPDEST PUSH2 0x14A9 PUSH8 0x74A52728903EBC68 PUSH1 0xC0 SHL PUSH2 0x28EE JUMP JUMPDEST PUSH1 0x0 PUSH1 0x4 PUSH1 0x0 DUP8 DUP2 MSTORE PUSH1 0x20 ADD SWAP1 DUP2 MSTORE PUSH1 0x20 ADD PUSH1 0x0 KECCAK256 SWAP1 POP PUSH2 0x14D4 PUSH8 0x7BD10DE6A7CABF1E PUSH1 0xC0 SHL PUSH2 0x28EE JUMP JUMPDEST PUSH1 0x1 DUP2 PUSH1 0x6 ADD PUSH1 0x0 PUSH2 0x100 EXP DUP2 SLOAD DUP2 PUSH1 0xFF MUL NOT AND SWAP1 DUP4 PUSH1 0x3 DUP2 GT ISZERO PUSH2 0x14FC JUMPI PUSH2 0x14FB PUSH2 0x2A24 JUMP JUMPDEST JUMPDEST MUL OR SWAP1 SSTORE POP PUSH2 0x1515 PUSH8 0xECA099B30BEED68B PUSH1 0xC0 SHL PUSH2 0x28EE JUMP JUMPDEST PUSH2 0x1529 PUSH8 0x6B42D809763E0CB5 PUSH1 0xC0 SHL PUSH2 0x28EE JUMP JUMPDEST PUSH1 0x0 DUP2 PUSH1 0x0 ADD PUSH1 0x0 SWAP1 SLOAD SWAP1 PUSH2 0x100 EXP SWAP1 DIV PUSH20 0xFFFFFFFFFFFFFFFFFFFFFFFFFFFFFFFFFFFFFFFF AND PUSH20 0xFFFFFFFFFFFFFFFFFFFFFFFFFFFFFFFFFFFFFFFF AND DUP3 PUSH1 0x3 ADD SLOAD PUSH1 0x40 MLOAD PUSH2 0x1577 SWAP1 PUSH2 0x2DA7 JUMP JUMPDEST PUSH1 0x0 PUSH1 0x40 MLOAD DUP1 DUP4 SUB DUP2 DUP6 DUP8 GAS CALL SWAP3 POP POP POP RETURNDATASIZE DUP1 PUSH1 0x0 DUP2 EQ PUSH2 0x15B4 JUMPI PUSH1 0x40 MLOAD SWAP2 POP PUSH1 0x1F NOT PUSH1 0x3F RETURNDATASIZE ADD AND DUP3 ADD PUSH1 0x40 MSTORE RETURNDATASIZE DUP3 MSTORE RETURNDATASIZE PUSH1 0x0 PUSH1 0x20 DUP5 ADD RETURNDATACOPY PUSH2 0x15B9 JUMP JUMPDEST PUSH1 0x60 SWAP2 POP JUMPDEST POP POP SWAP1 POP PUSH2 0x15D1 PUSH8 0x72F4C21739EEDC9F PUSH1 0xC0 SHL PUSH2 0x28EE JUMP JUMPDEST PUSH2 0x15E5 PUSH8 0x6B52D77BCC5684F1 PUSH1 0xC0 SHL PUSH2 0x28EE JUMP JUMPDEST DUP1 PUSH2 0x1644 JUMPI PUSH2 0x15FE PUSH8 0xA0CD571F8E1D9E0A PUSH1 0xC0 SHL PUSH2 0x28EE JUMP JUMPDEST PUSH2 0x1612 PUSH8 0x15211B0B91D88CB4 PUSH1 0xC0 SHL PUSH2 0x28EE JUMP JUMPDEST PUSH1 0x40 MLOAD PUSH32 0x4ABCF95000000000000000000000000000000000000000000000000000000000 DUP2 MSTORE PUSH1 0x4 ADD PUSH1 0x40 MLOAD DUP1 SWAP2 SUB SWAP1 REVERT JUMPDEST PUSH2 0x1658 PUSH8 0xBEFC3620270FF0F2 PUSH1 0xC0 SHL PUSH2 0x28EE JUMP JUMPDEST PUSH2 0x166C PUSH8 0x3BE2368DA88B39F9 PUSH1 0xC0 SHL PUSH2 0x28EE JUMP JUMPDEST PUSH2 0x1680 PUSH8 0x1D10082A2AC305CA PUSH1 0xC0 SHL PUSH2 0x28EE JUMP JUMPDEST DUP7 PUSH32 0xD7C4EDED732389526228283D2661CA619ED8096FFFCA8C0F0C3A6E2A7F4C449D PUSH1 0x40 MLOAD PUSH1 0x40 MLOAD DUP1 SWAP2 SUB SWAP1 LOG2 POP POP POP POP POP POP POP JUMP JUMPDEST PUSH2 0x16BE PUSH2 0x28F1 JUMP JUMPDEST PUSH2 0x16D2 PUSH8 0x178B41E7B125903A PUSH1 0xC0 SHL PUSH2 0x28EE JUMP JUMPDEST PUSH2 0x16E6 PUSH8 0xE9AA0B4E15742868 PUSH1 0xC0 SHL PUSH2 0x28EE JUMP JUMPDEST PUSH2 0x16FA PUSH8 0xB7B337024C635DA4 PUSH1 0xC0 SHL PUSH2 0x28EE JUMP JUMPDEST PUSH1 0x0 PUSH20 0xFFFFFFFFFFFFFFFFFFFFFFFFFFFFFFFFFFFFFFFF AND PUSH1 0x4 PUSH1 0x0 DUP5 DUP2 MSTORE PUSH1 0x20 ADD SWAP1 DUP2 MSTORE PUSH1 0x20 ADD PUSH1 0x0 KECCAK256 PUSH1 0x0 ADD PUSH1 0x0 SWAP1 SLOAD SWAP1 PUSH2 0x100 EXP SWAP1 DIV PUSH20 0xFFFFFFFFFFFFFFFFFFFFFFFFFFFFFFFFFFFFFFFF AND PUSH20 0xFFFFFFFFFFFFFFFFFFFFFFFFFFFFFFFFFFFFFFFF AND SUB PUSH2 0x17BE JUMPI PUSH2 0x1778 PUSH8 0x62EFDA05F818890 PUSH1 0xC0 SHL PUSH2 0x28EE JUMP JUMPDEST PUSH2 0x178C PUSH8 0x628DFFC3FAB2DDF4 PUSH1 0xC0 SHL PUSH2 0x28EE JUMP JUMPDEST PUSH1 0x40 MLOAD PUSH32 0x56421A5700000000000000000000000000000000000000000000000000000000 DUP2 MSTORE PUSH1 0x4 ADD PUSH1 0x40 MLOAD DUP1 SWAP2 SUB SWAP1 REVERT JUMPDEST PUSH2 0x17D2 PUSH8 0xF9165BFFD114AF6B PUSH1 0xC0 SHL PUSH2 0x28EE JUMP JUMPDEST PUSH2 0x17E6 PUSH8 0x782CFC5A013337C9 PUSH1 0xC0 SHL PUSH2 0x28EE JUMP JUMPDEST PUSH2 0x17FA PUSH8 0xC1839B46B22F3B63 PUSH1 0xC0 SHL PUSH2 0x28EE JUMP JUMPDEST PUSH1 0x4 PUSH1 0x0 DUP4 DUP2 MSTORE PUSH1 0x20 ADD SWAP1 DUP2 MSTORE PUSH1 0x20 ADD PUSH1 0x0 KECCAK256 PUSH1 0x40 MLOAD DUP1 PUSH1 0xE0 ADD PUSH1 0x40 MSTORE SWAP1 DUP2 PUSH1 0x0 DUP3 ADD PUSH1 0x0 SWAP1 SLOAD SWAP1 PUSH2 0x100 EXP SWAP1 DIV PUSH20 0xFFFFFFFFFFFFFFFFFFFFFFFFFFFFFFFFFFFFFFFF AND PUSH20 0xFFFFFFFFFFFFFFFFFFFFFFFFFFFFFFFFFFFFFFFF AND PUSH20 0xFFFFFFFFFFFFFFFFFFFFFFFFFFFFFFFFFFFFFFFF AND DUP2 MSTORE PUSH1 0x20 ADD PUSH1 0x1 DUP3 ADD PUSH1 0x0 SWAP1 SLOAD SWAP1 PUSH2 0x100 EXP SWAP1 DIV PUSH20 0xFFFFFFFFFFFFFFFFFFFFFFFFFFFFFFFFFFFFFFFF AND PUSH20 0xFFFFFFFFFFFFFFFFFFFFFFFFFFFFFFFFFFFFFFFF AND PUSH20 0xFFFFFFFFFFFFFFFFFFFFFFFFFFFFFFFFFFFFFFFF AND DUP2 MSTORE PUSH1 0x20 ADD PUSH1 0x2 DUP3 ADD SLOAD DUP2 MSTORE PUSH1 0x20 ADD PUSH1 0x3 DUP3 ADD SLOAD DUP2 MSTORE PUSH1 0x20 ADD PUSH1 0x4 DUP3 ADD SLOAD DUP2 MSTORE PUSH1 0x20 ADD PUSH1 0x5 DUP3 ADD SLOAD DUP2 MSTORE PUSH1 0x20 ADD PUSH1 0x6 DUP3 ADD PUSH1 0x0 SWAP1 SLOAD SWAP1 PUSH2 0x100 EXP SWAP1 DIV PUSH1 0xFF AND PUSH1 0x3 DUP2 GT ISZERO PUSH2 0x1911 JUMPI PUSH2 0x1910 PUSH2 0x2A24 JUMP JUMPDEST JUMPDEST PUSH1 0x3 DUP2 GT ISZERO PUSH2 0x1923 JUMPI PUSH2 0x1922 PUSH2 0x2A24 JUMP JUMPDEST JUMPDEST DUP2 MSTORE POP POP SWAP1 POP SWAP2 SWAP1 POP JUMP JUMPDEST PUSH1 0x60 PUSH2 0x1944 PUSH8 0x5630E77E0F7A210D PUSH1 0xC0 SHL PUSH2 0x28EE JUMP JUMPDEST PUSH2 0x1958 PUSH8 0x548EAF65CF625602 PUSH1 0xC0 SHL PUSH2 0x28EE JUMP JUMPDEST PUSH2 0x196C PUSH8 0x1B8B13407C0938AE PUSH1 0xC0 SHL PUSH2 0x28EE JUMP JUMPDEST PUSH1 0x0 PUSH1 0x3 PUSH1 0x0 CALLER PUSH20 0xFFFFFFFFFFFFFFFFFFFFFFFFFFFFFFFFFFFFFFFF AND PUSH20 0xFFFFFFFFFFFFFFFFFFFFFFFFFFFFFFFFFFFFFFFF AND DUP2 MSTORE PUSH1 0x20 ADD SWAP1 DUP2 MSTORE PUSH1 0x20 ADD PUSH1 0x0 KECCAK256 DUP1 SLOAD DUP1 PUSH1 0x20 MUL PUSH1 0x20 ADD PUSH1 0x40 MLOAD SWAP1 DUP2 ADD PUSH1 0x40 MSTORE DUP1 SWAP3 SWAP2 SWAP1 DUP2 DUP2 MSTORE PUSH1 0x20 ADD PUSH1 0x0 SWAP1 JUMPDEST DUP3 DUP3 LT ISZERO PUSH2 0x1B0E JUMPI DUP4 DUP3 SWAP1 PUSH1 0x0 MSTORE PUSH1 0x20 PUSH1 0x0 KECCAK256 SWAP1 PUSH1 0x7 MUL ADD PUSH1 0x40 MLOAD DUP1 PUSH1 0xE0 ADD PUSH1 0x40 MSTORE SWAP1 DUP2 PUSH1 0x0 DUP3 ADD PUSH1 0x0 SWAP1 SLOAD SWAP1 PUSH2 0x100 EXP SWAP1 DIV PUSH20 0xFFFFFFFFFFFFFFFFFFFFFFFFFFFFFFFFFFFFFFFF AND PUSH20 0xFFFFFFFFFFFFFFFFFFFFFFFFFFFFFFFFFFFFFFFF AND PUSH20 0xFFFFFFFFFFFFFFFFFFFFFFFFFFFFFFFFFFFFFFFF AND DUP2 MSTORE PUSH1 0x20 ADD PUSH1 0x1 DUP3 ADD PUSH1 0x0 SWAP1 SLOAD SWAP1 PUSH2 0x100 EXP SWAP1 DIV PUSH20 0xFFFFFFFFFFFFFFFFFFFFFFFFFFFFFFFFFFFFFFFF AND PUSH20 0xFFFFFFFFFFFFFFFFFFFFFFFFFFFFFFFFFFFFFFFF AND PUSH20 0xFFFFFFFFFFFFFFFFFFFFFFFFFFFFFFFFFFFFFFFF AND DUP2 MSTORE PUSH1 0x20 ADD PUSH1 0x2 DUP3 ADD SLOAD DUP2 MSTORE PUSH1 0x20 ADD PUSH1 0x3 DUP3 ADD SLOAD DUP2 MSTORE PUSH1 0x20 ADD PUSH1 0x4 DUP3 ADD SLOAD DUP2 MSTORE PUSH1 0x20 ADD PUSH1 0x5 DUP3 ADD SLOAD DUP2 MSTORE PUSH1 0x20 ADD PUSH1 0x6 DUP3 ADD PUSH1 0x0 SWAP1 SLOAD SWAP1 PUSH2 0x100 EXP SWAP1 DIV PUSH1 0xFF AND PUSH1 0x3 DUP2 GT ISZERO PUSH2 0x1AE9 JUMPI PUSH2 0x1AE8 PUSH2 0x2A24 JUMP JUMPDEST JUMPDEST PUSH1 0x3 DUP2 GT ISZERO PUSH2 0x1AFB JUMPI PUSH2 0x1AFA PUSH2 0x2A24 JUMP JUMPDEST JUMPDEST DUP2 MSTORE POP POP DUP2 MSTORE PUSH1 0x20 ADD SWAP1 PUSH1 0x1 ADD SWAP1 PUSH2 0x19CD JUMP JUMPDEST POP POP POP POP SWAP1 POP PUSH2 0x1B28 PUSH8 0x94793333FE2F079D PUSH1 0xC0 SHL PUSH2 0x28EE JUMP JUMPDEST PUSH2 0x1B3C PUSH8 0x772E1BF2BA854AEF PUSH1 0xC0 SHL PUSH2 0x28EE JUMP JUMPDEST DUP1 SWAP2 POP POP SWAP1 JUMP JUMPDEST PUSH1 0x0 PUSH2 0x1B59 PUSH8 0x7D7411A39E1149C3 PUSH1 0xC0 SHL PUSH2 0x28EE JUMP JUMPDEST PUSH2 0x1B6D PUSH8 0xCF05526369195360 PUSH1 0xC0 SHL PUSH2 0x28EE JUMP JUMPDEST PUSH2 0x1B81 PUSH8 0xF4DF7BAC6551B71F PUSH1 0xC0 SHL PUSH2 0x28EE JUMP JUMPDEST PUSH1 0x0 DUP1 SLOAD SWAP1 PUSH2 0x100 EXP SWAP1 DIV PUSH20 0xFFFFFFFFFFFFFFFFFFFFFFFFFFFFFFFFFFFFFFFF AND SWAP1 POP SWAP1 JUMP JUMPDEST PUSH1 0x0 PUSH2 0x1BBD PUSH8 0x68C626DCDD1CEE04 PUSH1 0xC0 SHL PUSH2 0x28EE JUMP JUMPDEST PUSH2 0x1BD1 PUSH8 0x8DBABE6E49B8378 PUSH1 0xC0 SHL PUSH2 0x28EE JUMP JUMPDEST PUSH2 0x1BE5 PUSH8 0x8D2FFA62DA82F613 PUSH1 0xC0 SHL PUSH2 0x28EE JUMP JUMPDEST PUSH32 0x0 SWAP1 POP SWAP1 JUMP JUMPDEST PUSH2 0x1C1F PUSH8 0xA7269D2CB5D0C5FB PUSH1 0xC0 SHL PUSH2 0x28EE JUMP JUMPDEST DUP1 PUSH2 0x1C34 PUSH8 0x81048211811FAB5 PUSH1 0xC0 SHL PUSH2 0x28EE JUMP JUMPDEST PUSH2 0x1C48 PUSH8 0x58C8FEA77F50A141 PUSH1 0xC0 SHL PUSH2 0x28EE JUMP JUMPDEST PUSH2 0x1C5C PUSH8 0xFCDDB68F9C9CC26D PUSH1 0xC0 SHL PUSH2 0x28EE JUMP JUMPDEST PUSH1 0x0 PUSH1 0x4 PUSH1 0x0 DUP4 DUP2 MSTORE PUSH1 0x20 ADD SWAP1 DUP2 MSTORE PUSH1 0x20 ADD PUSH1 0x0 KECCAK256 PUSH1 0x40 MLOAD DUP1 PUSH1 0xE0 ADD PUSH1 0x40 MSTORE SWAP1 DUP2 PUSH1 0x0 DUP3 ADD PUSH1 0x0 SWAP1 SLOAD SWAP1 PUSH2 0x100 EXP SWAP1 DIV PUSH20 0xFFFFFFFFFFFFFFFFFFFFFFFFFFFFFFFFFFFFFFFF AND PUSH20 0xFFFFFFFFFFFFFFFFFFFFFFFFFFFFFFFFFFFFFFFF AND PUSH20 0xFFFFFFFFFFFFFFFFFFFFFFFFFFFFFFFFFFFFFFFF AND DUP2 MSTORE PUSH1 0x20 ADD PUSH1 0x1 DUP3 ADD PUSH1 0x0 SWAP1 SLOAD SWAP1 PUSH2 0x100 EXP SWAP1 DIV PUSH20 0xFFFFFFFFFFFFFFFFFFFFFFFFFFFFFFFFFFFFFFFF AND PUSH20 0xFFFFFFFFFFFFFFFFFFFFFFFFFFFFFFFFFFFFFFFF AND PUSH20 0xFFFFFFFFFFFFFFFFFFFFFFFFFFFFFFFFFFFFFFFF AND DUP2 MSTORE PUSH1 0x20 ADD PUSH1 0x2 DUP3 ADD SLOAD DUP2 MSTORE PUSH1 0x20 ADD PUSH1 0x3 DUP3 ADD SLOAD DUP2 MSTORE PUSH1 0x20 ADD PUSH1 0x4 DUP3 ADD SLOAD DUP2 MSTORE PUSH1 0x20 ADD PUSH1 0x5 DUP3 ADD SLOAD DUP2 MSTORE PUSH1 0x20 ADD PUSH1 0x6 DUP3 ADD PUSH1 0x0 SWAP1 SLOAD SWAP1 PUSH2 0x100 EXP SWAP1 DIV PUSH1 0xFF AND PUSH1 0x3 DUP2 GT ISZERO PUSH2 0x1D75 JUMPI PUSH2 0x1D74 PUSH2 0x2A24 JUMP JUMPDEST JUMPDEST PUSH1 0x3 DUP2 GT ISZERO PUSH2 0x1D87 JUMPI PUSH2 0x1D86 PUSH2 0x2A24 JUMP JUMPDEST JUMPDEST DUP2 MSTORE POP POP SWAP1 POP PUSH2 0x1DA1 PUSH8 0xEF3F468ECA27F67E PUSH1 0xC0 SHL PUSH2 0x28EE JUMP JUMPDEST PUSH2 0x1DB5 PUSH8 0xF145D9F0B5B9EEA0 PUSH1 0xC0 SHL PUSH2 0x28EE JUMP JUMPDEST DUP1 PUSH1 0x0 ADD MLOAD PUSH20 0xFFFFFFFFFFFFFFFFFFFFFFFFFFFFFFFFFFFFFFFF AND CALLER PUSH20 0xFFFFFFFFFFFFFFFFFFFFFFFFFFFFFFFFFFFFFFFF AND EQ ISZERO DUP1 ISZERO PUSH2 0x1E25 JUMPI POP DUP1 PUSH1 0x20 ADD MLOAD PUSH20 0xFFFFFFFFFFFFFFFFFFFFFFFFFFFFFFFFFFFFFFFF AND CALLER PUSH20 0xFFFFFFFFFFFFFFFFFFFFFFFFFFFFFFFFFFFFFFFF AND EQ ISZERO JUMPDEST ISZERO PUSH2 0x1E84 JUMPI PUSH2 0x1E3E PUSH8 0x7FC0F059CBB77022 PUSH1 0xC0 SHL PUSH2 0x28EE JUMP JUMPDEST PUSH2 0x1E52 PUSH8 0x746F2BDD3EB0FD9C PUSH1 0xC0 SHL PUSH2 0x28EE JUMP JUMPDEST PUSH1 0x40 MLOAD PUSH32 0x96B88C5100000000000000000000000000000000000000000000000000000000 DUP2 MSTORE PUSH1 0x4 ADD PUSH1 0x40 MLOAD DUP1 SWAP2 SUB SWAP1 REVERT JUMPDEST PUSH2 0x1E98 PUSH8 0xC88B3F2A7594271D PUSH1 0xC0 SHL PUSH2 0x28EE JUMP JUMPDEST PUSH2 0x1EAC PUSH8 0x47D00B45B5D7C4B0 PUSH1 0xC0 SHL PUSH2 0x28EE JUMP JUMPDEST PUSH2 0x1EC0 PUSH8 0x507F9DFBB59CD9F3 PUSH1 0xC0 SHL PUSH2 0x28EE JUMP JUMPDEST PUSH2 0x1ED4 PUSH8 0x10C326611E268A91 PUSH1 0xC0 SHL PUSH2 0x28EE JUMP JUMPDEST PUSH2 0x1EE8 PUSH8 0x265199FB51B21EF3 PUSH1 0xC0 SHL PUSH2 0x28EE JUMP JUMPDEST PUSH2 0x1EFC PUSH8 0x803583427C68B035 PUSH1 0xC0 SHL PUSH2 0x28EE JUMP JUMPDEST PUSH1 0x0 PUSH1 0x4 PUSH1 0x0 DUP6 DUP2 MSTORE PUSH1 0x20 ADD SWAP1 DUP2 MSTORE PUSH1 0x20 ADD PUSH1 0x0 KECCAK256 SWAP1 POP PUSH2 0x1F27 PUSH8 0x55A5679AF8142168 PUSH1 0xC0 SHL PUSH2 0x28EE JUMP JUMPDEST PUSH2 0x1F3B PUSH8 0x670A39492E2FBEC5 PUSH1 0xC0 SHL PUSH2 0x28EE JUMP JUMPDEST PUSH1 0x0 PUSH1 0x3 DUP2 GT ISZERO PUSH2 0x1F4F JUMPI PUSH2 0x1F4E PUSH2 0x2A24 JUMP JUMPDEST JUMPDEST DUP2 PUSH1 0x6 ADD PUSH1 0x0 SWAP1 SLOAD SWAP1 PUSH2 0x100 EXP SWAP1 DIV PUSH1 0xFF AND PUSH1 0x3 DUP2 GT ISZERO PUSH2 0x1F73 JUMPI PUSH2 0x1F72 PUSH2 0x2A24 JUMP JUMPDEST JUMPDEST EQ PUSH2 0x1FD2 JUMPI PUSH2 0x1F8C PUSH8 0x8D4872AF48D7AF17 PUSH1 0xC0 SHL PUSH2 0x28EE JUMP JUMPDEST PUSH2 0x1FA0 PUSH8 0xF321C11113CE73B2 PUSH1 0xC0 SHL PUSH2 0x28EE JUMP JUMPDEST PUSH1 0x40 MLOAD PUSH32 0xF609F42000000000000000000000000000000000000000000000000000000000 DUP2 MSTORE PUSH1 0x4 ADD PUSH1 0x40 MLOAD DUP1 SWAP2 SUB SWAP1 REVERT JUMPDEST PUSH2 0x1FE6 PUSH8 0xEAF59CE00D33CF9E PUSH1 0xC0 SHL PUSH2 0x28EE JUMP JUMPDEST PUSH2 0x1FFA PUSH8 0x289DF4C4FF94AC8A PUSH1 0xC0 SHL PUSH2 0x28EE JUMP JUMPDEST PUSH1 0x3 DUP2 PUSH1 0x6 ADD PUSH1 0x0 PUSH2 0x100 EXP DUP2 SLOAD DUP2 PUSH1 0xFF MUL NOT AND SWAP1 DUP4 PUSH1 0x3 DUP2 GT ISZERO PUSH2 0x2022 JUMPI PUSH2 0x2021 PUSH2 0x2A24 JUMP JUMPDEST JUMPDEST MUL OR SWAP1 SSTORE POP PUSH2 0x203B PUSH8 0x4AC76F16116646B2 PUSH1 0xC0 SHL PUSH2 0x28EE JUMP JUMPDEST PUSH2 0x204F PUSH8 0x4EA2110C63157FDA PUSH1 0xC0 SHL PUSH2 0x28EE JUMP JUMPDEST DUP4 PUSH32 0x912A1E013DE32E96D992FC6C81600EB5480705BFABB226C0B69811ABF2B3ABAC PUSH1 0x40 MLOAD PUSH1 0x40 MLOAD DUP1 SWAP2 SUB SWAP1 LOG2 POP POP POP POP JUMP JUMPDEST PUSH1 0x0 PUSH2 0x2098 PUSH8 0xD5CBEC34601EB5DB PUSH1 0xC0 SHL PUSH2 0x28EE JUMP JUMPDEST PUSH2 0x20AC PUSH8 0xE16A17776E9EE94 PUSH1 0xC0 SHL PUSH2 0x28EE JUMP JUMPDEST PUSH2 0x20C0 PUSH8 0x6D8ADABDABB8E408 PUSH1 0xC0 SHL PUSH2 0x28EE JUMP JUMPDEST PUSH2 0x20D4 PUSH8 0x4B677F51E981752D PUSH1 0xC0 SHL PUSH2 0x28EE JUMP JUMPDEST PUSH32 0x0 PUSH20 0xFFFFFFFFFFFFFFFFFFFFFFFFFFFFFFFFFFFFFFFF AND CALLER PUSH20 0xFFFFFFFFFFFFFFFFFFFFFFFFFFFFFFFFFFFFFFFF AND EQ PUSH2 0x2181 JUMPI PUSH2 0x213B PUSH8 0xCC76FCBB1316D353 PUSH1 0xC0 SHL PUSH2 0x28EE JUMP JUMPDEST PUSH2 0x214F PUSH8 0x298044C1CAC2B2C3 PUSH1 0xC0 SHL PUSH2 0x28EE JUMP JUMPDEST PUSH1 0x40 MLOAD PUSH32 0xAB24DD7C00000000000000000000000000000000000000000000000000000000 DUP2 MSTORE PUSH1 0x4 ADD PUSH1 0x40 MLOAD DUP1 SWAP2 SUB SWAP1 REVERT JUMPDEST PUSH2 0x2195 PUSH8 0x480D1A4A154ABAEC PUSH1 0xC0 SHL PUSH2 0x28EE JUMP JUMPDEST PUSH2 0x21A9 PUSH8 0xFA91EAED2C59F76E PUSH1 0xC0 SHL PUSH2 0x28EE JUMP JUMPDEST PUSH2 0x21BD PUSH8 0x3C0C50C471587EE PUSH1 0xC0 SHL PUSH2 0x28EE JUMP JUMPDEST PUSH2 0x21D1 PUSH8 0x43F05359225E3F89 PUSH1 0xC0 SHL PUSH2 0x28EE JUMP JUMPDEST PUSH2 0x21E5 PUSH8 0x83BB511F2F4F471B PUSH1 0xC0 SHL PUSH2 0x28EE JUMP JUMPDEST PUSH2 0x21F9 PUSH8 0x3C515E0C4F04E208 PUSH1 0xC0 SHL PUSH2 0x28EE JUMP JUMPDEST PUSH1 0x0 PUSH1 0x40 MLOAD DUP1 PUSH1 0xE0 ADD PUSH1 0x40 MSTORE DUP1 DUP7 PUSH20 0xFFFFFFFFFFFFFFFFFFFFFFFFFFFFFFFFFFFFFFFF AND DUP2 MSTORE PUSH1 0x20 ADD DUP6 PUSH20 0xFFFFFFFFFFFFFFFFFFFFFFFFFFFFFFFFFFFFFFFF AND DUP2 MSTORE PUSH1 0x20 ADD DUP5 DUP2 MSTORE PUSH1 0x20 ADD CALLVALUE DUP2 MSTORE PUSH1 0x20 ADD TIMESTAMP DUP2 MSTORE PUSH1 0x20 ADD PUSH1 0x1 SLOAD DUP2 MSTORE PUSH1 0x20 ADD PUSH1 0x0 PUSH1 0x3 DUP2 GT ISZERO PUSH2 0x226C JUMPI PUSH2 0x226B PUSH2 0x2A24 JUMP JUMPDEST JUMPDEST DUP2 MSTORE POP SWAP1 POP PUSH2 0x2285 PUSH8 0x458B5498B6350414 PUSH1 0xC0 SHL PUSH2 0x28EE JUMP JUMPDEST PUSH2 0x2299 PUSH8 0xD053EB58535E341B PUSH1 0xC0 SHL PUSH2 0x28EE JUMP JUMPDEST PUSH1 0x2 PUSH1 0x0 DUP6 PUSH20 0xFFFFFFFFFFFFFFFFFFFFFFFFFFFFFFFFFFFFFFFF AND PUSH20 0xFFFFFFFFFFFFFFFFFFFFFFFFFFFFFFFFFFFFFFFF AND DUP2 MSTORE PUSH1 0x20 ADD SWAP1 DUP2 MSTORE PUSH1 0x20 ADD PUSH1 0x0 KECCAK256 DUP2 SWAP1 DUP1 PUSH1 0x1 DUP2 SLOAD ADD DUP1 DUP3 SSTORE DUP1 SWAP2 POP POP PUSH1 0x1 SWAP1 SUB SWAP1 PUSH1 0x0 MSTORE PUSH1 0x20 PUSH1 0x0 KECCAK256 SWAP1 PUSH1 0x7 MUL ADD PUSH1 0x0 SWAP1 SWAP2 SWAP1 SWAP2 SWAP1 SWAP2 POP PUSH1 0x0 DUP3 ADD MLOAD DUP2 PUSH1 0x0 ADD PUSH1 0x0 PUSH2 0x100 EXP DUP2 SLOAD DUP2 PUSH20 0xFFFFFFFFFFFFFFFFFFFFFFFFFFFFFFFFFFFFFFFF MUL NOT AND SWAP1 DUP4 PUSH20 0xFFFFFFFFFFFFFFFFFFFFFFFFFFFFFFFFFFFFFFFF AND MUL OR SWAP1 SSTORE POP PUSH1 0x20 DUP3 ADD MLOAD DUP2 PUSH1 0x1 ADD PUSH1 0x0 PUSH2 0x100 EXP DUP2 SLOAD DUP2 PUSH20 0xFFFFFFFFFFFFFFFFFFFFFFFFFFFFFFFFFFFFFFFF MUL NOT AND SWAP1 DUP4 PUSH20 0xFFFFFFFFFFFFFFFFFFFFFFFFFFFFFFFFFFFFFFFF AND MUL OR SWAP1 SSTORE POP PUSH1 0x40 DUP3 ADD MLOAD DUP2 PUSH1 0x2 ADD SSTORE PUSH1 0x60 DUP3 ADD MLOAD DUP2 PUSH1 0x3 ADD SSTORE PUSH1 0x80 DUP3 ADD MLOAD DUP2 PUSH1 0x4 ADD SSTORE PUSH1 0xA0 DUP3 ADD MLOAD DUP2 PUSH1 0x5 ADD SSTORE PUSH1 0xC0 DUP3 ADD MLOAD DUP2 PUSH1 0x6 ADD PUSH1 0x0 PUSH2 0x100 EXP DUP2 SLOAD DUP2 PUSH1 0xFF MUL NOT AND SWAP1 DUP4 PUSH1 0x3 DUP2 GT ISZERO PUSH2 0x23E3 JUMPI PUSH2 0x23E2 PUSH2 0x2A24 JUMP JUMPDEST JUMPDEST MUL OR SWAP1 SSTORE POP POP POP PUSH2 0x23FE PUSH8 0x8EF53031548EA112 PUSH1 0xC0 SHL PUSH2 0x28EE JUMP JUMPDEST PUSH2 0x2412 PUSH8 0xF64DA947F2A60555 PUSH1 0xC0 SHL PUSH2 0x28EE JUMP JUMPDEST PUSH1 0x3 PUSH1 0x0 DUP7 PUSH20 0xFFFFFFFFFFFFFFFFFFFFFFFFFFFFFFFFFFFFFFFF AND PUSH20 0xFFFFFFFFFFFFFFFFFFFFFFFFFFFFFFFFFFFFFFFF AND DUP2 MSTORE PUSH1 0x20 ADD SWAP1 DUP2 MSTORE PUSH1 0x20 ADD PUSH1 0x0 KECCAK256 DUP2 SWAP1 DUP1 PUSH1 0x1 DUP2 SLOAD ADD DUP1 DUP3 SSTORE DUP1 SWAP2 POP POP PUSH1 0x1 SWAP1 SUB SWAP1 PUSH1 0x0 MSTORE PUSH1 0x20 PUSH1 0x0 KECCAK256 SWAP1 PUSH1 0x7 MUL ADD PUSH1 0x0 SWAP1 SWAP2 SWAP1 SWAP2 SWAP1 SWAP2 POP PUSH1 0x0 DUP3 ADD MLOAD DUP2 PUSH1 0x0 ADD PUSH1 0x0 PUSH2 0x100 EXP DUP2 SLOAD DUP2 PUSH20 0xFFFFFFFFFFFFFFFFFFFFFFFFFFFFFFFFFFFFFFFF MUL NOT AND SWAP1 DUP4 PUSH20 0xFFFFFFFFFFFFFFFFFFFFFFFFFFFFFFFFFFFFFFFF AND MUL OR SWAP1 SSTORE POP PUSH1 0x20 DUP3 ADD MLOAD DUP2 PUSH1 0x1 ADD PUSH1 0x0 PUSH2 0x100 EXP DUP2 SLOAD DUP2 PUSH20 0xFFFFFFFFFFFFFFFFFFFFFFFFFFFFFFFFFFFFFFFF MUL NOT AND SWAP1 DUP4 PUSH20 0xFFFFFFFFFFFFFFFFFFFFFFFFFFFFFFFFFFFFFFFF AND MUL OR SWAP1 SSTORE POP PUSH1 0x40 DUP3 ADD MLOAD DUP2 PUSH1 0x2 ADD SSTORE PUSH1 0x60 DUP3 ADD MLOAD DUP2 PUSH1 0x3 ADD SSTORE PUSH1 0x80 DUP3 ADD MLOAD DUP2 PUSH1 0x4 ADD SSTORE PUSH1 0xA0 DUP3 ADD MLOAD DUP2 PUSH1 0x5 ADD SSTORE PUSH1 0xC0 DUP3 ADD MLOAD DUP2 PUSH1 0x6 ADD PUSH1 0x0 PUSH2 0x100 EXP DUP2 SLOAD DUP2 PUSH1 0xFF MUL NOT AND SWAP1 DUP4 PUSH1 0x3 DUP2 GT ISZERO PUSH2 0x255C JUMPI PUSH2 0x255B PUSH2 0x2A24 JUMP JUMPDEST JUMPDEST MUL OR SWAP1 SSTORE POP POP POP PUSH2 0x2577 PUSH8 0x4B43E0EBD8B8ED49 PUSH1 0xC0 SHL PUSH2 0x28EE JUMP JUMPDEST DUP1 PUSH1 0x4 PUSH1 0x0 PUSH1 0x1 SLOAD DUP2 MSTORE PUSH1 0x20 ADD SWAP1 DUP2 MSTORE PUSH1 0x20 ADD PUSH1 0x0 KECCAK256 PUSH1 0x0 DUP3 ADD MLOAD DUP2 PUSH1 0x0 ADD PUSH1 0x0 PUSH2 0x100 EXP DUP2 SLOAD DUP2 PUSH20 0xFFFFFFFFFFFFFFFFFFFFFFFFFFFFFFFFFFFFFFFF MUL NOT AND SWAP1 DUP4 PUSH20 0xFFFFFFFFFFFFFFFFFFFFFFFFFFFFFFFFFFFFFFFF AND MUL OR SWAP1 SSTORE POP PUSH1 0x20 DUP3 ADD MLOAD DUP2 PUSH1 0x1 ADD PUSH1 0x0 PUSH2 0x100 EXP DUP2 SLOAD DUP2 PUSH20 0xFFFFFFFFFFFFFFFFFFFFFFFFFFFFFFFFFFFFFFFF MUL NOT AND SWAP1 DUP4 PUSH20 0xFFFFFFFFFFFFFFFFFFFFFFFFFFFFFFFFFFFFFFFF AND MUL OR SWAP1 SSTORE POP PUSH1 0x40 DUP3 ADD MLOAD DUP2 PUSH1 0x2 ADD SSTORE PUSH1 0x60 DUP3 ADD MLOAD DUP2 PUSH1 0x3 ADD SSTORE PUSH1 0x80 DUP3 ADD MLOAD DUP2 PUSH1 0x4 ADD SSTORE PUSH1 0xA0 DUP3 ADD MLOAD DUP2 PUSH1 0x5 ADD SSTORE PUSH1 0xC0 DUP3 ADD MLOAD DUP2 PUSH1 0x6 ADD PUSH1 0x0 PUSH2 0x100 EXP DUP2 SLOAD DUP2 PUSH1 0xFF MUL NOT AND SWAP1 DUP4 PUSH1 0x3 DUP2 GT ISZERO PUSH2 0x266E JUMPI PUSH2 0x266D PUSH2 0x2A24 JUMP JUMPDEST JUMPDEST MUL OR SWAP1 SSTORE POP SWAP1 POP POP PUSH2 0x268A PUSH8 0xCD72C06404FB7568 PUSH1 0xC0 SHL PUSH2 0x28EE JUMP JUMPDEST PUSH1 0x1 PUSH1 0x0 DUP2 SLOAD DUP1 SWAP3 SWAP2 SWAP1 PUSH2 0x269D SWAP1 PUSH2 0x2E1F JUMP JUMPDEST SWAP2 SWAP1 POP SSTORE POP PUSH2 0x26B6 PUSH8 0xEB3CA56F604EEF8 PUSH1 0xC0 SHL PUSH2 0x28EE JUMP JUMPDEST PUSH2 0x26CA PUSH8 0x3326A407ADAC5325 PUSH1 0xC0 SHL PUSH2 0x28EE JUMP JUMPDEST DUP1 PUSH1 0xA0 ADD MLOAD SWAP2 POP POP SWAP4 SWAP3 POP POP POP JUMP JUMPDEST PUSH1 0x60 PUSH2 0x26EF PUSH8 0x5E1E19B581157E4 PUSH1 0xC0 SHL PUSH2 0x28EE JUMP JUMPDEST PUSH2 0x2703 PUSH8 0x9707F403254CDE5A PUSH1 0xC0 SHL PUSH2 0x28EE JUMP JUMPDEST PUSH2 0x2717 PUSH8 0xCEB693F2332168BD PUSH1 0xC0 SHL PUSH2 0x28EE JUMP JUMPDEST PUSH1 0x0 PUSH1 0x2 PUSH1 0x0 CALLER PUSH20 0xFFFFFFFFFFFFFFFFFFFFFFFFFFFFFFFFFFFFFFFF AND PUSH20 0xFFFFFFFFFFFFFFFFFFFFFFFFFFFFFFFFFFFFFFFF AND DUP2 MSTORE PUSH1 0x20 ADD SWAP1 DUP2 MSTORE PUSH1 0x20 ADD PUSH1 0x0 KECCAK256 DUP1 SLOAD DUP1 PUSH1 0x20 MUL PUSH1 0x20 ADD PUSH1 0x40 MLOAD SWAP1 DUP2 ADD PUSH1 0x40 MSTORE DUP1 SWAP3 SWAP2 SWAP1 DUP2 DUP2 MSTORE PUSH1 0x20 ADD PUSH1 0x0 SWAP1 JUMPDEST DUP3 DUP3 LT ISZERO PUSH2 0x28B9 JUMPI DUP4 DUP3 SWAP1 PUSH1 0x0 MSTORE PUSH1 0x20 PUSH1 0x0 KECCAK256 SWAP1 PUSH1 0x7 MUL ADD PUSH1 0x40 MLOAD DUP1 PUSH1 0xE0 ADD PUSH1 0x40 MSTORE SWAP1 DUP2 PUSH1 0x0 DUP3 ADD PUSH1 0x0 SWAP1 SLOAD SWAP1 PUSH2 0x100 EXP SWAP1 DIV PUSH20 0xFFFFFFFFFFFFFFFFFFFFFFFFFFFFFFFFFFFFFFFF AND PUSH20 0xFFFFFFFFFFFFFFFFFFFFFFFFFFFFFFFFFFFFFFFF AND PUSH20 0xFFFFFFFFFFFFFFFFFFFFFFFFFFFFFFFFFFFFFFFF AND DUP2 MSTORE PUSH1 0x20 ADD PUSH1 0x1 DUP3 ADD PUSH1 0x0 SWAP1 SLOAD SWAP1 PUSH2 0x100 EXP SWAP1 DIV PUSH20 0xFFFFFFFFFFFFFFFFFFFFFFFFFFFFFFFFFFFFFFFF AND PUSH20 0xFFFFFFFFFFFFFFFFFFFFFFFFFFFFFFFFFFFFFFFF AND PUSH20 0xFFFFFFFFFFFFFFFFFFFFFFFFFFFFFFFFFFFFFFFF AND DUP2 MSTORE PUSH1 0x20 ADD PUSH1 0x2 DUP3 ADD SLOAD DUP2 MSTORE PUSH1 0x20 ADD PUSH1 0x3 DUP3 ADD SLOAD DUP2 MSTORE PUSH1 0x20 ADD PUSH1 0x4 DUP3 ADD SLOAD DUP2 MSTORE PUSH1 0x20 ADD PUSH1 0x5 DUP3 ADD SLOAD DUP2 MSTORE PUSH1 0x20 ADD PUSH1 0x6 DUP3 ADD PUSH1 0x0 SWAP1 SLOAD SWAP1 PUSH2 0x100 EXP SWAP1 DIV PUSH1 0xFF AND PUSH1 0x3 DUP2 GT ISZERO PUSH2 0x2894 JUMPI PUSH2 0x2893 PUSH2 0x2A24 JUMP JUMPDEST JUMPDEST PUSH1 0x3 DUP2 GT ISZERO PUSH2 0x28A6 JUMPI PUSH2 0x28A5 PUSH2 0x2A24 JUMP JUMPDEST JUMPDEST DUP2 MSTORE POP POP DUP2 MSTORE PUSH1 0x20 ADD SWAP1 PUSH1 0x1 ADD SWAP1 PUSH2 0x2778 JUMP JUMPDEST POP POP POP POP SWAP1 POP PUSH2 0x28D3 PUSH8 0x21DFBE3FCCF4C451 PUSH1 0xC0 SHL PUSH2 0x28EE JUMP JUMPDEST PUSH2 0x28E7 PUSH8 0xC4F5D0024044ADCA PUSH1 0xC0 SHL PUSH2 0x28EE JUMP JUMPDEST DUP1 SWAP2 POP POP SWAP1 JUMP JUMPDEST POP JUMP JUMPDEST PUSH1 0x40 MLOAD DUP1 PUSH1 0xE0 ADD PUSH1 0x40 MSTORE DUP1 PUSH1 0x0 PUSH20 0xFFFFFFFFFFFFFFFFFFFFFFFFFFFFFFFFFFFFFFFF AND DUP2 MSTORE PUSH1 0x20 ADD PUSH1 0x0 PUSH20 0xFFFFFFFFFFFFFFFFFFFFFFFFFFFFFFFFFFFFFFFF AND DUP2 MSTORE PUSH1 0x20 ADD PUSH1 0x0 DUP2 MSTORE PUSH1 0x20 ADD PUSH1 0x0 DUP2 MSTORE PUSH1 0x20 ADD PUSH1 0x0 DUP2 MSTORE PUSH1 0x20 ADD PUSH1 0x0 DUP2 MSTORE PUSH1 0x20 ADD PUSH1 0x0 PUSH1 0x3 DUP2 GT ISZERO PUSH2 0x2966 JUMPI PUSH2 0x2965 PUSH2 0x2A24 JUMP JUMPDEST JUMPDEST DUP2 MSTORE POP SWAP1 JUMP JUMPDEST PUSH1 0x0 DUP1 REVERT JUMPDEST PUSH1 0x0 DUP2 SWAP1 POP SWAP2 SWAP1 POP JUMP JUMPDEST PUSH2 0x2984 DUP2 PUSH2 0x2971 JUMP JUMPDEST DUP2 EQ PUSH2 0x298F JUMPI PUSH1 0x0 DUP1 REVERT JUMPDEST POP JUMP JUMPDEST PUSH1 0x0 DUP2 CALLDATALOAD SWAP1 POP PUSH2 0x29A1 DUP2 PUSH2 0x297B JUMP JUMPDEST SWAP3 SWAP2 POP POP JUMP JUMPDEST PUSH1 0x0 PUSH1 0x20 DUP3 DUP5 SUB SLT ISZERO PUSH2 0x29BD JUMPI PUSH2 0x29BC PUSH2 0x296C JUMP JUMPDEST JUMPDEST PUSH1 0x0 PUSH2 0x29CB DUP5 DUP3 DUP6 ADD PUSH2 0x2992 JUMP JUMPDEST SWAP2 POP POP SWAP3 SWAP2 POP POP JUMP JUMPDEST PUSH1 0x0 PUSH20 0xFFFFFFFFFFFFFFFFFFFFFFFFFFFFFFFFFFFFFFFF DUP3 AND SWAP1 POP SWAP2 SWAP1 POP JUMP JUMPDEST PUSH1 0x0 PUSH2 0x29FF DUP3 PUSH2 0x29D4 JUMP JUMPDEST SWAP1 POP SWAP2 SWAP1 POP JUMP JUMPDEST PUSH2 0x2A0F DUP2 PUSH2 0x29F4 JUMP JUMPDEST DUP3 MSTORE POP POP JUMP JUMPDEST PUSH2 0x2A1E DUP2 PUSH2 0x2971 JUMP JUMPDEST DUP3 MSTORE POP POP JUMP JUMPDEST PUSH32 0x4E487B7100000000000000000000000000000000000000000000000000000000 PUSH1 0x0 MSTORE PUSH1 0x21 PUSH1 0x4 MSTORE PUSH1 0x24 PUSH1 0x0 REVERT JUMPDEST PUSH1 0x4 DUP2 LT PUSH2 0x2A64 JUMPI PUSH2 0x2A63 PUSH2 0x2A24 JUMP JUMPDEST JUMPDEST POP JUMP JUMPDEST PUSH1 0x0 DUP2 SWAP1 POP PUSH2 0x2A75 DUP3 PUSH2 0x2A53 JUMP JUMPDEST SWAP2 SWAP1 POP JUMP JUMPDEST PUSH1 0x0 PUSH2 0x2A85 DUP3 PUSH2 0x2A67 JUMP JUMPDEST SWAP1 POP SWAP2 SWAP1 POP JUMP JUMPDEST PUSH2 0x2A95 DUP2 PUSH2 0x2A7A JUMP JUMPDEST DUP3 MSTORE POP POP JUMP JUMPDEST PUSH1 0xE0 DUP3 ADD PUSH1 0x0 DUP3 ADD MLOAD PUSH2 0x2AB1 PUSH1 0x0 DUP6 ADD DUP3 PUSH2 0x2A06 JUMP JUMPDEST POP PUSH1 0x20 DUP3 ADD MLOAD PUSH2 0x2AC4 PUSH1 0x20 DUP6 ADD DUP3 PUSH2 0x2A06 JUMP JUMPDEST POP PUSH1 0x40 DUP3 ADD MLOAD PUSH2 0x2AD7 PUSH1 0x40 DUP6 ADD DUP3 PUSH2 0x2A15 JUMP JUMPDEST POP PUSH1 0x60 DUP3 ADD MLOAD PUSH2 0x2AEA PUSH1 0x60 DUP6 ADD DUP3 PUSH2 0x2A15 JUMP JUMPDEST POP PUSH1 0x80 DUP3 ADD MLOAD PUSH2 0x2AFD PUSH1 0x80 DUP6 ADD DUP3 PUSH2 0x2A15 JUMP JUMPDEST POP PUSH1 0xA0 DUP3 ADD MLOAD PUSH2 0x2B10 PUSH1 0xA0 DUP6 ADD DUP3 PUSH2 0x2A15 JUMP JUMPDEST POP PUSH1 0xC0 DUP3 ADD MLOAD PUSH2 0x2B23 PUSH1 0xC0 DUP6 ADD DUP3 PUSH2 0x2A8C JUMP JUMPDEST POP POP POP POP JUMP JUMPDEST PUSH1 0x0 PUSH1 0xE0 DUP3 ADD SWAP1 POP PUSH2 0x2B3E PUSH1 0x0 DUP4 ADD DUP5 PUSH2 0x2A9B JUMP JUMPDEST SWAP3 SWAP2 POP POP JUMP JUMPDEST PUSH1 0x0 DUP2 MLOAD SWAP1 POP SWAP2 SWAP1 POP JUMP JUMPDEST PUSH1 0x0 DUP3 DUP3 MSTORE PUSH1 0x20 DUP3 ADD SWAP1 POP SWAP3 SWAP2 POP POP JUMP JUMPDEST PUSH1 0x0 DUP2 SWAP1 POP PUSH1 0x20 DUP3 ADD SWAP1 POP SWAP2 SWAP1 POP JUMP JUMPDEST PUSH1 0xE0 DUP3 ADD PUSH1 0x0 DUP3 ADD MLOAD PUSH2 0x2B86 PUSH1 0x0 DUP6 ADD DUP3 PUSH2 0x2A06 JUMP JUMPDEST POP PUSH1 0x20 DUP3 ADD MLOAD PUSH2 0x2B99 PUSH1 0x20 DUP6 ADD DUP3 PUSH2 0x2A06 JUMP JUMPDEST POP PUSH1 0x40 DUP3 ADD MLOAD PUSH2 0x2BAC PUSH1 0x40 DUP6 ADD DUP3 PUSH2 0x2A15 JUMP JUMPDEST POP PUSH1 0x60 DUP3 ADD MLOAD PUSH2 0x2BBF PUSH1 0x60 DUP6 ADD DUP3 PUSH2 0x2A15 JUMP JUMPDEST POP PUSH1 0x80 DUP3 ADD MLOAD PUSH2 0x2BD2 PUSH1 0x80 DUP6 ADD DUP3 PUSH2 0x2A15 JUMP JUMPDEST POP PUSH1 0xA0 DUP3 ADD MLOAD PUSH2 0x2BE5 PUSH1 0xA0 DUP6 ADD DUP3 PUSH2 0x2A15 JUMP JUMPDEST POP PUSH1 0xC0 DUP3 ADD MLOAD PUSH2 0x2BF8 PUSH1 0xC0 DUP6 ADD DUP3 PUSH2 0x2A8C JUMP JUMPDEST POP POP POP POP JUMP JUMPDEST PUSH1 0x0 PUSH2 0x2C0A DUP4 DUP4 PUSH2 0x2B70 JUMP JUMPDEST PUSH1 0xE0 DUP4 ADD SWAP1 POP SWAP3 SWAP2 POP POP JUMP JUMPDEST PUSH1 0x0 PUSH1 0x20 DUP3 ADD SWAP1 POP SWAP2 SWAP1 POP JUMP JUMPDEST PUSH1 0x0 PUSH2 0x2C2E DUP3 PUSH2 0x2B44 JUMP JUMPDEST PUSH2 0x2C38 DUP2 DUP6 PUSH2 0x2B4F JUMP JUMPDEST SWAP4 POP PUSH2 0x2C43 DUP4 PUSH2 0x2B60 JUMP JUMPDEST DUP1 PUSH1 0x0 JUMPDEST DUP4 DUP2 LT ISZERO PUSH2 0x2C74 JUMPI DUP2 MLOAD PUSH2 0x2C5B DUP9 DUP3 PUSH2 0x2BFE JUMP JUMPDEST SWAP8 POP PUSH2 0x2C66 DUP4 PUSH2 0x2C16 JUMP JUMPDEST SWAP3 POP POP PUSH1 0x1 DUP2 ADD SWAP1 POP PUSH2 0x2C47 JUMP JUMPDEST POP DUP6 SWAP4 POP POP POP POP SWAP3 SWAP2 POP POP JUMP JUMPDEST PUSH1 0x0 PUSH1 0x20 DUP3 ADD SWAP1 POP DUP2 DUP2 SUB PUSH1 0x0 DUP4 ADD MSTORE PUSH2 0x2C9B DUP2 DUP5 PUSH2 0x2C23 JUMP JUMPDEST SWAP1 POP SWAP3 SWAP2 POP POP JUMP JUMPDEST PUSH2 0x2CAC DUP2 PUSH2 0x29F4 JUMP JUMPDEST DUP3 MSTORE POP POP JUMP JUMPDEST PUSH1 0x0 PUSH1 0x20 DUP3 ADD SWAP1 POP PUSH2 0x2CC7 PUSH1 0x0 DUP4 ADD DUP5 PUSH2 0x2CA3 JUMP JUMPDEST SWAP3 SWAP2 POP POP JUMP JUMPDEST PUSH2 0x2CD6 DUP2 PUSH2 0x29F4 JUMP JUMPDEST DUP2 EQ PUSH2 0x2CE1 JUMPI PUSH1 0x0 DUP1 REVERT JUMPDEST POP JUMP JUMPDEST PUSH1 0x0 DUP2 CALLDATALOAD SWAP1 POP PUSH2 0x2CF3 DUP2 PUSH2 0x2CCD JUMP JUMPDEST SWAP3 SWAP2 POP POP JUMP JUMPDEST PUSH1 0x0 DUP1 PUSH1 0x0 PUSH1 0x60 DUP5 DUP7 SUB SLT ISZERO PUSH2 0x2D12 JUMPI PUSH2 0x2D11 PUSH2 0x296C JUMP JUMPDEST JUMPDEST PUSH1 0x0 PUSH2 0x2D20 DUP7 DUP3 DUP8 ADD PUSH2 0x2CE4 JUMP JUMPDEST SWAP4 POP POP PUSH1 0x20 PUSH2 0x2D31 DUP7 DUP3 DUP8 ADD PUSH2 0x2CE4 JUMP JUMPDEST SWAP3 POP POP PUSH1 0x40 PUSH2 0x2D42 DUP7 DUP3 DUP8 ADD PUSH2 0x2992 JUMP JUMPDEST SWAP2 POP POP SWAP3 POP SWAP3 POP SWAP3 JUMP JUMPDEST PUSH2 0x2D55 DUP2 PUSH2 0x2971 JUMP JUMPDEST DUP3 MSTORE POP POP JUMP JUMPDEST PUSH1 0x0 PUSH1 0x20 DUP3 ADD SWAP1 POP PUSH2 0x2D70 PUSH1 0x0 DUP4 ADD DUP5 PUSH2 0x2D4C JUMP JUMPDEST SWAP3 SWAP2 POP POP JUMP JUMPDEST PUSH1 0x0 DUP2 SWAP1 POP SWAP3 SWAP2 POP POP JUMP JUMPDEST POP JUMP JUMPDEST PUSH1 0x0 PUSH2 0x2D91 PUSH1 0x0 DUP4 PUSH2 0x2D76 JUMP JUMPDEST SWAP2 POP PUSH2 0x2D9C DUP3 PUSH2 0x2D81 JUMP JUMPDEST PUSH1 0x0 DUP3 ADD SWAP1 POP SWAP2 SWAP1 POP JUMP JUMPDEST PUSH1 0x0 PUSH2 0x2DB2 DUP3 PUSH2 0x2D84 JUMP JUMPDEST SWAP2 POP DUP2 SWAP1 POP SWAP2 SWAP1 POP JUMP JUMPDEST PUSH32 0x4E487B7100000000000000000000000000000000000000000000000000000000 PUSH1 0x0 MSTORE PUSH1 0x11 PUSH1 0x4 MSTORE PUSH1 0x24 PUSH1 0x0 REVERT JUMPDEST PUSH1 0x0 PUSH2 0x2DF6 DUP3 PUSH2 0x2971 JUMP JUMPDEST SWAP2 POP PUSH2 0x2E01 DUP4 PUSH2 0x2971 JUMP JUMPDEST SWAP3 POP DUP3 DUP3 SUB SWAP1 POP DUP2 DUP2 GT ISZERO PUSH2 0x2E19 JUMPI PUSH2 0x2E18 PUSH2 0x2DBC JUMP JUMPDEST JUMPDEST SWAP3 SWAP2 POP POP JUMP JUMPDEST PUSH1 0x0 PUSH2 0x2E2A DUP3 PUSH2 0x2971 JUMP JUMPDEST SWAP2 POP PUSH32 0xFFFFFFFFFFFFFFFFFFFFFFFFFFFFFFFFFFFFFFFFFFFFFFFFFFFFFFFFFFFFFFFF DUP3 SUB PUSH2 0x2E5C JUMPI PUSH2 0x2E5B PUSH2 0x2DBC JUMP JUMPDEST JUMPDEST PUSH1 0x1 DUP3 ADD SWAP1 POP SWAP2 SWAP1 POP JUMP INVALID LOG2 PUSH5 0x6970667358 0x22 SLT KECCAK256 SWAP12 PUSH3 0x5A3C1A SWAP3 PUSH10 0xB271BFCA3DB2DCDBF5EC 0xB3 0xB0 CALLVALUE 0x2D PUSH12 0x752F15A6A98694F4B5C66473 PUSH16 0x6C634300081300330000000000000000 "},"methodIdentifiers":{"createEscrow(address,address,uint256)":"c3617650","getBuyerOrders()":"c819998b","getMarketplaceAddress()":"bb8fe785","getOrderById(uint256)":"42b50a7a","getOwner()":"893d20e8","getSellerOrders()":"700db752","refund(uint256)":"278ecde1","release(uint256)":"37bdc99b","startDispute(uint256)":"c0cfa7e5"}}}}}