{"contracts/Marketplace.sol":{"Marketplace":{"abi":[{"inputs":[],"stateMutability":"nonpayable","type":"constructor"},{"inputs":[],"name":"Marketplace__NotEnoughFunds","type":"error"},{"inputs":[],"name":"Marketplace__NotEnoughQuantity","type":"error"},{"inputs":[],"name":"Marketplace__ProductNotFound","type":"error"},{"inputs":[],"name":"Marketplace__TransferFailed","type":"error"},{"anonymous":false,"inputs":[{"indexed":true,"internalType":"uint256","name":"orderId","type":"uint256"}],"name":"CreatedOrder","type":"event"},{"anonymous":false,"inputs":[{"indexed":true,"internalType":"address","name":"owner","type":"address"},{"indexed":true,"internalType":"uint256","name":"productId","type":"uint256"},{"indexed":false,"internalType":"uint256","name":"price","type":"uint256"},{"indexed":false,"internalType":"string","name":"uri","type":"string"}],"name":"CreatedProduct","type":"event"},{"inputs":[{"internalType":"uint256","name":"_productId","type":"uint256"},{"internalType":"uint256","name":"_quantity","type":"uint256"}],"name":"buyProduct","outputs":[],"stateMutability":"payable","type":"function"},{"inputs":[{"internalType":"uint256","name":"_productId","type":"uint256"},{"internalType":"string","name":"uri","type":"string"},{"internalType":"uint256","name":"_price","type":"uint256"},{"internalType":"uint256","name":"_quantity","type":"uint256"}],"name":"createProduct","outputs":[],"stateMutability":"nonpayable","type":"function"},{"inputs":[],"name":"getEscrowAddress","outputs":[{"internalType":"address","name":"","type":"address"}],"stateMutability":"view","type":"function"},{"inputs":[],"name":"getOwner","outputs":[{"internalType":"address","name":"","type":"address"}],"stateMutability":"view","type":"function"},{"inputs":[],"name":"getOwnerProducts","outputs":[{"components":[{"internalType":"address","name":"owner","type":"address"},{"internalType":"uint256","name":"productId","type":"uint256"},{"internalType":"uint256","name":"price","type":"uint256"},{"internalType":"uint256","name":"quantity","type":"uint256"},{"internalType":"string","name":"uri","type":"string"}],"internalType":"struct Marketplace.Product[]","name":"","type":"tuple[]"}],"stateMutability":"view","type":"function"},{"inputs":[{"internalType":"uint256","name":"_productId","type":"uint256"}],"name":"getProductById","outputs":[{"components":[{"internalType":"address","name":"owner","type":"address"},{"internalType":"uint256","name":"productId","type":"uint256"},{"internalType":"uint256","name":"price","type":"uint256"},{"internalType":"uint256","name":"quantity","type":"uint256"},{"internalType":"string","name":"uri","type":"string"}],"internalType":"struct Marketplace.Product","name":"","type":"tuple"}],"stateMutability":"view","type":"function"}],"evm":{"bytecode":{"linkReferences":{},"object":"60c06040523480156200001157600080fd5b506200002e673c531b4f106d86e760c01b6200010e60201b60201c565b6200004a6792d60c865e6bd71c60c01b6200010e60201b60201c565b30336040516200005a9062000111565b6200006792919062000164565b604051809103906000f08015801562000084573d6000803e3d6000fd5b5073ffffffffffffffffffffffffffffffffffffffff1660808173ffffffffffffffffffffffffffffffffffffffff1681525050620000d4674b5d2268eac551fa60c01b6200010e60201b60201c565b3373ffffffffffffffffffffffffffffffffffffffff1660a08173ffffffffffffffffffffffffffffffffffffffff168152505062000191565b50565b61307f8062001a6e83390190565b600073ffffffffffffffffffffffffffffffffffffffff82169050919050565b60006200014c826200011f565b9050919050565b6200015e816200013f565b82525050565b60006040820190506200017b600083018562000153565b6200018a602083018462000153565b9392505050565b60805160a0516118b0620001be6000396000610b2801526000818161019d01526107fe01526118b06000f3fe6080604052600436106100555760003560e01c8063122fd48a1461005a5780633873ab24146100855780633f70c2b4146100b057806353b62866146100ed578063893d20e814610109578063f4a44d2d14610134575b600080fd5b34801561006657600080fd5b5061006f61015d565b60405161007c9190610e85565b60405180910390f35b34801561009157600080fd5b5061009a6101c1565b6040516100a79190611090565b60405180910390f35b3480156100bc57600080fd5b506100d760048036038101906100d291906110f2565b6103cd565b6040516100e49190611195565b60405180910390f35b610107600480360381019061010291906111b7565b61063a565b005b34801561011557600080fd5b5061011e610ae8565b60405161012b9190610e85565b60405180910390f35b34801561014057600080fd5b5061015b6004803603810190610156919061132c565b610b4c565b005b600061017367013f30b9b3acae8860c01b610dfc565b61018767a53baa258f9529c560c01b610dfc565b61019b67b820cc60119840cc60c01b610dfc565b7f0000000000000000000000000000000000000000000000000000000000000000905090565b60606101d767e141312109dd5c6460c01b610dfc565b6101eb678f3beef1e6d012cc60c01b610dfc565b6101ff67d93472929deb934260c01b610dfc565b6000600160003373ffffffffffffffffffffffffffffffffffffffff1673ffffffffffffffffffffffffffffffffffffffff168152602001908152602001600020805480602002602001604051908101604052809291908181526020016000905b8282101561039857838290600052602060002090600502016040518060a00160405290816000820160009054906101000a900473ffffffffffffffffffffffffffffffffffffffff1673ffffffffffffffffffffffffffffffffffffffff1673ffffffffffffffffffffffffffffffffffffffff168152602001600182015481526020016002820154815260200160038201548152602001600482018054610307906113de565b80601f0160208091040260200160405190810160405280929190818152602001828054610333906113de565b80156103805780601f1061035557610100808354040283529160200191610380565b820191906000526020600020905b81548152906001019060200180831161036357829003601f168201915b50505050508152505081526020019060010190610260565b5050505090506103b267afb736e0d00afdb260c01b610dfc565b6103c667304bfc94b862c8a860c01b610dfc565b8091505090565b6103d5610dff565b6103e96780a9977995c733bf60c01b610dfc565b6103fd672919e17af44cca1260c01b610dfc565b6104116729002e00adc2424160c01b610dfc565b600073ffffffffffffffffffffffffffffffffffffffff1660008084815260200190815260200160002060000160009054906101000a900473ffffffffffffffffffffffffffffffffffffffff1673ffffffffffffffffffffffffffffffffffffffff16036104d45761048e67ca28008dec5fdaf360c01b610dfc565b6104a267dbd555c739b803bc60c01b610dfc565b6040517ffa130d1500000000000000000000000000000000000000000000000000000000815260040160405180910390fd5b6104e86718e44bb9899b65e160c01b610dfc565b6104fc678707fd7731edad7660c01b610dfc565b61051067f3d89efbed7f649e60c01b610dfc565b6000808381526020019081526020016000206040518060a00160405290816000820160009054906101000a900473ffffffffffffffffffffffffffffffffffffffff1673ffffffffffffffffffffffffffffffffffffffff1673ffffffffffffffffffffffffffffffffffffffff1681526020016001820154815260200160028201548152602001600382015481526020016004820180546105b1906113de565b80601f01602080910402602001604051908101604052809291908181526020018280546105dd906113de565b801561062a5780601f106105ff5761010080835404028352916020019161062a565b820191906000526020600020905b81548152906001019060200180831161060d57829003601f168201915b5050505050815250509050919050565b61064e67bfe1aaf2f28b033460c01b610dfc565b61066267b310304797123f1960c01b610dfc565b61067667ab891a1c6434d1f160c01b610dfc565b6000610681836103cd565b905061069767566a2184866756c360c01b610dfc565b6106ab67e43581d3dabf0d3260c01b610dfc565b8060600151821115610711576106cb676fdd6aff41ebab6e60c01b610dfc565b6106df679cca827127eb215360c01b610dfc565b6040517f2b2e799600000000000000000000000000000000000000000000000000000000815260040160405180910390fd5b610725672bda5d0bdc72ea6260c01b610dfc565b610739673f5007c728eb356260c01b610dfc565b61074d6706cd1a06041a98f560c01b610dfc565b81816040015161075d919061143e565b3410156107be5761077867c23f32ceb89d37a660c01b610dfc565b61078c6768218f3b7bfcb19660c01b610dfc565b6040517f250c003600000000000000000000000000000000000000000000000000000000815260040160405180910390fd5b6107d26757f0086508ebbc7b60c01b610dfc565b6107e66787443c07dd8fd9e260c01b610dfc565b6107fa67bc7b29cfaa113a2360c01b610dfc565b60007f000000000000000000000000000000000000000000000000000000000000000073ffffffffffffffffffffffffffffffffffffffff1663c3617650848460400151610848919061143e565b84600001513386602001516040518563ffffffff1660e01b81526004016108719392919061148f565b60206040518083038185885af115801561088f573d6000803e3d6000fd5b50505050506040513d601f19601f820116820180604052508101906108b491906114db565b90506108ca6775ae833b39b8de6f60c01b610dfc565b6108de67b790ab9981ab4d9360c01b610dfc565b60008383604001516108f0919061143e565b346108fb9190611508565b905061091167bdc8426709bf66a560c01b610dfc565b6109256705dfa6510fcef07b60c01b610dfc565b6000811115610a775761094267dc975a4b4aaff93560c01b610dfc565b61095667b3c125875cde631760c01b610dfc565b61096a67f09e8b817b6bfd3e60c01b610dfc565b60003373ffffffffffffffffffffffffffffffffffffffff16826040516109909061156d565b60006040518083038185875af1925050503d80600081146109cd576040519150601f19603f3d011682016040523d82523d6000602084013e6109d2565b606091505b505090506109ea67e038e8f5d75b29c860c01b610dfc565b6109fe67bb1749eefa776ca660c01b610dfc565b80610a5d57610a17676aa45fa9af11113160c01b610dfc565b610a2b67bdbef0c8e72bc77360c01b610dfc565b6040517f3a06d36900000000000000000000000000000000000000000000000000000000815260040160405180910390fd5b610a71674361d1c7dacea6ca60c01b610dfc565b50610a8c565b610a8b670cbad85b3d5c7f4c60c01b610dfc565b5b610aa067bb1ccc7538e0ab8760c01b610dfc565b610ab467fb379026e6d0f73760c01b610dfc565b817fca570940fc0de1684a030665039469593dd4c228a17d8da38a53bbe884c07caf60405160405180910390a25050505050565b6000610afe6768e17effb2527aa760c01b610dfc565b610b12677c224eca154187de60c01b610dfc565b610b26674366aad32eb8da1460c01b610dfc565b7f0000000000000000000000000000000000000000000000000000000000000000905090565b610b60676c26e830ff756b9860c01b610dfc565b610b7467ad022cef9961901460c01b610dfc565b610b886755780eb4d433c7fe60c01b610dfc565b60006040518060a001604052803373ffffffffffffffffffffffffffffffffffffffff168152602001868152602001848152602001838152602001858152509050610bdd67bade7bcacc13433560c01b610dfc565b8060008087815260200190815260200160002060008201518160000160006101000a81548173ffffffffffffffffffffffffffffffffffffffff021916908373ffffffffffffffffffffffffffffffffffffffff1602179055506020820151816001015560408201518160020155606082015181600301556080820151816004019081610c6a919061172e565b50905050610c8267ba4f4f6e70232ab460c01b610dfc565b610c9667b70a2cbca9b61ae560c01b610dfc565b600160003373ffffffffffffffffffffffffffffffffffffffff1673ffffffffffffffffffffffffffffffffffffffff16815260200190815260200160002081908060018154018082558091505060019003906000526020600020906005020160009091909190915060008201518160000160006101000a81548173ffffffffffffffffffffffffffffffffffffffff021916908373ffffffffffffffffffffffffffffffffffffffff1602179055506020820151816001015560408201518160020155606082015181600301556080820151816004019081610d79919061172e565b505050610d90676cbbf2d75ed3b38760c01b610dfc565b610da467cdc6124ddae38cdc60c01b610dfc565b843373ffffffffffffffffffffffffffffffffffffffff167f752c6e59798f934c2c159f893dcff42eca6bb9529f328570f172e50c9774cb548587604051610ded92919061184a565b60405180910390a35050505050565b50565b6040518060a00160405280600073ffffffffffffffffffffffffffffffffffffffff168152602001600081526020016000815260200160008152602001606081525090565b600073ffffffffffffffffffffffffffffffffffffffff82169050919050565b6000610e6f82610e44565b9050919050565b610e7f81610e64565b82525050565b6000602082019050610e9a6000830184610e76565b92915050565b600081519050919050565b600082825260208201905092915050565b6000819050602082019050919050565b610ed581610e64565b82525050565b6000819050919050565b610eee81610edb565b82525050565b600081519050919050565b600082825260208201905092915050565b60005b83811015610f2e578082015181840152602081019050610f13565b60008484015250505050565b6000601f19601f8301169050919050565b6000610f5682610ef4565b610f608185610eff565b9350610f70818560208601610f10565b610f7981610f3a565b840191505092915050565b600060a083016000830151610f9c6000860182610ecc565b506020830151610faf6020860182610ee5565b506040830151610fc26040860182610ee5565b506060830151610fd56060860182610ee5565b5060808301518482036080860152610fed8282610f4b565b9150508091505092915050565b60006110068383610f84565b905092915050565b6000602082019050919050565b600061102682610ea0565b6110308185610eab565b93508360208202850161104285610ebc565b8060005b8581101561107e578484038952815161105f8582610ffa565b945061106a8361100e565b925060208a01995050600181019050611046565b50829750879550505050505092915050565b600060208201905081810360008301526110aa818461101b565b905092915050565b6000604051905090565b600080fd5b600080fd5b6110cf81610edb565b81146110da57600080fd5b50565b6000813590506110ec816110c6565b92915050565b600060208284031215611108576111076110bc565b5b6000611116848285016110dd565b91505092915050565b600060a0830160008301516111376000860182610ecc565b50602083015161114a6020860182610ee5565b50604083015161115d6040860182610ee5565b5060608301516111706060860182610ee5565b50608083015184820360808601526111888282610f4b565b9150508091505092915050565b600060208201905081810360008301526111af818461111f565b905092915050565b600080604083850312156111ce576111cd6110bc565b5b60006111dc858286016110dd565b92505060206111ed858286016110dd565b9150509250929050565b600080fd5b600080fd5b7f4e487b7100000000000000000000000000000000000000000000000000000000600052604160045260246000fd5b61123982610f3a565b810181811067ffffffffffffffff8211171561125857611257611201565b5b80604052505050565b600061126b6110b2565b90506112778282611230565b919050565b600067ffffffffffffffff82111561129757611296611201565b5b6112a082610f3a565b9050602081019050919050565b82818337600083830152505050565b60006112cf6112ca8461127c565b611261565b9050828152602081018484840111156112eb576112ea6111fc565b5b6112f68482856112ad565b509392505050565b600082601f830112611313576113126111f7565b5b81356113238482602086016112bc565b91505092915050565b60008060008060808587031215611346576113456110bc565b5b6000611354878288016110dd565b945050602085013567ffffffffffffffff811115611375576113746110c1565b5b611381878288016112fe565b9350506040611392878288016110dd565b92505060606113a3878288016110dd565b91505092959194509250565b7f4e487b7100000000000000000000000000000000000000000000000000000000600052602260045260246000fd5b600060028204905060018216806113f657607f821691505b602082108103611409576114086113af565b5b50919050565b7f4e487b7100000000000000000000000000000000000000000000000000000000600052601160045260246000fd5b600061144982610edb565b915061145483610edb565b925082820261146281610edb565b915082820484148315176114795761147861140f565b5b5092915050565b61148981610edb565b82525050565b60006060820190506114a46000830186610e76565b6114b16020830185610e76565b6114be6040830184611480565b949350505050565b6000815190506114d5816110c6565b92915050565b6000602082840312156114f1576114f06110bc565b5b60006114ff848285016114c6565b91505092915050565b600061151382610edb565b915061151e83610edb565b92508282039050818111156115365761153561140f565b5b92915050565b600081905092915050565b50565b600061155760008361153c565b915061156282611547565b600082019050919050565b60006115788261154a565b9150819050919050565b60008190508160005260206000209050919050565b60006020601f8301049050919050565b600082821b905092915050565b6000600883026115e47fffffffffffffffffffffffffffffffffffffffffffffffffffffffffffffffff826115a7565b6115ee86836115a7565b95508019841693508086168417925050509392505050565b6000819050919050565b600061162b61162661162184610edb565b611606565b610edb565b9050919050565b6000819050919050565b61164583611610565b61165961165182611632565b8484546115b4565b825550505050565b600090565b61166e611661565b61167981848461163c565b505050565b5b8181101561169d57611692600082611666565b60018101905061167f565b5050565b601f8211156116e2576116b381611582565b6116bc84611597565b810160208510156116cb578190505b6116df6116d785611597565b83018261167e565b50505b505050565b600082821c905092915050565b6000611705600019846008026116e7565b1980831691505092915050565b600061171e83836116f4565b9150826002028217905092915050565b61173782610ef4565b67ffffffffffffffff8111156117505761174f611201565b5b61175a82546113de565b6117658282856116a1565b600060209050601f8311600181146117985760008415611786578287015190505b6117908582611712565b8655506117f8565b601f1984166117a686611582565b60005b828110156117ce578489015182556001820191506020850194506020810190506117a9565b868310156117eb57848901516117e7601f8916826116f4565b8355505b6001600288020188555050505b505050505050565b600082825260208201905092915050565b600061181c82610ef4565b6118268185611800565b9350611836818560208601610f10565b61183f81610f3a565b840191505092915050565b600060408201905061185f6000830185611480565b81810360208301526118718184611811565b9050939250505056fea2646970667358221220cec8c22c6446e04b0cba0e78d36b700fd488e8905bbcbf90fc5f2d608726237b64736f6c6343000813003360a0604052600180553480156200001557600080fd5b506040516200307f3803806200307f83398181016040528101906200003b919062000178565b62000057678682a9107a6fd2c160c01b6200010b60201b60201c565b62000073671d41a94ba5554dcb60c01b6200010b60201b60201c565b806000806101000a81548173ffffffffffffffffffffffffffffffffffffffff021916908373ffffffffffffffffffffffffffffffffffffffff160217905550620000cf676024235befca135f60c01b6200010b60201b60201c565b8173ffffffffffffffffffffffffffffffffffffffff1660808173ffffffffffffffffffffffffffffffffffffffff16815250505050620001bf565b50565b600080fd5b600073ffffffffffffffffffffffffffffffffffffffff82169050919050565b6000620001408262000113565b9050919050565b620001528162000133565b81146200015e57600080fd5b50565b600081519050620001728162000147565b92915050565b600080604083850312156200019257620001916200010e565b5b6000620001a28582860162000161565b9250506020620001b58582860162000161565b9150509250929050565b608051612e9d620001e260003960008181611be701526120d60152612e9d6000f3fe6080604052600436106100865760003560e01c8063893d20e811610059578063893d20e814610145578063bb8fe78514610170578063c0cfa7e51461019b578063c3617650146101c4578063c819998b146101f457610086565b8063278ecde11461008b57806337bdc99b146100b457806342b50a7a146100dd578063700db7521461011a575b600080fd5b34801561009757600080fd5b506100b260048036038101906100ad91906129a7565b61021f565b005b3480156100c057600080fd5b506100db60048036038101906100d691906129a7565b610bd6565b005b3480156100e957600080fd5b5061010460048036038101906100ff91906129a7565b6116b6565b6040516101119190612b29565b60405180910390f35b34801561012657600080fd5b5061012f61192e565b60405161013c9190612c81565b60405180910390f35b34801561015157600080fd5b5061015a611b43565b6040516101679190612cb2565b60405180910390f35b34801561017c57600080fd5b50610185611ba7565b6040516101929190612cb2565b60405180910390f35b3480156101a757600080fd5b506101c260048036038101906101bd91906129a7565b611c0b565b005b6101de60048036038101906101d99190612cf9565b612082565b6040516101eb9190612d5b565b60405180910390f35b34801561020057600080fd5b506102096126d9565b6040516102169190612c81565b60405180910390f35b6102336728bdba660bf3974f60c01b6128ee565b8061024867a8cf46a670d916b060c01b6128ee565b61025c67a986cefeec85818760c01b6128ee565b610270679468e128eae60b1a60c01b6128ee565b6000600460008381526020019081526020016000206040518060e00160405290816000820160009054906101000a900473ffffffffffffffffffffffffffffffffffffffff1673ffffffffffffffffffffffffffffffffffffffff1673ffffffffffffffffffffffffffffffffffffffff1681526020016001820160009054906101000a900473ffffffffffffffffffffffffffffffffffffffff1673ffffffffffffffffffffffffffffffffffffffff1673ffffffffffffffffffffffffffffffffffffffff168152602001600282015481526020016003820154815260200160048201548152602001600582015481526020016006820160009054906101000a900460ff16600381111561038957610388612a24565b5b600381111561039b5761039a612a24565b5b8152505090506103b56796010dfaecf65cf660c01b6128ee565b6103c9677a4fa443f0dd646b60c01b6128ee565b600060038111156103dd576103dc612a24565b5b8160c0015160038111156103f4576103f3612a24565b5b1415801561042a57506003808111156104105761040f612a24565b5b8160c00151600381111561042757610426612a24565b5b14155b15610489576104436707ba95f796c8a10260c01b6128ee565b61045767088091dfa12640c660c01b6128ee565b6040517f8a22693e00000000000000000000000000000000000000000000000000000000815260040160405180910390fd5b61049d677d44f4b501c4318360c01b6128ee565b6104b16721c50106825c897d60c01b6128ee565b6104c5677b4f954d76e7895060c01b6128ee565b6104d967b3fcfb8b1a7f9ef960c01b6128ee565b826104ee6767894023de97c25560c01b6128ee565b61050267527eb98e367f366c60c01b6128ee565b610516679810e0b36380003060c01b6128ee565b6000600460008381526020019081526020016000206040518060e00160405290816000820160009054906101000a900473ffffffffffffffffffffffffffffffffffffffff1673ffffffffffffffffffffffffffffffffffffffff1673ffffffffffffffffffffffffffffffffffffffff1681526020016001820160009054906101000a900473ffffffffffffffffffffffffffffffffffffffff1673ffffffffffffffffffffffffffffffffffffffff1673ffffffffffffffffffffffffffffffffffffffff168152602001600282015481526020016003820154815260200160048201548152602001600582015481526020016006820160009054906101000a900460ff16600381111561062f5761062e612a24565b5b600381111561064157610640612a24565b5b81525050905061065b67010c170a31d2120c60c01b6128ee565b61066f6745d3b41a49d7ae0260c01b6128ee565b60008054906101000a900473ffffffffffffffffffffffffffffffffffffffff1673ffffffffffffffffffffffffffffffffffffffff163373ffffffffffffffffffffffffffffffffffffffff161480156106f257506003808111156106d8576106d7612a24565b5b8160c0015160038111156106ef576106ee612a24565b5b14155b156107515761070b677dd3f87b173f7fd660c01b6128ee565b61071f67539a28d4bbb2f8bb60c01b6128ee565b6040517f8ab9b32900000000000000000000000000000000000000000000000000000000815260040160405180910390fd5b61076567964e40ee2cdeb52360c01b6128ee565b6107796785176212632737a660c01b6128ee565b3373ffffffffffffffffffffffffffffffffffffffff16816000015173ffffffffffffffffffffffffffffffffffffffff1614158015610805575060008054906101000a900473ffffffffffffffffffffffffffffffffffffffff1673ffffffffffffffffffffffffffffffffffffffff163373ffffffffffffffffffffffffffffffffffffffff1614155b156108645761081e674c7003b2a701628760c01b6128ee565b61083267b8512d8a4a233cd460c01b6128ee565b6040517f76df155600000000000000000000000000000000000000000000000000000000815260040160405180910390fd5b6108786722912976bd78484960c01b6128ee565b61088c671738f3f3759d663d60c01b6128ee565b806000015173ffffffffffffffffffffffffffffffffffffffff163373ffffffffffffffffffffffffffffffffffffffff161480156108f257506003808111156108d9576108d8612a24565b5b8160c0015160038111156108f0576108ef612a24565b5b145b156109515761090b678e687d28d1f0071d60c01b6128ee565b61091f67dfa79c7729e9ccc960c01b6128ee565b6040517f26b095e100000000000000000000000000000000000000000000000000000000815260040160405180910390fd5b6109656729062cc8dc02374160c01b6128ee565b610979674bf8d5847ee50bf060c01b6128ee565b61098d677e1bc537d91b06a960c01b6128ee565b6109a16720dc0852a289c78660c01b6128ee565b6109b567587e37be3e2a8a9f60c01b6128ee565b6109c9675f071e8a3096ee0560c01b6128ee565b60006004600087815260200190815260200160002090506109f467a4f4e0f2571abc7c60c01b6128ee565b60028160060160006101000a81548160ff02191690836003811115610a1c57610a1b612a24565b5b0217905550610a3567fef194e3b5a36af260c01b6128ee565b610a4967c7d0a25614147d7a60c01b6128ee565b60008160010160009054906101000a900473ffffffffffffffffffffffffffffffffffffffff1673ffffffffffffffffffffffffffffffffffffffff168260030154604051610a9790612da7565b60006040518083038185875af1925050503d8060008114610ad4576040519150601f19603f3d011682016040523d82523d6000602084013e610ad9565b606091505b50509050610af1676ade4ee43526370060c01b6128ee565b610b0567e5572a0ca148689e60c01b6128ee565b80610b6457610b1e67d5fffa5233beb7b360c01b6128ee565b610b32676954edc2badc589a60c01b6128ee565b6040517f4abcf95000000000000000000000000000000000000000000000000000000000815260040160405180910390fd5b610b786762149c2c0697814060c01b6128ee565b610b8c67f65636fa082b6db760c01b6128ee565b610ba067ea9568a7c09d234960c01b6128ee565b867f6cbb2f5fc1a460905eb3b50b6c769589d8b1a201f03b7f04b1f3ce09c3aee78b60405160405180910390a250505050505050565b610bea67c356e2b0d3d3803660c01b6128ee565b80610bff67a8cf46a670d916b060c01b6128ee565b610c1367a986cefeec85818760c01b6128ee565b610c27679468e128eae60b1a60c01b6128ee565b6000600460008381526020019081526020016000206040518060e00160405290816000820160009054906101000a900473ffffffffffffffffffffffffffffffffffffffff1673ffffffffffffffffffffffffffffffffffffffff1673ffffffffffffffffffffffffffffffffffffffff1681526020016001820160009054906101000a900473ffffffffffffffffffffffffffffffffffffffff1673ffffffffffffffffffffffffffffffffffffffff1673ffffffffffffffffffffffffffffffffffffffff168152602001600282015481526020016003820154815260200160048201548152602001600582015481526020016006820160009054906101000a900460ff166003811115610d4057610d3f612a24565b5b6003811115610d5257610d51612a24565b5b815250509050610d6c6796010dfaecf65cf660c01b6128ee565b610d80677a4fa443f0dd646b60c01b6128ee565b60006003811115610d9457610d93612a24565b5b8160c001516003811115610dab57610daa612a24565b5b14158015610de15750600380811115610dc757610dc6612a24565b5b8160c001516003811115610dde57610ddd612a24565b5b14155b15610e4057610dfa6707ba95f796c8a10260c01b6128ee565b610e0e67088091dfa12640c660c01b6128ee565b6040517f8a22693e00000000000000000000000000000000000000000000000000000000815260040160405180910390fd5b610e54677d44f4b501c4318360c01b6128ee565b610e686721c50106825c897d60c01b6128ee565b610e7c67a8b7a9aaad801b6160c01b6128ee565b610e90672d30535f88340f5960c01b6128ee565b82610ea567a7c7c5dfad30ec6560c01b6128ee565b610eb967ba63a8469acf7ec760c01b6128ee565b610ecd671b786cbfc5bbddb660c01b6128ee565b6000600460008381526020019081526020016000206040518060e00160405290816000820160009054906101000a900473ffffffffffffffffffffffffffffffffffffffff1673ffffffffffffffffffffffffffffffffffffffff1673ffffffffffffffffffffffffffffffffffffffff1681526020016001820160009054906101000a900473ffffffffffffffffffffffffffffffffffffffff1673ffffffffffffffffffffffffffffffffffffffff1673ffffffffffffffffffffffffffffffffffffffff168152602001600282015481526020016003820154815260200160048201548152602001600582015481526020016006820160009054906101000a900460ff166003811115610fe657610fe5612a24565b5b6003811115610ff857610ff7612a24565b5b81525050905061101267d2a7682fbe9b96a560c01b6128ee565b611026671614c4ab1e3c0e7860c01b6128ee565b60008054906101000a900473ffffffffffffffffffffffffffffffffffffffff1673ffffffffffffffffffffffffffffffffffffffff163373ffffffffffffffffffffffffffffffffffffffff161480156110a9575060038081111561108f5761108e612a24565b5b8160c0015160038111156110a6576110a5612a24565b5b14155b15611108576110c2675d9eba9467bf36dc60c01b6128ee565b6110d667daa96c08f8cfbaeb60c01b6128ee565b6040517f8ab9b32900000000000000000000000000000000000000000000000000000000815260040160405180910390fd5b61111c67d53a0eeba684915c60c01b6128ee565b61113067713e500cf31766c860c01b6128ee565b3373ffffffffffffffffffffffffffffffffffffffff16816000015173ffffffffffffffffffffffffffffffffffffffff16036112305761117b67982e8deea799826060c01b6128ee565b61118f672910437015357dbb60c01b6128ee565b6111a3670577ae683f7dab1060c01b6128ee565b62278d008160800151426111b79190612deb565b1015611217576111d167c517ea917b60667060c01b6128ee565b6111e5671a195938f297bfe260c01b6128ee565b6040517f586f49f700000000000000000000000000000000000000000000000000000000815260040160405180910390fd5b61122b674cf94b57c9058e2260c01b6128ee565b611445565b611244675f537d3611769a9f60c01b6128ee565b611258678e213de2e7c0f3e960c01b6128ee565b3373ffffffffffffffffffffffffffffffffffffffff16816020015173ffffffffffffffffffffffffffffffffffffffff16141580156112e4575060008054906101000a900473ffffffffffffffffffffffffffffffffffffffff1673ffffffffffffffffffffffffffffffffffffffff163373ffffffffffffffffffffffffffffffffffffffff1614155b15611343576112fd673da8eb50c5965f2460c01b6128ee565b61131167ea6c141a9ec09eee60c01b6128ee565b6040517f492aab8600000000000000000000000000000000000000000000000000000000815260040160405180910390fd5b611357671b8d04d6aa36dae760c01b6128ee565b61136b674f1337c4080ba2bd60c01b6128ee565b806020015173ffffffffffffffffffffffffffffffffffffffff163373ffffffffffffffffffffffffffffffffffffffff161480156113d157506003808111156113b8576113b7612a24565b5b8160c0015160038111156113cf576113ce612a24565b5b145b15611430576113ea67797479d6d3ab781160c01b6128ee565b6113fe679967075ce7c0ed2d60c01b6128ee565b6040517f26b095e100000000000000000000000000000000000000000000000000000000815260040160405180910390fd5b6114446710487ba0b33925a960c01b6128ee565b5b611459671416ec0410b1a7d460c01b6128ee565b61146d672e08703d3e28ffa260c01b6128ee565b6114816788916614ddb5604a60c01b6128ee565b6114956756289fca248217c160c01b6128ee565b6114a96774a52728903ebc6860c01b6128ee565b60006004600087815260200190815260200160002090506114d4677bd10de6a7cabf1e60c01b6128ee565b60018160060160006101000a81548160ff021916908360038111156114fc576114fb612a24565b5b021790555061151567eca099b30beed68b60c01b6128ee565b611529676b42d809763e0cb560c01b6128ee565b60008160000160009054906101000a900473ffffffffffffffffffffffffffffffffffffffff1673ffffffffffffffffffffffffffffffffffffffff16826003015460405161157790612da7565b60006040518083038185875af1925050503d80600081146115b4576040519150601f19603f3d011682016040523d82523d6000602084013e6115b9565b606091505b505090506115d16772f4c21739eedc9f60c01b6128ee565b6115e5676b52d77bcc5684f160c01b6128ee565b80611644576115fe67a0cd571f8e1d9e0a60c01b6128ee565b6116126715211b0b91d88cb460c01b6128ee565b6040517f4abcf95000000000000000000000000000000000000000000000000000000000815260040160405180910390fd5b61165867befc3620270ff0f260c01b6128ee565b61166c673be2368da88b39f960c01b6128ee565b611680671d10082a2ac305ca60c01b6128ee565b867fd7c4eded732389526228283d2661ca619ed8096fffca8c0f0c3a6e2a7f4c449d60405160405180910390a250505050505050565b6116be6128f1565b6116d267178b41e7b125903a60c01b6128ee565b6116e667e9aa0b4e1574286860c01b6128ee565b6116fa67b7b337024c635da460c01b6128ee565b600073ffffffffffffffffffffffffffffffffffffffff166004600084815260200190815260200160002060000160009054906101000a900473ffffffffffffffffffffffffffffffffffffffff1673ffffffffffffffffffffffffffffffffffffffff16036117be5761177867062efda05f81889060c01b6128ee565b61178c67628dffc3fab2ddf460c01b6128ee565b6040517f56421a5700000000000000000000000000000000000000000000000000000000815260040160405180910390fd5b6117d267f9165bffd114af6b60c01b6128ee565b6117e667782cfc5a013337c960c01b6128ee565b6117fa67c1839b46b22f3b6360c01b6128ee565b600460008381526020019081526020016000206040518060e00160405290816000820160009054906101000a900473ffffffffffffffffffffffffffffffffffffffff1673ffffffffffffffffffffffffffffffffffffffff1673ffffffffffffffffffffffffffffffffffffffff1681526020016001820160009054906101000a900473ffffffffffffffffffffffffffffffffffffffff1673ffffffffffffffffffffffffffffffffffffffff1673ffffffffffffffffffffffffffffffffffffffff168152602001600282015481526020016003820154815260200160048201548152602001600582015481526020016006820160009054906101000a900460ff16600381111561191157611910612a24565b5b600381111561192357611922612a24565b5b815250509050919050565b6060611944675630e77e0f7a210d60c01b6128ee565b61195867548eaf65cf62560260c01b6128ee565b61196c671b8b13407c0938ae60c01b6128ee565b6000600360003373ffffffffffffffffffffffffffffffffffffffff1673ffffffffffffffffffffffffffffffffffffffff168152602001908152602001600020805480602002602001604051908101604052809291908181526020016000905b82821015611b0e57838290600052602060002090600702016040518060e00160405290816000820160009054906101000a900473ffffffffffffffffffffffffffffffffffffffff1673ffffffffffffffffffffffffffffffffffffffff1673ffffffffffffffffffffffffffffffffffffffff1681526020016001820160009054906101000a900473ffffffffffffffffffffffffffffffffffffffff1673ffffffffffffffffffffffffffffffffffffffff1673ffffffffffffffffffffffffffffffffffffffff168152602001600282015481526020016003820154815260200160048201548152602001600582015481526020016006820160009054906101000a900460ff166003811115611ae957611ae8612a24565b5b6003811115611afb57611afa612a24565b5b81525050815260200190600101906119cd565b505050509050611b286794793333fe2f079d60c01b6128ee565b611b3c67772e1bf2ba854aef60c01b6128ee565b8091505090565b6000611b59677d7411a39e1149c360c01b6128ee565b611b6d67cf0552636919536060c01b6128ee565b611b8167f4df7bac6551b71f60c01b6128ee565b60008054906101000a900473ffffffffffffffffffffffffffffffffffffffff16905090565b6000611bbd6768c626dcdd1cee0460c01b6128ee565b611bd16708dbabe6e49b837860c01b6128ee565b611be5678d2ffa62da82f61360c01b6128ee565b7f0000000000000000000000000000000000000000000000000000000000000000905090565b611c1f67a7269d2cb5d0c5fb60c01b6128ee565b80611c3467081048211811fab560c01b6128ee565b611c486758c8fea77f50a14160c01b6128ee565b611c5c67fcddb68f9c9cc26d60c01b6128ee565b6000600460008381526020019081526020016000206040518060e00160405290816000820160009054906101000a900473ffffffffffffffffffffffffffffffffffffffff1673ffffffffffffffffffffffffffffffffffffffff1673ffffffffffffffffffffffffffffffffffffffff1681526020016001820160009054906101000a900473ffffffffffffffffffffffffffffffffffffffff1673ffffffffffffffffffffffffffffffffffffffff1673ffffffffffffffffffffffffffffffffffffffff168152602001600282015481526020016003820154815260200160048201548152602001600582015481526020016006820160009054906101000a900460ff166003811115611d7557611d74612a24565b5b6003811115611d8757611d86612a24565b5b815250509050611da167ef3f468eca27f67e60c01b6128ee565b611db567f145d9f0b5b9eea060c01b6128ee565b806000015173ffffffffffffffffffffffffffffffffffffffff163373ffffffffffffffffffffffffffffffffffffffff1614158015611e255750806020015173ffffffffffffffffffffffffffffffffffffffff163373ffffffffffffffffffffffffffffffffffffffff1614155b15611e8457611e3e677fc0f059cbb7702260c01b6128ee565b611e5267746f2bdd3eb0fd9c60c01b6128ee565b6040517f96b88c5100000000000000000000000000000000000000000000000000000000815260040160405180910390fd5b611e9867c88b3f2a7594271d60c01b6128ee565b611eac6747d00b45b5d7c4b060c01b6128ee565b611ec067507f9dfbb59cd9f360c01b6128ee565b611ed46710c326611e268a9160c01b6128ee565b611ee867265199fb51b21ef360c01b6128ee565b611efc67803583427c68b03560c01b6128ee565b6000600460008581526020019081526020016000209050611f276755a5679af814216860c01b6128ee565b611f3b67670a39492e2fbec560c01b6128ee565b60006003811115611f4f57611f4e612a24565b5b8160060160009054906101000a900460ff166003811115611f7357611f72612a24565b5b14611fd257611f8c678d4872af48d7af1760c01b6128ee565b611fa067f321c11113ce73b260c01b6128ee565b6040517ff609f42000000000000000000000000000000000000000000000000000000000815260040160405180910390fd5b611fe667eaf59ce00d33cf9e60c01b6128ee565b611ffa67289df4c4ff94ac8a60c01b6128ee565b60038160060160006101000a81548160ff0219169083600381111561202257612021612a24565b5b021790555061203b674ac76f16116646b260c01b6128ee565b61204f674ea2110c63157fda60c01b6128ee565b837f912a1e013de32e96d992fc6c81600eb5480705bfabb226c0b69811abf2b3abac60405160405180910390a250505050565b600061209867d5cbec34601eb5db60c01b6128ee565b6120ac670e16a17776e9ee9460c01b6128ee565b6120c0676d8adabdabb8e40860c01b6128ee565b6120d4674b677f51e981752d60c01b6128ee565b7f000000000000000000000000000000000000000000000000000000000000000073ffffffffffffffffffffffffffffffffffffffff163373ffffffffffffffffffffffffffffffffffffffff16146121815761213b67cc76fcbb1316d35360c01b6128ee565b61214f67298044c1cac2b2c360c01b6128ee565b6040517fab24dd7c00000000000000000000000000000000000000000000000000000000815260040160405180910390fd5b61219567480d1a4a154abaec60c01b6128ee565b6121a967fa91eaed2c59f76e60c01b6128ee565b6121bd6703c0c50c471587ee60c01b6128ee565b6121d16743f05359225e3f8960c01b6128ee565b6121e56783bb511f2f4f471b60c01b6128ee565b6121f9673c515e0c4f04e20860c01b6128ee565b60006040518060e001604052808673ffffffffffffffffffffffffffffffffffffffff1681526020018573ffffffffffffffffffffffffffffffffffffffff16815260200184815260200134815260200142815260200160015481526020016000600381111561226c5761226b612a24565b5b815250905061228567458b5498b635041460c01b6128ee565b61229967d053eb58535e341b60c01b6128ee565b600260008573ffffffffffffffffffffffffffffffffffffffff1673ffffffffffffffffffffffffffffffffffffffff16815260200190815260200160002081908060018154018082558091505060019003906000526020600020906007020160009091909190915060008201518160000160006101000a81548173ffffffffffffffffffffffffffffffffffffffff021916908373ffffffffffffffffffffffffffffffffffffffff16021790555060208201518160010160006101000a81548173ffffffffffffffffffffffffffffffffffffffff021916908373ffffffffffffffffffffffffffffffffffffffff16021790555060408201518160020155606082015181600301556080820151816004015560a0820151816005015560c08201518160060160006101000a81548160ff021916908360038111156123e3576123e2612a24565b5b021790555050506123fe678ef53031548ea11260c01b6128ee565b61241267f64da947f2a6055560c01b6128ee565b600360008673ffffffffffffffffffffffffffffffffffffffff1673ffffffffffffffffffffffffffffffffffffffff16815260200190815260200160002081908060018154018082558091505060019003906000526020600020906007020160009091909190915060008201518160000160006101000a81548173ffffffffffffffffffffffffffffffffffffffff021916908373ffffffffffffffffffffffffffffffffffffffff16021790555060208201518160010160006101000a81548173ffffffffffffffffffffffffffffffffffffffff021916908373ffffffffffffffffffffffffffffffffffffffff16021790555060408201518160020155606082015181600301556080820151816004015560a0820151816005015560c08201518160060160006101000a81548160ff0219169083600381111561255c5761255b612a24565b5b02179055505050612577674b43e0ebd8b8ed4960c01b6128ee565b8060046000600154815260200190815260200160002060008201518160000160006101000a81548173ffffffffffffffffffffffffffffffffffffffff021916908373ffffffffffffffffffffffffffffffffffffffff16021790555060208201518160010160006101000a81548173ffffffffffffffffffffffffffffffffffffffff021916908373ffffffffffffffffffffffffffffffffffffffff16021790555060408201518160020155606082015181600301556080820151816004015560a0820151816005015560c08201518160060160006101000a81548160ff0219169083600381111561266e5761266d612a24565b5b021790555090505061268a67cd72c06404fb756860c01b6128ee565b6001600081548092919061269d90612e1f565b91905055506126b6670eb3ca56f604eef860c01b6128ee565b6126ca673326a407adac532560c01b6128ee565b8060a001519150509392505050565b60606126ef6705e1e19b581157e460c01b6128ee565b612703679707f403254cde5a60c01b6128ee565b61271767ceb693f2332168bd60c01b6128ee565b6000600260003373ffffffffffffffffffffffffffffffffffffffff1673ffffffffffffffffffffffffffffffffffffffff168152602001908152602001600020805480602002602001604051908101604052809291908181526020016000905b828210156128b957838290600052602060002090600702016040518060e00160405290816000820160009054906101000a900473ffffffffffffffffffffffffffffffffffffffff1673ffffffffffffffffffffffffffffffffffffffff1673ffffffffffffffffffffffffffffffffffffffff1681526020016001820160009054906101000a900473ffffffffffffffffffffffffffffffffffffffff1673ffffffffffffffffffffffffffffffffffffffff1673ffffffffffffffffffffffffffffffffffffffff168152602001600282015481526020016003820154815260200160048201548152602001600582015481526020016006820160009054906101000a900460ff16600381111561289457612893612a24565b5b60038111156128a6576128a5612a24565b5b8152505081526020019060010190612778565b5050505090506128d36721dfbe3fccf4c45160c01b6128ee565b6128e767c4f5d0024044adca60c01b6128ee565b8091505090565b50565b6040518060e00160405280600073ffffffffffffffffffffffffffffffffffffffff168152602001600073ffffffffffffffffffffffffffffffffffffffff168152602001600081526020016000815260200160008152602001600081526020016000600381111561296657612965612a24565b5b81525090565b600080fd5b6000819050919050565b61298481612971565b811461298f57600080fd5b50565b6000813590506129a18161297b565b92915050565b6000602082840312156129bd576129bc61296c565b5b60006129cb84828501612992565b91505092915050565b600073ffffffffffffffffffffffffffffffffffffffff82169050919050565b60006129ff826129d4565b9050919050565b612a0f816129f4565b82525050565b612a1e81612971565b82525050565b7f4e487b7100000000000000000000000000000000000000000000000000000000600052602160045260246000fd5b60048110612a6457612a63612a24565b5b50565b6000819050612a7582612a53565b919050565b6000612a8582612a67565b9050919050565b612a9581612a7a565b82525050565b60e082016000820151612ab16000850182612a06565b506020820151612ac46020850182612a06565b506040820151612ad76040850182612a15565b506060820151612aea6060850182612a15565b506080820151612afd6080850182612a15565b5060a0820151612b1060a0850182612a15565b5060c0820151612b2360c0850182612a8c565b50505050565b600060e082019050612b3e6000830184612a9b565b92915050565b600081519050919050565b600082825260208201905092915050565b6000819050602082019050919050565b60e082016000820151612b866000850182612a06565b506020820151612b996020850182612a06565b506040820151612bac6040850182612a15565b506060820151612bbf6060850182612a15565b506080820151612bd26080850182612a15565b5060a0820151612be560a0850182612a15565b5060c0820151612bf860c0850182612a8c565b50505050565b6000612c0a8383612b70565b60e08301905092915050565b6000602082019050919050565b6000612c2e82612b44565b612c388185612b4f565b9350612c4383612b60565b8060005b83811015612c74578151612c5b8882612bfe565b9750612c6683612c16565b925050600181019050612c47565b5085935050505092915050565b60006020820190508181036000830152612c9b8184612c23565b905092915050565b612cac816129f4565b82525050565b6000602082019050612cc76000830184612ca3565b92915050565b612cd6816129f4565b8114612ce157600080fd5b50565b600081359050612cf381612ccd565b92915050565b600080600060608486031215612d1257612d1161296c565b5b6000612d2086828701612ce4565b9350506020612d3186828701612ce4565b9250506040612d4286828701612992565b9150509250925092565b612d5581612971565b82525050565b6000602082019050612d706000830184612d4c565b92915050565b600081905092915050565b50565b6000612d91600083612d76565b9150612d9c82612d81565b600082019050919050565b6000612db282612d84565b9150819050919050565b7f4e487b7100000000000000000000000000000000000000000000000000000000600052601160045260246000fd5b6000612df682612971565b9150612e0183612971565b9250828203905081811115612e1957612e18612dbc565b5b92915050565b6000612e2a82612971565b91507fffffffffffffffffffffffffffffffffffffffffffffffffffffffffffffffff8203612e5c57612e5b612dbc565b5b60018201905091905056fea26469706673582212209b625a3c1a9269b271bfca3db2dcdbf5ecb3b0342d6b752f15a6a98694f4b5c664736f6c63430008130033","opcodes":"PUSH1 0xC0 PUSH1 0x40 MSTORE CALLVALUE DUP1 ISZERO PUSH3 0x11 JUMPI PUSH1 0x0 DUP1 REVERT JUMPDEST POP PUSH3 0x2E PUSH8 0x3C531B4F106D86E7 PUSH1 0xC0 SHL PUSH3 0x10E PUSH1 0x20 SHL PUSH1 0x20 SHR JUMP JUMPDEST PUSH3 0x4A PUSH8 0x92D60C865E6BD71C PUSH1 0xC0 SHL PUSH3 0x10E PUSH1 0x20 SHL PUSH1 0x20 SHR JUMP JUMPDEST ADDRESS CALLER PUSH1 0x40 MLOAD PUSH3 0x5A SWAP1 PUSH3 0x111 JUMP JUMPDEST PUSH3 0x67 SWAP3 SWAP2 SWAP1 PUSH3 0x164 JUMP JUMPDEST PUSH1 0x40 MLOAD DUP1 SWAP2 SUB SWAP1 PUSH1 0x0 CREATE DUP1 ISZERO DUP1 ISZERO PUSH3 0x84 JUMPI RETURNDATASIZE PUSH1 0x0 DUP1 RETURNDATACOPY RETURNDATASIZE PUSH1 0x0 REVERT JUMPDEST POP PUSH20 0xFFFFFFFFFFFFFFFFFFFFFFFFFFFFFFFFFFFFFFFF AND PUSH1 0x80 DUP2 PUSH20 0xFFFFFFFFFFFFFFFFFFFFFFFFFFFFFFFFFFFFFFFF AND DUP2 MSTORE POP POP PUSH3 0xD4 PUSH8 0x4B5D2268EAC551FA PUSH1 0xC0 SHL PUSH3 0x10E PUSH1 0x20 SHL PUSH1 0x20 SHR JUMP JUMPDEST CALLER PUSH20 0xFFFFFFFFFFFFFFFFFFFFFFFFFFFFFFFFFFFFFFFF AND PUSH1 0xA0 DUP2 PUSH20 0xFFFFFFFFFFFFFFFFFFFFFFFFFFFFFFFFFFFFFFFF AND DUP2 MSTORE POP POP PUSH3 0x191 JUMP JUMPDEST POP JUMP JUMPDEST PUSH2 0x307F DUP1 PUSH3 0x1A6E DUP4 CODECOPY ADD SWAP1 JUMP JUMPDEST PUSH1 0x0 PUSH20 0xFFFFFFFFFFFFFFFFFFFFFFFFFFFFFFFFFFFFFFFF DUP3 AND SWAP1 POP SWAP2 SWAP1 POP JUMP JUMPDEST PUSH1 0x0 PUSH3 0x14C DUP3 PUSH3 0x11F JUMP JUMPDEST SWAP1 POP SWAP2 SWAP1 POP JUMP JUMPDEST PUSH3 0x15E DUP2 PUSH3 0x13F JUMP JUMPDEST DUP3 MSTORE POP POP JUMP JUMPDEST PUSH1 0x0 PUSH1 0x40 DUP3 ADD SWAP1 POP PUSH3 0x17B PUSH1 0x0 DUP4 ADD DUP6 PUSH3 0x153 JUMP JUMPDEST PUSH3 0x18A PUSH1 0x20 DUP4 ADD DUP5 PUSH3 0x153 JUMP JUMPDEST SWAP4 SWAP3 POP POP POP JUMP JUMPDEST PUSH1 0x80 MLOAD PUSH1 0xA0 MLOAD PUSH2 0x18B0 PUSH3 0x1BE PUSH1 0x0 CODECOPY PUSH1 0x0 PUSH2 0xB28 ADD MSTORE PUSH1 0x0 DUP2 DUP2 PUSH2 0x19D ADD MSTORE PUSH2 0x7FE ADD MSTORE PUSH2 0x18B0 PUSH1 0x0 RETURN INVALID PUSH1 0x80 PUSH1 0x40 MSTORE PUSH1 0x4 CALLDATASIZE LT PUSH2 0x55 JUMPI PUSH1 0x0 CALLDATALOAD PUSH1 0xE0 SHR DUP1 PUSH4 0x122FD48A EQ PUSH2 0x5A JUMPI DUP1 PUSH4 0x3873AB24 EQ PUSH2 0x85 JUMPI DUP1 PUSH4 0x3F70C2B4 EQ PUSH2 0xB0 JUMPI DUP1 PUSH4 0x53B62866 EQ PUSH2 0xED JUMPI DUP1 PUSH4 0x893D20E8 EQ PUSH2 0x109 JUMPI DUP1 PUSH4 0xF4A44D2D EQ PUSH2 0x134 JUMPI JUMPDEST PUSH1 0x0 DUP1 REVERT JUMPDEST CALLVALUE DUP1 ISZERO PUSH2 0x66 JUMPI PUSH1 0x0 DUP1 REVERT JUMPDEST POP PUSH2 0x6F PUSH2 0x15D JUMP JUMPDEST PUSH1 0x40 MLOAD PUSH2 0x7C SWAP2 SWAP1 PUSH2 0xE85 JUMP JUMPDEST PUSH1 0x40 MLOAD DUP1 SWAP2 SUB SWAP1 RETURN JUMPDEST CALLVALUE DUP1 ISZERO PUSH2 0x91 JUMPI PUSH1 0x0 DUP1 REVERT JUMPDEST POP PUSH2 0x9A PUSH2 0x1C1 JUMP JUMPDEST PUSH1 0x40 MLOAD PUSH2 0xA7 SWAP2 SWAP1 PUSH2 0x1090 JUMP JUMPDEST PUSH1 0x40 MLOAD DUP1 SWAP2 SUB SWAP1 RETURN JUMPDEST CALLVALUE DUP1 ISZERO PUSH2 0xBC JUMPI PUSH1 0x0 DUP1 REVERT JUMPDEST POP PUSH2 0xD7 PUSH1 0x4 DUP1 CALLDATASIZE SUB DUP2 ADD SWAP1 PUSH2 0xD2 SWAP2 SWAP1 PUSH2 0x10F2 JUMP JUMPDEST PUSH2 0x3CD JUMP JUMPDEST PUSH1 0x40 MLOAD PUSH2 0xE4 SWAP2 SWAP1 PUSH2 0x1195 JUMP JUMPDEST PUSH1 0x40 MLOAD DUP1 SWAP2 SUB SWAP1 RETURN JUMPDEST PUSH2 0x107 PUSH1 0x4 DUP1 CALLDATASIZE SUB DUP2 ADD SWAP1 PUSH2 0x102 SWAP2 SWAP1 PUSH2 0x11B7 JUMP JUMPDEST PUSH2 0x63A JUMP JUMPDEST STOP JUMPDEST CALLVALUE DUP1 ISZERO PUSH2 0x115 JUMPI PUSH1 0x0 DUP1 REVERT JUMPDEST POP PUSH2 0x11E PUSH2 0xAE8 JUMP JUMPDEST PUSH1 0x40 MLOAD PUSH2 0x12B SWAP2 SWAP1 PUSH2 0xE85 JUMP JUMPDEST PUSH1 0x40 MLOAD DUP1 SWAP2 SUB SWAP1 RETURN JUMPDEST CALLVALUE DUP1 ISZERO PUSH2 0x140 JUMPI PUSH1 0x0 DUP1 REVERT JUMPDEST POP PUSH2 0x15B PUSH1 0x4 DUP1 CALLDATASIZE SUB DUP2 ADD SWAP1 PUSH2 0x156 SWAP2 SWAP1 PUSH2 0x132C JUMP JUMPDEST PUSH2 0xB4C JUMP JUMPDEST STOP JUMPDEST PUSH1 0x0 PUSH2 0x173 PUSH8 0x13F30B9B3ACAE88 PUSH1 0xC0 SHL PUSH2 0xDFC JUMP JUMPDEST PUSH2 0x187 PUSH8 0xA53BAA258F9529C5 PUSH1 0xC0 SHL PUSH2 0xDFC JUMP JUMPDEST PUSH2 0x19B PUSH8 0xB820CC60119840CC PUSH1 0xC0 SHL PUSH2 0xDFC JUMP JUMPDEST PUSH32 0x0 SWAP1 POP SWAP1 JUMP JUMPDEST PUSH1 0x60 PUSH2 0x1D7 PUSH8 0xE141312109DD5C64 PUSH1 0xC0 SHL PUSH2 0xDFC JUMP JUMPDEST PUSH2 0x1EB PUSH8 0x8F3BEEF1E6D012CC PUSH1 0xC0 SHL PUSH2 0xDFC JUMP JUMPDEST PUSH2 0x1FF PUSH8 0xD93472929DEB9342 PUSH1 0xC0 SHL PUSH2 0xDFC JUMP JUMPDEST PUSH1 0x0 PUSH1 0x1 PUSH1 0x0 CALLER PUSH20 0xFFFFFFFFFFFFFFFFFFFFFFFFFFFFFFFFFFFFFFFF AND PUSH20 0xFFFFFFFFFFFFFFFFFFFFFFFFFFFFFFFFFFFFFFFF AND DUP2 MSTORE PUSH1 0x20 ADD SWAP1 DUP2 MSTORE PUSH1 0x20 ADD PUSH1 0x0 KECCAK256 DUP1 SLOAD DUP1 PUSH1 0x20 MUL PUSH1 0x20 ADD PUSH1 0x40 MLOAD SWAP1 DUP2 ADD PUSH1 0x40 MSTORE DUP1 SWAP3 SWAP2 SWAP1 DUP2 DUP2 MSTORE PUSH1 0x20 ADD PUSH1 0x0 SWAP1 JUMPDEST DUP3 DUP3 LT ISZERO PUSH2 0x398 JUMPI DUP4 DUP3 SWAP1 PUSH1 0x0 MSTORE PUSH1 0x20 PUSH1 0x0 KECCAK256 SWAP1 PUSH1 0x5 MUL ADD PUSH1 0x40 MLOAD DUP1 PUSH1 0xA0 ADD PUSH1 0x40 MSTORE SWAP1 DUP2 PUSH1 0x0 DUP3 ADD PUSH1 0x0 SWAP1 SLOAD SWAP1 PUSH2 0x100 EXP SWAP1 DIV PUSH20 0xFFFFFFFFFFFFFFFFFFFFFFFFFFFFFFFFFFFFFFFF AND PUSH20 0xFFFFFFFFFFFFFFFFFFFFFFFFFFFFFFFFFFFFFFFF AND PUSH20 0xFFFFFFFFFFFFFFFFFFFFFFFFFFFFFFFFFFFFFFFF AND DUP2 MSTORE PUSH1 0x20 ADD PUSH1 0x1 DUP3 ADD SLOAD DUP2 MSTORE PUSH1 0x20 ADD PUSH1 0x2 DUP3 ADD SLOAD DUP2 MSTORE PUSH1 0x20 ADD PUSH1 0x3 DUP3 ADD SLOAD DUP2 MSTORE PUSH1 0x20 ADD PUSH1 0x4 DUP3 ADD DUP1 SLOAD PUSH2 0x307 SWAP1 PUSH2 0x13DE JUMP JUMPDEST DUP1 PUSH1 0x1F ADD PUSH1 0x20 DUP1 SWAP2 DIV MUL PUSH1 0x20 ADD PUSH1 0x40 MLOAD SWAP1 DUP2 ADD PUSH1 0x40 MSTORE DUP1 SWAP3 SWAP2 SWAP1 DUP2 DUP2 MSTORE PUSH1 0x20 ADD DUP3 DUP1 SLOAD PUSH2 0x333 SWAP1 PUSH2 0x13DE JUMP JUMPDEST DUP1 ISZERO PUSH2 0x380 JUMPI DUP1 PUSH1 0x1F LT PUSH2 0x355 JUMPI PUSH2 0x100 DUP1 DUP4 SLOAD DIV MUL DUP4 MSTORE SWAP2 PUSH1 0x20 ADD SWAP2 PUSH2 0x380 JUMP JUMPDEST DUP3 ADD SWAP2 SWAP1 PUSH1 0x0 MSTORE PUSH1 0x20 PUSH1 0x0 KECCAK256 SWAP1 JUMPDEST DUP2 SLOAD DUP2 MSTORE SWAP1 PUSH1 0x1 ADD SWAP1 PUSH1 0x20 ADD DUP1 DUP4 GT PUSH2 0x363 JUMPI DUP3 SWAP1 SUB PUSH1 0x1F AND DUP3 ADD SWAP2 JUMPDEST POP POP POP POP POP DUP2 MSTORE POP POP DUP2 MSTORE PUSH1 0x20 ADD SWAP1 PUSH1 0x1 ADD SWAP1 PUSH2 0x260 JUMP JUMPDEST POP POP POP POP SWAP1 POP PUSH2 0x3B2 PUSH8 0xAFB736E0D00AFDB2 PUSH1 0xC0 SHL PUSH2 0xDFC JUMP JUMPDEST PUSH2 0x3C6 PUSH8 0x304BFC94B862C8A8 PUSH1 0xC0 SHL PUSH2 0xDFC JUMP JUMPDEST DUP1 SWAP2 POP POP SWAP1 JUMP JUMPDEST PUSH2 0x3D5 PUSH2 0xDFF JUMP JUMPDEST PUSH2 0x3E9 PUSH8 0x80A9977995C733BF PUSH1 0xC0 SHL PUSH2 0xDFC JUMP JUMPDEST PUSH2 0x3FD PUSH8 0x2919E17AF44CCA12 PUSH1 0xC0 SHL PUSH2 0xDFC JUMP JUMPDEST PUSH2 0x411 PUSH8 0x29002E00ADC24241 PUSH1 0xC0 SHL PUSH2 0xDFC JUMP JUMPDEST PUSH1 0x0 PUSH20 0xFFFFFFFFFFFFFFFFFFFFFFFFFFFFFFFFFFFFFFFF AND PUSH1 0x0 DUP1 DUP5 DUP2 MSTORE PUSH1 0x20 ADD SWAP1 DUP2 MSTORE PUSH1 0x20 ADD PUSH1 0x0 KECCAK256 PUSH1 0x0 ADD PUSH1 0x0 SWAP1 SLOAD SWAP1 PUSH2 0x100 EXP SWAP1 DIV PUSH20 0xFFFFFFFFFFFFFFFFFFFFFFFFFFFFFFFFFFFFFFFF AND PUSH20 0xFFFFFFFFFFFFFFFFFFFFFFFFFFFFFFFFFFFFFFFF AND SUB PUSH2 0x4D4 JUMPI PUSH2 0x48E PUSH8 0xCA28008DEC5FDAF3 PUSH1 0xC0 SHL PUSH2 0xDFC JUMP JUMPDEST PUSH2 0x4A2 PUSH8 0xDBD555C739B803BC PUSH1 0xC0 SHL PUSH2 0xDFC JUMP JUMPDEST PUSH1 0x40 MLOAD PUSH32 0xFA130D1500000000000000000000000000000000000000000000000000000000 DUP2 MSTORE PUSH1 0x4 ADD PUSH1 0x40 MLOAD DUP1 SWAP2 SUB SWAP1 REVERT JUMPDEST PUSH2 0x4E8 PUSH8 0x18E44BB9899B65E1 PUSH1 0xC0 SHL PUSH2 0xDFC JUMP JUMPDEST PUSH2 0x4FC PUSH8 0x8707FD7731EDAD76 PUSH1 0xC0 SHL PUSH2 0xDFC JUMP JUMPDEST PUSH2 0x510 PUSH8 0xF3D89EFBED7F649E PUSH1 0xC0 SHL PUSH2 0xDFC JUMP JUMPDEST PUSH1 0x0 DUP1 DUP4 DUP2 MSTORE PUSH1 0x20 ADD SWAP1 DUP2 MSTORE PUSH1 0x20 ADD PUSH1 0x0 KECCAK256 PUSH1 0x40 MLOAD DUP1 PUSH1 0xA0 ADD PUSH1 0x40 MSTORE SWAP1 DUP2 PUSH1 0x0 DUP3 ADD PUSH1 0x0 SWAP1 SLOAD SWAP1 PUSH2 0x100 EXP SWAP1 DIV PUSH20 0xFFFFFFFFFFFFFFFFFFFFFFFFFFFFFFFFFFFFFFFF AND PUSH20 0xFFFFFFFFFFFFFFFFFFFFFFFFFFFFFFFFFFFFFFFF AND PUSH20 0xFFFFFFFFFFFFFFFFFFFFFFFFFFFFFFFFFFFFFFFF AND DUP2 MSTORE PUSH1 0x20 ADD PUSH1 0x1 DUP3 ADD SLOAD DUP2 MSTORE PUSH1 0x20 ADD PUSH1 0x2 DUP3 ADD SLOAD DUP2 MSTORE PUSH1 0x20 ADD PUSH1 0x3 DUP3 ADD SLOAD DUP2 MSTORE PUSH1 0x20 ADD PUSH1 0x4 DUP3 ADD DUP1 SLOAD PUSH2 0x5B1 SWAP1 PUSH2 0x13DE JUMP JUMPDEST DUP1 PUSH1 0x1F ADD PUSH1 0x20 DUP1 SWAP2 DIV MUL PUSH1 0x20 ADD PUSH1 0x40 MLOAD SWAP1 DUP2 ADD PUSH1 0x40 MSTORE DUP1 SWAP3 SWAP2 SWAP1 DUP2 DUP2 MSTORE PUSH1 0x20 ADD DUP3 DUP1 SLOAD PUSH2 0x5DD SWAP1 PUSH2 0x13DE JUMP JUMPDEST DUP1 ISZERO PUSH2 0x62A JUMPI DUP1 PUSH1 0x1F LT PUSH2 0x5FF JUMPI PUSH2 0x100 DUP1 DUP4 SLOAD DIV MUL DUP4 MSTORE SWAP2 PUSH1 0x20 ADD SWAP2 PUSH2 0x62A JUMP JUMPDEST DUP3 ADD SWAP2 SWAP1 PUSH1 0x0 MSTORE PUSH1 0x20 PUSH1 0x0 KECCAK256 SWAP1 JUMPDEST DUP2 SLOAD DUP2 MSTORE SWAP1 PUSH1 0x1 ADD SWAP1 PUSH1 0x20 ADD DUP1 DUP4 GT PUSH2 0x60D JUMPI DUP3 SWAP1 SUB PUSH1 0x1F AND DUP3 ADD SWAP2 JUMPDEST POP POP POP POP POP DUP2 MSTORE POP POP SWAP1 POP SWAP2 SWAP1 POP JUMP JUMPDEST PUSH2 0x64E PUSH8 0xBFE1AAF2F28B0334 PUSH1 0xC0 SHL PUSH2 0xDFC JUMP JUMPDEST PUSH2 0x662 PUSH8 0xB310304797123F19 PUSH1 0xC0 SHL PUSH2 0xDFC JUMP JUMPDEST PUSH2 0x676 PUSH8 0xAB891A1C6434D1F1 PUSH1 0xC0 SHL PUSH2 0xDFC JUMP JUMPDEST PUSH1 0x0 PUSH2 0x681 DUP4 PUSH2 0x3CD JUMP JUMPDEST SWAP1 POP PUSH2 0x697 PUSH8 0x566A2184866756C3 PUSH1 0xC0 SHL PUSH2 0xDFC JUMP JUMPDEST PUSH2 0x6AB PUSH8 0xE43581D3DABF0D32 PUSH1 0xC0 SHL PUSH2 0xDFC JUMP JUMPDEST DUP1 PUSH1 0x60 ADD MLOAD DUP3 GT ISZERO PUSH2 0x711 JUMPI PUSH2 0x6CB PUSH8 0x6FDD6AFF41EBAB6E PUSH1 0xC0 SHL PUSH2 0xDFC JUMP JUMPDEST PUSH2 0x6DF PUSH8 0x9CCA827127EB2153 PUSH1 0xC0 SHL PUSH2 0xDFC JUMP JUMPDEST PUSH1 0x40 MLOAD PUSH32 0x2B2E799600000000000000000000000000000000000000000000000000000000 DUP2 MSTORE PUSH1 0x4 ADD PUSH1 0x40 MLOAD DUP1 SWAP2 SUB SWAP1 REVERT JUMPDEST PUSH2 0x725 PUSH8 0x2BDA5D0BDC72EA62 PUSH1 0xC0 SHL PUSH2 0xDFC JUMP JUMPDEST PUSH2 0x739 PUSH8 0x3F5007C728EB3562 PUSH1 0xC0 SHL PUSH2 0xDFC JUMP JUMPDEST PUSH2 0x74D PUSH8 0x6CD1A06041A98F5 PUSH1 0xC0 SHL PUSH2 0xDFC JUMP JUMPDEST DUP2 DUP2 PUSH1 0x40 ADD MLOAD PUSH2 0x75D SWAP2 SWAP1 PUSH2 0x143E JUMP JUMPDEST CALLVALUE LT ISZERO PUSH2 0x7BE JUMPI PUSH2 0x778 PUSH8 0xC23F32CEB89D37A6 PUSH1 0xC0 SHL PUSH2 0xDFC JUMP JUMPDEST PUSH2 0x78C PUSH8 0x68218F3B7BFCB196 PUSH1 0xC0 SHL PUSH2 0xDFC JUMP JUMPDEST PUSH1 0x40 MLOAD PUSH32 0x250C003600000000000000000000000000000000000000000000000000000000 DUP2 MSTORE PUSH1 0x4 ADD PUSH1 0x40 MLOAD DUP1 SWAP2 SUB SWAP1 REVERT JUMPDEST PUSH2 0x7D2 PUSH8 0x57F0086508EBBC7B PUSH1 0xC0 SHL PUSH2 0xDFC JUMP JUMPDEST PUSH2 0x7E6 PUSH8 0x87443C07DD8FD9E2 PUSH1 0xC0 SHL PUSH2 0xDFC JUMP JUMPDEST PUSH2 0x7FA PUSH8 0xBC7B29CFAA113A23 PUSH1 0xC0 SHL PUSH2 0xDFC JUMP JUMPDEST PUSH1 0x0 PUSH32 0x0 PUSH20 0xFFFFFFFFFFFFFFFFFFFFFFFFFFFFFFFFFFFFFFFF AND PUSH4 0xC3617650 DUP5 DUP5 PUSH1 0x40 ADD MLOAD PUSH2 0x848 SWAP2 SWAP1 PUSH2 0x143E JUMP JUMPDEST DUP5 PUSH1 0x0 ADD MLOAD CALLER DUP7 PUSH1 0x20 ADD MLOAD PUSH1 0x40 MLOAD DUP6 PUSH4 0xFFFFFFFF AND PUSH1 0xE0 SHL DUP2 MSTORE PUSH1 0x4 ADD PUSH2 0x871 SWAP4 SWAP3 SWAP2 SWAP1 PUSH2 0x148F JUMP JUMPDEST PUSH1 0x20 PUSH1 0x40 MLOAD DUP1 DUP4 SUB DUP2 DUP6 DUP9 GAS CALL ISZERO DUP1 ISZERO PUSH2 0x88F JUMPI RETURNDATASIZE PUSH1 0x0 DUP1 RETURNDATACOPY RETURNDATASIZE PUSH1 0x0 REVERT JUMPDEST POP POP POP POP POP PUSH1 0x40 MLOAD RETURNDATASIZE PUSH1 0x1F NOT PUSH1 0x1F DUP3 ADD AND DUP3 ADD DUP1 PUSH1 0x40 MSTORE POP DUP2 ADD SWAP1 PUSH2 0x8B4 SWAP2 SWAP1 PUSH2 0x14DB JUMP JUMPDEST SWAP1 POP PUSH2 0x8CA PUSH8 0x75AE833B39B8DE6F PUSH1 0xC0 SHL PUSH2 0xDFC JUMP JUMPDEST PUSH2 0x8DE PUSH8 0xB790AB9981AB4D93 PUSH1 0xC0 SHL PUSH2 0xDFC JUMP JUMPDEST PUSH1 0x0 DUP4 DUP4 PUSH1 0x40 ADD MLOAD PUSH2 0x8F0 SWAP2 SWAP1 PUSH2 0x143E JUMP JUMPDEST CALLVALUE PUSH2 0x8FB SWAP2 SWAP1 PUSH2 0x1508 JUMP JUMPDEST SWAP1 POP PUSH2 0x911 PUSH8 0xBDC8426709BF66A5 PUSH1 0xC0 SHL PUSH2 0xDFC JUMP JUMPDEST PUSH2 0x925 PUSH8 0x5DFA6510FCEF07B PUSH1 0xC0 SHL PUSH2 0xDFC JUMP JUMPDEST PUSH1 0x0 DUP2 GT ISZERO PUSH2 0xA77 JUMPI PUSH2 0x942 PUSH8 0xDC975A4B4AAFF935 PUSH1 0xC0 SHL PUSH2 0xDFC JUMP JUMPDEST PUSH2 0x956 PUSH8 0xB3C125875CDE6317 PUSH1 0xC0 SHL PUSH2 0xDFC JUMP JUMPDEST PUSH2 0x96A PUSH8 0xF09E8B817B6BFD3E PUSH1 0xC0 SHL PUSH2 0xDFC JUMP JUMPDEST PUSH1 0x0 CALLER PUSH20 0xFFFFFFFFFFFFFFFFFFFFFFFFFFFFFFFFFFFFFFFF AND DUP3 PUSH1 0x40 MLOAD PUSH2 0x990 SWAP1 PUSH2 0x156D JUMP JUMPDEST PUSH1 0x0 PUSH1 0x40 MLOAD DUP1 DUP4 SUB DUP2 DUP6 DUP8 GAS CALL SWAP3 POP POP POP RETURNDATASIZE DUP1 PUSH1 0x0 DUP2 EQ PUSH2 0x9CD JUMPI PUSH1 0x40 MLOAD SWAP2 POP PUSH1 0x1F NOT PUSH1 0x3F RETURNDATASIZE ADD AND DUP3 ADD PUSH1 0x40 MSTORE RETURNDATASIZE DUP3 MSTORE RETURNDATASIZE PUSH1 0x0 PUSH1 0x20 DUP5 ADD RETURNDATACOPY PUSH2 0x9D2 JUMP JUMPDEST PUSH1 0x60 SWAP2 POP JUMPDEST POP POP SWAP1 POP PUSH2 0x9EA PUSH8 0xE038E8F5D75B29C8 PUSH1 0xC0 SHL PUSH2 0xDFC JUMP JUMPDEST PUSH2 0x9FE PUSH8 0xBB1749EEFA776CA6 PUSH1 0xC0 SHL PUSH2 0xDFC JUMP JUMPDEST DUP1 PUSH2 0xA5D JUMPI PUSH2 0xA17 PUSH8 0x6AA45FA9AF111131 PUSH1 0xC0 SHL PUSH2 0xDFC JUMP JUMPDEST PUSH2 0xA2B PUSH8 0xBDBEF0C8E72BC773 PUSH1 0xC0 SHL PUSH2 0xDFC JUMP JUMPDEST PUSH1 0x40 MLOAD PUSH32 0x3A06D36900000000000000000000000000000000000000000000000000000000 DUP2 MSTORE PUSH1 0x4 ADD PUSH1 0x40 MLOAD DUP1 SWAP2 SUB SWAP1 REVERT JUMPDEST PUSH2 0xA71 PUSH8 0x4361D1C7DACEA6CA PUSH1 0xC0 SHL PUSH2 0xDFC JUMP JUMPDEST POP PUSH2 0xA8C JUMP JUMPDEST PUSH2 0xA8B PUSH8 0xCBAD85B3D5C7F4C PUSH1 0xC0 SHL PUSH2 0xDFC JUMP JUMPDEST JUMPDEST PUSH2 0xAA0 PUSH8 0xBB1CCC7538E0AB87 PUSH1 0xC0 SHL PUSH2 0xDFC JUMP JUMPDEST PUSH2 0xAB4 PUSH8 0xFB379026E6D0F737 PUSH1 0xC0 SHL PUSH2 0xDFC JUMP JUMPDEST DUP2 PUSH32 0xCA570940FC0DE1684A030665039469593DD4C228A17D8DA38A53BBE884C07CAF PUSH1 0x40 MLOAD PUSH1 0x40 MLOAD DUP1 SWAP2 SUB SWAP1 LOG2 POP POP POP POP POP JUMP JUMPDEST PUSH1 0x0 PUSH2 0xAFE PUSH8 0x68E17EFFB2527AA7 PUSH1 0xC0 SHL PUSH2 0xDFC JUMP JUMPDEST PUSH2 0xB12 PUSH8 0x7C224ECA154187DE PUSH1 0xC0 SHL PUSH2 0xDFC JUMP JUMPDEST PUSH2 0xB26 PUSH8 0x4366AAD32EB8DA14 PUSH1 0xC0 SHL PUSH2 0xDFC JUMP JUMPDEST PUSH32 0x0 SWAP1 POP SWAP1 JUMP JUMPDEST PUSH2 0xB60 PUSH8 0x6C26E830FF756B98 PUSH1 0xC0 SHL PUSH2 0xDFC JUMP JUMPDEST PUSH2 0xB74 PUSH8 0xAD022CEF99619014 PUSH1 0xC0 SHL PUSH2 0xDFC JUMP JUMPDEST PUSH2 0xB88 PUSH8 0x55780EB4D433C7FE PUSH1 0xC0 SHL PUSH2 0xDFC JUMP JUMPDEST PUSH1 0x0 PUSH1 0x40 MLOAD DUP1 PUSH1 0xA0 ADD PUSH1 0x40 MSTORE DUP1 CALLER PUSH20 0xFFFFFFFFFFFFFFFFFFFFFFFFFFFFFFFFFFFFFFFF AND DUP2 MSTORE PUSH1 0x20 ADD DUP7 DUP2 MSTORE PUSH1 0x20 ADD DUP5 DUP2 MSTORE PUSH1 0x20 ADD DUP4 DUP2 MSTORE PUSH1 0x20 ADD DUP6 DUP2 MSTORE POP SWAP1 POP PUSH2 0xBDD PUSH8 0xBADE7BCACC134335 PUSH1 0xC0 SHL PUSH2 0xDFC JUMP JUMPDEST DUP1 PUSH1 0x0 DUP1 DUP8 DUP2 MSTORE PUSH1 0x20 ADD SWAP1 DUP2 MSTORE PUSH1 0x20 ADD PUSH1 0x0 KECCAK256 PUSH1 0x0 DUP3 ADD MLOAD DUP2 PUSH1 0x0 ADD PUSH1 0x0 PUSH2 0x100 EXP DUP2 SLOAD DUP2 PUSH20 0xFFFFFFFFFFFFFFFFFFFFFFFFFFFFFFFFFFFFFFFF MUL NOT AND SWAP1 DUP4 PUSH20 0xFFFFFFFFFFFFFFFFFFFFFFFFFFFFFFFFFFFFFFFF AND MUL OR SWAP1 SSTORE POP PUSH1 0x20 DUP3 ADD MLOAD DUP2 PUSH1 0x1 ADD SSTORE PUSH1 0x40 DUP3 ADD MLOAD DUP2 PUSH1 0x2 ADD SSTORE PUSH1 0x60 DUP3 ADD MLOAD DUP2 PUSH1 0x3 ADD SSTORE PUSH1 0x80 DUP3 ADD MLOAD DUP2 PUSH1 0x4 ADD SWAP1 DUP2 PUSH2 0xC6A SWAP2 SWAP1 PUSH2 0x172E JUMP JUMPDEST POP SWAP1 POP POP PUSH2 0xC82 PUSH8 0xBA4F4F6E70232AB4 PUSH1 0xC0 SHL PUSH2 0xDFC JUMP JUMPDEST PUSH2 0xC96 PUSH8 0xB70A2CBCA9B61AE5 PUSH1 0xC0 SHL PUSH2 0xDFC JUMP JUMPDEST PUSH1 0x1 PUSH1 0x0 CALLER PUSH20 0xFFFFFFFFFFFFFFFFFFFFFFFFFFFFFFFFFFFFFFFF AND PUSH20 0xFFFFFFFFFFFFFFFFFFFFFFFFFFFFFFFFFFFFFFFF AND DUP2 MSTORE PUSH1 0x20 ADD SWAP1 DUP2 MSTORE PUSH1 0x20 ADD PUSH1 0x0 KECCAK256 DUP2 SWAP1 DUP1 PUSH1 0x1 DUP2 SLOAD ADD DUP1 DUP3 SSTORE DUP1 SWAP2 POP POP PUSH1 0x1 SWAP1 SUB SWAP1 PUSH1 0x0 MSTORE PUSH1 0x20 PUSH1 0x0 KECCAK256 SWAP1 PUSH1 0x5 MUL ADD PUSH1 0x0 SWAP1 SWAP2 SWAP1 SWAP2 SWAP1 SWAP2 POP PUSH1 0x0 DUP3 ADD MLOAD DUP2 PUSH1 0x0 ADD PUSH1 0x0 PUSH2 0x100 EXP DUP2 SLOAD DUP2 PUSH20 0xFFFFFFFFFFFFFFFFFFFFFFFFFFFFFFFFFFFFFFFF MUL NOT AND SWAP1 DUP4 PUSH20 0xFFFFFFFFFFFFFFFFFFFFFFFFFFFFFFFFFFFFFFFF AND MUL OR SWAP1 SSTORE POP PUSH1 0x20 DUP3 ADD MLOAD DUP2 PUSH1 0x1 ADD SSTORE PUSH1 0x40 DUP3 ADD MLOAD DUP2 PUSH1 0x2 ADD SSTORE PUSH1 0x60 DUP3 ADD MLOAD DUP2 PUSH1 0x3 ADD SSTORE PUSH1 0x80 DUP3 ADD MLOAD DUP2 PUSH1 0x4 ADD SWAP1 DUP2 PUSH2 0xD79 SWAP2 SWAP1 PUSH2 0x172E JUMP JUMPDEST POP POP POP PUSH2 0xD90 PUSH8 0x6CBBF2D75ED3B387 PUSH1 0xC0 SHL PUSH2 0xDFC JUMP JUMPDEST PUSH2 0xDA4 PUSH8 0xCDC6124DDAE38CDC PUSH1 0xC0 SHL PUSH2 0xDFC JUMP JUMPDEST DUP5 CALLER PUSH20 0xFFFFFFFFFFFFFFFFFFFFFFFFFFFFFFFFFFFFFFFF AND PUSH32 0x752C6E59798F934C2C159F893DCFF42ECA6BB9529F328570F172E50C9774CB54 DUP6 DUP8 PUSH1 0x40 MLOAD PUSH2 0xDED SWAP3 SWAP2 SWAP1 PUSH2 0x184A JUMP JUMPDEST PUSH1 0x40 MLOAD DUP1 SWAP2 SUB SWAP1 LOG3 POP POP POP POP POP JUMP JUMPDEST POP JUMP JUMPDEST PUSH1 0x40 MLOAD DUP1 PUSH1 0xA0 ADD PUSH1 0x40 MSTORE DUP1 PUSH1 0x0 PUSH20 0xFFFFFFFFFFFFFFFFFFFFFFFFFFFFFFFFFFFFFFFF AND DUP2 MSTORE PUSH1 0x20 ADD PUSH1 0x0 DUP2 MSTORE PUSH1 0x20 ADD PUSH1 0x0 DUP2 MSTORE PUSH1 0x20 ADD PUSH1 0x0 DUP2 MSTORE PUSH1 0x20 ADD PUSH1 0x60 DUP2 MSTORE POP SWAP1 JUMP JUMPDEST PUSH1 0x0 PUSH20 0xFFFFFFFFFFFFFFFFFFFFFFFFFFFFFFFFFFFFFFFF DUP3 AND SWAP1 POP SWAP2 SWAP1 POP JUMP JUMPDEST PUSH1 0x0 PUSH2 0xE6F DUP3 PUSH2 0xE44 JUMP JUMPDEST SWAP1 POP SWAP2 SWAP1 POP JUMP JUMPDEST PUSH2 0xE7F DUP2 PUSH2 0xE64 JUMP JUMPDEST DUP3 MSTORE POP POP JUMP JUMPDEST PUSH1 0x0 PUSH1 0x20 DUP3 ADD SWAP1 POP PUSH2 0xE9A PUSH1 0x0 DUP4 ADD DUP5 PUSH2 0xE76 JUMP JUMPDEST SWAP3 SWAP2 POP POP JUMP JUMPDEST PUSH1 0x0 DUP2 MLOAD SWAP1 POP SWAP2 SWAP1 POP JUMP JUMPDEST PUSH1 0x0 DUP3 DUP3 MSTORE PUSH1 0x20 DUP3 ADD SWAP1 POP SWAP3 SWAP2 POP POP JUMP JUMPDEST PUSH1 0x0 DUP2 SWAP1 POP PUSH1 0x20 DUP3 ADD SWAP1 POP SWAP2 SWAP1 POP JUMP JUMPDEST PUSH2 0xED5 DUP2 PUSH2 0xE64 JUMP JUMPDEST DUP3 MSTORE POP POP JUMP JUMPDEST PUSH1 0x0 DUP2 SWAP1 POP SWAP2 SWAP1 POP JUMP JUMPDEST PUSH2 0xEEE DUP2 PUSH2 0xEDB JUMP JUMPDEST DUP3 MSTORE POP POP JUMP JUMPDEST PUSH1 0x0 DUP2 MLOAD SWAP1 POP SWAP2 SWAP1 POP JUMP JUMPDEST PUSH1 0x0 DUP3 DUP3 MSTORE PUSH1 0x20 DUP3 ADD SWAP1 POP SWAP3 SWAP2 POP POP JUMP JUMPDEST PUSH1 0x0 JUMPDEST DUP4 DUP2 LT ISZERO PUSH2 0xF2E JUMPI DUP1 DUP3 ADD MLOAD DUP2 DUP5 ADD MSTORE PUSH1 0x20 DUP2 ADD SWAP1 POP PUSH2 0xF13 JUMP JUMPDEST PUSH1 0x0 DUP5 DUP5 ADD MSTORE POP POP POP POP JUMP JUMPDEST PUSH1 0x0 PUSH1 0x1F NOT PUSH1 0x1F DUP4 ADD AND SWAP1 POP SWAP2 SWAP1 POP JUMP JUMPDEST PUSH1 0x0 PUSH2 0xF56 DUP3 PUSH2 0xEF4 JUMP JUMPDEST PUSH2 0xF60 DUP2 DUP6 PUSH2 0xEFF JUMP JUMPDEST SWAP4 POP PUSH2 0xF70 DUP2 DUP6 PUSH1 0x20 DUP7 ADD PUSH2 0xF10 JUMP JUMPDEST PUSH2 0xF79 DUP2 PUSH2 0xF3A JUMP JUMPDEST DUP5 ADD SWAP2 POP POP SWAP3 SWAP2 POP POP JUMP JUMPDEST PUSH1 0x0 PUSH1 0xA0 DUP4 ADD PUSH1 0x0 DUP4 ADD MLOAD PUSH2 0xF9C PUSH1 0x0 DUP7 ADD DUP3 PUSH2 0xECC JUMP JUMPDEST POP PUSH1 0x20 DUP4 ADD MLOAD PUSH2 0xFAF PUSH1 0x20 DUP7 ADD DUP3 PUSH2 0xEE5 JUMP JUMPDEST POP PUSH1 0x40 DUP4 ADD MLOAD PUSH2 0xFC2 PUSH1 0x40 DUP7 ADD DUP3 PUSH2 0xEE5 JUMP JUMPDEST POP PUSH1 0x60 DUP4 ADD MLOAD PUSH2 0xFD5 PUSH1 0x60 DUP7 ADD DUP3 PUSH2 0xEE5 JUMP JUMPDEST POP PUSH1 0x80 DUP4 ADD MLOAD DUP5 DUP3 SUB PUSH1 0x80 DUP7 ADD MSTORE PUSH2 0xFED DUP3 DUP3 PUSH2 0xF4B JUMP JUMPDEST SWAP2 POP POP DUP1 SWAP2 POP POP SWAP3 SWAP2 POP POP JUMP JUMPDEST PUSH1 0x0 PUSH2 0x1006 DUP4 DUP4 PUSH2 0xF84 JUMP JUMPDEST SWAP1 POP SWAP3 SWAP2 POP POP JUMP JUMPDEST PUSH1 0x0 PUSH1 0x20 DUP3 ADD SWAP1 POP SWAP2 SWAP1 POP JUMP JUMPDEST PUSH1 0x0 PUSH2 0x1026 DUP3 PUSH2 0xEA0 JUMP JUMPDEST PUSH2 0x1030 DUP2 DUP6 PUSH2 0xEAB JUMP JUMPDEST SWAP4 POP DUP4 PUSH1 0x20 DUP3 MUL DUP6 ADD PUSH2 0x1042 DUP6 PUSH2 0xEBC JUMP JUMPDEST DUP1 PUSH1 0x0 JUMPDEST DUP6 DUP2 LT ISZERO PUSH2 0x107E JUMPI DUP5 DUP5 SUB DUP10 MSTORE DUP2 MLOAD PUSH2 0x105F DUP6 DUP3 PUSH2 0xFFA JUMP JUMPDEST SWAP5 POP PUSH2 0x106A DUP4 PUSH2 0x100E JUMP JUMPDEST SWAP3 POP PUSH1 0x20 DUP11 ADD SWAP10 POP POP PUSH1 0x1 DUP2 ADD SWAP1 POP PUSH2 0x1046 JUMP JUMPDEST POP DUP3 SWAP8 POP DUP8 SWAP6 POP POP POP POP POP POP SWAP3 SWAP2 POP POP JUMP JUMPDEST PUSH1 0x0 PUSH1 0x20 DUP3 ADD SWAP1 POP DUP2 DUP2 SUB PUSH1 0x0 DUP4 ADD MSTORE PUSH2 0x10AA DUP2 DUP5 PUSH2 0x101B JUMP JUMPDEST SWAP1 POP SWAP3 SWAP2 POP POP JUMP JUMPDEST PUSH1 0x0 PUSH1 0x40 MLOAD SWAP1 POP SWAP1 JUMP JUMPDEST PUSH1 0x0 DUP1 REVERT JUMPDEST PUSH1 0x0 DUP1 REVERT JUMPDEST PUSH2 0x10CF DUP2 PUSH2 0xEDB JUMP JUMPDEST DUP2 EQ PUSH2 0x10DA JUMPI PUSH1 0x0 DUP1 REVERT JUMPDEST POP JUMP JUMPDEST PUSH1 0x0 DUP2 CALLDATALOAD SWAP1 POP PUSH2 0x10EC DUP2 PUSH2 0x10C6 JUMP JUMPDEST SWAP3 SWAP2 POP POP JUMP JUMPDEST PUSH1 0x0 PUSH1 0x20 DUP3 DUP5 SUB SLT ISZERO PUSH2 0x1108 JUMPI PUSH2 0x1107 PUSH2 0x10BC JUMP JUMPDEST JUMPDEST PUSH1 0x0 PUSH2 0x1116 DUP5 DUP3 DUP6 ADD PUSH2 0x10DD JUMP JUMPDEST SWAP2 POP POP SWAP3 SWAP2 POP POP JUMP JUMPDEST PUSH1 0x0 PUSH1 0xA0 DUP4 ADD PUSH1 0x0 DUP4 ADD MLOAD PUSH2 0x1137 PUSH1 0x0 DUP7 ADD DUP3 PUSH2 0xECC JUMP JUMPDEST POP PUSH1 0x20 DUP4 ADD MLOAD PUSH2 0x114A PUSH1 0x20 DUP7 ADD DUP3 PUSH2 0xEE5 JUMP JUMPDEST POP PUSH1 0x40 DUP4 ADD MLOAD PUSH2 0x115D PUSH1 0x40 DUP7 ADD DUP3 PUSH2 0xEE5 JUMP JUMPDEST POP PUSH1 0x60 DUP4 ADD MLOAD PUSH2 0x1170 PUSH1 0x60 DUP7 ADD DUP3 PUSH2 0xEE5 JUMP JUMPDEST POP PUSH1 0x80 DUP4 ADD MLOAD DUP5 DUP3 SUB PUSH1 0x80 DUP7 ADD MSTORE PUSH2 0x1188 DUP3 DUP3 PUSH2 0xF4B JUMP JUMPDEST SWAP2 POP POP DUP1 SWAP2 POP POP SWAP3 SWAP2 POP POP JUMP JUMPDEST PUSH1 0x0 PUSH1 0x20 DUP3 ADD SWAP1 POP DUP2 DUP2 SUB PUSH1 0x0 DUP4 ADD MSTORE PUSH2 0x11AF DUP2 DUP5 PUSH2 0x111F JUMP JUMPDEST SWAP1 POP SWAP3 SWAP2 POP POP JUMP JUMPDEST PUSH1 0x0 DUP1 PUSH1 0x40 DUP4 DUP6 SUB SLT ISZERO PUSH2 0x11CE JUMPI PUSH2 0x11CD PUSH2 0x10BC JUMP JUMPDEST JUMPDEST PUSH1 0x0 PUSH2 0x11DC DUP6 DUP3 DUP7 ADD PUSH2 0x10DD JUMP JUMPDEST SWAP3 POP POP PUSH1 0x20 PUSH2 0x11ED DUP6 DUP3 DUP7 ADD PUSH2 0x10DD JUMP JUMPDEST SWAP2 POP POP SWAP3 POP SWAP3 SWAP1 POP JUMP JUMPDEST PUSH1 0x0 DUP1 REVERT JUMPDEST PUSH1 0x0 DUP1 REVERT JUMPDEST PUSH32 0x4E487B7100000000000000000000000000000000000000000000000000000000 PUSH1 0x0 MSTORE PUSH1 0x41 PUSH1 0x4 MSTORE PUSH1 0x24 PUSH1 0x0 REVERT JUMPDEST PUSH2 0x1239 DUP3 PUSH2 0xF3A JUMP JUMPDEST DUP2 ADD DUP2 DUP2 LT PUSH8 0xFFFFFFFFFFFFFFFF DUP3 GT OR ISZERO PUSH2 0x1258 JUMPI PUSH2 0x1257 PUSH2 0x1201 JUMP JUMPDEST JUMPDEST DUP1 PUSH1 0x40 MSTORE POP POP POP JUMP JUMPDEST PUSH1 0x0 PUSH2 0x126B PUSH2 0x10B2 JUMP JUMPDEST SWAP1 POP PUSH2 0x1277 DUP3 DUP3 PUSH2 0x1230 JUMP JUMPDEST SWAP2 SWAP1 POP JUMP JUMPDEST PUSH1 0x0 PUSH8 0xFFFFFFFFFFFFFFFF DUP3 GT ISZERO PUSH2 0x1297 JUMPI PUSH2 0x1296 PUSH2 0x1201 JUMP JUMPDEST JUMPDEST PUSH2 0x12A0 DUP3 PUSH2 0xF3A JUMP JUMPDEST SWAP1 POP PUSH1 0x20 DUP2 ADD SWAP1 POP SWAP2 SWAP1 POP JUMP JUMPDEST DUP3 DUP2 DUP4 CALLDATACOPY PUSH1 0x0 DUP4 DUP4 ADD MSTORE POP POP POP JUMP JUMPDEST PUSH1 0x0 PUSH2 0x12CF PUSH2 0x12CA DUP5 PUSH2 0x127C JUMP JUMPDEST PUSH2 0x1261 JUMP JUMPDEST SWAP1 POP DUP3 DUP2 MSTORE PUSH1 0x20 DUP2 ADD DUP5 DUP5 DUP5 ADD GT ISZERO PUSH2 0x12EB JUMPI PUSH2 0x12EA PUSH2 0x11FC JUMP JUMPDEST JUMPDEST PUSH2 0x12F6 DUP5 DUP3 DUP6 PUSH2 0x12AD JUMP JUMPDEST POP SWAP4 SWAP3 POP POP POP JUMP JUMPDEST PUSH1 0x0 DUP3 PUSH1 0x1F DUP4 ADD SLT PUSH2 0x1313 JUMPI PUSH2 0x1312 PUSH2 0x11F7 JUMP JUMPDEST JUMPDEST DUP2 CALLDATALOAD PUSH2 0x1323 DUP5 DUP3 PUSH1 0x20 DUP7 ADD PUSH2 0x12BC JUMP JUMPDEST SWAP2 POP POP SWAP3 SWAP2 POP POP JUMP JUMPDEST PUSH1 0x0 DUP1 PUSH1 0x0 DUP1 PUSH1 0x80 DUP6 DUP8 SUB SLT ISZERO PUSH2 0x1346 JUMPI PUSH2 0x1345 PUSH2 0x10BC JUMP JUMPDEST JUMPDEST PUSH1 0x0 PUSH2 0x1354 DUP8 DUP3 DUP9 ADD PUSH2 0x10DD JUMP JUMPDEST SWAP5 POP POP PUSH1 0x20 DUP6 ADD CALLDATALOAD PUSH8 0xFFFFFFFFFFFFFFFF DUP2 GT ISZERO PUSH2 0x1375 JUMPI PUSH2 0x1374 PUSH2 0x10C1 JUMP JUMPDEST JUMPDEST PUSH2 0x1381 DUP8 DUP3 DUP9 ADD PUSH2 0x12FE JUMP JUMPDEST SWAP4 POP POP PUSH1 0x40 PUSH2 0x1392 DUP8 DUP3 DUP9 ADD PUSH2 0x10DD JUMP JUMPDEST SWAP3 POP POP PUSH1 0x60 PUSH2 0x13A3 DUP8 DUP3 DUP9 ADD PUSH2 0x10DD JUMP JUMPDEST SWAP2 POP POP SWAP3 SWAP6 SWAP2 SWAP5 POP SWAP3 POP JUMP JUMPDEST PUSH32 0x4E487B7100000000000000000000000000000000000000000000000000000000 PUSH1 0x0 MSTORE PUSH1 0x22 PUSH1 0x4 MSTORE PUSH1 0x24 PUSH1 0x0 REVERT JUMPDEST PUSH1 0x0 PUSH1 0x2 DUP3 DIV SWAP1 POP PUSH1 0x1 DUP3 AND DUP1 PUSH2 0x13F6 JUMPI PUSH1 0x7F DUP3 AND SWAP2 POP JUMPDEST PUSH1 0x20 DUP3 LT DUP2 SUB PUSH2 0x1409 JUMPI PUSH2 0x1408 PUSH2 0x13AF JUMP JUMPDEST JUMPDEST POP SWAP2 SWAP1 POP JUMP JUMPDEST PUSH32 0x4E487B7100000000000000000000000000000000000000000000000000000000 PUSH1 0x0 MSTORE PUSH1 0x11 PUSH1 0x4 MSTORE PUSH1 0x24 PUSH1 0x0 REVERT JUMPDEST PUSH1 0x0 PUSH2 0x1449 DUP3 PUSH2 0xEDB JUMP JUMPDEST SWAP2 POP PUSH2 0x1454 DUP4 PUSH2 0xEDB JUMP JUMPDEST SWAP3 POP DUP3 DUP3 MUL PUSH2 0x1462 DUP2 PUSH2 0xEDB JUMP JUMPDEST SWAP2 POP DUP3 DUP3 DIV DUP5 EQ DUP4 ISZERO OR PUSH2 0x1479 JUMPI PUSH2 0x1478 PUSH2 0x140F JUMP JUMPDEST JUMPDEST POP SWAP3 SWAP2 POP POP JUMP JUMPDEST PUSH2 0x1489 DUP2 PUSH2 0xEDB JUMP JUMPDEST DUP3 MSTORE POP POP JUMP JUMPDEST PUSH1 0x0 PUSH1 0x60 DUP3 ADD SWAP1 POP PUSH2 0x14A4 PUSH1 0x0 DUP4 ADD DUP7 PUSH2 0xE76 JUMP JUMPDEST PUSH2 0x14B1 PUSH1 0x20 DUP4 ADD DUP6 PUSH2 0xE76 JUMP JUMPDEST PUSH2 0x14BE PUSH1 0x40 DUP4 ADD DUP5 PUSH2 0x1480 JUMP JUMPDEST SWAP5 SWAP4 POP POP POP POP JUMP JUMPDEST PUSH1 0x0 DUP2 MLOAD SWAP1 POP PUSH2 0x14D5 DUP2 PUSH2 0x10C6 JUMP JUMPDEST SWAP3 SWAP2 POP POP JUMP JUMPDEST PUSH1 0x0 PUSH1 0x20 DUP3 DUP5 SUB SLT ISZERO PUSH2 0x14F1 JUMPI PUSH2 0x14F0 PUSH2 0x10BC JUMP JUMPDEST JUMPDEST PUSH1 0x0 PUSH2 0x14FF DUP5 DUP3 DUP6 ADD PUSH2 0x14C6 JUMP JUMPDEST SWAP2 POP POP SWAP3 SWAP2 POP POP JUMP JUMPDEST PUSH1 0x0 PUSH2 0x1513 DUP3 PUSH2 0xEDB JUMP JUMPDEST SWAP2 POP PUSH2 0x151E DUP4 PUSH2 0xEDB JUMP JUMPDEST SWAP3 POP DUP3 DUP3 SUB SWAP1 POP DUP2 DUP2 GT ISZERO PUSH2 0x1536 JUMPI PUSH2 0x1535 PUSH2 0x140F JUMP JUMPDEST JUMPDEST SWAP3 SWAP2 POP POP JUMP JUMPDEST PUSH1 0x0 DUP2 SWAP1 POP SWAP3 SWAP2 POP POP JUMP JUMPDEST POP JUMP JUMPDEST PUSH1 0x0 PUSH2 0x1557 PUSH1 0x0 DUP4 PUSH2 0x153C JUMP JUMPDEST SWAP2 POP PUSH2 0x1562 DUP3 PUSH2 0x1547 JUMP JUMPDEST PUSH1 0x0 DUP3 ADD SWAP1 POP SWAP2 SWAP1 POP JUMP JUMPDEST PUSH1 0x0 PUSH2 0x1578 DUP3 PUSH2 0x154A JUMP JUMPDEST SWAP2 POP DUP2 SWAP1 POP SWAP2 SWAP1 POP JUMP JUMPDEST PUSH1 0x0 DUP2 SWAP1 POP DUP2 PUSH1 0x0 MSTORE PUSH1 0x20 PUSH1 0x0 KECCAK256 SWAP1 POP SWAP2 SWAP1 POP JUMP JUMPDEST PUSH1 0x0 PUSH1 0x20 PUSH1 0x1F DUP4 ADD DIV SWAP1 POP SWAP2 SWAP1 POP JUMP JUMPDEST PUSH1 0x0 DUP3 DUP3 SHL SWAP1 POP SWAP3 SWAP2 POP POP JUMP JUMPDEST PUSH1 0x0 PUSH1 0x8 DUP4 MUL PUSH2 0x15E4 PUSH32 0xFFFFFFFFFFFFFFFFFFFFFFFFFFFFFFFFFFFFFFFFFFFFFFFFFFFFFFFFFFFFFFFF DUP3 PUSH2 0x15A7 JUMP JUMPDEST PUSH2 0x15EE DUP7 DUP4 PUSH2 0x15A7 JUMP JUMPDEST SWAP6 POP DUP1 NOT DUP5 AND SWAP4 POP DUP1 DUP7 AND DUP5 OR SWAP3 POP POP POP SWAP4 SWAP3 POP POP POP JUMP JUMPDEST PUSH1 0x0 DUP2 SWAP1 POP SWAP2 SWAP1 POP JUMP JUMPDEST PUSH1 0x0 PUSH2 0x162B PUSH2 0x1626 PUSH2 0x1621 DUP5 PUSH2 0xEDB JUMP JUMPDEST PUSH2 0x1606 JUMP JUMPDEST PUSH2 0xEDB JUMP JUMPDEST SWAP1 POP SWAP2 SWAP1 POP JUMP JUMPDEST PUSH1 0x0 DUP2 SWAP1 POP SWAP2 SWAP1 POP JUMP JUMPDEST PUSH2 0x1645 DUP4 PUSH2 0x1610 JUMP JUMPDEST PUSH2 0x1659 PUSH2 0x1651 DUP3 PUSH2 0x1632 JUMP JUMPDEST DUP5 DUP5 SLOAD PUSH2 0x15B4 JUMP JUMPDEST DUP3 SSTORE POP POP POP POP JUMP JUMPDEST PUSH1 0x0 SWAP1 JUMP JUMPDEST PUSH2 0x166E PUSH2 0x1661 JUMP JUMPDEST PUSH2 0x1679 DUP2 DUP5 DUP5 PUSH2 0x163C JUMP JUMPDEST POP POP POP JUMP JUMPDEST JUMPDEST DUP2 DUP2 LT ISZERO PUSH2 0x169D JUMPI PUSH2 0x1692 PUSH1 0x0 DUP3 PUSH2 0x1666 JUMP JUMPDEST PUSH1 0x1 DUP2 ADD SWAP1 POP PUSH2 0x167F JUMP JUMPDEST POP POP JUMP JUMPDEST PUSH1 0x1F DUP3 GT ISZERO PUSH2 0x16E2 JUMPI PUSH2 0x16B3 DUP2 PUSH2 0x1582 JUMP JUMPDEST PUSH2 0x16BC DUP5 PUSH2 0x1597 JUMP JUMPDEST DUP2 ADD PUSH1 0x20 DUP6 LT ISZERO PUSH2 0x16CB JUMPI DUP2 SWAP1 POP JUMPDEST PUSH2 0x16DF PUSH2 0x16D7 DUP6 PUSH2 0x1597 JUMP JUMPDEST DUP4 ADD DUP3 PUSH2 0x167E JUMP JUMPDEST POP POP JUMPDEST POP POP POP JUMP JUMPDEST PUSH1 0x0 DUP3 DUP3 SHR SWAP1 POP SWAP3 SWAP2 POP POP JUMP JUMPDEST PUSH1 0x0 PUSH2 0x1705 PUSH1 0x0 NOT DUP5 PUSH1 0x8 MUL PUSH2 0x16E7 JUMP JUMPDEST NOT DUP1 DUP4 AND SWAP2 POP POP SWAP3 SWAP2 POP POP JUMP JUMPDEST PUSH1 0x0 PUSH2 0x171E DUP4 DUP4 PUSH2 0x16F4 JUMP JUMPDEST SWAP2 POP DUP3 PUSH1 0x2 MUL DUP3 OR SWAP1 POP SWAP3 SWAP2 POP POP JUMP JUMPDEST PUSH2 0x1737 DUP3 PUSH2 0xEF4 JUMP JUMPDEST PUSH8 0xFFFFFFFFFFFFFFFF DUP2 GT ISZERO PUSH2 0x1750 JUMPI PUSH2 0x174F PUSH2 0x1201 JUMP JUMPDEST JUMPDEST PUSH2 0x175A DUP3 SLOAD PUSH2 0x13DE JUMP JUMPDEST PUSH2 0x1765 DUP3 DUP3 DUP6 PUSH2 0x16A1 JUMP JUMPDEST PUSH1 0x0 PUSH1 0x20 SWAP1 POP PUSH1 0x1F DUP4 GT PUSH1 0x1 DUP2 EQ PUSH2 0x1798 JUMPI PUSH1 0x0 DUP5 ISZERO PUSH2 0x1786 JUMPI DUP3 DUP8 ADD MLOAD SWAP1 POP JUMPDEST PUSH2 0x1790 DUP6 DUP3 PUSH2 0x1712 JUMP JUMPDEST DUP7 SSTORE POP PUSH2 0x17F8 JUMP JUMPDEST PUSH1 0x1F NOT DUP5 AND PUSH2 0x17A6 DUP7 PUSH2 0x1582 JUMP JUMPDEST PUSH1 0x0 JUMPDEST DUP3 DUP2 LT ISZERO PUSH2 0x17CE JUMPI DUP5 DUP10 ADD MLOAD DUP3 SSTORE PUSH1 0x1 DUP3 ADD SWAP2 POP PUSH1 0x20 DUP6 ADD SWAP5 POP PUSH1 0x20 DUP2 ADD SWAP1 POP PUSH2 0x17A9 JUMP JUMPDEST DUP7 DUP4 LT ISZERO PUSH2 0x17EB JUMPI DUP5 DUP10 ADD MLOAD PUSH2 0x17E7 PUSH1 0x1F DUP10 AND DUP3 PUSH2 0x16F4 JUMP JUMPDEST DUP4 SSTORE POP JUMPDEST PUSH1 0x1 PUSH1 0x2 DUP9 MUL ADD DUP9 SSTORE POP POP POP JUMPDEST POP POP POP POP POP POP JUMP JUMPDEST PUSH1 0x0 DUP3 DUP3 MSTORE PUSH1 0x20 DUP3 ADD SWAP1 POP SWAP3 SWAP2 POP POP JUMP JUMPDEST PUSH1 0x0 PUSH2 0x181C DUP3 PUSH2 0xEF4 JUMP JUMPDEST PUSH2 0x1826 DUP2 DUP6 PUSH2 0x1800 JUMP JUMPDEST SWAP4 POP PUSH2 0x1836 DUP2 DUP6 PUSH1 0x20 DUP7 ADD PUSH2 0xF10 JUMP JUMPDEST PUSH2 0x183F DUP2 PUSH2 0xF3A JUMP JUMPDEST DUP5 ADD SWAP2 POP POP SWAP3 SWAP2 POP POP JUMP JUMPDEST PUSH1 0x0 PUSH1 0x40 DUP3 ADD SWAP1 POP PUSH2 0x185F PUSH1 0x0 DUP4 ADD DUP6 PUSH2 0x1480 JUMP JUMPDEST DUP2 DUP2 SUB PUSH1 0x20 DUP4 ADD MSTORE PUSH2 0x1871 DUP2 DUP5 PUSH2 0x1811 JUMP JUMPDEST SWAP1 POP SWAP4 SWAP3 POP POP POP JUMP INVALID LOG2 PUSH5 0x6970667358 0x22 SLT KECCAK256 0xCE 0xC8 0xC2 0x2C PUSH5 0x46E04B0CBA 0xE PUSH25 0xD36B700FD488E8905BBCBF90FC5F2D608726237B64736F6C63 NUMBER STOP ADDMOD SGT STOP CALLER PUSH1 0xA0 PUSH1 0x40 MSTORE PUSH1 0x1 DUP1 SSTORE CALLVALUE DUP1 ISZERO PUSH3 0x15 JUMPI PUSH1 0x0 DUP1 REVERT JUMPDEST POP PUSH1 0x40 MLOAD PUSH3 0x307F CODESIZE SUB DUP1 PUSH3 0x307F DUP4 CODECOPY DUP2 DUP2 ADD PUSH1 0x40 MSTORE DUP2 ADD SWAP1 PUSH3 0x3B SWAP2 SWAP1 PUSH3 0x178 JUMP JUMPDEST PUSH3 0x57 PUSH8 0x8682A9107A6FD2C1 PUSH1 0xC0 SHL PUSH3 0x10B PUSH1 0x20 SHL PUSH1 0x20 SHR JUMP JUMPDEST PUSH3 0x73 PUSH8 0x1D41A94BA5554DCB PUSH1 0xC0 SHL PUSH3 0x10B PUSH1 0x20 SHL PUSH1 0x20 SHR JUMP JUMPDEST DUP1 PUSH1 0x0 DUP1 PUSH2 0x100 EXP DUP2 SLOAD DUP2 PUSH20 0xFFFFFFFFFFFFFFFFFFFFFFFFFFFFFFFFFFFFFFFF MUL NOT AND SWAP1 DUP4 PUSH20 0xFFFFFFFFFFFFFFFFFFFFFFFFFFFFFFFFFFFFFFFF AND MUL OR SWAP1 SSTORE POP PUSH3 0xCF PUSH8 0x6024235BEFCA135F PUSH1 0xC0 SHL PUSH3 0x10B PUSH1 0x20 SHL PUSH1 0x20 SHR JUMP JUMPDEST DUP2 PUSH20 0xFFFFFFFFFFFFFFFFFFFFFFFFFFFFFFFFFFFFFFFF AND PUSH1 0x80 DUP2 PUSH20 0xFFFFFFFFFFFFFFFFFFFFFFFFFFFFFFFFFFFFFFFF AND DUP2 MSTORE POP POP POP POP PUSH3 0x1BF JUMP JUMPDEST POP JUMP JUMPDEST PUSH1 0x0 DUP1 REVERT JUMPDEST PUSH1 0x0 PUSH20 0xFFFFFFFFFFFFFFFFFFFFFFFFFFFFFFFFFFFFFFFF DUP3 AND SWAP1 POP SWAP2 SWAP1 POP JUMP JUMPDEST PUSH1 0x0 PUSH3 0x140 DUP3 PUSH3 0x113 JUMP JUMPDEST SWAP1 POP SWAP2 SWAP1 POP JUMP JUMPDEST PUSH3 0x152 DUP2 PUSH3 0x133 JUMP JUMPDEST DUP2 EQ PUSH3 0x15E JUMPI PUSH1 0x0 DUP1 REVERT JUMPDEST POP JUMP JUMPDEST PUSH1 0x0 DUP2 MLOAD SWAP1 POP PUSH3 0x172 DUP2 PUSH3 0x147 JUMP JUMPDEST SWAP3 SWAP2 POP POP JUMP JUMPDEST PUSH1 0x0 DUP1 PUSH1 0x40 DUP4 DUP6 SUB SLT ISZERO PUSH3 0x192 JUMPI PUSH3 0x191 PUSH3 0x10E JUMP JUMPDEST JUMPDEST PUSH1 0x0 PUSH3 0x1A2 DUP6 DUP3 DUP7 ADD PUSH3 0x161 JUMP JUMPDEST SWAP3 POP POP PUSH1 0x20 PUSH3 0x1B5 DUP6 DUP3 DUP7 ADD PUSH3 0x161 JUMP JUMPDEST SWAP2 POP POP SWAP3 POP SWAP3 SWAP1 POP JUMP JUMPDEST PUSH1 0x80 MLOAD PUSH2 0x2E9D PUSH3 0x1E2 PUSH1 0x0 CODECOPY PUSH1 0x0 DUP2 DUP2 PUSH2 0x1BE7 ADD MSTORE PUSH2 0x20D6 ADD MSTORE PUSH2 0x2E9D PUSH1 0x0 RETURN INVALID PUSH1 0x80 PUSH1 0x40 MSTORE PUSH1 0x4 CALLDATASIZE LT PUSH2 0x86 JUMPI PUSH1 0x0 CALLDATALOAD PUSH1 0xE0 SHR DUP1 PUSH4 0x893D20E8 GT PUSH2 0x59 JUMPI DUP1 PUSH4 0x893D20E8 EQ PUSH2 0x145 JUMPI DUP1 PUSH4 0xBB8FE785 EQ PUSH2 0x170 JUMPI DUP1 PUSH4 0xC0CFA7E5 EQ PUSH2 0x19B JUMPI DUP1 PUSH4 0xC3617650 EQ PUSH2 0x1C4 JUMPI DUP1 PUSH4 0xC819998B EQ PUSH2 0x1F4 JUMPI PUSH2 0x86 JUMP JUMPDEST DUP1 PUSH4 0x278ECDE1 EQ PUSH2 0x8B JUMPI DUP1 PUSH4 0x37BDC99B EQ PUSH2 0xB4 JUMPI DUP1 PUSH4 0x42B50A7A EQ PUSH2 0xDD JUMPI DUP1 PUSH4 0x700DB752 EQ PUSH2 0x11A JUMPI JUMPDEST PUSH1 0x0 DUP1 REVERT JUMPDEST CALLVALUE DUP1 ISZERO PUSH2 0x97 JUMPI PUSH1 0x0 DUP1 REVERT JUMPDEST POP PUSH2 0xB2 PUSH1 0x4 DUP1 CALLDATASIZE SUB DUP2 ADD SWAP1 PUSH2 0xAD SWAP2 SWAP1 PUSH2 0x29A7 JUMP JUMPDEST PUSH2 0x21F JUMP JUMPDEST STOP JUMPDEST CALLVALUE DUP1 ISZERO PUSH2 0xC0 JUMPI PUSH1 0x0 DUP1 REVERT JUMPDEST POP PUSH2 0xDB PUSH1 0x4 DUP1 CALLDATASIZE SUB DUP2 ADD SWAP1 PUSH2 0xD6 SWAP2 SWAP1 PUSH2 0x29A7 JUMP JUMPDEST PUSH2 0xBD6 JUMP JUMPDEST STOP JUMPDEST CALLVALUE DUP1 ISZERO PUSH2 0xE9 JUMPI PUSH1 0x0 DUP1 REVERT JUMPDEST POP PUSH2 0x104 PUSH1 0x4 DUP1 CALLDATASIZE SUB DUP2 ADD SWAP1 PUSH2 0xFF SWAP2 SWAP1 PUSH2 0x29A7 JUMP JUMPDEST PUSH2 0x16B6 JUMP JUMPDEST PUSH1 0x40 MLOAD PUSH2 0x111 SWAP2 SWAP1 PUSH2 0x2B29 JUMP JUMPDEST PUSH1 0x40 MLOAD DUP1 SWAP2 SUB SWAP1 RETURN JUMPDEST CALLVALUE DUP1 ISZERO PUSH2 0x126 JUMPI PUSH1 0x0 DUP1 REVERT JUMPDEST POP PUSH2 0x12F PUSH2 0x192E JUMP JUMPDEST PUSH1 0x40 MLOAD PUSH2 0x13C SWAP2 SWAP1 PUSH2 0x2C81 JUMP JUMPDEST PUSH1 0x40 MLOAD DUP1 SWAP2 SUB SWAP1 RETURN JUMPDEST CALLVALUE DUP1 ISZERO PUSH2 0x151 JUMPI PUSH1 0x0 DUP1 REVERT JUMPDEST POP PUSH2 0x15A PUSH2 0x1B43 JUMP JUMPDEST PUSH1 0x40 MLOAD PUSH2 0x167 SWAP2 SWAP1 PUSH2 0x2CB2 JUMP JUMPDEST PUSH1 0x40 MLOAD DUP1 SWAP2 SUB SWAP1 RETURN JUMPDEST CALLVALUE DUP1 ISZERO PUSH2 0x17C JUMPI PUSH1 0x0 DUP1 REVERT JUMPDEST POP PUSH2 0x185 PUSH2 0x1BA7 JUMP JUMPDEST PUSH1 0x40 MLOAD PUSH2 0x192 SWAP2 SWAP1 PUSH2 0x2CB2 JUMP JUMPDEST PUSH1 0x40 MLOAD DUP1 SWAP2 SUB SWAP1 RETURN JUMPDEST CALLVALUE DUP1 ISZERO PUSH2 0x1A7 JUMPI PUSH1 0x0 DUP1 REVERT JUMPDEST POP PUSH2 0x1C2 PUSH1 0x4 DUP1 CALLDATASIZE SUB DUP2 ADD SWAP1 PUSH2 0x1BD SWAP2 SWAP1 PUSH2 0x29A7 JUMP JUMPDEST PUSH2 0x1C0B JUMP JUMPDEST STOP JUMPDEST PUSH2 0x1DE PUSH1 0x4 DUP1 CALLDATASIZE SUB DUP2 ADD SWAP1 PUSH2 0x1D9 SWAP2 SWAP1 PUSH2 0x2CF9 JUMP JUMPDEST PUSH2 0x2082 JUMP JUMPDEST PUSH1 0x40 MLOAD PUSH2 0x1EB SWAP2 SWAP1 PUSH2 0x2D5B JUMP JUMPDEST PUSH1 0x40 MLOAD DUP1 SWAP2 SUB SWAP1 RETURN JUMPDEST CALLVALUE DUP1 ISZERO PUSH2 0x200 JUMPI PUSH1 0x0 DUP1 REVERT JUMPDEST POP PUSH2 0x209 PUSH2 0x26D9 JUMP JUMPDEST PUSH1 0x40 MLOAD PUSH2 0x216 SWAP2 SWAP1 PUSH2 0x2C81 JUMP JUMPDEST PUSH1 0x40 MLOAD DUP1 SWAP2 SUB SWAP1 RETURN JUMPDEST PUSH2 0x233 PUSH8 0x28BDBA660BF3974F PUSH1 0xC0 SHL PUSH2 0x28EE JUMP JUMPDEST DUP1 PUSH2 0x248 PUSH8 0xA8CF46A670D916B0 PUSH1 0xC0 SHL PUSH2 0x28EE JUMP JUMPDEST PUSH2 0x25C PUSH8 0xA986CEFEEC858187 PUSH1 0xC0 SHL PUSH2 0x28EE JUMP JUMPDEST PUSH2 0x270 PUSH8 0x9468E128EAE60B1A PUSH1 0xC0 SHL PUSH2 0x28EE JUMP JUMPDEST PUSH1 0x0 PUSH1 0x4 PUSH1 0x0 DUP4 DUP2 MSTORE PUSH1 0x20 ADD SWAP1 DUP2 MSTORE PUSH1 0x20 ADD PUSH1 0x0 KECCAK256 PUSH1 0x40 MLOAD DUP1 PUSH1 0xE0 ADD PUSH1 0x40 MSTORE SWAP1 DUP2 PUSH1 0x0 DUP3 ADD PUSH1 0x0 SWAP1 SLOAD SWAP1 PUSH2 0x100 EXP SWAP1 DIV PUSH20 0xFFFFFFFFFFFFFFFFFFFFFFFFFFFFFFFFFFFFFFFF AND PUSH20 0xFFFFFFFFFFFFFFFFFFFFFFFFFFFFFFFFFFFFFFFF AND PUSH20 0xFFFFFFFFFFFFFFFFFFFFFFFFFFFFFFFFFFFFFFFF AND DUP2 MSTORE PUSH1 0x20 ADD PUSH1 0x1 DUP3 ADD PUSH1 0x0 SWAP1 SLOAD SWAP1 PUSH2 0x100 EXP SWAP1 DIV PUSH20 0xFFFFFFFFFFFFFFFFFFFFFFFFFFFFFFFFFFFFFFFF AND PUSH20 0xFFFFFFFFFFFFFFFFFFFFFFFFFFFFFFFFFFFFFFFF AND PUSH20 0xFFFFFFFFFFFFFFFFFFFFFFFFFFFFFFFFFFFFFFFF AND DUP2 MSTORE PUSH1 0x20 ADD PUSH1 0x2 DUP3 ADD SLOAD DUP2 MSTORE PUSH1 0x20 ADD PUSH1 0x3 DUP3 ADD SLOAD DUP2 MSTORE PUSH1 0x20 ADD PUSH1 0x4 DUP3 ADD SLOAD DUP2 MSTORE PUSH1 0x20 ADD PUSH1 0x5 DUP3 ADD SLOAD DUP2 MSTORE PUSH1 0x20 ADD PUSH1 0x6 DUP3 ADD PUSH1 0x0 SWAP1 SLOAD SWAP1 PUSH2 0x100 EXP SWAP1 DIV PUSH1 0xFF AND PUSH1 0x3 DUP2 GT ISZERO PUSH2 0x389 JUMPI PUSH2 0x388 PUSH2 0x2A24 JUMP JUMPDEST JUMPDEST PUSH1 0x3 DUP2 GT ISZERO PUSH2 0x39B JUMPI PUSH2 0x39A PUSH2 0x2A24 JUMP JUMPDEST JUMPDEST DUP2 MSTORE POP POP SWAP1 POP PUSH2 0x3B5 PUSH8 0x96010DFAECF65CF6 PUSH1 0xC0 SHL PUSH2 0x28EE JUMP JUMPDEST PUSH2 0x3C9 PUSH8 0x7A4FA443F0DD646B PUSH1 0xC0 SHL PUSH2 0x28EE JUMP JUMPDEST PUSH1 0x0 PUSH1 0x3 DUP2 GT ISZERO PUSH2 0x3DD JUMPI PUSH2 0x3DC PUSH2 0x2A24 JUMP JUMPDEST JUMPDEST DUP2 PUSH1 0xC0 ADD MLOAD PUSH1 0x3 DUP2 GT ISZERO PUSH2 0x3F4 JUMPI PUSH2 0x3F3 PUSH2 0x2A24 JUMP JUMPDEST JUMPDEST EQ ISZERO DUP1 ISZERO PUSH2 0x42A JUMPI POP PUSH1 0x3 DUP1 DUP2 GT ISZERO PUSH2 0x410 JUMPI PUSH2 0x40F PUSH2 0x2A24 JUMP JUMPDEST JUMPDEST DUP2 PUSH1 0xC0 ADD MLOAD PUSH1 0x3 DUP2 GT ISZERO PUSH2 0x427 JUMPI PUSH2 0x426 PUSH2 0x2A24 JUMP JUMPDEST JUMPDEST EQ ISZERO JUMPDEST ISZERO PUSH2 0x489 JUMPI PUSH2 0x443 PUSH8 0x7BA95F796C8A102 PUSH1 0xC0 SHL PUSH2 0x28EE JUMP JUMPDEST PUSH2 0x457 PUSH8 0x88091DFA12640C6 PUSH1 0xC0 SHL PUSH2 0x28EE JUMP JUMPDEST PUSH1 0x40 MLOAD PUSH32 0x8A22693E00000000000000000000000000000000000000000000000000000000 DUP2 MSTORE PUSH1 0x4 ADD PUSH1 0x40 MLOAD DUP1 SWAP2 SUB SWAP1 REVERT JUMPDEST PUSH2 0x49D PUSH8 0x7D44F4B501C43183 PUSH1 0xC0 SHL PUSH2 0x28EE JUMP JUMPDEST PUSH2 0x4B1 PUSH8 0x21C50106825C897D PUSH1 0xC0 SHL PUSH2 0x28EE JUMP JUMPDEST PUSH2 0x4C5 PUSH8 0x7B4F954D76E78950 PUSH1 0xC0 SHL PUSH2 0x28EE JUMP JUMPDEST PUSH2 0x4D9 PUSH8 0xB3FCFB8B1A7F9EF9 PUSH1 0xC0 SHL PUSH2 0x28EE JUMP JUMPDEST DUP3 PUSH2 0x4EE PUSH8 0x67894023DE97C255 PUSH1 0xC0 SHL PUSH2 0x28EE JUMP JUMPDEST PUSH2 0x502 PUSH8 0x527EB98E367F366C PUSH1 0xC0 SHL PUSH2 0x28EE JUMP JUMPDEST PUSH2 0x516 PUSH8 0x9810E0B363800030 PUSH1 0xC0 SHL PUSH2 0x28EE JUMP JUMPDEST PUSH1 0x0 PUSH1 0x4 PUSH1 0x0 DUP4 DUP2 MSTORE PUSH1 0x20 ADD SWAP1 DUP2 MSTORE PUSH1 0x20 ADD PUSH1 0x0 KECCAK256 PUSH1 0x40 MLOAD DUP1 PUSH1 0xE0 ADD PUSH1 0x40 MSTORE SWAP1 DUP2 PUSH1 0x0 DUP3 ADD PUSH1 0x0 SWAP1 SLOAD SWAP1 PUSH2 0x100 EXP SWAP1 DIV PUSH20 0xFFFFFFFFFFFFFFFFFFFFFFFFFFFFFFFFFFFFFFFF AND PUSH20 0xFFFFFFFFFFFFFFFFFFFFFFFFFFFFFFFFFFFFFFFF AND PUSH20 0xFFFFFFFFFFFFFFFFFFFFFFFFFFFFFFFFFFFFFFFF AND DUP2 MSTORE PUSH1 0x20 ADD PUSH1 0x1 DUP3 ADD PUSH1 0x0 SWAP1 SLOAD SWAP1 PUSH2 0x100 EXP SWAP1 DIV PUSH20 0xFFFFFFFFFFFFFFFFFFFFFFFFFFFFFFFFFFFFFFFF AND PUSH20 0xFFFFFFFFFFFFFFFFFFFFFFFFFFFFFFFFFFFFFFFF AND PUSH20 0xFFFFFFFFFFFFFFFFFFFFFFFFFFFFFFFFFFFFFFFF AND DUP2 MSTORE PUSH1 0x20 ADD PUSH1 0x2 DUP3 ADD SLOAD DUP2 MSTORE PUSH1 0x20 ADD PUSH1 0x3 DUP3 ADD SLOAD DUP2 MSTORE PUSH1 0x20 ADD PUSH1 0x4 DUP3 ADD SLOAD DUP2 MSTORE PUSH1 0x20 ADD PUSH1 0x5 DUP3 ADD SLOAD DUP2 MSTORE PUSH1 0x20 ADD PUSH1 0x6 DUP3 ADD PUSH1 0x0 SWAP1 SLOAD SWAP1 PUSH2 0x100 EXP SWAP1 DIV PUSH1 0xFF AND PUSH1 0x3 DUP2 GT ISZERO PUSH2 0x62F JUMPI PUSH2 0x62E PUSH2 0x2A24 JUMP JUMPDEST JUMPDEST PUSH1 0x3 DUP2 GT ISZERO PUSH2 0x641 JUMPI PUSH2 0x640 PUSH2 0x2A24 JUMP JUMPDEST JUMPDEST DUP2 MSTORE POP POP SWAP1 POP PUSH2 0x65B PUSH8 0x10C170A31D2120C PUSH1 0xC0 SHL PUSH2 0x28EE JUMP JUMPDEST PUSH2 0x66F PUSH8 0x45D3B41A49D7AE02 PUSH1 0xC0 SHL PUSH2 0x28EE JUMP JUMPDEST PUSH1 0x0 DUP1 SLOAD SWAP1 PUSH2 0x100 EXP SWAP1 DIV PUSH20 0xFFFFFFFFFFFFFFFFFFFFFFFFFFFFFFFFFFFFFFFF AND PUSH20 0xFFFFFFFFFFFFFFFFFFFFFFFFFFFFFFFFFFFFFFFF AND CALLER PUSH20 0xFFFFFFFFFFFFFFFFFFFFFFFFFFFFFFFFFFFFFFFF AND EQ DUP1 ISZERO PUSH2 0x6F2 JUMPI POP PUSH1 0x3 DUP1 DUP2 GT ISZERO PUSH2 0x6D8 JUMPI PUSH2 0x6D7 PUSH2 0x2A24 JUMP JUMPDEST JUMPDEST DUP2 PUSH1 0xC0 ADD MLOAD PUSH1 0x3 DUP2 GT ISZERO PUSH2 0x6EF JUMPI PUSH2 0x6EE PUSH2 0x2A24 JUMP JUMPDEST JUMPDEST EQ ISZERO JUMPDEST ISZERO PUSH2 0x751 JUMPI PUSH2 0x70B PUSH8 0x7DD3F87B173F7FD6 PUSH1 0xC0 SHL PUSH2 0x28EE JUMP JUMPDEST PUSH2 0x71F PUSH8 0x539A28D4BBB2F8BB PUSH1 0xC0 SHL PUSH2 0x28EE JUMP JUMPDEST PUSH1 0x40 MLOAD PUSH32 0x8AB9B32900000000000000000000000000000000000000000000000000000000 DUP2 MSTORE PUSH1 0x4 ADD PUSH1 0x40 MLOAD DUP1 SWAP2 SUB SWAP1 REVERT JUMPDEST PUSH2 0x765 PUSH8 0x964E40EE2CDEB523 PUSH1 0xC0 SHL PUSH2 0x28EE JUMP JUMPDEST PUSH2 0x779 PUSH8 0x85176212632737A6 PUSH1 0xC0 SHL PUSH2 0x28EE JUMP JUMPDEST CALLER PUSH20 0xFFFFFFFFFFFFFFFFFFFFFFFFFFFFFFFFFFFFFFFF AND DUP2 PUSH1 0x0 ADD MLOAD PUSH20 0xFFFFFFFFFFFFFFFFFFFFFFFFFFFFFFFFFFFFFFFF AND EQ ISZERO DUP1 ISZERO PUSH2 0x805 JUMPI POP PUSH1 0x0 DUP1 SLOAD SWAP1 PUSH2 0x100 EXP SWAP1 DIV PUSH20 0xFFFFFFFFFFFFFFFFFFFFFFFFFFFFFFFFFFFFFFFF AND PUSH20 0xFFFFFFFFFFFFFFFFFFFFFFFFFFFFFFFFFFFFFFFF AND CALLER PUSH20 0xFFFFFFFFFFFFFFFFFFFFFFFFFFFFFFFFFFFFFFFF AND EQ ISZERO JUMPDEST ISZERO PUSH2 0x864 JUMPI PUSH2 0x81E PUSH8 0x4C7003B2A7016287 PUSH1 0xC0 SHL PUSH2 0x28EE JUMP JUMPDEST PUSH2 0x832 PUSH8 0xB8512D8A4A233CD4 PUSH1 0xC0 SHL PUSH2 0x28EE JUMP JUMPDEST PUSH1 0x40 MLOAD PUSH32 0x76DF155600000000000000000000000000000000000000000000000000000000 DUP2 MSTORE PUSH1 0x4 ADD PUSH1 0x40 MLOAD DUP1 SWAP2 SUB SWAP1 REVERT JUMPDEST PUSH2 0x878 PUSH8 0x22912976BD784849 PUSH1 0xC0 SHL PUSH2 0x28EE JUMP JUMPDEST PUSH2 0x88C PUSH8 0x1738F3F3759D663D PUSH1 0xC0 SHL PUSH2 0x28EE JUMP JUMPDEST DUP1 PUSH1 0x0 ADD MLOAD PUSH20 0xFFFFFFFFFFFFFFFFFFFFFFFFFFFFFFFFFFFFFFFF AND CALLER PUSH20 0xFFFFFFFFFFFFFFFFFFFFFFFFFFFFFFFFFFFFFFFF AND EQ DUP1 ISZERO PUSH2 0x8F2 JUMPI POP PUSH1 0x3 DUP1 DUP2 GT ISZERO PUSH2 0x8D9 JUMPI PUSH2 0x8D8 PUSH2 0x2A24 JUMP JUMPDEST JUMPDEST DUP2 PUSH1 0xC0 ADD MLOAD PUSH1 0x3 DUP2 GT ISZERO PUSH2 0x8F0 JUMPI PUSH2 0x8EF PUSH2 0x2A24 JUMP JUMPDEST JUMPDEST EQ JUMPDEST ISZERO PUSH2 0x951 JUMPI PUSH2 0x90B PUSH8 0x8E687D28D1F0071D PUSH1 0xC0 SHL PUSH2 0x28EE JUMP JUMPDEST PUSH2 0x91F PUSH8 0xDFA79C7729E9CCC9 PUSH1 0xC0 SHL PUSH2 0x28EE JUMP JUMPDEST PUSH1 0x40 MLOAD PUSH32 0x26B095E100000000000000000000000000000000000000000000000000000000 DUP2 MSTORE PUSH1 0x4 ADD PUSH1 0x40 MLOAD DUP1 SWAP2 SUB SWAP1 REVERT JUMPDEST PUSH2 0x965 PUSH8 0x29062CC8DC023741 PUSH1 0xC0 SHL PUSH2 0x28EE JUMP JUMPDEST PUSH2 0x979 PUSH8 0x4BF8D5847EE50BF0 PUSH1 0xC0 SHL PUSH2 0x28EE JUMP JUMPDEST PUSH2 0x98D PUSH8 0x7E1BC537D91B06A9 PUSH1 0xC0 SHL PUSH2 0x28EE JUMP JUMPDEST PUSH2 0x9A1 PUSH8 0x20DC0852A289C786 PUSH1 0xC0 SHL PUSH2 0x28EE JUMP JUMPDEST PUSH2 0x9B5 PUSH8 0x587E37BE3E2A8A9F PUSH1 0xC0 SHL PUSH2 0x28EE JUMP JUMPDEST PUSH2 0x9C9 PUSH8 0x5F071E8A3096EE05 PUSH1 0xC0 SHL PUSH2 0x28EE JUMP JUMPDEST PUSH1 0x0 PUSH1 0x4 PUSH1 0x0 DUP8 DUP2 MSTORE PUSH1 0x20 ADD SWAP1 DUP2 MSTORE PUSH1 0x20 ADD PUSH1 0x0 KECCAK256 SWAP1 POP PUSH2 0x9F4 PUSH8 0xA4F4E0F2571ABC7C PUSH1 0xC0 SHL PUSH2 0x28EE JUMP JUMPDEST PUSH1 0x2 DUP2 PUSH1 0x6 ADD PUSH1 0x0 PUSH2 0x100 EXP DUP2 SLOAD DUP2 PUSH1 0xFF MUL NOT AND SWAP1 DUP4 PUSH1 0x3 DUP2 GT ISZERO PUSH2 0xA1C JUMPI PUSH2 0xA1B PUSH2 0x2A24 JUMP JUMPDEST JUMPDEST MUL OR SWAP1 SSTORE POP PUSH2 0xA35 PUSH8 0xFEF194E3B5A36AF2 PUSH1 0xC0 SHL PUSH2 0x28EE JUMP JUMPDEST PUSH2 0xA49 PUSH8 0xC7D0A25614147D7A PUSH1 0xC0 SHL PUSH2 0x28EE JUMP JUMPDEST PUSH1 0x0 DUP2 PUSH1 0x1 ADD PUSH1 0x0 SWAP1 SLOAD SWAP1 PUSH2 0x100 EXP SWAP1 DIV PUSH20 0xFFFFFFFFFFFFFFFFFFFFFFFFFFFFFFFFFFFFFFFF AND PUSH20 0xFFFFFFFFFFFFFFFFFFFFFFFFFFFFFFFFFFFFFFFF AND DUP3 PUSH1 0x3 ADD SLOAD PUSH1 0x40 MLOAD PUSH2 0xA97 SWAP1 PUSH2 0x2DA7 JUMP JUMPDEST PUSH1 0x0 PUSH1 0x40 MLOAD DUP1 DUP4 SUB DUP2 DUP6 DUP8 GAS CALL SWAP3 POP POP POP RETURNDATASIZE DUP1 PUSH1 0x0 DUP2 EQ PUSH2 0xAD4 JUMPI PUSH1 0x40 MLOAD SWAP2 POP PUSH1 0x1F NOT PUSH1 0x3F RETURNDATASIZE ADD AND DUP3 ADD PUSH1 0x40 MSTORE RETURNDATASIZE DUP3 MSTORE RETURNDATASIZE PUSH1 0x0 PUSH1 0x20 DUP5 ADD RETURNDATACOPY PUSH2 0xAD9 JUMP JUMPDEST PUSH1 0x60 SWAP2 POP JUMPDEST POP POP SWAP1 POP PUSH2 0xAF1 PUSH8 0x6ADE4EE435263700 PUSH1 0xC0 SHL PUSH2 0x28EE JUMP JUMPDEST PUSH2 0xB05 PUSH8 0xE5572A0CA148689E PUSH1 0xC0 SHL PUSH2 0x28EE JUMP JUMPDEST DUP1 PUSH2 0xB64 JUMPI PUSH2 0xB1E PUSH8 0xD5FFFA5233BEB7B3 PUSH1 0xC0 SHL PUSH2 0x28EE JUMP JUMPDEST PUSH2 0xB32 PUSH8 0x6954EDC2BADC589A PUSH1 0xC0 SHL PUSH2 0x28EE JUMP JUMPDEST PUSH1 0x40 MLOAD PUSH32 0x4ABCF95000000000000000000000000000000000000000000000000000000000 DUP2 MSTORE PUSH1 0x4 ADD PUSH1 0x40 MLOAD DUP1 SWAP2 SUB SWAP1 REVERT JUMPDEST PUSH2 0xB78 PUSH8 0x62149C2C06978140 PUSH1 0xC0 SHL PUSH2 0x28EE JUMP JUMPDEST PUSH2 0xB8C PUSH8 0xF65636FA082B6DB7 PUSH1 0xC0 SHL PUSH2 0x28EE JUMP JUMPDEST PUSH2 0xBA0 PUSH8 0xEA9568A7C09D2349 PUSH1 0xC0 SHL PUSH2 0x28EE JUMP JUMPDEST DUP7 PUSH32 0x6CBB2F5FC1A460905EB3B50B6C769589D8B1A201F03B7F04B1F3CE09C3AEE78B PUSH1 0x40 MLOAD PUSH1 0x40 MLOAD DUP1 SWAP2 SUB SWAP1 LOG2 POP POP POP POP POP POP POP JUMP JUMPDEST PUSH2 0xBEA PUSH8 0xC356E2B0D3D38036 PUSH1 0xC0 SHL PUSH2 0x28EE JUMP JUMPDEST DUP1 PUSH2 0xBFF PUSH8 0xA8CF46A670D916B0 PUSH1 0xC0 SHL PUSH2 0x28EE JUMP JUMPDEST PUSH2 0xC13 PUSH8 0xA986CEFEEC858187 PUSH1 0xC0 SHL PUSH2 0x28EE JUMP JUMPDEST PUSH2 0xC27 PUSH8 0x9468E128EAE60B1A PUSH1 0xC0 SHL PUSH2 0x28EE JUMP JUMPDEST PUSH1 0x0 PUSH1 0x4 PUSH1 0x0 DUP4 DUP2 MSTORE PUSH1 0x20 ADD SWAP1 DUP2 MSTORE PUSH1 0x20 ADD PUSH1 0x0 KECCAK256 PUSH1 0x40 MLOAD DUP1 PUSH1 0xE0 ADD PUSH1 0x40 MSTORE SWAP1 DUP2 PUSH1 0x0 DUP3 ADD PUSH1 0x0 SWAP1 SLOAD SWAP1 PUSH2 0x100 EXP SWAP1 DIV PUSH20 0xFFFFFFFFFFFFFFFFFFFFFFFFFFFFFFFFFFFFFFFF AND PUSH20 0xFFFFFFFFFFFFFFFFFFFFFFFFFFFFFFFFFFFFFFFF AND PUSH20 0xFFFFFFFFFFFFFFFFFFFFFFFFFFFFFFFFFFFFFFFF AND DUP2 MSTORE PUSH1 0x20 ADD PUSH1 0x1 DUP3 ADD PUSH1 0x0 SWAP1 SLOAD SWAP1 PUSH2 0x100 EXP SWAP1 DIV PUSH20 0xFFFFFFFFFFFFFFFFFFFFFFFFFFFFFFFFFFFFFFFF AND PUSH20 0xFFFFFFFFFFFFFFFFFFFFFFFFFFFFFFFFFFFFFFFF AND PUSH20 0xFFFFFFFFFFFFFFFFFFFFFFFFFFFFFFFFFFFFFFFF AND DUP2 MSTORE PUSH1 0x20 ADD PUSH1 0x2 DUP3 ADD SLOAD DUP2 MSTORE PUSH1 0x20 ADD PUSH1 0x3 DUP3 ADD SLOAD DUP2 MSTORE PUSH1 0x20 ADD PUSH1 0x4 DUP3 ADD SLOAD DUP2 MSTORE PUSH1 0x20 ADD PUSH1 0x5 DUP3 ADD SLOAD DUP2 MSTORE PUSH1 0x20 ADD PUSH1 0x6 DUP3 ADD PUSH1 0x0 SWAP1 SLOAD SWAP1 PUSH2 0x100 EXP SWAP1 DIV PUSH1 0xFF AND PUSH1 0x3 DUP2 GT ISZERO PUSH2 0xD40 JUMPI PUSH2 0xD3F PUSH2 0x2A24 JUMP JUMPDEST JUMPDEST PUSH1 0x3 DUP2 GT ISZERO PUSH2 0xD52 JUMPI PUSH2 0xD51 PUSH2 0x2A24 JUMP JUMPDEST JUMPDEST DUP2 MSTORE POP POP SWAP1 POP PUSH2 0xD6C PUSH8 0x96010DFAECF65CF6 PUSH1 0xC0 SHL PUSH2 0x28EE JUMP JUMPDEST PUSH2 0xD80 PUSH8 0x7A4FA443F0DD646B PUSH1 0xC0 SHL PUSH2 0x28EE JUMP JUMPDEST PUSH1 0x0 PUSH1 0x3 DUP2 GT ISZERO PUSH2 0xD94 JUMPI PUSH2 0xD93 PUSH2 0x2A24 JUMP JUMPDEST JUMPDEST DUP2 PUSH1 0xC0 ADD MLOAD PUSH1 0x3 DUP2 GT ISZERO PUSH2 0xDAB JUMPI PUSH2 0xDAA PUSH2 0x2A24 JUMP JUMPDEST JUMPDEST EQ ISZERO DUP1 ISZERO PUSH2 0xDE1 JUMPI POP PUSH1 0x3 DUP1 DUP2 GT ISZERO PUSH2 0xDC7 JUMPI PUSH2 0xDC6 PUSH2 0x2A24 JUMP JUMPDEST JUMPDEST DUP2 PUSH1 0xC0 ADD MLOAD PUSH1 0x3 DUP2 GT ISZERO PUSH2 0xDDE JUMPI PUSH2 0xDDD PUSH2 0x2A24 JUMP JUMPDEST JUMPDEST EQ ISZERO JUMPDEST ISZERO PUSH2 0xE40 JUMPI PUSH2 0xDFA PUSH8 0x7BA95F796C8A102 PUSH1 0xC0 SHL PUSH2 0x28EE JUMP JUMPDEST PUSH2 0xE0E PUSH8 0x88091DFA12640C6 PUSH1 0xC0 SHL PUSH2 0x28EE JUMP JUMPDEST PUSH1 0x40 MLOAD PUSH32 0x8A22693E00000000000000000000000000000000000000000000000000000000 DUP2 MSTORE PUSH1 0x4 ADD PUSH1 0x40 MLOAD DUP1 SWAP2 SUB SWAP1 REVERT JUMPDEST PUSH2 0xE54 PUSH8 0x7D44F4B501C43183 PUSH1 0xC0 SHL PUSH2 0x28EE JUMP JUMPDEST PUSH2 0xE68 PUSH8 0x21C50106825C897D PUSH1 0xC0 SHL PUSH2 0x28EE JUMP JUMPDEST PUSH2 0xE7C PUSH8 0xA8B7A9AAAD801B61 PUSH1 0xC0 SHL PUSH2 0x28EE JUMP JUMPDEST PUSH2 0xE90 PUSH8 0x2D30535F88340F59 PUSH1 0xC0 SHL PUSH2 0x28EE JUMP JUMPDEST DUP3 PUSH2 0xEA5 PUSH8 0xA7C7C5DFAD30EC65 PUSH1 0xC0 SHL PUSH2 0x28EE JUMP JUMPDEST PUSH2 0xEB9 PUSH8 0xBA63A8469ACF7EC7 PUSH1 0xC0 SHL PUSH2 0x28EE JUMP JUMPDEST PUSH2 0xECD PUSH8 0x1B786CBFC5BBDDB6 PUSH1 0xC0 SHL PUSH2 0x28EE JUMP JUMPDEST PUSH1 0x0 PUSH1 0x4 PUSH1 0x0 DUP4 DUP2 MSTORE PUSH1 0x20 ADD SWAP1 DUP2 MSTORE PUSH1 0x20 ADD PUSH1 0x0 KECCAK256 PUSH1 0x40 MLOAD DUP1 PUSH1 0xE0 ADD PUSH1 0x40 MSTORE SWAP1 DUP2 PUSH1 0x0 DUP3 ADD PUSH1 0x0 SWAP1 SLOAD SWAP1 PUSH2 0x100 EXP SWAP1 DIV PUSH20 0xFFFFFFFFFFFFFFFFFFFFFFFFFFFFFFFFFFFFFFFF AND PUSH20 0xFFFFFFFFFFFFFFFFFFFFFFFFFFFFFFFFFFFFFFFF AND PUSH20 0xFFFFFFFFFFFFFFFFFFFFFFFFFFFFFFFFFFFFFFFF AND DUP2 MSTORE PUSH1 0x20 ADD PUSH1 0x1 DUP3 ADD PUSH1 0x0 SWAP1 SLOAD SWAP1 PUSH2 0x100 EXP SWAP1 DIV PUSH20 0xFFFFFFFFFFFFFFFFFFFFFFFFFFFFFFFFFFFFFFFF AND PUSH20 0xFFFFFFFFFFFFFFFFFFFFFFFFFFFFFFFFFFFFFFFF AND PUSH20 0xFFFFFFFFFFFFFFFFFFFFFFFFFFFFFFFFFFFFFFFF AND DUP2 MSTORE PUSH1 0x20 ADD PUSH1 0x2 DUP3 ADD SLOAD DUP2 MSTORE PUSH1 0x20 ADD PUSH1 0x3 DUP3 ADD SLOAD DUP2 MSTORE PUSH1 0x20 ADD PUSH1 0x4 DUP3 ADD SLOAD DUP2 MSTORE PUSH1 0x20 ADD PUSH1 0x5 DUP3 ADD SLOAD DUP2 MSTORE PUSH1 0x20 ADD PUSH1 0x6 DUP3 ADD PUSH1 0x0 SWAP1 SLOAD SWAP1 PUSH2 0x100 EXP SWAP1 DIV PUSH1 0xFF AND PUSH1 0x3 DUP2 GT ISZERO PUSH2 0xFE6 JUMPI PUSH2 0xFE5 PUSH2 0x2A24 JUMP JUMPDEST JUMPDEST PUSH1 0x3 DUP2 GT ISZERO PUSH2 0xFF8 JUMPI PUSH2 0xFF7 PUSH2 0x2A24 JUMP JUMPDEST JUMPDEST DUP2 MSTORE POP POP SWAP1 POP PUSH2 0x1012 PUSH8 0xD2A7682FBE9B96A5 PUSH1 0xC0 SHL PUSH2 0x28EE JUMP JUMPDEST PUSH2 0x1026 PUSH8 0x1614C4AB1E3C0E78 PUSH1 0xC0 SHL PUSH2 0x28EE JUMP JUMPDEST PUSH1 0x0 DUP1 SLOAD SWAP1 PUSH2 0x100 EXP SWAP1 DIV PUSH20 0xFFFFFFFFFFFFFFFFFFFFFFFFFFFFFFFFFFFFFFFF AND PUSH20 0xFFFFFFFFFFFFFFFFFFFFFFFFFFFFFFFFFFFFFFFF AND CALLER PUSH20 0xFFFFFFFFFFFFFFFFFFFFFFFFFFFFFFFFFFFFFFFF AND EQ DUP1 ISZERO PUSH2 0x10A9 JUMPI POP PUSH1 0x3 DUP1 DUP2 GT ISZERO PUSH2 0x108F JUMPI PUSH2 0x108E PUSH2 0x2A24 JUMP JUMPDEST JUMPDEST DUP2 PUSH1 0xC0 ADD MLOAD PUSH1 0x3 DUP2 GT ISZERO PUSH2 0x10A6 JUMPI PUSH2 0x10A5 PUSH2 0x2A24 JUMP JUMPDEST JUMPDEST EQ ISZERO JUMPDEST ISZERO PUSH2 0x1108 JUMPI PUSH2 0x10C2 PUSH8 0x5D9EBA9467BF36DC PUSH1 0xC0 SHL PUSH2 0x28EE JUMP JUMPDEST PUSH2 0x10D6 PUSH8 0xDAA96C08F8CFBAEB PUSH1 0xC0 SHL PUSH2 0x28EE JUMP JUMPDEST PUSH1 0x40 MLOAD PUSH32 0x8AB9B32900000000000000000000000000000000000000000000000000000000 DUP2 MSTORE PUSH1 0x4 ADD PUSH1 0x40 MLOAD DUP1 SWAP2 SUB SWAP1 REVERT JUMPDEST PUSH2 0x111C PUSH8 0xD53A0EEBA684915C PUSH1 0xC0 SHL PUSH2 0x28EE JUMP JUMPDEST PUSH2 0x1130 PUSH8 0x713E500CF31766C8 PUSH1 0xC0 SHL PUSH2 0x28EE JUMP JUMPDEST CALLER PUSH20 0xFFFFFFFFFFFFFFFFFFFFFFFFFFFFFFFFFFFFFFFF AND DUP2 PUSH1 0x0 ADD MLOAD PUSH20 0xFFFFFFFFFFFFFFFFFFFFFFFFFFFFFFFFFFFFFFFF AND SUB PUSH2 0x1230 JUMPI PUSH2 0x117B PUSH8 0x982E8DEEA7998260 PUSH1 0xC0 SHL PUSH2 0x28EE JUMP JUMPDEST PUSH2 0x118F PUSH8 0x2910437015357DBB PUSH1 0xC0 SHL PUSH2 0x28EE JUMP JUMPDEST PUSH2 0x11A3 PUSH8 0x577AE683F7DAB10 PUSH1 0xC0 SHL PUSH2 0x28EE JUMP JUMPDEST PUSH3 0x278D00 DUP2 PUSH1 0x80 ADD MLOAD TIMESTAMP PUSH2 0x11B7 SWAP2 SWAP1 PUSH2 0x2DEB JUMP JUMPDEST LT ISZERO PUSH2 0x1217 JUMPI PUSH2 0x11D1 PUSH8 0xC517EA917B606670 PUSH1 0xC0 SHL PUSH2 0x28EE JUMP JUMPDEST PUSH2 0x11E5 PUSH8 0x1A195938F297BFE2 PUSH1 0xC0 SHL PUSH2 0x28EE JUMP JUMPDEST PUSH1 0x40 MLOAD PUSH32 0x586F49F700000000000000000000000000000000000000000000000000000000 DUP2 MSTORE PUSH1 0x4 ADD PUSH1 0x40 MLOAD DUP1 SWAP2 SUB SWAP1 REVERT JUMPDEST PUSH2 0x122B PUSH8 0x4CF94B57C9058E22 PUSH1 0xC0 SHL PUSH2 0x28EE JUMP JUMPDEST PUSH2 0x1445 JUMP JUMPDEST PUSH2 0x1244 PUSH8 0x5F537D3611769A9F PUSH1 0xC0 SHL PUSH2 0x28EE JUMP JUMPDEST PUSH2 0x1258 PUSH8 0x8E213DE2E7C0F3E9 PUSH1 0xC0 SHL PUSH2 0x28EE JUMP JUMPDEST CALLER PUSH20 0xFFFFFFFFFFFFFFFFFFFFFFFFFFFFFFFFFFFFFFFF AND DUP2 PUSH1 0x20 ADD MLOAD PUSH20 0xFFFFFFFFFFFFFFFFFFFFFFFFFFFFFFFFFFFFFFFF AND EQ ISZERO DUP1 ISZERO PUSH2 0x12E4 JUMPI POP PUSH1 0x0 DUP1 SLOAD SWAP1 PUSH2 0x100 EXP SWAP1 DIV PUSH20 0xFFFFFFFFFFFFFFFFFFFFFFFFFFFFFFFFFFFFFFFF AND PUSH20 0xFFFFFFFFFFFFFFFFFFFFFFFFFFFFFFFFFFFFFFFF AND CALLER PUSH20 0xFFFFFFFFFFFFFFFFFFFFFFFFFFFFFFFFFFFFFFFF AND EQ ISZERO JUMPDEST ISZERO PUSH2 0x1343 JUMPI PUSH2 0x12FD PUSH8 0x3DA8EB50C5965F24 PUSH1 0xC0 SHL PUSH2 0x28EE JUMP JUMPDEST PUSH2 0x1311 PUSH8 0xEA6C141A9EC09EEE PUSH1 0xC0 SHL PUSH2 0x28EE JUMP JUMPDEST PUSH1 0x40 MLOAD PUSH32 0x492AAB8600000000000000000000000000000000000000000000000000000000 DUP2 MSTORE PUSH1 0x4 ADD PUSH1 0x40 MLOAD DUP1 SWAP2 SUB SWAP1 REVERT JUMPDEST PUSH2 0x1357 PUSH8 0x1B8D04D6AA36DAE7 PUSH1 0xC0 SHL PUSH2 0x28EE JUMP JUMPDEST PUSH2 0x136B PUSH8 0x4F1337C4080BA2BD PUSH1 0xC0 SHL PUSH2 0x28EE JUMP JUMPDEST DUP1 PUSH1 0x20 ADD MLOAD PUSH20 0xFFFFFFFFFFFFFFFFFFFFFFFFFFFFFFFFFFFFFFFF AND CALLER PUSH20 0xFFFFFFFFFFFFFFFFFFFFFFFFFFFFFFFFFFFFFFFF AND EQ DUP1 ISZERO PUSH2 0x13D1 JUMPI POP PUSH1 0x3 DUP1 DUP2 GT ISZERO PUSH2 0x13B8 JUMPI PUSH2 0x13B7 PUSH2 0x2A24 JUMP JUMPDEST JUMPDEST DUP2 PUSH1 0xC0 ADD MLOAD PUSH1 0x3 DUP2 GT ISZERO PUSH2 0x13CF JUMPI PUSH2 0x13CE PUSH2 0x2A24 JUMP JUMPDEST JUMPDEST EQ JUMPDEST ISZERO PUSH2 0x1430 JUMPI PUSH2 0x13EA PUSH8 0x797479D6D3AB7811 PUSH1 0xC0 SHL PUSH2 0x28EE JUMP JUMPDEST PUSH2 0x13FE PUSH8 0x9967075CE7C0ED2D PUSH1 0xC0 SHL PUSH2 0x28EE JUMP JUMPDEST PUSH1 0x40 MLOAD PUSH32 0x26B095E100000000000000000000000000000000000000000000000000000000 DUP2 MSTORE PUSH1 0x4 ADD PUSH1 0x40 MLOAD DUP1 SWAP2 SUB SWAP1 REVERT JUMPDEST PUSH2 0x1444 PUSH8 0x10487BA0B33925A9 PUSH1 0xC0 SHL PUSH2 0x28EE JUMP JUMPDEST JUMPDEST PUSH2 0x1459 PUSH8 0x1416EC0410B1A7D4 PUSH1 0xC0 SHL PUSH2 0x28EE JUMP JUMPDEST PUSH2 0x146D PUSH8 0x2E08703D3E28FFA2 PUSH1 0xC0 SHL PUSH2 0x28EE JUMP JUMPDEST PUSH2 0x1481 PUSH8 0x88916614DDB5604A PUSH1 0xC0 SHL PUSH2 0x28EE JUMP JUMPDEST PUSH2 0x1495 PUSH8 0x56289FCA248217C1 PUSH1 0xC0 SHL PUSH2 0x28EE JUMP JUMPDEST PUSH2 0x14A9 PUSH8 0x74A52728903EBC68 PUSH1 0xC0 SHL PUSH2 0x28EE JUMP JUMPDEST PUSH1 0x0 PUSH1 0x4 PUSH1 0x0 DUP8 DUP2 MSTORE PUSH1 0x20 ADD SWAP1 DUP2 MSTORE PUSH1 0x20 ADD PUSH1 0x0 KECCAK256 SWAP1 POP PUSH2 0x14D4 PUSH8 0x7BD10DE6A7CABF1E PUSH1 0xC0 SHL PUSH2 0x28EE JUMP JUMPDEST PUSH1 0x1 DUP2 PUSH1 0x6 ADD PUSH1 0x0 PUSH2 0x100 EXP DUP2 SLOAD DUP2 PUSH1 0xFF MUL NOT AND SWAP1 DUP4 PUSH1 0x3 DUP2 GT ISZERO PUSH2 0x14FC JUMPI PUSH2 0x14FB PUSH2 0x2A24 JUMP JUMPDEST JUMPDEST MUL OR SWAP1 SSTORE POP PUSH2 0x1515 PUSH8 0xECA099B30BEED68B PUSH1 0xC0 SHL PUSH2 0x28EE JUMP JUMPDEST PUSH2 0x1529 PUSH8 0x6B42D809763E0CB5 PUSH1 0xC0 SHL PUSH2 0x28EE JUMP JUMPDEST PUSH1 0x0 DUP2 PUSH1 0x0 ADD PUSH1 0x0 SWAP1 SLOAD SWAP1 PUSH2 0x100 EXP SWAP1 DIV PUSH20 0xFFFFFFFFFFFFFFFFFFFFFFFFFFFFFFFFFFFFFFFF AND PUSH20 0xFFFFFFFFFFFFFFFFFFFFFFFFFFFFFFFFFFFFFFFF AND DUP3 PUSH1 0x3 ADD SLOAD PUSH1 0x40 MLOAD PUSH2 0x1577 SWAP1 PUSH2 0x2DA7 JUMP JUMPDEST PUSH1 0x0 PUSH1 0x40 MLOAD DUP1 DUP4 SUB DUP2 DUP6 DUP8 GAS CALL SWAP3 POP POP POP RETURNDATASIZE DUP1 PUSH1 0x0 DUP2 EQ PUSH2 0x15B4 JUMPI PUSH1 0x40 MLOAD SWAP2 POP PUSH1 0x1F NOT PUSH1 0x3F RETURNDATASIZE ADD AND DUP3 ADD PUSH1 0x40 MSTORE RETURNDATASIZE DUP3 MSTORE RETURNDATASIZE PUSH1 0x0 PUSH1 0x20 DUP5 ADD RETURNDATACOPY PUSH2 0x15B9 JUMP JUMPDEST PUSH1 0x60 SWAP2 POP JUMPDEST POP POP SWAP1 POP PUSH2 0x15D1 PUSH8 0x72F4C21739EEDC9F PUSH1 0xC0 SHL PUSH2 0x28EE JUMP JUMPDEST PUSH2 0x15E5 PUSH8 0x6B52D77BCC5684F1 PUSH1 0xC0 SHL PUSH2 0x28EE JUMP JUMPDEST DUP1 PUSH2 0x1644 JUMPI PUSH2 0x15FE PUSH8 0xA0CD571F8E1D9E0A PUSH1 0xC0 SHL PUSH2 0x28EE JUMP JUMPDEST PUSH2 0x1612 PUSH8 0x15211B0B91D88CB4 PUSH1 0xC0 SHL PUSH2 0x28EE JUMP JUMPDEST PUSH1 0x40 MLOAD PUSH32 0x4ABCF95000000000000000000000000000000000000000000000000000000000 DUP2 MSTORE PUSH1 0x4 ADD PUSH1 0x40 MLOAD DUP1 SWAP2 SUB SWAP1 REVERT JUMPDEST PUSH2 0x1658 PUSH8 0xBEFC3620270FF0F2 PUSH1 0xC0 SHL PUSH2 0x28EE JUMP JUMPDEST PUSH2 0x166C PUSH8 0x3BE2368DA88B39F9 PUSH1 0xC0 SHL PUSH2 0x28EE JUMP JUMPDEST PUSH2 0x1680 PUSH8 0x1D10082A2AC305CA PUSH1 0xC0 SHL PUSH2 0x28EE JUMP JUMPDEST DUP7 PUSH32 0xD7C4EDED732389526228283D2661CA619ED8096FFFCA8C0F0C3A6E2A7F4C449D PUSH1 0x40 MLOAD PUSH1 0x40 MLOAD DUP1 SWAP2 SUB SWAP1 LOG2 POP POP POP POP POP POP POP JUMP JUMPDEST PUSH2 0x16BE PUSH2 0x28F1 JUMP JUMPDEST PUSH2 0x16D2 PUSH8 0x178B41E7B125903A PUSH1 0xC0 SHL PUSH2 0x28EE JUMP JUMPDEST PUSH2 0x16E6 PUSH8 0xE9AA0B4E15742868 PUSH1 0xC0 SHL PUSH2 0x28EE JUMP JUMPDEST PUSH2 0x16FA PUSH8 0xB7B337024C635DA4 PUSH1 0xC0 SHL PUSH2 0x28EE JUMP JUMPDEST PUSH1 0x0 PUSH20 0xFFFFFFFFFFFFFFFFFFFFFFFFFFFFFFFFFFFFFFFF AND PUSH1 0x4 PUSH1 0x0 DUP5 DUP2 MSTORE PUSH1 0x20 ADD SWAP1 DUP2 MSTORE PUSH1 0x20 ADD PUSH1 0x0 KECCAK256 PUSH1 0x0 ADD PUSH1 0x0 SWAP1 SLOAD SWAP1 PUSH2 0x100 EXP SWAP1 DIV PUSH20 0xFFFFFFFFFFFFFFFFFFFFFFFFFFFFFFFFFFFFFFFF AND PUSH20 0xFFFFFFFFFFFFFFFFFFFFFFFFFFFFFFFFFFFFFFFF AND SUB PUSH2 0x17BE JUMPI PUSH2 0x1778 PUSH8 0x62EFDA05F818890 PUSH1 0xC0 SHL PUSH2 0x28EE JUMP JUMPDEST PUSH2 0x178C PUSH8 0x628DFFC3FAB2DDF4 PUSH1 0xC0 SHL PUSH2 0x28EE JUMP JUMPDEST PUSH1 0x40 MLOAD PUSH32 0x56421A5700000000000000000000000000000000000000000000000000000000 DUP2 MSTORE PUSH1 0x4 ADD PUSH1 0x40 MLOAD DUP1 SWAP2 SUB SWAP1 REVERT JUMPDEST PUSH2 0x17D2 PUSH8 0xF9165BFFD114AF6B PUSH1 0xC0 SHL PUSH2 0x28EE JUMP JUMPDEST PUSH2 0x17E6 PUSH8 0x782CFC5A013337C9 PUSH1 0xC0 SHL PUSH2 0x28EE JUMP JUMPDEST PUSH2 0x17FA PUSH8 0xC1839B46B22F3B63 PUSH1 0xC0 SHL PUSH2 0x28EE JUMP JUMPDEST PUSH1 0x4 PUSH1 0x0 DUP4 DUP2 MSTORE PUSH1 0x20 ADD SWAP1 DUP2 MSTORE PUSH1 0x20 ADD PUSH1 0x0 KECCAK256 PUSH1 0x40 MLOAD DUP1 PUSH1 0xE0 ADD PUSH1 0x40 MSTORE SWAP1 DUP2 PUSH1 0x0 DUP3 ADD PUSH1 0x0 SWAP1 SLOAD SWAP1 PUSH2 0x100 EXP SWAP1 DIV PUSH20 0xFFFFFFFFFFFFFFFFFFFFFFFFFFFFFFFFFFFFFFFF AND PUSH20 0xFFFFFFFFFFFFFFFFFFFFFFFFFFFFFFFFFFFFFFFF AND PUSH20 0xFFFFFFFFFFFFFFFFFFFFFFFFFFFFFFFFFFFFFFFF AND DUP2 MSTORE PUSH1 0x20 ADD PUSH1 0x1 DUP3 ADD PUSH1 0x0 SWAP1 SLOAD SWAP1 PUSH2 0x100 EXP SWAP1 DIV PUSH20 0xFFFFFFFFFFFFFFFFFFFFFFFFFFFFFFFFFFFFFFFF AND PUSH20 0xFFFFFFFFFFFFFFFFFFFFFFFFFFFFFFFFFFFFFFFF AND PUSH20 0xFFFFFFFFFFFFFFFFFFFFFFFFFFFFFFFFFFFFFFFF AND DUP2 MSTORE PUSH1 0x20 ADD PUSH1 0x2 DUP3 ADD SLOAD DUP2 MSTORE PUSH1 0x20 ADD PUSH1 0x3 DUP3 ADD SLOAD DUP2 MSTORE PUSH1 0x20 ADD PUSH1 0x4 DUP3 ADD SLOAD DUP2 MSTORE PUSH1 0x20 ADD PUSH1 0x5 DUP3 ADD SLOAD DUP2 MSTORE PUSH1 0x20 ADD PUSH1 0x6 DUP3 ADD PUSH1 0x0 SWAP1 SLOAD SWAP1 PUSH2 0x100 EXP SWAP1 DIV PUSH1 0xFF AND PUSH1 0x3 DUP2 GT ISZERO PUSH2 0x1911 JUMPI PUSH2 0x1910 PUSH2 0x2A24 JUMP JUMPDEST JUMPDEST PUSH1 0x3 DUP2 GT ISZERO PUSH2 0x1923 JUMPI PUSH2 0x1922 PUSH2 0x2A24 JUMP JUMPDEST JUMPDEST DUP2 MSTORE POP POP SWAP1 POP SWAP2 SWAP1 POP JUMP JUMPDEST PUSH1 0x60 PUSH2 0x1944 PUSH8 0x5630E77E0F7A210D PUSH1 0xC0 SHL PUSH2 0x28EE JUMP JUMPDEST PUSH2 0x1958 PUSH8 0x548EAF65CF625602 PUSH1 0xC0 SHL PUSH2 0x28EE JUMP JUMPDEST PUSH2 0x196C PUSH8 0x1B8B13407C0938AE PUSH1 0xC0 SHL PUSH2 0x28EE JUMP JUMPDEST PUSH1 0x0 PUSH1 0x3 PUSH1 0x0 CALLER PUSH20 0xFFFFFFFFFFFFFFFFFFFFFFFFFFFFFFFFFFFFFFFF AND PUSH20 0xFFFFFFFFFFFFFFFFFFFFFFFFFFFFFFFFFFFFFFFF AND DUP2 MSTORE PUSH1 0x20 ADD SWAP1 DUP2 MSTORE PUSH1 0x20 ADD PUSH1 0x0 KECCAK256 DUP1 SLOAD DUP1 PUSH1 0x20 MUL PUSH1 0x20 ADD PUSH1 0x40 MLOAD SWAP1 DUP2 ADD PUSH1 0x40 MSTORE DUP1 SWAP3 SWAP2 SWAP1 DUP2 DUP2 MSTORE PUSH1 0x20 ADD PUSH1 0x0 SWAP1 JUMPDEST DUP3 DUP3 LT ISZERO PUSH2 0x1B0E JUMPI DUP4 DUP3 SWAP1 PUSH1 0x0 MSTORE PUSH1 0x20 PUSH1 0x0 KECCAK256 SWAP1 PUSH1 0x7 MUL ADD PUSH1 0x40 MLOAD DUP1 PUSH1 0xE0 ADD PUSH1 0x40 MSTORE SWAP1 DUP2 PUSH1 0x0 DUP3 ADD PUSH1 0x0 SWAP1 SLOAD SWAP1 PUSH2 0x100 EXP SWAP1 DIV PUSH20 0xFFFFFFFFFFFFFFFFFFFFFFFFFFFFFFFFFFFFFFFF AND PUSH20 0xFFFFFFFFFFFFFFFFFFFFFFFFFFFFFFFFFFFFFFFF AND PUSH20 0xFFFFFFFFFFFFFFFFFFFFFFFFFFFFFFFFFFFFFFFF AND DUP2 MSTORE PUSH1 0x20 ADD PUSH1 0x1 DUP3 ADD PUSH1 0x0 SWAP1 SLOAD SWAP1 PUSH2 0x100 EXP SWAP1 DIV PUSH20 0xFFFFFFFFFFFFFFFFFFFFFFFFFFFFFFFFFFFFFFFF AND PUSH20 0xFFFFFFFFFFFFFFFFFFFFFFFFFFFFFFFFFFFFFFFF AND PUSH20 0xFFFFFFFFFFFFFFFFFFFFFFFFFFFFFFFFFFFFFFFF AND DUP2 MSTORE PUSH1 0x20 ADD PUSH1 0x2 DUP3 ADD SLOAD DUP2 MSTORE PUSH1 0x20 ADD PUSH1 0x3 DUP3 ADD SLOAD DUP2 MSTORE PUSH1 0x20 ADD PUSH1 0x4 DUP3 ADD SLOAD DUP2 MSTORE PUSH1 0x20 ADD PUSH1 0x5 DUP3 ADD SLOAD DUP2 MSTORE PUSH1 0x20 ADD PUSH1 0x6 DUP3 ADD PUSH1 0x0 SWAP1 SLOAD SWAP1 PUSH2 0x100 EXP SWAP1 DIV PUSH1 0xFF AND PUSH1 0x3 DUP2 GT ISZERO PUSH2 0x1AE9 JUMPI PUSH2 0x1AE8 PUSH2 0x2A24 JUMP JUMPDEST JUMPDEST PUSH1 0x3 DUP2 GT ISZERO PUSH2 0x1AFB JUMPI PUSH2 0x1AFA PUSH2 0x2A24 JUMP JUMPDEST JUMPDEST DUP2 MSTORE POP POP DUP2 MSTORE PUSH1 0x20 ADD SWAP1 PUSH1 0x1 ADD SWAP1 PUSH2 0x19CD JUMP JUMPDEST POP POP POP POP SWAP1 POP PUSH2 0x1B28 PUSH8 0x94793333FE2F079D PUSH1 0xC0 SHL PUSH2 0x28EE JUMP JUMPDEST PUSH2 0x1B3C PUSH8 0x772E1BF2BA854AEF PUSH1 0xC0 SHL PUSH2 0x28EE JUMP JUMPDEST DUP1 SWAP2 POP POP SWAP1 JUMP JUMPDEST PUSH1 0x0 PUSH2 0x1B59 PUSH8 0x7D7411A39E1149C3 PUSH1 0xC0 SHL PUSH2 0x28EE JUMP JUMPDEST PUSH2 0x1B6D PUSH8 0xCF05526369195360 PUSH1 0xC0 SHL PUSH2 0x28EE JUMP JUMPDEST PUSH2 0x1B81 PUSH8 0xF4DF7BAC6551B71F PUSH1 0xC0 SHL PUSH2 0x28EE JUMP JUMPDEST PUSH1 0x0 DUP1 SLOAD SWAP1 PUSH2 0x100 EXP SWAP1 DIV PUSH20 0xFFFFFFFFFFFFFFFFFFFFFFFFFFFFFFFFFFFFFFFF AND SWAP1 POP SWAP1 JUMP JUMPDEST PUSH1 0x0 PUSH2 0x1BBD PUSH8 0x68C626DCDD1CEE04 PUSH1 0xC0 SHL PUSH2 0x28EE JUMP JUMPDEST PUSH2 0x1BD1 PUSH8 0x8DBABE6E49B8378 PUSH1 0xC0 SHL PUSH2 0x28EE JUMP JUMPDEST PUSH2 0x1BE5 PUSH8 0x8D2FFA62DA82F613 PUSH1 0xC0 SHL PUSH2 0x28EE JUMP JUMPDEST PUSH32 0x0 SWAP1 POP SWAP1 JUMP JUMPDEST PUSH2 0x1C1F PUSH8 0xA7269D2CB5D0C5FB PUSH1 0xC0 SHL PUSH2 0x28EE JUMP JUMPDEST DUP1 PUSH2 0x1C34 PUSH8 0x81048211811FAB5 PUSH1 0xC0 SHL PUSH2 0x28EE JUMP JUMPDEST PUSH2 0x1C48 PUSH8 0x58C8FEA77F50A141 PUSH1 0xC0 SHL PUSH2 0x28EE JUMP JUMPDEST PUSH2 0x1C5C PUSH8 0xFCDDB68F9C9CC26D PUSH1 0xC0 SHL PUSH2 0x28EE JUMP JUMPDEST PUSH1 0x0 PUSH1 0x4 PUSH1 0x0 DUP4 DUP2 MSTORE PUSH1 0x20 ADD SWAP1 DUP2 MSTORE PUSH1 0x20 ADD PUSH1 0x0 KECCAK256 PUSH1 0x40 MLOAD DUP1 PUSH1 0xE0 ADD PUSH1 0x40 MSTORE SWAP1 DUP2 PUSH1 0x0 DUP3 ADD PUSH1 0x0 SWAP1 SLOAD SWAP1 PUSH2 0x100 EXP SWAP1 DIV PUSH20 0xFFFFFFFFFFFFFFFFFFFFFFFFFFFFFFFFFFFFFFFF AND PUSH20 0xFFFFFFFFFFFFFFFFFFFFFFFFFFFFFFFFFFFFFFFF AND PUSH20 0xFFFFFFFFFFFFFFFFFFFFFFFFFFFFFFFFFFFFFFFF AND DUP2 MSTORE PUSH1 0x20 ADD PUSH1 0x1 DUP3 ADD PUSH1 0x0 SWAP1 SLOAD SWAP1 PUSH2 0x100 EXP SWAP1 DIV PUSH20 0xFFFFFFFFFFFFFFFFFFFFFFFFFFFFFFFFFFFFFFFF AND PUSH20 0xFFFFFFFFFFFFFFFFFFFFFFFFFFFFFFFFFFFFFFFF AND PUSH20 0xFFFFFFFFFFFFFFFFFFFFFFFFFFFFFFFFFFFFFFFF AND DUP2 MSTORE PUSH1 0x20 ADD PUSH1 0x2 DUP3 ADD SLOAD DUP2 MSTORE PUSH1 0x20 ADD PUSH1 0x3 DUP3 ADD SLOAD DUP2 MSTORE PUSH1 0x20 ADD PUSH1 0x4 DUP3 ADD SLOAD DUP2 MSTORE PUSH1 0x20 ADD PUSH1 0x5 DUP3 ADD SLOAD DUP2 MSTORE PUSH1 0x20 ADD PUSH1 0x6 DUP3 ADD PUSH1 0x0 SWAP1 SLOAD SWAP1 PUSH2 0x100 EXP SWAP1 DIV PUSH1 0xFF AND PUSH1 0x3 DUP2 GT ISZERO PUSH2 0x1D75 JUMPI PUSH2 0x1D74 PUSH2 0x2A24 JUMP JUMPDEST JUMPDEST PUSH1 0x3 DUP2 GT ISZERO PUSH2 0x1D87 JUMPI PUSH2 0x1D86 PUSH2 0x2A24 JUMP JUMPDEST JUMPDEST DUP2 MSTORE POP POP SWAP1 POP PUSH2 0x1DA1 PUSH8 0xEF3F468ECA27F67E PUSH1 0xC0 SHL PUSH2 0x28EE JUMP JUMPDEST PUSH2 0x1DB5 PUSH8 0xF145D9F0B5B9EEA0 PUSH1 0xC0 SHL PUSH2 0x28EE JUMP JUMPDEST DUP1 PUSH1 0x0 ADD MLOAD PUSH20 0xFFFFFFFFFFFFFFFFFFFFFFFFFFFFFFFFFFFFFFFF AND CALLER PUSH20 0xFFFFFFFFFFFFFFFFFFFFFFFFFFFFFFFFFFFFFFFF AND EQ ISZERO DUP1 ISZERO PUSH2 0x1E25 JUMPI POP DUP1 PUSH1 0x20 ADD MLOAD PUSH20 0xFFFFFFFFFFFFFFFFFFFFFFFFFFFFFFFFFFFFFFFF AND CALLER PUSH20 0xFFFFFFFFFFFFFFFFFFFFFFFFFFFFFFFFFFFFFFFF AND EQ ISZERO JUMPDEST ISZERO PUSH2 0x1E84 JUMPI PUSH2 0x1E3E PUSH8 0x7FC0F059CBB77022 PUSH1 0xC0 SHL PUSH2 0x28EE JUMP JUMPDEST PUSH2 0x1E52 PUSH8 0x746F2BDD3EB0FD9C PUSH1 0xC0 SHL PUSH2 0x28EE JUMP JUMPDEST PUSH1 0x40 MLOAD PUSH32 0x96B88C5100000000000000000000000000000000000000000000000000000000 DUP2 MSTORE PUSH1 0x4 ADD PUSH1 0x40 MLOAD DUP1 SWAP2 SUB SWAP1 REVERT JUMPDEST PUSH2 0x1E98 PUSH8 0xC88B3F2A7594271D PUSH1 0xC0 SHL PUSH2 0x28EE JUMP JUMPDEST PUSH2 0x1EAC PUSH8 0x47D00B45B5D7C4B0 PUSH1 0xC0 SHL PUSH2 0x28EE JUMP JUMPDEST PUSH2 0x1EC0 PUSH8 0x507F9DFBB59CD9F3 PUSH1 0xC0 SHL PUSH2 0x28EE JUMP JUMPDEST PUSH2 0x1ED4 PUSH8 0x10C326611E268A91 PUSH1 0xC0 SHL PUSH2 0x28EE JUMP JUMPDEST PUSH2 0x1EE8 PUSH8 0x265199FB51B21EF3 PUSH1 0xC0 SHL PUSH2 0x28EE JUMP JUMPDEST PUSH2 0x1EFC PUSH8 0x803583427C68B035 PUSH1 0xC0 SHL PUSH2 0x28EE JUMP JUMPDEST PUSH1 0x0 PUSH1 0x4 PUSH1 0x0 DUP6 DUP2 MSTORE PUSH1 0x20 ADD SWAP1 DUP2 MSTORE PUSH1 0x20 ADD PUSH1 0x0 KECCAK256 SWAP1 POP PUSH2 0x1F27 PUSH8 0x55A5679AF8142168 PUSH1 0xC0 SHL PUSH2 0x28EE JUMP JUMPDEST PUSH2 0x1F3B PUSH8 0x670A39492E2FBEC5 PUSH1 0xC0 SHL PUSH2 0x28EE JUMP JUMPDEST PUSH1 0x0 PUSH1 0x3 DUP2 GT ISZERO PUSH2 0x1F4F JUMPI PUSH2 0x1F4E PUSH2 0x2A24 JUMP JUMPDEST JUMPDEST DUP2 PUSH1 0x6 ADD PUSH1 0x0 SWAP1 SLOAD SWAP1 PUSH2 0x100 EXP SWAP1 DIV PUSH1 0xFF AND PUSH1 0x3 DUP2 GT ISZERO PUSH2 0x1F73 JUMPI PUSH2 0x1F72 PUSH2 0x2A24 JUMP JUMPDEST JUMPDEST EQ PUSH2 0x1FD2 JUMPI PUSH2 0x1F8C PUSH8 0x8D4872AF48D7AF17 PUSH1 0xC0 SHL PUSH2 0x28EE JUMP JUMPDEST PUSH2 0x1FA0 PUSH8 0xF321C11113CE73B2 PUSH1 0xC0 SHL PUSH2 0x28EE JUMP JUMPDEST PUSH1 0x40 MLOAD PUSH32 0xF609F42000000000000000000000000000000000000000000000000000000000 DUP2 MSTORE PUSH1 0x4 ADD PUSH1 0x40 MLOAD DUP1 SWAP2 SUB SWAP1 REVERT JUMPDEST PUSH2 0x1FE6 PUSH8 0xEAF59CE00D33CF9E PUSH1 0xC0 SHL PUSH2 0x28EE JUMP JUMPDEST PUSH2 0x1FFA PUSH8 0x289DF4C4FF94AC8A PUSH1 0xC0 SHL PUSH2 0x28EE JUMP JUMPDEST PUSH1 0x3 DUP2 PUSH1 0x6 ADD PUSH1 0x0 PUSH2 0x100 EXP DUP2 SLOAD DUP2 PUSH1 0xFF MUL NOT AND SWAP1 DUP4 PUSH1 0x3 DUP2 GT ISZERO PUSH2 0x2022 JUMPI PUSH2 0x2021 PUSH2 0x2A24 JUMP JUMPDEST JUMPDEST MUL OR SWAP1 SSTORE POP PUSH2 0x203B PUSH8 0x4AC76F16116646B2 PUSH1 0xC0 SHL PUSH2 0x28EE JUMP JUMPDEST PUSH2 0x204F PUSH8 0x4EA2110C63157FDA PUSH1 0xC0 SHL PUSH2 0x28EE JUMP JUMPDEST DUP4 PUSH32 0x912A1E013DE32E96D992FC6C81600EB5480705BFABB226C0B69811ABF2B3ABAC PUSH1 0x40 MLOAD PUSH1 0x40 MLOAD DUP1 SWAP2 SUB SWAP1 LOG2 POP POP POP POP JUMP JUMPDEST PUSH1 0x0 PUSH2 0x2098 PUSH8 0xD5CBEC34601EB5DB PUSH1 0xC0 SHL PUSH2 0x28EE JUMP JUMPDEST PUSH2 0x20AC PUSH8 0xE16A17776E9EE94 PUSH1 0xC0 SHL PUSH2 0x28EE JUMP JUMPDEST PUSH2 0x20C0 PUSH8 0x6D8ADABDABB8E408 PUSH1 0xC0 SHL PUSH2 0x28EE JUMP JUMPDEST PUSH2 0x20D4 PUSH8 0x4B677F51E981752D PUSH1 0xC0 SHL PUSH2 0x28EE JUMP JUMPDEST PUSH32 0x0 PUSH20 0xFFFFFFFFFFFFFFFFFFFFFFFFFFFFFFFFFFFFFFFF AND CALLER PUSH20 0xFFFFFFFFFFFFFFFFFFFFFFFFFFFFFFFFFFFFFFFF AND EQ PUSH2 0x2181 JUMPI PUSH2 0x213B PUSH8 0xCC76FCBB1316D353 PUSH1 0xC0 SHL PUSH2 0x28EE JUMP JUMPDEST PUSH2 0x214F PUSH8 0x298044C1CAC2B2C3 PUSH1 0xC0 SHL PUSH2 0x28EE JUMP JUMPDEST PUSH1 0x40 MLOAD PUSH32 0xAB24DD7C00000000000000000000000000000000000000000000000000000000 DUP2 MSTORE PUSH1 0x4 ADD PUSH1 0x40 MLOAD DUP1 SWAP2 SUB SWAP1 REVERT JUMPDEST PUSH2 0x2195 PUSH8 0x480D1A4A154ABAEC PUSH1 0xC0 SHL PUSH2 0x28EE JUMP JUMPDEST PUSH2 0x21A9 PUSH8 0xFA91EAED2C59F76E PUSH1 0xC0 SHL PUSH2 0x28EE JUMP JUMPDEST PUSH2 0x21BD PUSH8 0x3C0C50C471587EE PUSH1 0xC0 SHL PUSH2 0x28EE JUMP JUMPDEST PUSH2 0x21D1 PUSH8 0x43F05359225E3F89 PUSH1 0xC0 SHL PUSH2 0x28EE JUMP JUMPDEST PUSH2 0x21E5 PUSH8 0x83BB511F2F4F471B PUSH1 0xC0 SHL PUSH2 0x28EE JUMP JUMPDEST PUSH2 0x21F9 PUSH8 0x3C515E0C4F04E208 PUSH1 0xC0 SHL PUSH2 0x28EE JUMP JUMPDEST PUSH1 0x0 PUSH1 0x40 MLOAD DUP1 PUSH1 0xE0 ADD PUSH1 0x40 MSTORE DUP1 DUP7 PUSH20 0xFFFFFFFFFFFFFFFFFFFFFFFFFFFFFFFFFFFFFFFF AND DUP2 MSTORE PUSH1 0x20 ADD DUP6 PUSH20 0xFFFFFFFFFFFFFFFFFFFFFFFFFFFFFFFFFFFFFFFF AND DUP2 MSTORE PUSH1 0x20 ADD DUP5 DUP2 MSTORE PUSH1 0x20 ADD CALLVALUE DUP2 MSTORE PUSH1 0x20 ADD TIMESTAMP DUP2 MSTORE PUSH1 0x20 ADD PUSH1 0x1 SLOAD DUP2 MSTORE PUSH1 0x20 ADD PUSH1 0x0 PUSH1 0x3 DUP2 GT ISZERO PUSH2 0x226C JUMPI PUSH2 0x226B PUSH2 0x2A24 JUMP JUMPDEST JUMPDEST DUP2 MSTORE POP SWAP1 POP PUSH2 0x2285 PUSH8 0x458B5498B6350414 PUSH1 0xC0 SHL PUSH2 0x28EE JUMP JUMPDEST PUSH2 0x2299 PUSH8 0xD053EB58535E341B PUSH1 0xC0 SHL PUSH2 0x28EE JUMP JUMPDEST PUSH1 0x2 PUSH1 0x0 DUP6 PUSH20 0xFFFFFFFFFFFFFFFFFFFFFFFFFFFFFFFFFFFFFFFF AND PUSH20 0xFFFFFFFFFFFFFFFFFFFFFFFFFFFFFFFFFFFFFFFF AND DUP2 MSTORE PUSH1 0x20 ADD SWAP1 DUP2 MSTORE PUSH1 0x20 ADD PUSH1 0x0 KECCAK256 DUP2 SWAP1 DUP1 PUSH1 0x1 DUP2 SLOAD ADD DUP1 DUP3 SSTORE DUP1 SWAP2 POP POP PUSH1 0x1 SWAP1 SUB SWAP1 PUSH1 0x0 MSTORE PUSH1 0x20 PUSH1 0x0 KECCAK256 SWAP1 PUSH1 0x7 MUL ADD PUSH1 0x0 SWAP1 SWAP2 SWAP1 SWAP2 SWAP1 SWAP2 POP PUSH1 0x0 DUP3 ADD MLOAD DUP2 PUSH1 0x0 ADD PUSH1 0x0 PUSH2 0x100 EXP DUP2 SLOAD DUP2 PUSH20 0xFFFFFFFFFFFFFFFFFFFFFFFFFFFFFFFFFFFFFFFF MUL NOT AND SWAP1 DUP4 PUSH20 0xFFFFFFFFFFFFFFFFFFFFFFFFFFFFFFFFFFFFFFFF AND MUL OR SWAP1 SSTORE POP PUSH1 0x20 DUP3 ADD MLOAD DUP2 PUSH1 0x1 ADD PUSH1 0x0 PUSH2 0x100 EXP DUP2 SLOAD DUP2 PUSH20 0xFFFFFFFFFFFFFFFFFFFFFFFFFFFFFFFFFFFFFFFF MUL NOT AND SWAP1 DUP4 PUSH20 0xFFFFFFFFFFFFFFFFFFFFFFFFFFFFFFFFFFFFFFFF AND MUL OR SWAP1 SSTORE POP PUSH1 0x40 DUP3 ADD MLOAD DUP2 PUSH1 0x2 ADD SSTORE PUSH1 0x60 DUP3 ADD MLOAD DUP2 PUSH1 0x3 ADD SSTORE PUSH1 0x80 DUP3 ADD MLOAD DUP2 PUSH1 0x4 ADD SSTORE PUSH1 0xA0 DUP3 ADD MLOAD DUP2 PUSH1 0x5 ADD SSTORE PUSH1 0xC0 DUP3 ADD MLOAD DUP2 PUSH1 0x6 ADD PUSH1 0x0 PUSH2 0x100 EXP DUP2 SLOAD DUP2 PUSH1 0xFF MUL NOT AND SWAP1 DUP4 PUSH1 0x3 DUP2 GT ISZERO PUSH2 0x23E3 JUMPI PUSH2 0x23E2 PUSH2 0x2A24 JUMP JUMPDEST JUMPDEST MUL OR SWAP1 SSTORE POP POP POP PUSH2 0x23FE PUSH8 0x8EF53031548EA112 PUSH1 0xC0 SHL PUSH2 0x28EE JUMP JUMPDEST PUSH2 0x2412 PUSH8 0xF64DA947F2A60555 PUSH1 0xC0 SHL PUSH2 0x28EE JUMP JUMPDEST PUSH1 0x3 PUSH1 0x0 DUP7 PUSH20 0xFFFFFFFFFFFFFFFFFFFFFFFFFFFFFFFFFFFFFFFF AND PUSH20 0xFFFFFFFFFFFFFFFFFFFFFFFFFFFFFFFFFFFFFFFF AND DUP2 MSTORE PUSH1 0x20 ADD SWAP1 DUP2 MSTORE PUSH1 0x20 ADD PUSH1 0x0 KECCAK256 DUP2 SWAP1 DUP1 PUSH1 0x1 DUP2 SLOAD ADD DUP1 DUP3 SSTORE DUP1 SWAP2 POP POP PUSH1 0x1 SWAP1 SUB SWAP1 PUSH1 0x0 MSTORE PUSH1 0x20 PUSH1 0x0 KECCAK256 SWAP1 PUSH1 0x7 MUL ADD PUSH1 0x0 SWAP1 SWAP2 SWAP1 SWAP2 SWAP1 SWAP2 POP PUSH1 0x0 DUP3 ADD MLOAD DUP2 PUSH1 0x0 ADD PUSH1 0x0 PUSH2 0x100 EXP DUP2 SLOAD DUP2 PUSH20 0xFFFFFFFFFFFFFFFFFFFFFFFFFFFFFFFFFFFFFFFF MUL NOT AND SWAP1 DUP4 PUSH20 0xFFFFFFFFFFFFFFFFFFFFFFFFFFFFFFFFFFFFFFFF AND MUL OR SWAP1 SSTORE POP PUSH1 0x20 DUP3 ADD MLOAD DUP2 PUSH1 0x1 ADD PUSH1 0x0 PUSH2 0x100 EXP DUP2 SLOAD DUP2 PUSH20 0xFFFFFFFFFFFFFFFFFFFFFFFFFFFFFFFFFFFFFFFF MUL NOT AND SWAP1 DUP4 PUSH20 0xFFFFFFFFFFFFFFFFFFFFFFFFFFFFFFFFFFFFFFFF AND MUL OR SWAP1 SSTORE POP PUSH1 0x40 DUP3 ADD MLOAD DUP2 PUSH1 0x2 ADD SSTORE PUSH1 0x60 DUP3 ADD MLOAD DUP2 PUSH1 0x3 ADD SSTORE PUSH1 0x80 DUP3 ADD MLOAD DUP2 PUSH1 0x4 ADD SSTORE PUSH1 0xA0 DUP3 ADD MLOAD DUP2 PUSH1 0x5 ADD SSTORE PUSH1 0xC0 DUP3 ADD MLOAD DUP2 PUSH1 0x6 ADD PUSH1 0x0 PUSH2 0x100 EXP DUP2 SLOAD DUP2 PUSH1 0xFF MUL NOT AND SWAP1 DUP4 PUSH1 0x3 DUP2 GT ISZERO PUSH2 0x255C JUMPI PUSH2 0x255B PUSH2 0x2A24 JUMP JUMPDEST JUMPDEST MUL OR SWAP1 SSTORE POP POP POP PUSH2 0x2577 PUSH8 0x4B43E0EBD8B8ED49 PUSH1 0xC0 SHL PUSH2 0x28EE JUMP JUMPDEST DUP1 PUSH1 0x4 PUSH1 0x0 PUSH1 0x1 SLOAD DUP2 MSTORE PUSH1 0x20 ADD SWAP1 DUP2 MSTORE PUSH1 0x20 ADD PUSH1 0x0 KECCAK256 PUSH1 0x0 DUP3 ADD MLOAD DUP2 PUSH1 0x0 ADD PUSH1 0x0 PUSH2 0x100 EXP DUP2 SLOAD DUP2 PUSH20 0xFFFFFFFFFFFFFFFFFFFFFFFFFFFFFFFFFFFFFFFF MUL NOT AND SWAP1 DUP4 PUSH20 0xFFFFFFFFFFFFFFFFFFFFFFFFFFFFFFFFFFFFFFFF AND MUL OR SWAP1 SSTORE POP PUSH1 0x20 DUP3 ADD MLOAD DUP2 PUSH1 0x1 ADD PUSH1 0x0 PUSH2 0x100 EXP DUP2 SLOAD DUP2 PUSH20 0xFFFFFFFFFFFFFFFFFFFFFFFFFFFFFFFFFFFFFFFF MUL NOT AND SWAP1 DUP4 PUSH20 0xFFFFFFFFFFFFFFFFFFFFFFFFFFFFFFFFFFFFFFFF AND MUL OR SWAP1 SSTORE POP PUSH1 0x40 DUP3 ADD MLOAD DUP2 PUSH1 0x2 ADD SSTORE PUSH1 0x60 DUP3 ADD MLOAD DUP2 PUSH1 0x3 ADD SSTORE PUSH1 0x80 DUP3 ADD MLOAD DUP2 PUSH1 0x4 ADD SSTORE PUSH1 0xA0 DUP3 ADD MLOAD DUP2 PUSH1 0x5 ADD SSTORE PUSH1 0xC0 DUP3 ADD MLOAD DUP2 PUSH1 0x6 ADD PUSH1 0x0 PUSH2 0x100 EXP DUP2 SLOAD DUP2 PUSH1 0xFF MUL NOT AND SWAP1 DUP4 PUSH1 0x3 DUP2 GT ISZERO PUSH2 0x266E JUMPI PUSH2 0x266D PUSH2 0x2A24 JUMP JUMPDEST JUMPDEST MUL OR SWAP1 SSTORE POP SWAP1 POP POP PUSH2 0x268A PUSH8 0xCD72C06404FB7568 PUSH1 0xC0 SHL PUSH2 0x28EE JUMP JUMPDEST PUSH1 0x1 PUSH1 0x0 DUP2 SLOAD DUP1 SWAP3 SWAP2 SWAP1 PUSH2 0x269D SWAP1 PUSH2 0x2E1F JUMP JUMPDEST SWAP2 SWAP1 POP SSTORE POP PUSH2 0x26B6 PUSH8 0xEB3CA56F604EEF8 PUSH1 0xC0 SHL PUSH2 0x28EE JUMP JUMPDEST PUSH2 0x26CA PUSH8 0x3326A407ADAC5325 PUSH1 0xC0 SHL PUSH2 0x28EE JUMP JUMPDEST DUP1 PUSH1 0xA0 ADD MLOAD SWAP2 POP POP SWAP4 SWAP3 POP POP POP JUMP JUMPDEST PUSH1 0x60 PUSH2 0x26EF PUSH8 0x5E1E19B581157E4 PUSH1 0xC0 SHL PUSH2 0x28EE JUMP JUMPDEST PUSH2 0x2703 PUSH8 0x9707F403254CDE5A PUSH1 0xC0 SHL PUSH2 0x28EE JUMP JUMPDEST PUSH2 0x2717 PUSH8 0xCEB693F2332168BD PUSH1 0xC0 SHL PUSH2 0x28EE JUMP JUMPDEST PUSH1 0x0 PUSH1 0x2 PUSH1 0x0 CALLER PUSH20 0xFFFFFFFFFFFFFFFFFFFFFFFFFFFFFFFFFFFFFFFF AND PUSH20 0xFFFFFFFFFFFFFFFFFFFFFFFFFFFFFFFFFFFFFFFF AND DUP2 MSTORE PUSH1 0x20 ADD SWAP1 DUP2 MSTORE PUSH1 0x20 ADD PUSH1 0x0 KECCAK256 DUP1 SLOAD DUP1 PUSH1 0x20 MUL PUSH1 0x20 ADD PUSH1 0x40 MLOAD SWAP1 DUP2 ADD PUSH1 0x40 MSTORE DUP1 SWAP3 SWAP2 SWAP1 DUP2 DUP2 MSTORE PUSH1 0x20 ADD PUSH1 0x0 SWAP1 JUMPDEST DUP3 DUP3 LT ISZERO PUSH2 0x28B9 JUMPI DUP4 DUP3 SWAP1 PUSH1 0x0 MSTORE PUSH1 0x20 PUSH1 0x0 KECCAK256 SWAP1 PUSH1 0x7 MUL ADD PUSH1 0x40 MLOAD DUP1 PUSH1 0xE0 ADD PUSH1 0x40 MSTORE SWAP1 DUP2 PUSH1 0x0 DUP3 ADD PUSH1 0x0 SWAP1 SLOAD SWAP1 PUSH2 0x100 EXP SWAP1 DIV PUSH20 0xFFFFFFFFFFFFFFFFFFFFFFFFFFFFFFFFFFFFFFFF AND PUSH20 0xFFFFFFFFFFFFFFFFFFFFFFFFFFFFFFFFFFFFFFFF AND PUSH20 0xFFFFFFFFFFFFFFFFFFFFFFFFFFFFFFFFFFFFFFFF AND DUP2 MSTORE PUSH1 0x20 ADD PUSH1 0x1 DUP3 ADD PUSH1 0x0 SWAP1 SLOAD SWAP1 PUSH2 0x100 EXP SWAP1 DIV PUSH20 0xFFFFFFFFFFFFFFFFFFFFFFFFFFFFFFFFFFFFFFFF AND PUSH20 0xFFFFFFFFFFFFFFFFFFFFFFFFFFFFFFFFFFFFFFFF AND PUSH20 0xFFFFFFFFFFFFFFFFFFFFFFFFFFFFFFFFFFFFFFFF AND DUP2 MSTORE PUSH1 0x20 ADD PUSH1 0x2 DUP3 ADD SLOAD DUP2 MSTORE PUSH1 0x20 ADD PUSH1 0x3 DUP3 ADD SLOAD DUP2 MSTORE PUSH1 0x20 ADD PUSH1 0x4 DUP3 ADD SLOAD DUP2 MSTORE PUSH1 0x20 ADD PUSH1 0x5 DUP3 ADD SLOAD DUP2 MSTORE PUSH1 0x20 ADD PUSH1 0x6 DUP3 ADD PUSH1 0x0 SWAP1 SLOAD SWAP1 PUSH2 0x100 EXP SWAP1 DIV PUSH1 0xFF AND PUSH1 0x3 DUP2 GT ISZERO PUSH2 0x2894 JUMPI PUSH2 0x2893 PUSH2 0x2A24 JUMP JUMPDEST JUMPDEST PUSH1 0x3 DUP2 GT ISZERO PUSH2 0x28A6 JUMPI PUSH2 0x28A5 PUSH2 0x2A24 JUMP JUMPDEST JUMPDEST DUP2 MSTORE POP POP DUP2 MSTORE PUSH1 0x20 ADD SWAP1 PUSH1 0x1 ADD SWAP1 PUSH2 0x2778 JUMP JUMPDEST POP POP POP POP SWAP1 POP PUSH2 0x28D3 PUSH8 0x21DFBE3FCCF4C451 PUSH1 0xC0 SHL PUSH2 0x28EE JUMP JUMPDEST PUSH2 0x28E7 PUSH8 0xC4F5D0024044ADCA PUSH1 0xC0 SHL PUSH2 0x28EE JUMP JUMPDEST DUP1 SWAP2 POP POP SWAP1 JUMP JUMPDEST POP JUMP JUMPDEST PUSH1 0x40 MLOAD DUP1 PUSH1 0xE0 ADD PUSH1 0x40 MSTORE DUP1 PUSH1 0x0 PUSH20 0xFFFFFFFFFFFFFFFFFFFFFFFFFFFFFFFFFFFFFFFF AND DUP2 MSTORE PUSH1 0x20 ADD PUSH1 0x0 PUSH20 0xFFFFFFFFFFFFFFFFFFFFFFFFFFFFFFFFFFFFFFFF AND DUP2 MSTORE PUSH1 0x20 ADD PUSH1 0x0 DUP2 MSTORE PUSH1 0x20 ADD PUSH1 0x0 DUP2 MSTORE PUSH1 0x20 ADD PUSH1 0x0 DUP2 MSTORE PUSH1 0x20 ADD PUSH1 0x0 DUP2 MSTORE PUSH1 0x20 ADD PUSH1 0x0 PUSH1 0x3 DUP2 GT ISZERO PUSH2 0x2966 JUMPI PUSH2 0x2965 PUSH2 0x2A24 JUMP JUMPDEST JUMPDEST DUP2 MSTORE POP SWAP1 JUMP JUMPDEST PUSH1 0x0 DUP1 REVERT JUMPDEST PUSH1 0x0 DUP2 SWAP1 POP SWAP2 SWAP1 POP JUMP JUMPDEST PUSH2 0x2984 DUP2 PUSH2 0x2971 JUMP JUMPDEST DUP2 EQ PUSH2 0x298F JUMPI PUSH1 0x0 DUP1 REVERT JUMPDEST POP JUMP JUMPDEST PUSH1 0x0 DUP2 CALLDATALOAD SWAP1 POP PUSH2 0x29A1 DUP2 PUSH2 0x297B JUMP JUMPDEST SWAP3 SWAP2 POP POP JUMP JUMPDEST PUSH1 0x0 PUSH1 0x20 DUP3 DUP5 SUB SLT ISZERO PUSH2 0x29BD JUMPI PUSH2 0x29BC PUSH2 0x296C JUMP JUMPDEST JUMPDEST PUSH1 0x0 PUSH2 0x29CB DUP5 DUP3 DUP6 ADD PUSH2 0x2992 JUMP JUMPDEST SWAP2 POP POP SWAP3 SWAP2 POP POP JUMP JUMPDEST PUSH1 0x0 PUSH20 0xFFFFFFFFFFFFFFFFFFFFFFFFFFFFFFFFFFFFFFFF DUP3 AND SWAP1 POP SWAP2 SWAP1 POP JUMP JUMPDEST PUSH1 0x0 PUSH2 0x29FF DUP3 PUSH2 0x29D4 JUMP JUMPDEST SWAP1 POP SWAP2 SWAP1 POP JUMP JUMPDEST PUSH2 0x2A0F DUP2 PUSH2 0x29F4 JUMP JUMPDEST DUP3 MSTORE POP POP JUMP JUMPDEST PUSH2 0x2A1E DUP2 PUSH2 0x2971 JUMP JUMPDEST DUP3 MSTORE POP POP JUMP JUMPDEST PUSH32 0x4E487B7100000000000000000000000000000000000000000000000000000000 PUSH1 0x0 MSTORE PUSH1 0x21 PUSH1 0x4 MSTORE PUSH1 0x24 PUSH1 0x0 REVERT JUMPDEST PUSH1 0x4 DUP2 LT PUSH2 0x2A64 JUMPI PUSH2 0x2A63 PUSH2 0x2A24 JUMP JUMPDEST JUMPDEST POP JUMP JUMPDEST PUSH1 0x0 DUP2 SWAP1 POP PUSH2 0x2A75 DUP3 PUSH2 0x2A53 JUMP JUMPDEST SWAP2 SWAP1 POP JUMP JUMPDEST PUSH1 0x0 PUSH2 0x2A85 DUP3 PUSH2 0x2A67 JUMP JUMPDEST SWAP1 POP SWAP2 SWAP1 POP JUMP JUMPDEST PUSH2 0x2A95 DUP2 PUSH2 0x2A7A JUMP JUMPDEST DUP3 MSTORE POP POP JUMP JUMPDEST PUSH1 0xE0 DUP3 ADD PUSH1 0x0 DUP3 ADD MLOAD PUSH2 0x2AB1 PUSH1 0x0 DUP6 ADD DUP3 PUSH2 0x2A06 JUMP JUMPDEST POP PUSH1 0x20 DUP3 ADD MLOAD PUSH2 0x2AC4 PUSH1 0x20 DUP6 ADD DUP3 PUSH2 0x2A06 JUMP JUMPDEST POP PUSH1 0x40 DUP3 ADD MLOAD PUSH2 0x2AD7 PUSH1 0x40 DUP6 ADD DUP3 PUSH2 0x2A15 JUMP JUMPDEST POP PUSH1 0x60 DUP3 ADD MLOAD PUSH2 0x2AEA PUSH1 0x60 DUP6 ADD DUP3 PUSH2 0x2A15 JUMP JUMPDEST POP PUSH1 0x80 DUP3 ADD MLOAD PUSH2 0x2AFD PUSH1 0x80 DUP6 ADD DUP3 PUSH2 0x2A15 JUMP JUMPDEST POP PUSH1 0xA0 DUP3 ADD MLOAD PUSH2 0x2B10 PUSH1 0xA0 DUP6 ADD DUP3 PUSH2 0x2A15 JUMP JUMPDEST POP PUSH1 0xC0 DUP3 ADD MLOAD PUSH2 0x2B23 PUSH1 0xC0 DUP6 ADD DUP3 PUSH2 0x2A8C JUMP JUMPDEST POP POP POP POP JUMP JUMPDEST PUSH1 0x0 PUSH1 0xE0 DUP3 ADD SWAP1 POP PUSH2 0x2B3E PUSH1 0x0 DUP4 ADD DUP5 PUSH2 0x2A9B JUMP JUMPDEST SWAP3 SWAP2 POP POP JUMP JUMPDEST PUSH1 0x0 DUP2 MLOAD SWAP1 POP SWAP2 SWAP1 POP JUMP JUMPDEST PUSH1 0x0 DUP3 DUP3 MSTORE PUSH1 0x20 DUP3 ADD SWAP1 POP SWAP3 SWAP2 POP POP JUMP JUMPDEST PUSH1 0x0 DUP2 SWAP1 POP PUSH1 0x20 DUP3 ADD SWAP1 POP SWAP2 SWAP1 POP JUMP JUMPDEST PUSH1 0xE0 DUP3 ADD PUSH1 0x0 DUP3 ADD MLOAD PUSH2 0x2B86 PUSH1 0x0 DUP6 ADD DUP3 PUSH2 0x2A06 JUMP JUMPDEST POP PUSH1 0x20 DUP3 ADD MLOAD PUSH2 0x2B99 PUSH1 0x20 DUP6 ADD DUP3 PUSH2 0x2A06 JUMP JUMPDEST POP PUSH1 0x40 DUP3 ADD MLOAD PUSH2 0x2BAC PUSH1 0x40 DUP6 ADD DUP3 PUSH2 0x2A15 JUMP JUMPDEST POP PUSH1 0x60 DUP3 ADD MLOAD PUSH2 0x2BBF PUSH1 0x60 DUP6 ADD DUP3 PUSH2 0x2A15 JUMP JUMPDEST POP PUSH1 0x80 DUP3 ADD MLOAD PUSH2 0x2BD2 PUSH1 0x80 DUP6 ADD DUP3 PUSH2 0x2A15 JUMP JUMPDEST POP PUSH1 0xA0 DUP3 ADD MLOAD PUSH2 0x2BE5 PUSH1 0xA0 DUP6 ADD DUP3 PUSH2 0x2A15 JUMP JUMPDEST POP PUSH1 0xC0 DUP3 ADD MLOAD PUSH2 0x2BF8 PUSH1 0xC0 DUP6 ADD DUP3 PUSH2 0x2A8C JUMP JUMPDEST POP POP POP POP JUMP JUMPDEST PUSH1 0x0 PUSH2 0x2C0A DUP4 DUP4 PUSH2 0x2B70 JUMP JUMPDEST PUSH1 0xE0 DUP4 ADD SWAP1 POP SWAP3 SWAP2 POP POP JUMP JUMPDEST PUSH1 0x0 PUSH1 0x20 DUP3 ADD SWAP1 POP SWAP2 SWAP1 POP JUMP JUMPDEST PUSH1 0x0 PUSH2 0x2C2E DUP3 PUSH2 0x2B44 JUMP JUMPDEST PUSH2 0x2C38 DUP2 DUP6 PUSH2 0x2B4F JUMP JUMPDEST SWAP4 POP PUSH2 0x2C43 DUP4 PUSH2 0x2B60 JUMP JUMPDEST DUP1 PUSH1 0x0 JUMPDEST DUP4 DUP2 LT ISZERO PUSH2 0x2C74 JUMPI DUP2 MLOAD PUSH2 0x2C5B DUP9 DUP3 PUSH2 0x2BFE JUMP JUMPDEST SWAP8 POP PUSH2 0x2C66 DUP4 PUSH2 0x2C16 JUMP JUMPDEST SWAP3 POP POP PUSH1 0x1 DUP2 ADD SWAP1 POP PUSH2 0x2C47 JUMP JUMPDEST POP DUP6 SWAP4 POP POP POP POP SWAP3 SWAP2 POP POP JUMP JUMPDEST PUSH1 0x0 PUSH1 0x20 DUP3 ADD SWAP1 POP DUP2 DUP2 SUB PUSH1 0x0 DUP4 ADD MSTORE PUSH2 0x2C9B DUP2 DUP5 PUSH2 0x2C23 JUMP JUMPDEST SWAP1 POP SWAP3 SWAP2 POP POP JUMP JUMPDEST PUSH2 0x2CAC DUP2 PUSH2 0x29F4 JUMP JUMPDEST DUP3 MSTORE POP POP JUMP JUMPDEST PUSH1 0x0 PUSH1 0x20 DUP3 ADD SWAP1 POP PUSH2 0x2CC7 PUSH1 0x0 DUP4 ADD DUP5 PUSH2 0x2CA3 JUMP JUMPDEST SWAP3 SWAP2 POP POP JUMP JUMPDEST PUSH2 0x2CD6 DUP2 PUSH2 0x29F4 JUMP JUMPDEST DUP2 EQ PUSH2 0x2CE1 JUMPI PUSH1 0x0 DUP1 REVERT JUMPDEST POP JUMP JUMPDEST PUSH1 0x0 DUP2 CALLDATALOAD SWAP1 POP PUSH2 0x2CF3 DUP2 PUSH2 0x2CCD JUMP JUMPDEST SWAP3 SWAP2 POP POP JUMP JUMPDEST PUSH1 0x0 DUP1 PUSH1 0x0 PUSH1 0x60 DUP5 DUP7 SUB SLT ISZERO PUSH2 0x2D12 JUMPI PUSH2 0x2D11 PUSH2 0x296C JUMP JUMPDEST JUMPDEST PUSH1 0x0 PUSH2 0x2D20 DUP7 DUP3 DUP8 ADD PUSH2 0x2CE4 JUMP JUMPDEST SWAP4 POP POP PUSH1 0x20 PUSH2 0x2D31 DUP7 DUP3 DUP8 ADD PUSH2 0x2CE4 JUMP JUMPDEST SWAP3 POP POP PUSH1 0x40 PUSH2 0x2D42 DUP7 DUP3 DUP8 ADD PUSH2 0x2992 JUMP JUMPDEST SWAP2 POP POP SWAP3 POP SWAP3 POP SWAP3 JUMP JUMPDEST PUSH2 0x2D55 DUP2 PUSH2 0x2971 JUMP JUMPDEST DUP3 MSTORE POP POP JUMP JUMPDEST PUSH1 0x0 PUSH1 0x20 DUP3 ADD SWAP1 POP PUSH2 0x2D70 PUSH1 0x0 DUP4 ADD DUP5 PUSH2 0x2D4C JUMP JUMPDEST SWAP3 SWAP2 POP POP JUMP JUMPDEST PUSH1 0x0 DUP2 SWAP1 POP SWAP3 SWAP2 POP POP JUMP JUMPDEST POP JUMP JUMPDEST PUSH1 0x0 PUSH2 0x2D91 PUSH1 0x0 DUP4 PUSH2 0x2D76 JUMP JUMPDEST SWAP2 POP PUSH2 0x2D9C DUP3 PUSH2 0x2D81 JUMP JUMPDEST PUSH1 0x0 DUP3 ADD SWAP1 POP SWAP2 SWAP1 POP JUMP JUMPDEST PUSH1 0x0 PUSH2 0x2DB2 DUP3 PUSH2 0x2D84 JUMP JUMPDEST SWAP2 POP DUP2 SWAP1 POP SWAP2 SWAP1 POP JUMP JUMPDEST PUSH32 0x4E487B7100000000000000000000000000000000000000000000000000000000 PUSH1 0x0 MSTORE PUSH1 0x11 PUSH1 0x4 MSTORE PUSH1 0x24 PUSH1 0x0 REVERT JUMPDEST PUSH1 0x0 PUSH2 0x2DF6 DUP3 PUSH2 0x2971 JUMP JUMPDEST SWAP2 POP PUSH2 0x2E01 DUP4 PUSH2 0x2971 JUMP JUMPDEST SWAP3 POP DUP3 DUP3 SUB SWAP1 POP DUP2 DUP2 GT ISZERO PUSH2 0x2E19 JUMPI PUSH2 0x2E18 PUSH2 0x2DBC JUMP JUMPDEST JUMPDEST SWAP3 SWAP2 POP POP JUMP JUMPDEST PUSH1 0x0 PUSH2 0x2E2A DUP3 PUSH2 0x2971 JUMP JUMPDEST SWAP2 POP PUSH32 0xFFFFFFFFFFFFFFFFFFFFFFFFFFFFFFFFFFFFFFFFFFFFFFFFFFFFFFFFFFFFFFFF DUP3 SUB PUSH2 0x2E5C JUMPI PUSH2 0x2E5B PUSH2 0x2DBC JUMP JUMPDEST JUMPDEST PUSH1 0x1 DUP3 ADD SWAP1 POP SWAP2 SWAP1 POP JUMP INVALID LOG2 PUSH5 0x6970667358 0x22 SLT KECCAK256 SWAP12 PUSH3 0x5A3C1A SWAP3 PUSH10 0xB271BFCA3DB2DCDBF5EC 0xB3 0xB0 CALLVALUE 0x2D PUSH12 0x752F15A6A98694F4B5C66473 PUSH16 0x6C634300081300330000000000000000 "},"methodIdentifiers":{"buyProduct(uint256,uint256)":"53b62866","createProduct(uint256,string,uint256,uint256)":"f4a44d2d","getEscrowAddress()":"122fd48a","getOwner()":"893d20e8","getOwnerProducts()":"3873ab24","getProductById(uint256)":"3f70c2b4"}}}}}