{
  "_format": "hh-sol-artifact-1",
  "contractName": "Marketplace",
  "sourceName": "contracts/Marketplace.sol",
  "abi": [
    {
      "inputs": [],
      "stateMutability": "nonpayable",
      "type": "constructor"
    },
    {
      "inputs": [],
      "name": "Marketplace__NotEnoughFunds",
      "type": "error"
    },
    {
      "inputs": [],
      "name": "Marketplace__NotEnoughQuantity",
      "type": "error"
    },
    {
      "inputs": [],
      "name": "Marketplace__ProductNotFound",
      "type": "error"
    },
    {
      "inputs": [],
      "name": "Marketplace__TransferFailed",
      "type": "error"
    },
    {
      "anonymous": false,
      "inputs": [
        {
          "indexed": true,
          "internalType": "uint256",
          "name": "orderId",
          "type": "uint256"
        }
      ],
      "name": "CreatedOrder",
      "type": "event"
    },
    {
      "anonymous": false,
      "inputs": [
        {
          "indexed": true,
          "internalType": "address",
          "name": "owner",
          "type": "address"
        },
        {
          "indexed": true,
          "internalType": "uint256",
          "name": "productId",
          "type": "uint256"
        },
        {
          "indexed": false,
          "internalType": "uint256",
          "name": "price",
          "type": "uint256"
        },
        {
          "indexed": false,
          "internalType": "string",
          "name": "uri",
          "type": "string"
        }
      ],
      "name": "CreatedProduct",
      "type": "event"
    },
    {
      "inputs": [
        {
          "internalType": "uint256",
          "name": "_productId",
          "type": "uint256"
        },
        {
          "internalType": "uint256",
          "name": "_quantity",
          "type": "uint256"
        }
      ],
      "name": "buyProduct",
      "outputs": [],
      "stateMutability": "payable",
      "type": "function"
    },
    {
      "inputs": [
        {
          "internalType": "uint256",
          "name": "_productId",
          "type": "uint256"
        },
        {
          "internalType": "string",
          "name": "uri",
          "type": "string"
        },
        {
          "internalType": "uint256",
          "name": "_price",
          "type": "uint256"
        },
        {
          "internalType": "uint256",
          "name": "_quantity",
          "type": "uint256"
        }
      ],
      "name": "createProduct",
      "outputs": [],
      "stateMutability": "nonpayable",
      "type": "function"
    },
    {
      "inputs": [],
      "name": "getEscrowAddress",
      "outputs": [
        {
          "internalType": "address",
          "name": "",
          "type": "address"
        }
      ],
      "stateMutability": "view",
      "type": "function"
    },
    {
      "inputs": [],
      "name": "getOwner",
      "outputs": [
        {
          "internalType": "address",
          "name": "",
          "type": "address"
        }
      ],
      "stateMutability": "view",
      "type": "function"
    },
    {
      "inputs": [],
      "name": "getOwnerProducts",
      "outputs": [
        {
          "components": [
            {
              "internalType": "address",
              "name": "owner",
              "type": "address"
            },
            {
              "internalType": "uint256",
              "name": "productId",
              "type": "uint256"
            },
            {
              "internalType": "uint256",
              "name": "price",
              "type": "uint256"
            },
            {
              "internalType": "uint256",
              "name": "quantity",
              "type": "uint256"
            },
            {
              "internalType": "string",
              "name": "uri",
              "type": "string"
            }
          ],
          "internalType": "struct Marketplace.Product[]",
          "name": "",
          "type": "tuple[]"
        }
      ],
      "stateMutability": "view",
      "type": "function"
    },
    {
      "inputs": [
        {
          "internalType": "uint256",
          "name": "_productId",
          "type": "uint256"
        }
      ],
      "name": "getProductById",
      "outputs": [
        {
          "components": [
            {
              "internalType": "address",
              "name": "owner",
              "type": "address"
            },
            {
              "internalType": "uint256",
              "name": "productId",
              "type": "uint256"
            },
            {
              "internalType": "uint256",
              "name": "price",
              "type": "uint256"
            },
            {
              "internalType": "uint256",
              "name": "quantity",
              "type": "uint256"
            },
            {
              "internalType": "string",
              "name": "uri",
              "type": "string"
            }
          ],
          "internalType": "struct Marketplace.Product",
          "name": "",
          "type": "tuple"
        }
      ],
      "stateMutability": "view",
      "type": "function"
    }
  ],
  "bytecode": "0x60c06040523480156200001157600080fd5b50306040516200002190620000b8565b6200002d91906200010b565b604051809103906000f0801580156200004a573d6000803e3d6000fd5b5073ffffffffffffffffffffffffffffffffffffffff1660808173ffffffffffffffffffffffffffffffffffffffff16815250503373ffffffffffffffffffffffffffffffffffffffff1660a08173ffffffffffffffffffffffffffffffffffffffff168152505062000128565b611045806200158983390190565b600073ffffffffffffffffffffffffffffffffffffffff82169050919050565b6000620000f382620000c6565b9050919050565b6200010581620000e6565b82525050565b6000602082019050620001226000830184620000fa565b92915050565b60805160a05161143462000155600039600061074f015260008181610161015261059201526114346000f3fe6080604052600436106100555760003560e01c8063122fd48a1461005a5780633873ab24146100855780633f70c2b4146100b057806353b62866146100ed578063893d20e814610109578063f4a44d2d14610134575b600080fd5b34801561006657600080fd5b5061006f61015d565b60405161007c9190610a09565b60405180910390f35b34801561009157600080fd5b5061009a610185565b6040516100a79190610c14565b60405180910390f35b3480156100bc57600080fd5b506100d760048036038101906100d29190610c76565b61032d565b6040516100e49190610d19565b60405180910390f35b61010760048036038101906101029190610d3b565b6104fa565b005b34801561011557600080fd5b5061011e61074b565b60405161012b9190610a09565b60405180910390f35b34801561014057600080fd5b5061015b60048036038101906101569190610eb0565b610773565b005b60007f0000000000000000000000000000000000000000000000000000000000000000905090565b60606000600160003373ffffffffffffffffffffffffffffffffffffffff1673ffffffffffffffffffffffffffffffffffffffff168152602001908152602001600020805480602002602001604051908101604052809291908181526020016000905b8282101561032057838290600052602060002090600502016040518060a00160405290816000820160009054906101000a900473ffffffffffffffffffffffffffffffffffffffff1673ffffffffffffffffffffffffffffffffffffffff1673ffffffffffffffffffffffffffffffffffffffff16815260200160018201548152602001600282015481526020016003820154815260200160048201805461028f90610f62565b80601f01602080910402602001604051908101604052809291908181526020018280546102bb90610f62565b80156103085780601f106102dd57610100808354040283529160200191610308565b820191906000526020600020905b8154815290600101906020018083116102eb57829003601f168201915b505050505081525050815260200190600101906101e8565b5050505090508091505090565b610335610983565b600073ffffffffffffffffffffffffffffffffffffffff1660008084815260200190815260200160002060000160009054906101000a900473ffffffffffffffffffffffffffffffffffffffff1673ffffffffffffffffffffffffffffffffffffffff16036103d0576040517ffa130d1500000000000000000000000000000000000000000000000000000000815260040160405180910390fd5b6000808381526020019081526020016000206040518060a00160405290816000820160009054906101000a900473ffffffffffffffffffffffffffffffffffffffff1673ffffffffffffffffffffffffffffffffffffffff1673ffffffffffffffffffffffffffffffffffffffff16815260200160018201548152602001600282015481526020016003820154815260200160048201805461047190610f62565b80601f016020809104026020016040519081016040528092919081815260200182805461049d90610f62565b80156104ea5780601f106104bf576101008083540402835291602001916104ea565b820191906000526020600020905b8154815290600101906020018083116104cd57829003601f168201915b5050505050815250509050919050565b60006105058361032d565b90508060600151821115610545576040517f2b2e799600000000000000000000000000000000000000000000000000000000815260040160405180910390fd5b8181604001516105559190610fc2565b34101561058e576040517f250c003600000000000000000000000000000000000000000000000000000000815260040160405180910390fd5b60007f000000000000000000000000000000000000000000000000000000000000000073ffffffffffffffffffffffffffffffffffffffff1663c36176508484604001516105dc9190610fc2565b84600001513386602001516040518563ffffffff1660e01b815260040161060593929190611013565b60206040518083038185885af1158015610623573d6000803e3d6000fd5b50505050506040513d601f19601f82011682018060405250810190610648919061105f565b9050600083836040015161065c9190610fc2565b34610667919061108c565b905060008111156107175760003373ffffffffffffffffffffffffffffffffffffffff1682604051610698906110f1565b60006040518083038185875af1925050503d80600081146106d5576040519150601f19603f3d011682016040523d82523d6000602084013e6106da565b606091505b5050905080610715576040517f3a06d36900000000000000000000000000000000000000000000000000000000815260040160405180910390fd5b505b817fca570940fc0de1684a030665039469593dd4c228a17d8da38a53bbe884c07caf60405160405180910390a25050505050565b60007f0000000000000000000000000000000000000000000000000000000000000000905090565b60006040518060a001604052803373ffffffffffffffffffffffffffffffffffffffff1681526020018681526020018481526020018381526020018581525090508060008087815260200190815260200160002060008201518160000160006101000a81548173ffffffffffffffffffffffffffffffffffffffff021916908373ffffffffffffffffffffffffffffffffffffffff160217905550602082015181600101556040820151816002015560608201518160030155608082015181600401908161084191906112b2565b50905050600160003373ffffffffffffffffffffffffffffffffffffffff1673ffffffffffffffffffffffffffffffffffffffff16815260200190815260200160002081908060018154018082558091505060019003906000526020600020906005020160009091909190915060008201518160000160006101000a81548173ffffffffffffffffffffffffffffffffffffffff021916908373ffffffffffffffffffffffffffffffffffffffff160217905550602082015181600101556040820151816002015560608201518160030155608082015181600401908161092891906112b2565b505050843373ffffffffffffffffffffffffffffffffffffffff167f752c6e59798f934c2c159f893dcff42eca6bb9529f328570f172e50c9774cb5485876040516109749291906113ce565b60405180910390a35050505050565b6040518060a00160405280600073ffffffffffffffffffffffffffffffffffffffff168152602001600081526020016000815260200160008152602001606081525090565b600073ffffffffffffffffffffffffffffffffffffffff82169050919050565b60006109f3826109c8565b9050919050565b610a03816109e8565b82525050565b6000602082019050610a1e60008301846109fa565b92915050565b600081519050919050565b600082825260208201905092915050565b6000819050602082019050919050565b610a59816109e8565b82525050565b6000819050919050565b610a7281610a5f565b82525050565b600081519050919050565b600082825260208201905092915050565b60005b83811015610ab2578082015181840152602081019050610a97565b60008484015250505050565b6000601f19601f8301169050919050565b6000610ada82610a78565b610ae48185610a83565b9350610af4818560208601610a94565b610afd81610abe565b840191505092915050565b600060a083016000830151610b206000860182610a50565b506020830151610b336020860182610a69565b506040830151610b466040860182610a69565b506060830151610b596060860182610a69565b5060808301518482036080860152610b718282610acf565b9150508091505092915050565b6000610b8a8383610b08565b905092915050565b6000602082019050919050565b6000610baa82610a24565b610bb48185610a2f565b935083602082028501610bc685610a40565b8060005b85811015610c025784840389528151610be38582610b7e565b9450610bee83610b92565b925060208a01995050600181019050610bca565b50829750879550505050505092915050565b60006020820190508181036000830152610c2e8184610b9f565b905092915050565b6000604051905090565b600080fd5b600080fd5b610c5381610a5f565b8114610c5e57600080fd5b50565b600081359050610c7081610c4a565b92915050565b600060208284031215610c8c57610c8b610c40565b5b6000610c9a84828501610c61565b91505092915050565b600060a083016000830151610cbb6000860182610a50565b506020830151610cce6020860182610a69565b506040830151610ce16040860182610a69565b506060830151610cf46060860182610a69565b5060808301518482036080860152610d0c8282610acf565b9150508091505092915050565b60006020820190508181036000830152610d338184610ca3565b905092915050565b60008060408385031215610d5257610d51610c40565b5b6000610d6085828601610c61565b9250506020610d7185828601610c61565b9150509250929050565b600080fd5b600080fd5b7f4e487b7100000000000000000000000000000000000000000000000000000000600052604160045260246000fd5b610dbd82610abe565b810181811067ffffffffffffffff82111715610ddc57610ddb610d85565b5b80604052505050565b6000610def610c36565b9050610dfb8282610db4565b919050565b600067ffffffffffffffff821115610e1b57610e1a610d85565b5b610e2482610abe565b9050602081019050919050565b82818337600083830152505050565b6000610e53610e4e84610e00565b610de5565b905082815260208101848484011115610e6f57610e6e610d80565b5b610e7a848285610e31565b509392505050565b600082601f830112610e9757610e96610d7b565b5b8135610ea7848260208601610e40565b91505092915050565b60008060008060808587031215610eca57610ec9610c40565b5b6000610ed887828801610c61565b945050602085013567ffffffffffffffff811115610ef957610ef8610c45565b5b610f0587828801610e82565b9350506040610f1687828801610c61565b9250506060610f2787828801610c61565b91505092959194509250565b7f4e487b7100000000000000000000000000000000000000000000000000000000600052602260045260246000fd5b60006002820490506001821680610f7a57607f821691505b602082108103610f8d57610f8c610f33565b5b50919050565b7f4e487b7100000000000000000000000000000000000000000000000000000000600052601160045260246000fd5b6000610fcd82610a5f565b9150610fd883610a5f565b9250828202610fe681610a5f565b91508282048414831517610ffd57610ffc610f93565b5b5092915050565b61100d81610a5f565b82525050565b600060608201905061102860008301866109fa565b61103560208301856109fa565b6110426040830184611004565b949350505050565b60008151905061105981610c4a565b92915050565b60006020828403121561107557611074610c40565b5b60006110838482850161104a565b91505092915050565b600061109782610a5f565b91506110a283610a5f565b92508282039050818111156110ba576110b9610f93565b5b92915050565b600081905092915050565b50565b60006110db6000836110c0565b91506110e6826110cb565b600082019050919050565b60006110fc826110ce565b9150819050919050565b60008190508160005260206000209050919050565b60006020601f8301049050919050565b600082821b905092915050565b6000600883026111687fffffffffffffffffffffffffffffffffffffffffffffffffffffffffffffffff8261112b565b611172868361112b565b95508019841693508086168417925050509392505050565b6000819050919050565b60006111af6111aa6111a584610a5f565b61118a565b610a5f565b9050919050565b6000819050919050565b6111c983611194565b6111dd6111d5826111b6565b848454611138565b825550505050565b600090565b6111f26111e5565b6111fd8184846111c0565b505050565b5b81811015611221576112166000826111ea565b600181019050611203565b5050565b601f8211156112665761123781611106565b6112408461111b565b8101602085101561124f578190505b61126361125b8561111b565b830182611202565b50505b505050565b600082821c905092915050565b60006112896000198460080261126b565b1980831691505092915050565b60006112a28383611278565b9150826002028217905092915050565b6112bb82610a78565b67ffffffffffffffff8111156112d4576112d3610d85565b5b6112de8254610f62565b6112e9828285611225565b600060209050601f83116001811461131c576000841561130a578287015190505b6113148582611296565b86555061137c565b601f19841661132a86611106565b60005b828110156113525784890151825560018201915060208501945060208101905061132d565b8683101561136f578489015161136b601f891682611278565b8355505b6001600288020188555050505b505050505050565b600082825260208201905092915050565b60006113a082610a78565b6113aa8185611384565b93506113ba818560208601610a94565b6113c381610abe565b840191505092915050565b60006040820190506113e36000830185611004565b81810360208301526113f58184611395565b9050939250505056fea264697066735822122098a98fe3e73ef5d5da5f14dfb633cc2054c39ff26488cb52e80d943a1a62740b64736f6c6343000813003360a06040526001805534801561001457600080fd5b50604051620010453803806200104583398181016040528101906100389190610115565b336000806101000a81548173ffffffffffffffffffffffffffffffffffffffff021916908373ffffffffffffffffffffffffffffffffffffffff1602179055508073ffffffffffffffffffffffffffffffffffffffff1660808173ffffffffffffffffffffffffffffffffffffffff168152505050610142565b600080fd5b600073ffffffffffffffffffffffffffffffffffffffff82169050919050565b60006100e2826100b7565b9050919050565b6100f2816100d7565b81146100fd57600080fd5b50565b60008151905061010f816100e9565b92915050565b60006020828403121561012b5761012a6100b2565b5b600061013984828501610100565b91505092915050565b608051610ee062000165600039600081816104ac01526104d40152610ee06000f3fe6080604052600436106100705760003560e01c806386d1a69f1161004e57806386d1a69f146100f4578063bb8fe7851461010b578063c361765014610136578063c819998b1461016657610070565b806342b50a7a14610075578063590e1ae3146100b2578063700db752146100c9575b600080fd5b34801561008157600080fd5b5061009c60048036038101906100979190610b01565b610191565b6040516100a99190610bf9565b60405180910390f35b3480156100be57600080fd5b506100c761032e565b005b3480156100d557600080fd5b506100de610330565b6040516100eb9190610d3e565b60405180910390f35b34801561010057600080fd5b506101096104a6565b005b34801561011757600080fd5b506101206104a8565b60405161012d9190610d6f565b60405180910390f35b610150600480360381019061014b9190610db6565b6104d0565b60405161015d9190610e18565b60405180910390f35b34801561017257600080fd5b5061017b6108ee565b6040516101889190610d3e565b60405180910390f35b610199610a64565b600073ffffffffffffffffffffffffffffffffffffffff166004600084815260200190815260200160002060000160009054906101000a900473ffffffffffffffffffffffffffffffffffffffff1673ffffffffffffffffffffffffffffffffffffffff1603610235576040517f56421a5700000000000000000000000000000000000000000000000000000000815260040160405180910390fd5b600460008381526020019081526020016000206040518060c00160405290816000820160009054906101000a900473ffffffffffffffffffffffffffffffffffffffff1673ffffffffffffffffffffffffffffffffffffffff1673ffffffffffffffffffffffffffffffffffffffff1681526020016001820160009054906101000a900473ffffffffffffffffffffffffffffffffffffffff1673ffffffffffffffffffffffffffffffffffffffff1673ffffffffffffffffffffffffffffffffffffffff1681526020016002820154815260200160038201548152602001600482015481526020016005820154815250509050919050565b565b60606000600360003373ffffffffffffffffffffffffffffffffffffffff1673ffffffffffffffffffffffffffffffffffffffff168152602001908152602001600020805480602002602001604051908101604052809291908181526020016000905b8282101561049957838290600052602060002090600602016040518060c00160405290816000820160009054906101000a900473ffffffffffffffffffffffffffffffffffffffff1673ffffffffffffffffffffffffffffffffffffffff1673ffffffffffffffffffffffffffffffffffffffff1681526020016001820160009054906101000a900473ffffffffffffffffffffffffffffffffffffffff1673ffffffffffffffffffffffffffffffffffffffff1673ffffffffffffffffffffffffffffffffffffffff16815260200160028201548152602001600382015481526020016004820154815260200160058201548152505081526020019060010190610393565b5050505090508091505090565b565b60007f0000000000000000000000000000000000000000000000000000000000000000905090565b60007f000000000000000000000000000000000000000000000000000000000000000073ffffffffffffffffffffffffffffffffffffffff163373ffffffffffffffffffffffffffffffffffffffff1614610557576040517fab24dd7c00000000000000000000000000000000000000000000000000000000815260040160405180910390fd5b60006040518060c001604052808673ffffffffffffffffffffffffffffffffffffffff1681526020018573ffffffffffffffffffffffffffffffffffffffff1681526020018481526020013481526020014281526020016001548152509050600260008573ffffffffffffffffffffffffffffffffffffffff1673ffffffffffffffffffffffffffffffffffffffff16815260200190815260200160002081908060018154018082558091505060019003906000526020600020906006020160009091909190915060008201518160000160006101000a81548173ffffffffffffffffffffffffffffffffffffffff021916908373ffffffffffffffffffffffffffffffffffffffff16021790555060208201518160010160006101000a81548173ffffffffffffffffffffffffffffffffffffffff021916908373ffffffffffffffffffffffffffffffffffffffff16021790555060408201518160020155606082015181600301556080820151816004015560a082015181600501555050600360008673ffffffffffffffffffffffffffffffffffffffff1673ffffffffffffffffffffffffffffffffffffffff16815260200190815260200160002081908060018154018082558091505060019003906000526020600020906006020160009091909190915060008201518160000160006101000a81548173ffffffffffffffffffffffffffffffffffffffff021916908373ffffffffffffffffffffffffffffffffffffffff16021790555060208201518160010160006101000a81548173ffffffffffffffffffffffffffffffffffffffff021916908373ffffffffffffffffffffffffffffffffffffffff16021790555060408201518160020155606082015181600301556080820151816004015560a0820151816005015550508060046000600154815260200190815260200160002060008201518160000160006101000a81548173ffffffffffffffffffffffffffffffffffffffff021916908373ffffffffffffffffffffffffffffffffffffffff16021790555060208201518160010160006101000a81548173ffffffffffffffffffffffffffffffffffffffff021916908373ffffffffffffffffffffffffffffffffffffffff16021790555060408201518160020155606082015181600301556080820151816004015560a08201518160050155905050600160008154809291906108da90610e62565b91905055508060a001519150509392505050565b60606000600260003373ffffffffffffffffffffffffffffffffffffffff1673ffffffffffffffffffffffffffffffffffffffff168152602001908152602001600020805480602002602001604051908101604052809291908181526020016000905b82821015610a5757838290600052602060002090600602016040518060c00160405290816000820160009054906101000a900473ffffffffffffffffffffffffffffffffffffffff1673ffffffffffffffffffffffffffffffffffffffff1673ffffffffffffffffffffffffffffffffffffffff1681526020016001820160009054906101000a900473ffffffffffffffffffffffffffffffffffffffff1673ffffffffffffffffffffffffffffffffffffffff1673ffffffffffffffffffffffffffffffffffffffff16815260200160028201548152602001600382015481526020016004820154815260200160058201548152505081526020019060010190610951565b5050505090508091505090565b6040518060c00160405280600073ffffffffffffffffffffffffffffffffffffffff168152602001600073ffffffffffffffffffffffffffffffffffffffff168152602001600081526020016000815260200160008152602001600081525090565b600080fd5b6000819050919050565b610ade81610acb565b8114610ae957600080fd5b50565b600081359050610afb81610ad5565b92915050565b600060208284031215610b1757610b16610ac6565b5b6000610b2584828501610aec565b91505092915050565b600073ffffffffffffffffffffffffffffffffffffffff82169050919050565b6000610b5982610b2e565b9050919050565b610b6981610b4e565b82525050565b610b7881610acb565b82525050565b60c082016000820151610b946000850182610b60565b506020820151610ba76020850182610b60565b506040820151610bba6040850182610b6f565b506060820151610bcd6060850182610b6f565b506080820151610be06080850182610b6f565b5060a0820151610bf360a0850182610b6f565b50505050565b600060c082019050610c0e6000830184610b7e565b92915050565b600081519050919050565b600082825260208201905092915050565b6000819050602082019050919050565b60c082016000820151610c566000850182610b60565b506020820151610c696020850182610b60565b506040820151610c7c6040850182610b6f565b506060820151610c8f6060850182610b6f565b506080820151610ca26080850182610b6f565b5060a0820151610cb560a0850182610b6f565b50505050565b6000610cc78383610c40565b60c08301905092915050565b6000602082019050919050565b6000610ceb82610c14565b610cf58185610c1f565b9350610d0083610c30565b8060005b83811015610d31578151610d188882610cbb565b9750610d2383610cd3565b925050600181019050610d04565b5085935050505092915050565b60006020820190508181036000830152610d588184610ce0565b905092915050565b610d6981610b4e565b82525050565b6000602082019050610d846000830184610d60565b92915050565b610d9381610b4e565b8114610d9e57600080fd5b50565b600081359050610db081610d8a565b92915050565b600080600060608486031215610dcf57610dce610ac6565b5b6000610ddd86828701610da1565b9350506020610dee86828701610da1565b9250506040610dff86828701610aec565b9150509250925092565b610e1281610acb565b82525050565b6000602082019050610e2d6000830184610e09565b92915050565b7f4e487b7100000000000000000000000000000000000000000000000000000000600052601160045260246000fd5b6000610e6d82610acb565b91507fffffffffffffffffffffffffffffffffffffffffffffffffffffffffffffffff8203610e9f57610e9e610e33565b5b60018201905091905056fea26469706673582212208c7412a1528ac551f59cacc37bff205b9b1f3cf69c7a6b3c2ae1853760f2d8ed64736f6c63430008130033",
  "linkReferences": {},
  "deployedLinkReferences": {}
}