{
  "_format": "hh-sol-artifact-1",
  "contractName": "Marketplace",
  "sourceName": "contracts/Marketplace.sol",
  "abi": [
    {
      "inputs": [],
      "stateMutability": "nonpayable",
      "type": "constructor"
    },
    {
      "inputs": [],
      "name": "Marketplace__NotEnoughFunds",
      "type": "error"
    },
    {
      "inputs": [],
      "name": "Marketplace__NotEnoughQuantity",
      "type": "error"
    },
    {
      "inputs": [],
      "name": "Marketplace__ProductNotFound",
      "type": "error"
    },
    {
      "inputs": [],
      "name": "Marketplace__TransferFailed",
      "type": "error"
    },
    {
      "anonymous": false,
      "inputs": [
        {
          "indexed": true,
          "internalType": "uint256",
          "name": "orderId",
          "type": "uint256"
        }
      ],
      "name": "CreatedOrder",
      "type": "event"
    },
    {
      "anonymous": false,
      "inputs": [
        {
          "indexed": true,
          "internalType": "address",
          "name": "owner",
          "type": "address"
        },
        {
          "indexed": true,
          "internalType": "uint256",
          "name": "productId",
          "type": "uint256"
        },
        {
          "indexed": false,
          "internalType": "uint256",
          "name": "price",
          "type": "uint256"
        },
        {
          "indexed": false,
          "internalType": "string",
          "name": "uri",
          "type": "string"
        }
      ],
      "name": "CreatedProduct",
      "type": "event"
    },
    {
      "inputs": [
        {
          "internalType": "uint256",
          "name": "_productId",
          "type": "uint256"
        },
        {
          "internalType": "uint256",
          "name": "_quantity",
          "type": "uint256"
        }
      ],
      "name": "buyProduct",
      "outputs": [],
      "stateMutability": "payable",
      "type": "function"
    },
    {
      "inputs": [
        {
          "internalType": "uint256",
          "name": "_productId",
          "type": "uint256"
        },
        {
          "internalType": "string",
          "name": "uri",
          "type": "string"
        },
        {
          "internalType": "uint256",
          "name": "_price",
          "type": "uint256"
        },
        {
          "internalType": "uint256",
          "name": "_quantity",
          "type": "uint256"
        }
      ],
      "name": "createProduct",
      "outputs": [],
      "stateMutability": "nonpayable",
      "type": "function"
    },
    {
      "inputs": [],
      "name": "getEscrowAddress",
      "outputs": [
        {
          "internalType": "address",
          "name": "",
          "type": "address"
        }
      ],
      "stateMutability": "view",
      "type": "function"
    },
    {
      "inputs": [],
      "name": "getOwner",
      "outputs": [
        {
          "internalType": "address",
          "name": "",
          "type": "address"
        }
      ],
      "stateMutability": "view",
      "type": "function"
    },
    {
      "inputs": [],
      "name": "getOwnerProducts",
      "outputs": [
        {
          "components": [
            {
              "internalType": "address",
              "name": "owner",
              "type": "address"
            },
            {
              "internalType": "uint256",
              "name": "productId",
              "type": "uint256"
            },
            {
              "internalType": "uint256",
              "name": "price",
              "type": "uint256"
            },
            {
              "internalType": "uint256",
              "name": "quantity",
              "type": "uint256"
            },
            {
              "internalType": "string",
              "name": "uri",
              "type": "string"
            }
          ],
          "internalType": "struct Marketplace.Product[]",
          "name": "",
          "type": "tuple[]"
        }
      ],
      "stateMutability": "view",
      "type": "function"
    },
    {
      "inputs": [
        {
          "internalType": "uint256",
          "name": "_productId",
          "type": "uint256"
        }
      ],
      "name": "getProductById",
      "outputs": [
        {
          "components": [
            {
              "internalType": "address",
              "name": "owner",
              "type": "address"
            },
            {
              "internalType": "uint256",
              "name": "productId",
              "type": "uint256"
            },
            {
              "internalType": "uint256",
              "name": "price",
              "type": "uint256"
            },
            {
              "internalType": "uint256",
              "name": "quantity",
              "type": "uint256"
            },
            {
              "internalType": "string",
              "name": "uri",
              "type": "string"
            }
          ],
          "internalType": "struct Marketplace.Product",
          "name": "",
          "type": "tuple"
        }
      ],
      "stateMutability": "view",
      "type": "function"
    }
  ],
  "bytecode": "0x60c06040523480156200001157600080fd5b506200002e673c531b4f106d86e760c01b6200010e60201b60201c565b6200004a6792d60c865e6bd71c60c01b6200010e60201b60201c565b30336040516200005a9062000111565b6200006792919062000164565b604051809103906000f08015801562000084573d6000803e3d6000fd5b5073ffffffffffffffffffffffffffffffffffffffff1660808173ffffffffffffffffffffffffffffffffffffffff1681525050620000d4674b5d2268eac551fa60c01b6200010e60201b60201c565b3373ffffffffffffffffffffffffffffffffffffffff1660a08173ffffffffffffffffffffffffffffffffffffffff168152505062000191565b50565b61307f8062001a6e83390190565b600073ffffffffffffffffffffffffffffffffffffffff82169050919050565b60006200014c826200011f565b9050919050565b6200015e816200013f565b82525050565b60006040820190506200017b600083018562000153565b6200018a602083018462000153565b9392505050565b60805160a0516118b0620001be6000396000610b2801526000818161019d01526107fe01526118b06000f3fe6080604052600436106100555760003560e01c8063122fd48a1461005a5780633873ab24146100855780633f70c2b4146100b057806353b62866146100ed578063893d20e814610109578063f4a44d2d14610134575b600080fd5b34801561006657600080fd5b5061006f61015d565b60405161007c9190610e85565b60405180910390f35b34801561009157600080fd5b5061009a6101c1565b6040516100a79190611090565b60405180910390f35b3480156100bc57600080fd5b506100d760048036038101906100d291906110f2565b6103cd565b6040516100e49190611195565b60405180910390f35b610107600480360381019061010291906111b7565b61063a565b005b34801561011557600080fd5b5061011e610ae8565b60405161012b9190610e85565b60405180910390f35b34801561014057600080fd5b5061015b6004803603810190610156919061132c565b610b4c565b005b600061017367013f30b9b3acae8860c01b610dfc565b61018767a53baa258f9529c560c01b610dfc565b61019b67b820cc60119840cc60c01b610dfc565b7f0000000000000000000000000000000000000000000000000000000000000000905090565b60606101d767e141312109dd5c6460c01b610dfc565b6101eb678f3beef1e6d012cc60c01b610dfc565b6101ff67d93472929deb934260c01b610dfc565b6000600160003373ffffffffffffffffffffffffffffffffffffffff1673ffffffffffffffffffffffffffffffffffffffff168152602001908152602001600020805480602002602001604051908101604052809291908181526020016000905b8282101561039857838290600052602060002090600502016040518060a00160405290816000820160009054906101000a900473ffffffffffffffffffffffffffffffffffffffff1673ffffffffffffffffffffffffffffffffffffffff1673ffffffffffffffffffffffffffffffffffffffff168152602001600182015481526020016002820154815260200160038201548152602001600482018054610307906113de565b80601f0160208091040260200160405190810160405280929190818152602001828054610333906113de565b80156103805780601f1061035557610100808354040283529160200191610380565b820191906000526020600020905b81548152906001019060200180831161036357829003601f168201915b50505050508152505081526020019060010190610260565b5050505090506103b267afb736e0d00afdb260c01b610dfc565b6103c667304bfc94b862c8a860c01b610dfc565b8091505090565b6103d5610dff565b6103e96780a9977995c733bf60c01b610dfc565b6103fd672919e17af44cca1260c01b610dfc565b6104116729002e00adc2424160c01b610dfc565b600073ffffffffffffffffffffffffffffffffffffffff1660008084815260200190815260200160002060000160009054906101000a900473ffffffffffffffffffffffffffffffffffffffff1673ffffffffffffffffffffffffffffffffffffffff16036104d45761048e67ca28008dec5fdaf360c01b610dfc565b6104a267dbd555c739b803bc60c01b610dfc565b6040517ffa130d1500000000000000000000000000000000000000000000000000000000815260040160405180910390fd5b6104e86718e44bb9899b65e160c01b610dfc565b6104fc678707fd7731edad7660c01b610dfc565b61051067f3d89efbed7f649e60c01b610dfc565b6000808381526020019081526020016000206040518060a00160405290816000820160009054906101000a900473ffffffffffffffffffffffffffffffffffffffff1673ffffffffffffffffffffffffffffffffffffffff1673ffffffffffffffffffffffffffffffffffffffff1681526020016001820154815260200160028201548152602001600382015481526020016004820180546105b1906113de565b80601f01602080910402602001604051908101604052809291908181526020018280546105dd906113de565b801561062a5780601f106105ff5761010080835404028352916020019161062a565b820191906000526020600020905b81548152906001019060200180831161060d57829003601f168201915b5050505050815250509050919050565b61064e67bfe1aaf2f28b033460c01b610dfc565b61066267b310304797123f1960c01b610dfc565b61067667ab891a1c6434d1f160c01b610dfc565b6000610681836103cd565b905061069767566a2184866756c360c01b610dfc565b6106ab67e43581d3dabf0d3260c01b610dfc565b8060600151821115610711576106cb676fdd6aff41ebab6e60c01b610dfc565b6106df679cca827127eb215360c01b610dfc565b6040517f2b2e799600000000000000000000000000000000000000000000000000000000815260040160405180910390fd5b610725672bda5d0bdc72ea6260c01b610dfc565b610739673f5007c728eb356260c01b610dfc565b61074d6706cd1a06041a98f560c01b610dfc565b81816040015161075d919061143e565b3410156107be5761077867c23f32ceb89d37a660c01b610dfc565b61078c6768218f3b7bfcb19660c01b610dfc565b6040517f250c003600000000000000000000000000000000000000000000000000000000815260040160405180910390fd5b6107d26757f0086508ebbc7b60c01b610dfc565b6107e66787443c07dd8fd9e260c01b610dfc565b6107fa67bc7b29cfaa113a2360c01b610dfc565b60007f000000000000000000000000000000000000000000000000000000000000000073ffffffffffffffffffffffffffffffffffffffff1663c3617650848460400151610848919061143e565b84600001513386602001516040518563ffffffff1660e01b81526004016108719392919061148f565b60206040518083038185885af115801561088f573d6000803e3d6000fd5b50505050506040513d601f19601f820116820180604052508101906108b491906114db565b90506108ca6775ae833b39b8de6f60c01b610dfc565b6108de67b790ab9981ab4d9360c01b610dfc565b60008383604001516108f0919061143e565b346108fb9190611508565b905061091167bdc8426709bf66a560c01b610dfc565b6109256705dfa6510fcef07b60c01b610dfc565b6000811115610a775761094267dc975a4b4aaff93560c01b610dfc565b61095667b3c125875cde631760c01b610dfc565b61096a67f09e8b817b6bfd3e60c01b610dfc565b60003373ffffffffffffffffffffffffffffffffffffffff16826040516109909061156d565b60006040518083038185875af1925050503d80600081146109cd576040519150601f19603f3d011682016040523d82523d6000602084013e6109d2565b606091505b505090506109ea67e038e8f5d75b29c860c01b610dfc565b6109fe67bb1749eefa776ca660c01b610dfc565b80610a5d57610a17676aa45fa9af11113160c01b610dfc565b610a2b67bdbef0c8e72bc77360c01b610dfc565b6040517f3a06d36900000000000000000000000000000000000000000000000000000000815260040160405180910390fd5b610a71674361d1c7dacea6ca60c01b610dfc565b50610a8c565b610a8b670cbad85b3d5c7f4c60c01b610dfc565b5b610aa067bb1ccc7538e0ab8760c01b610dfc565b610ab467fb379026e6d0f73760c01b610dfc565b817fca570940fc0de1684a030665039469593dd4c228a17d8da38a53bbe884c07caf60405160405180910390a25050505050565b6000610afe6768e17effb2527aa760c01b610dfc565b610b12677c224eca154187de60c01b610dfc565b610b26674366aad32eb8da1460c01b610dfc565b7f0000000000000000000000000000000000000000000000000000000000000000905090565b610b60676c26e830ff756b9860c01b610dfc565b610b7467ad022cef9961901460c01b610dfc565b610b886755780eb4d433c7fe60c01b610dfc565b60006040518060a001604052803373ffffffffffffffffffffffffffffffffffffffff168152602001868152602001848152602001838152602001858152509050610bdd67bade7bcacc13433560c01b610dfc565b8060008087815260200190815260200160002060008201518160000160006101000a81548173ffffffffffffffffffffffffffffffffffffffff021916908373ffffffffffffffffffffffffffffffffffffffff1602179055506020820151816001015560408201518160020155606082015181600301556080820151816004019081610c6a919061172e565b50905050610c8267ba4f4f6e70232ab460c01b610dfc565b610c9667b70a2cbca9b61ae560c01b610dfc565b600160003373ffffffffffffffffffffffffffffffffffffffff1673ffffffffffffffffffffffffffffffffffffffff16815260200190815260200160002081908060018154018082558091505060019003906000526020600020906005020160009091909190915060008201518160000160006101000a81548173ffffffffffffffffffffffffffffffffffffffff021916908373ffffffffffffffffffffffffffffffffffffffff1602179055506020820151816001015560408201518160020155606082015181600301556080820151816004019081610d79919061172e565b505050610d90676cbbf2d75ed3b38760c01b610dfc565b610da467cdc6124ddae38cdc60c01b610dfc565b843373ffffffffffffffffffffffffffffffffffffffff167f752c6e59798f934c2c159f893dcff42eca6bb9529f328570f172e50c9774cb548587604051610ded92919061184a565b60405180910390a35050505050565b50565b6040518060a00160405280600073ffffffffffffffffffffffffffffffffffffffff168152602001600081526020016000815260200160008152602001606081525090565b600073ffffffffffffffffffffffffffffffffffffffff82169050919050565b6000610e6f82610e44565b9050919050565b610e7f81610e64565b82525050565b6000602082019050610e9a6000830184610e76565b92915050565b600081519050919050565b600082825260208201905092915050565b6000819050602082019050919050565b610ed581610e64565b82525050565b6000819050919050565b610eee81610edb565b82525050565b600081519050919050565b600082825260208201905092915050565b60005b83811015610f2e578082015181840152602081019050610f13565b60008484015250505050565b6000601f19601f8301169050919050565b6000610f5682610ef4565b610f608185610eff565b9350610f70818560208601610f10565b610f7981610f3a565b840191505092915050565b600060a083016000830151610f9c6000860182610ecc565b506020830151610faf6020860182610ee5565b506040830151610fc26040860182610ee5565b506060830151610fd56060860182610ee5565b5060808301518482036080860152610fed8282610f4b565b9150508091505092915050565b60006110068383610f84565b905092915050565b6000602082019050919050565b600061102682610ea0565b6110308185610eab565b93508360208202850161104285610ebc565b8060005b8581101561107e578484038952815161105f8582610ffa565b945061106a8361100e565b925060208a01995050600181019050611046565b50829750879550505050505092915050565b600060208201905081810360008301526110aa818461101b565b905092915050565b6000604051905090565b600080fd5b600080fd5b6110cf81610edb565b81146110da57600080fd5b50565b6000813590506110ec816110c6565b92915050565b600060208284031215611108576111076110bc565b5b6000611116848285016110dd565b91505092915050565b600060a0830160008301516111376000860182610ecc565b50602083015161114a6020860182610ee5565b50604083015161115d6040860182610ee5565b5060608301516111706060860182610ee5565b50608083015184820360808601526111888282610f4b565b9150508091505092915050565b600060208201905081810360008301526111af818461111f565b905092915050565b600080604083850312156111ce576111cd6110bc565b5b60006111dc858286016110dd565b92505060206111ed858286016110dd565b9150509250929050565b600080fd5b600080fd5b7f4e487b7100000000000000000000000000000000000000000000000000000000600052604160045260246000fd5b61123982610f3a565b810181811067ffffffffffffffff8211171561125857611257611201565b5b80604052505050565b600061126b6110b2565b90506112778282611230565b919050565b600067ffffffffffffffff82111561129757611296611201565b5b6112a082610f3a565b9050602081019050919050565b82818337600083830152505050565b60006112cf6112ca8461127c565b611261565b9050828152602081018484840111156112eb576112ea6111fc565b5b6112f68482856112ad565b509392505050565b600082601f830112611313576113126111f7565b5b81356113238482602086016112bc565b91505092915050565b60008060008060808587031215611346576113456110bc565b5b6000611354878288016110dd565b945050602085013567ffffffffffffffff811115611375576113746110c1565b5b611381878288016112fe565b9350506040611392878288016110dd565b92505060606113a3878288016110dd565b91505092959194509250565b7f4e487b7100000000000000000000000000000000000000000000000000000000600052602260045260246000fd5b600060028204905060018216806113f657607f821691505b602082108103611409576114086113af565b5b50919050565b7f4e487b7100000000000000000000000000000000000000000000000000000000600052601160045260246000fd5b600061144982610edb565b915061145483610edb565b925082820261146281610edb565b915082820484148315176114795761147861140f565b5b5092915050565b61148981610edb565b82525050565b60006060820190506114a46000830186610e76565b6114b16020830185610e76565b6114be6040830184611480565b949350505050565b6000815190506114d5816110c6565b92915050565b6000602082840312156114f1576114f06110bc565b5b60006114ff848285016114c6565b91505092915050565b600061151382610edb565b915061151e83610edb565b92508282039050818111156115365761153561140f565b5b92915050565b600081905092915050565b50565b600061155760008361153c565b915061156282611547565b600082019050919050565b60006115788261154a565b9150819050919050565b60008190508160005260206000209050919050565b60006020601f8301049050919050565b600082821b905092915050565b6000600883026115e47fffffffffffffffffffffffffffffffffffffffffffffffffffffffffffffffff826115a7565b6115ee86836115a7565b95508019841693508086168417925050509392505050565b6000819050919050565b600061162b61162661162184610edb565b611606565b610edb565b9050919050565b6000819050919050565b61164583611610565b61165961165182611632565b8484546115b4565b825550505050565b600090565b61166e611661565b61167981848461163c565b505050565b5b8181101561169d57611692600082611666565b60018101905061167f565b5050565b601f8211156116e2576116b381611582565b6116bc84611597565b810160208510156116cb578190505b6116df6116d785611597565b83018261167e565b50505b505050565b600082821c905092915050565b6000611705600019846008026116e7565b1980831691505092915050565b600061171e83836116f4565b9150826002028217905092915050565b61173782610ef4565b67ffffffffffffffff8111156117505761174f611201565b5b61175a82546113de565b6117658282856116a1565b600060209050601f8311600181146117985760008415611786578287015190505b6117908582611712565b8655506117f8565b601f1984166117a686611582565b60005b828110156117ce578489015182556001820191506020850194506020810190506117a9565b868310156117eb57848901516117e7601f8916826116f4565b8355505b6001600288020188555050505b505050505050565b600082825260208201905092915050565b600061181c82610ef4565b6118268185611800565b9350611836818560208601610f10565b61183f81610f3a565b840191505092915050565b600060408201905061185f6000830185611480565b81810360208301526118718184611811565b9050939250505056fea2646970667358221220cec8c22c6446e04b0cba0e78d36b700fd488e8905bbcbf90fc5f2d608726237b64736f6c6343000813003360a0604052600180553480156200001557600080fd5b506040516200307f3803806200307f83398181016040528101906200003b919062000178565b62000057678682a9107a6fd2c160c01b6200010b60201b60201c565b62000073671d41a94ba5554dcb60c01b6200010b60201b60201c565b806000806101000a81548173ffffffffffffffffffffffffffffffffffffffff021916908373ffffffffffffffffffffffffffffffffffffffff160217905550620000cf676024235befca135f60c01b6200010b60201b60201c565b8173ffffffffffffffffffffffffffffffffffffffff1660808173ffffffffffffffffffffffffffffffffffffffff16815250505050620001bf565b50565b600080fd5b600073ffffffffffffffffffffffffffffffffffffffff82169050919050565b6000620001408262000113565b9050919050565b620001528162000133565b81146200015e57600080fd5b50565b600081519050620001728162000147565b92915050565b600080604083850312156200019257620001916200010e565b5b6000620001a28582860162000161565b9250506020620001b58582860162000161565b9150509250929050565b608051612e9d620001e260003960008181611be701526120d60152612e9d6000f3fe6080604052600436106100865760003560e01c8063893d20e811610059578063893d20e814610145578063bb8fe78514610170578063c0cfa7e51461019b578063c3617650146101c4578063c819998b146101f457610086565b8063278ecde11461008b57806337bdc99b146100b457806342b50a7a146100dd578063700db7521461011a575b600080fd5b34801561009757600080fd5b506100b260048036038101906100ad91906129a7565b61021f565b005b3480156100c057600080fd5b506100db60048036038101906100d691906129a7565b610bd6565b005b3480156100e957600080fd5b5061010460048036038101906100ff91906129a7565b6116b6565b6040516101119190612b29565b60405180910390f35b34801561012657600080fd5b5061012f61192e565b60405161013c9190612c81565b60405180910390f35b34801561015157600080fd5b5061015a611b43565b6040516101679190612cb2565b60405180910390f35b34801561017c57600080fd5b50610185611ba7565b6040516101929190612cb2565b60405180910390f35b3480156101a757600080fd5b506101c260048036038101906101bd91906129a7565b611c0b565b005b6101de60048036038101906101d99190612cf9565b612082565b6040516101eb9190612d5b565b60405180910390f35b34801561020057600080fd5b506102096126d9565b6040516102169190612c81565b60405180910390f35b6102336728bdba660bf3974f60c01b6128ee565b8061024867a8cf46a670d916b060c01b6128ee565b61025c67a986cefeec85818760c01b6128ee565b610270679468e128eae60b1a60c01b6128ee565b6000600460008381526020019081526020016000206040518060e00160405290816000820160009054906101000a900473ffffffffffffffffffffffffffffffffffffffff1673ffffffffffffffffffffffffffffffffffffffff1673ffffffffffffffffffffffffffffffffffffffff1681526020016001820160009054906101000a900473ffffffffffffffffffffffffffffffffffffffff1673ffffffffffffffffffffffffffffffffffffffff1673ffffffffffffffffffffffffffffffffffffffff168152602001600282015481526020016003820154815260200160048201548152602001600582015481526020016006820160009054906101000a900460ff16600381111561038957610388612a24565b5b600381111561039b5761039a612a24565b5b8152505090506103b56796010dfaecf65cf660c01b6128ee565b6103c9677a4fa443f0dd646b60c01b6128ee565b600060038111156103dd576103dc612a24565b5b8160c0015160038111156103f4576103f3612a24565b5b1415801561042a57506003808111156104105761040f612a24565b5b8160c00151600381111561042757610426612a24565b5b14155b15610489576104436707ba95f796c8a10260c01b6128ee565b61045767088091dfa12640c660c01b6128ee565b6040517f8a22693e00000000000000000000000000000000000000000000000000000000815260040160405180910390fd5b61049d677d44f4b501c4318360c01b6128ee565b6104b16721c50106825c897d60c01b6128ee565b6104c5677b4f954d76e7895060c01b6128ee565b6104d967b3fcfb8b1a7f9ef960c01b6128ee565b826104ee6767894023de97c25560c01b6128ee565b61050267527eb98e367f366c60c01b6128ee565b610516679810e0b36380003060c01b6128ee565b6000600460008381526020019081526020016000206040518060e00160405290816000820160009054906101000a900473ffffffffffffffffffffffffffffffffffffffff1673ffffffffffffffffffffffffffffffffffffffff1673ffffffffffffffffffffffffffffffffffffffff1681526020016001820160009054906101000a900473ffffffffffffffffffffffffffffffffffffffff1673ffffffffffffffffffffffffffffffffffffffff1673ffffffffffffffffffffffffffffffffffffffff168152602001600282015481526020016003820154815260200160048201548152602001600582015481526020016006820160009054906101000a900460ff16600381111561062f5761062e612a24565b5b600381111561064157610640612a24565b5b81525050905061065b67010c170a31d2120c60c01b6128ee565b61066f6745d3b41a49d7ae0260c01b6128ee565b60008054906101000a900473ffffffffffffffffffffffffffffffffffffffff1673ffffffffffffffffffffffffffffffffffffffff163373ffffffffffffffffffffffffffffffffffffffff161480156106f257506003808111156106d8576106d7612a24565b5b8160c0015160038111156106ef576106ee612a24565b5b14155b156107515761070b677dd3f87b173f7fd660c01b6128ee565b61071f67539a28d4bbb2f8bb60c01b6128ee565b6040517f8ab9b32900000000000000000000000000000000000000000000000000000000815260040160405180910390fd5b61076567964e40ee2cdeb52360c01b6128ee565b6107796785176212632737a660c01b6128ee565b3373ffffffffffffffffffffffffffffffffffffffff16816000015173ffffffffffffffffffffffffffffffffffffffff1614158015610805575060008054906101000a900473ffffffffffffffffffffffffffffffffffffffff1673ffffffffffffffffffffffffffffffffffffffff163373ffffffffffffffffffffffffffffffffffffffff1614155b156108645761081e674c7003b2a701628760c01b6128ee565b61083267b8512d8a4a233cd460c01b6128ee565b6040517f76df155600000000000000000000000000000000000000000000000000000000815260040160405180910390fd5b6108786722912976bd78484960c01b6128ee565b61088c671738f3f3759d663d60c01b6128ee565b806000015173ffffffffffffffffffffffffffffffffffffffff163373ffffffffffffffffffffffffffffffffffffffff161480156108f257506003808111156108d9576108d8612a24565b5b8160c0015160038111156108f0576108ef612a24565b5b145b156109515761090b678e687d28d1f0071d60c01b6128ee565b61091f67dfa79c7729e9ccc960c01b6128ee565b6040517f26b095e100000000000000000000000000000000000000000000000000000000815260040160405180910390fd5b6109656729062cc8dc02374160c01b6128ee565b610979674bf8d5847ee50bf060c01b6128ee565b61098d677e1bc537d91b06a960c01b6128ee565b6109a16720dc0852a289c78660c01b6128ee565b6109b567587e37be3e2a8a9f60c01b6128ee565b6109c9675f071e8a3096ee0560c01b6128ee565b60006004600087815260200190815260200160002090506109f467a4f4e0f2571abc7c60c01b6128ee565b60028160060160006101000a81548160ff02191690836003811115610a1c57610a1b612a24565b5b0217905550610a3567fef194e3b5a36af260c01b6128ee565b610a4967c7d0a25614147d7a60c01b6128ee565b60008160010160009054906101000a900473ffffffffffffffffffffffffffffffffffffffff1673ffffffffffffffffffffffffffffffffffffffff168260030154604051610a9790612da7565b60006040518083038185875af1925050503d8060008114610ad4576040519150601f19603f3d011682016040523d82523d6000602084013e610ad9565b606091505b50509050610af1676ade4ee43526370060c01b6128ee565b610b0567e5572a0ca148689e60c01b6128ee565b80610b6457610b1e67d5fffa5233beb7b360c01b6128ee565b610b32676954edc2badc589a60c01b6128ee565b6040517f4abcf95000000000000000000000000000000000000000000000000000000000815260040160405180910390fd5b610b786762149c2c0697814060c01b6128ee565b610b8c67f65636fa082b6db760c01b6128ee565b610ba067ea9568a7c09d234960c01b6128ee565b867f6cbb2f5fc1a460905eb3b50b6c769589d8b1a201f03b7f04b1f3ce09c3aee78b60405160405180910390a250505050505050565b610bea67c356e2b0d3d3803660c01b6128ee565b80610bff67a8cf46a670d916b060c01b6128ee565b610c1367a986cefeec85818760c01b6128ee565b610c27679468e128eae60b1a60c01b6128ee565b6000600460008381526020019081526020016000206040518060e00160405290816000820160009054906101000a900473ffffffffffffffffffffffffffffffffffffffff1673ffffffffffffffffffffffffffffffffffffffff1673ffffffffffffffffffffffffffffffffffffffff1681526020016001820160009054906101000a900473ffffffffffffffffffffffffffffffffffffffff1673ffffffffffffffffffffffffffffffffffffffff1673ffffffffffffffffffffffffffffffffffffffff168152602001600282015481526020016003820154815260200160048201548152602001600582015481526020016006820160009054906101000a900460ff166003811115610d4057610d3f612a24565b5b6003811115610d5257610d51612a24565b5b815250509050610d6c6796010dfaecf65cf660c01b6128ee565b610d80677a4fa443f0dd646b60c01b6128ee565b60006003811115610d9457610d93612a24565b5b8160c001516003811115610dab57610daa612a24565b5b14158015610de15750600380811115610dc757610dc6612a24565b5b8160c001516003811115610dde57610ddd612a24565b5b14155b15610e4057610dfa6707ba95f796c8a10260c01b6128ee565b610e0e67088091dfa12640c660c01b6128ee565b6040517f8a22693e00000000000000000000000000000000000000000000000000000000815260040160405180910390fd5b610e54677d44f4b501c4318360c01b6128ee565b610e686721c50106825c897d60c01b6128ee565b610e7c67a8b7a9aaad801b6160c01b6128ee565b610e90672d30535f88340f5960c01b6128ee565b82610ea567a7c7c5dfad30ec6560c01b6128ee565b610eb967ba63a8469acf7ec760c01b6128ee565b610ecd671b786cbfc5bbddb660c01b6128ee565b6000600460008381526020019081526020016000206040518060e00160405290816000820160009054906101000a900473ffffffffffffffffffffffffffffffffffffffff1673ffffffffffffffffffffffffffffffffffffffff1673ffffffffffffffffffffffffffffffffffffffff1681526020016001820160009054906101000a900473ffffffffffffffffffffffffffffffffffffffff1673ffffffffffffffffffffffffffffffffffffffff1673ffffffffffffffffffffffffffffffffffffffff168152602001600282015481526020016003820154815260200160048201548152602001600582015481526020016006820160009054906101000a900460ff166003811115610fe657610fe5612a24565b5b6003811115610ff857610ff7612a24565b5b81525050905061101267d2a7682fbe9b96a560c01b6128ee565b611026671614c4ab1e3c0e7860c01b6128ee565b60008054906101000a900473ffffffffffffffffffffffffffffffffffffffff1673ffffffffffffffffffffffffffffffffffffffff163373ffffffffffffffffffffffffffffffffffffffff161480156110a9575060038081111561108f5761108e612a24565b5b8160c0015160038111156110a6576110a5612a24565b5b14155b15611108576110c2675d9eba9467bf36dc60c01b6128ee565b6110d667daa96c08f8cfbaeb60c01b6128ee565b6040517f8ab9b32900000000000000000000000000000000000000000000000000000000815260040160405180910390fd5b61111c67d53a0eeba684915c60c01b6128ee565b61113067713e500cf31766c860c01b6128ee565b3373ffffffffffffffffffffffffffffffffffffffff16816000015173ffffffffffffffffffffffffffffffffffffffff16036112305761117b67982e8deea799826060c01b6128ee565b61118f672910437015357dbb60c01b6128ee565b6111a3670577ae683f7dab1060c01b6128ee565b62278d008160800151426111b79190612deb565b1015611217576111d167c517ea917b60667060c01b6128ee565b6111e5671a195938f297bfe260c01b6128ee565b6040517f586f49f700000000000000000000000000000000000000000000000000000000815260040160405180910390fd5b61122b674cf94b57c9058e2260c01b6128ee565b611445565b611244675f537d3611769a9f60c01b6128ee565b611258678e213de2e7c0f3e960c01b6128ee565b3373ffffffffffffffffffffffffffffffffffffffff16816020015173ffffffffffffffffffffffffffffffffffffffff16141580156112e4575060008054906101000a900473ffffffffffffffffffffffffffffffffffffffff1673ffffffffffffffffffffffffffffffffffffffff163373ffffffffffffffffffffffffffffffffffffffff1614155b15611343576112fd673da8eb50c5965f2460c01b6128ee565b61131167ea6c141a9ec09eee60c01b6128ee565b6040517f492aab8600000000000000000000000000000000000000000000000000000000815260040160405180910390fd5b611357671b8d04d6aa36dae760c01b6128ee565b61136b674f1337c4080ba2bd60c01b6128ee565b806020015173ffffffffffffffffffffffffffffffffffffffff163373ffffffffffffffffffffffffffffffffffffffff161480156113d157506003808111156113b8576113b7612a24565b5b8160c0015160038111156113cf576113ce612a24565b5b145b15611430576113ea67797479d6d3ab781160c01b6128ee565b6113fe679967075ce7c0ed2d60c01b6128ee565b6040517f26b095e100000000000000000000000000000000000000000000000000000000815260040160405180910390fd5b6114446710487ba0b33925a960c01b6128ee565b5b611459671416ec0410b1a7d460c01b6128ee565b61146d672e08703d3e28ffa260c01b6128ee565b6114816788916614ddb5604a60c01b6128ee565b6114956756289fca248217c160c01b6128ee565b6114a96774a52728903ebc6860c01b6128ee565b60006004600087815260200190815260200160002090506114d4677bd10de6a7cabf1e60c01b6128ee565b60018160060160006101000a81548160ff021916908360038111156114fc576114fb612a24565b5b021790555061151567eca099b30beed68b60c01b6128ee565b611529676b42d809763e0cb560c01b6128ee565b60008160000160009054906101000a900473ffffffffffffffffffffffffffffffffffffffff1673ffffffffffffffffffffffffffffffffffffffff16826003015460405161157790612da7565b60006040518083038185875af1925050503d80600081146115b4576040519150601f19603f3d011682016040523d82523d6000602084013e6115b9565b606091505b505090506115d16772f4c21739eedc9f60c01b6128ee565b6115e5676b52d77bcc5684f160c01b6128ee565b80611644576115fe67a0cd571f8e1d9e0a60c01b6128ee565b6116126715211b0b91d88cb460c01b6128ee565b6040517f4abcf95000000000000000000000000000000000000000000000000000000000815260040160405180910390fd5b61165867befc3620270ff0f260c01b6128ee565b61166c673be2368da88b39f960c01b6128ee565b611680671d10082a2ac305ca60c01b6128ee565b867fd7c4eded732389526228283d2661ca619ed8096fffca8c0f0c3a6e2a7f4c449d60405160405180910390a250505050505050565b6116be6128f1565b6116d267178b41e7b125903a60c01b6128ee565b6116e667e9aa0b4e1574286860c01b6128ee565b6116fa67b7b337024c635da460c01b6128ee565b600073ffffffffffffffffffffffffffffffffffffffff166004600084815260200190815260200160002060000160009054906101000a900473ffffffffffffffffffffffffffffffffffffffff1673ffffffffffffffffffffffffffffffffffffffff16036117be5761177867062efda05f81889060c01b6128ee565b61178c67628dffc3fab2ddf460c01b6128ee565b6040517f56421a5700000000000000000000000000000000000000000000000000000000815260040160405180910390fd5b6117d267f9165bffd114af6b60c01b6128ee565b6117e667782cfc5a013337c960c01b6128ee565b6117fa67c1839b46b22f3b6360c01b6128ee565b600460008381526020019081526020016000206040518060e00160405290816000820160009054906101000a900473ffffffffffffffffffffffffffffffffffffffff1673ffffffffffffffffffffffffffffffffffffffff1673ffffffffffffffffffffffffffffffffffffffff1681526020016001820160009054906101000a900473ffffffffffffffffffffffffffffffffffffffff1673ffffffffffffffffffffffffffffffffffffffff1673ffffffffffffffffffffffffffffffffffffffff168152602001600282015481526020016003820154815260200160048201548152602001600582015481526020016006820160009054906101000a900460ff16600381111561191157611910612a24565b5b600381111561192357611922612a24565b5b815250509050919050565b6060611944675630e77e0f7a210d60c01b6128ee565b61195867548eaf65cf62560260c01b6128ee565b61196c671b8b13407c0938ae60c01b6128ee565b6000600360003373ffffffffffffffffffffffffffffffffffffffff1673ffffffffffffffffffffffffffffffffffffffff168152602001908152602001600020805480602002602001604051908101604052809291908181526020016000905b82821015611b0e57838290600052602060002090600702016040518060e00160405290816000820160009054906101000a900473ffffffffffffffffffffffffffffffffffffffff1673ffffffffffffffffffffffffffffffffffffffff1673ffffffffffffffffffffffffffffffffffffffff1681526020016001820160009054906101000a900473ffffffffffffffffffffffffffffffffffffffff1673ffffffffffffffffffffffffffffffffffffffff1673ffffffffffffffffffffffffffffffffffffffff168152602001600282015481526020016003820154815260200160048201548152602001600582015481526020016006820160009054906101000a900460ff166003811115611ae957611ae8612a24565b5b6003811115611afb57611afa612a24565b5b81525050815260200190600101906119cd565b505050509050611b286794793333fe2f079d60c01b6128ee565b611b3c67772e1bf2ba854aef60c01b6128ee565b8091505090565b6000611b59677d7411a39e1149c360c01b6128ee565b611b6d67cf0552636919536060c01b6128ee565b611b8167f4df7bac6551b71f60c01b6128ee565b60008054906101000a900473ffffffffffffffffffffffffffffffffffffffff16905090565b6000611bbd6768c626dcdd1cee0460c01b6128ee565b611bd16708dbabe6e49b837860c01b6128ee565b611be5678d2ffa62da82f61360c01b6128ee565b7f0000000000000000000000000000000000000000000000000000000000000000905090565b611c1f67a7269d2cb5d0c5fb60c01b6128ee565b80611c3467081048211811fab560c01b6128ee565b611c486758c8fea77f50a14160c01b6128ee565b611c5c67fcddb68f9c9cc26d60c01b6128ee565b6000600460008381526020019081526020016000206040518060e00160405290816000820160009054906101000a900473ffffffffffffffffffffffffffffffffffffffff1673ffffffffffffffffffffffffffffffffffffffff1673ffffffffffffffffffffffffffffffffffffffff1681526020016001820160009054906101000a900473ffffffffffffffffffffffffffffffffffffffff1673ffffffffffffffffffffffffffffffffffffffff1673ffffffffffffffffffffffffffffffffffffffff168152602001600282015481526020016003820154815260200160048201548152602001600582015481526020016006820160009054906101000a900460ff166003811115611d7557611d74612a24565b5b6003811115611d8757611d86612a24565b5b815250509050611da167ef3f468eca27f67e60c01b6128ee565b611db567f145d9f0b5b9eea060c01b6128ee565b806000015173ffffffffffffffffffffffffffffffffffffffff163373ffffffffffffffffffffffffffffffffffffffff1614158015611e255750806020015173ffffffffffffffffffffffffffffffffffffffff163373ffffffffffffffffffffffffffffffffffffffff1614155b15611e8457611e3e677fc0f059cbb7702260c01b6128ee565b611e5267746f2bdd3eb0fd9c60c01b6128ee565b6040517f96b88c5100000000000000000000000000000000000000000000000000000000815260040160405180910390fd5b611e9867c88b3f2a7594271d60c01b6128ee565b611eac6747d00b45b5d7c4b060c01b6128ee565b611ec067507f9dfbb59cd9f360c01b6128ee565b611ed46710c326611e268a9160c01b6128ee565b611ee867265199fb51b21ef360c01b6128ee565b611efc67803583427c68b03560c01b6128ee565b6000600460008581526020019081526020016000209050611f276755a5679af814216860c01b6128ee565b611f3b67670a39492e2fbec560c01b6128ee565b60006003811115611f4f57611f4e612a24565b5b8160060160009054906101000a900460ff166003811115611f7357611f72612a24565b5b14611fd257611f8c678d4872af48d7af1760c01b6128ee565b611fa067f321c11113ce73b260c01b6128ee565b6040517ff609f42000000000000000000000000000000000000000000000000000000000815260040160405180910390fd5b611fe667eaf59ce00d33cf9e60c01b6128ee565b611ffa67289df4c4ff94ac8a60c01b6128ee565b60038160060160006101000a81548160ff0219169083600381111561202257612021612a24565b5b021790555061203b674ac76f16116646b260c01b6128ee565b61204f674ea2110c63157fda60c01b6128ee565b837f912a1e013de32e96d992fc6c81600eb5480705bfabb226c0b69811abf2b3abac60405160405180910390a250505050565b600061209867d5cbec34601eb5db60c01b6128ee565b6120ac670e16a17776e9ee9460c01b6128ee565b6120c0676d8adabdabb8e40860c01b6128ee565b6120d4674b677f51e981752d60c01b6128ee565b7f000000000000000000000000000000000000000000000000000000000000000073ffffffffffffffffffffffffffffffffffffffff163373ffffffffffffffffffffffffffffffffffffffff16146121815761213b67cc76fcbb1316d35360c01b6128ee565b61214f67298044c1cac2b2c360c01b6128ee565b6040517fab24dd7c00000000000000000000000000000000000000000000000000000000815260040160405180910390fd5b61219567480d1a4a154abaec60c01b6128ee565b6121a967fa91eaed2c59f76e60c01b6128ee565b6121bd6703c0c50c471587ee60c01b6128ee565b6121d16743f05359225e3f8960c01b6128ee565b6121e56783bb511f2f4f471b60c01b6128ee565b6121f9673c515e0c4f04e20860c01b6128ee565b60006040518060e001604052808673ffffffffffffffffffffffffffffffffffffffff1681526020018573ffffffffffffffffffffffffffffffffffffffff16815260200184815260200134815260200142815260200160015481526020016000600381111561226c5761226b612a24565b5b815250905061228567458b5498b635041460c01b6128ee565b61229967d053eb58535e341b60c01b6128ee565b600260008573ffffffffffffffffffffffffffffffffffffffff1673ffffffffffffffffffffffffffffffffffffffff16815260200190815260200160002081908060018154018082558091505060019003906000526020600020906007020160009091909190915060008201518160000160006101000a81548173ffffffffffffffffffffffffffffffffffffffff021916908373ffffffffffffffffffffffffffffffffffffffff16021790555060208201518160010160006101000a81548173ffffffffffffffffffffffffffffffffffffffff021916908373ffffffffffffffffffffffffffffffffffffffff16021790555060408201518160020155606082015181600301556080820151816004015560a0820151816005015560c08201518160060160006101000a81548160ff021916908360038111156123e3576123e2612a24565b5b021790555050506123fe678ef53031548ea11260c01b6128ee565b61241267f64da947f2a6055560c01b6128ee565b600360008673ffffffffffffffffffffffffffffffffffffffff1673ffffffffffffffffffffffffffffffffffffffff16815260200190815260200160002081908060018154018082558091505060019003906000526020600020906007020160009091909190915060008201518160000160006101000a81548173ffffffffffffffffffffffffffffffffffffffff021916908373ffffffffffffffffffffffffffffffffffffffff16021790555060208201518160010160006101000a81548173ffffffffffffffffffffffffffffffffffffffff021916908373ffffffffffffffffffffffffffffffffffffffff16021790555060408201518160020155606082015181600301556080820151816004015560a0820151816005015560c08201518160060160006101000a81548160ff0219169083600381111561255c5761255b612a24565b5b02179055505050612577674b43e0ebd8b8ed4960c01b6128ee565b8060046000600154815260200190815260200160002060008201518160000160006101000a81548173ffffffffffffffffffffffffffffffffffffffff021916908373ffffffffffffffffffffffffffffffffffffffff16021790555060208201518160010160006101000a81548173ffffffffffffffffffffffffffffffffffffffff021916908373ffffffffffffffffffffffffffffffffffffffff16021790555060408201518160020155606082015181600301556080820151816004015560a0820151816005015560c08201518160060160006101000a81548160ff0219169083600381111561266e5761266d612a24565b5b021790555090505061268a67cd72c06404fb756860c01b6128ee565b6001600081548092919061269d90612e1f565b91905055506126b6670eb3ca56f604eef860c01b6128ee565b6126ca673326a407adac532560c01b6128ee565b8060a001519150509392505050565b60606126ef6705e1e19b581157e460c01b6128ee565b612703679707f403254cde5a60c01b6128ee565b61271767ceb693f2332168bd60c01b6128ee565b6000600260003373ffffffffffffffffffffffffffffffffffffffff1673ffffffffffffffffffffffffffffffffffffffff168152602001908152602001600020805480602002602001604051908101604052809291908181526020016000905b828210156128b957838290600052602060002090600702016040518060e00160405290816000820160009054906101000a900473ffffffffffffffffffffffffffffffffffffffff1673ffffffffffffffffffffffffffffffffffffffff1673ffffffffffffffffffffffffffffffffffffffff1681526020016001820160009054906101000a900473ffffffffffffffffffffffffffffffffffffffff1673ffffffffffffffffffffffffffffffffffffffff1673ffffffffffffffffffffffffffffffffffffffff168152602001600282015481526020016003820154815260200160048201548152602001600582015481526020016006820160009054906101000a900460ff16600381111561289457612893612a24565b5b60038111156128a6576128a5612a24565b5b8152505081526020019060010190612778565b5050505090506128d36721dfbe3fccf4c45160c01b6128ee565b6128e767c4f5d0024044adca60c01b6128ee565b8091505090565b50565b6040518060e00160405280600073ffffffffffffffffffffffffffffffffffffffff168152602001600073ffffffffffffffffffffffffffffffffffffffff168152602001600081526020016000815260200160008152602001600081526020016000600381111561296657612965612a24565b5b81525090565b600080fd5b6000819050919050565b61298481612971565b811461298f57600080fd5b50565b6000813590506129a18161297b565b92915050565b6000602082840312156129bd576129bc61296c565b5b60006129cb84828501612992565b91505092915050565b600073ffffffffffffffffffffffffffffffffffffffff82169050919050565b60006129ff826129d4565b9050919050565b612a0f816129f4565b82525050565b612a1e81612971565b82525050565b7f4e487b7100000000000000000000000000000000000000000000000000000000600052602160045260246000fd5b60048110612a6457612a63612a24565b5b50565b6000819050612a7582612a53565b919050565b6000612a8582612a67565b9050919050565b612a9581612a7a565b82525050565b60e082016000820151612ab16000850182612a06565b506020820151612ac46020850182612a06565b506040820151612ad76040850182612a15565b506060820151612aea6060850182612a15565b506080820151612afd6080850182612a15565b5060a0820151612b1060a0850182612a15565b5060c0820151612b2360c0850182612a8c565b50505050565b600060e082019050612b3e6000830184612a9b565b92915050565b600081519050919050565b600082825260208201905092915050565b6000819050602082019050919050565b60e082016000820151612b866000850182612a06565b506020820151612b996020850182612a06565b506040820151612bac6040850182612a15565b506060820151612bbf6060850182612a15565b506080820151612bd26080850182612a15565b5060a0820151612be560a0850182612a15565b5060c0820151612bf860c0850182612a8c565b50505050565b6000612c0a8383612b70565b60e08301905092915050565b6000602082019050919050565b6000612c2e82612b44565b612c388185612b4f565b9350612c4383612b60565b8060005b83811015612c74578151612c5b8882612bfe565b9750612c6683612c16565b925050600181019050612c47565b5085935050505092915050565b60006020820190508181036000830152612c9b8184612c23565b905092915050565b612cac816129f4565b82525050565b6000602082019050612cc76000830184612ca3565b92915050565b612cd6816129f4565b8114612ce157600080fd5b50565b600081359050612cf381612ccd565b92915050565b600080600060608486031215612d1257612d1161296c565b5b6000612d2086828701612ce4565b9350506020612d3186828701612ce4565b9250506040612d4286828701612992565b9150509250925092565b612d5581612971565b82525050565b6000602082019050612d706000830184612d4c565b92915050565b600081905092915050565b50565b6000612d91600083612d76565b9150612d9c82612d81565b600082019050919050565b6000612db282612d84565b9150819050919050565b7f4e487b7100000000000000000000000000000000000000000000000000000000600052601160045260246000fd5b6000612df682612971565b9150612e0183612971565b9250828203905081811115612e1957612e18612dbc565b5b92915050565b6000612e2a82612971565b91507fffffffffffffffffffffffffffffffffffffffffffffffffffffffffffffffff8203612e5c57612e5b612dbc565b5b60018201905091905056fea26469706673582212209b625a3c1a9269b271bfca3db2dcdbf5ecb3b0342d6b752f15a6a98694f4b5c664736f6c63430008130033",
  "linkReferences": {},
  "deployedLinkReferences": {}
}