{
  "_format": "hh-sol-artifact-1",
  "contractName": "Marketplace",
  "sourceName": "contracts/Marketplace.sol",
  "abi": [
    {
      "inputs": [
        {
          "internalType": "address",
          "name": "_escrow",
          "type": "address"
        }
      ],
      "stateMutability": "nonpayable",
      "type": "constructor"
    },
    {
      "inputs": [],
      "name": "Marketplace__ProductNotFound",
      "type": "error"
    },
    {
      "inputs": [],
      "name": "buyProduct",
      "outputs": [],
      "stateMutability": "payable",
      "type": "function"
    },
    {
      "inputs": [],
      "name": "createProduct",
      "outputs": [],
      "stateMutability": "nonpayable",
      "type": "function"
    },
    {
      "inputs": [],
      "name": "getOwner",
      "outputs": [
        {
          "internalType": "address",
          "name": "",
          "type": "address"
        }
      ],
      "stateMutability": "view",
      "type": "function"
    }
  ],
  "bytecode": "0x60c060405234801561001057600080fd5b5060405161028038038061028083398181016040528101906100329190610103565b8073ffffffffffffffffffffffffffffffffffffffff1660808173ffffffffffffffffffffffffffffffffffffffff16815250503373ffffffffffffffffffffffffffffffffffffffff1660a08173ffffffffffffffffffffffffffffffffffffffff168152505050610130565b600080fd5b600073ffffffffffffffffffffffffffffffffffffffff82169050919050565b60006100d0826100a5565b9050919050565b6100e0816100c5565b81146100eb57600080fd5b50565b6000815190506100fd816100d7565b92915050565b600060208284031215610119576101186100a0565b5b6000610127848285016100ee565b91505092915050565b60805160a05161012f6101516000396000607d01526000505061012f6000f3fe60806040526004361060305760003560e01c806314d75e9d146035578063893d20e81460495780639ada9b7b14606f575b600080fd5b348015604057600080fd5b5060476077565b005b348015605457600080fd5b50605b6079565b6040516066919060e0565b60405180910390f35b607560a1565b005b565b60007f0000000000000000000000000000000000000000000000000000000000000000905090565b565b600073ffffffffffffffffffffffffffffffffffffffff82169050919050565b600060cc8260a3565b9050919050565b60da8160c3565b82525050565b600060208201905060f3600083018460d3565b9291505056fea2646970667358221220905fadb2b21140b86022c979f1023488d10199600f8711e00404b2e185efd94364736f6c63430008130033",
  "linkReferences": {},
  "deployedLinkReferences": {}
}