{
  "_format": "hh-sol-artifact-1",
  "contractName": "Marketplace",
  "sourceName": "contracts/Marketplace.sol",
  "abi": [
    {
      "inputs": [],
      "stateMutability": "nonpayable",
      "type": "constructor"
    },
    {
      "inputs": [],
      "name": "Marketplace__NotEnoughFunds",
      "type": "error"
    },
    {
      "inputs": [],
      "name": "Marketplace__NotEnoughQuantity",
      "type": "error"
    },
    {
      "inputs": [],
      "name": "Marketplace__ProductNotFound",
      "type": "error"
    },
    {
      "inputs": [],
      "name": "Marketplace__Seller_Cant_Buy",
      "type": "error"
    },
    {
      "inputs": [],
      "name": "Marketplace__TransferFailed",
      "type": "error"
    },
    {
      "anonymous": false,
      "inputs": [
        {
          "indexed": true,
          "internalType": "uint256",
          "name": "orderId",
          "type": "uint256"
        }
      ],
      "name": "CreatedOrder",
      "type": "event"
    },
    {
      "anonymous": false,
      "inputs": [
        {
          "indexed": true,
          "internalType": "address",
          "name": "owner",
          "type": "address"
        },
        {
          "indexed": true,
          "internalType": "uint256",
          "name": "productId",
          "type": "uint256"
        },
        {
          "indexed": false,
          "internalType": "uint256",
          "name": "price",
          "type": "uint256"
        },
        {
          "indexed": false,
          "internalType": "string",
          "name": "uri",
          "type": "string"
        }
      ],
      "name": "CreatedProduct",
      "type": "event"
    },
    {
      "inputs": [
        {
          "internalType": "uint256",
          "name": "_productId",
          "type": "uint256"
        },
        {
          "internalType": "uint256",
          "name": "_quantity",
          "type": "uint256"
        },
        {
          "internalType": "uint256",
          "name": "_orderId",
          "type": "uint256"
        }
      ],
      "name": "buyProduct",
      "outputs": [],
      "stateMutability": "payable",
      "type": "function"
    },
    {
      "inputs": [
        {
          "internalType": "uint256",
          "name": "_productId",
          "type": "uint256"
        },
        {
          "internalType": "string",
          "name": "uri",
          "type": "string"
        },
        {
          "internalType": "uint256",
          "name": "_price",
          "type": "uint256"
        },
        {
          "internalType": "uint256",
          "name": "_shipping",
          "type": "uint256"
        },
        {
          "internalType": "uint256",
          "name": "_quantity",
          "type": "uint256"
        }
      ],
      "name": "createProduct",
      "outputs": [],
      "stateMutability": "nonpayable",
      "type": "function"
    },
    {
      "inputs": [],
      "name": "getEscrowAddress",
      "outputs": [
        {
          "internalType": "address",
          "name": "",
          "type": "address"
        }
      ],
      "stateMutability": "view",
      "type": "function"
    },
    {
      "inputs": [],
      "name": "getOwner",
      "outputs": [
        {
          "internalType": "address",
          "name": "",
          "type": "address"
        }
      ],
      "stateMutability": "view",
      "type": "function"
    },
    {
      "inputs": [],
      "name": "getOwnerProducts",
      "outputs": [
        {
          "components": [
            {
              "internalType": "address",
              "name": "owner",
              "type": "address"
            },
            {
              "internalType": "uint256",
              "name": "productId",
              "type": "uint256"
            },
            {
              "internalType": "uint256",
              "name": "price",
              "type": "uint256"
            },
            {
              "internalType": "uint256",
              "name": "shipping",
              "type": "uint256"
            },
            {
              "internalType": "uint256",
              "name": "quantity",
              "type": "uint256"
            },
            {
              "internalType": "string",
              "name": "uri",
              "type": "string"
            }
          ],
          "internalType": "struct Marketplace.Product[]",
          "name": "",
          "type": "tuple[]"
        }
      ],
      "stateMutability": "view",
      "type": "function"
    },
    {
      "inputs": [
        {
          "internalType": "uint256",
          "name": "_productId",
          "type": "uint256"
        }
      ],
      "name": "getProductById",
      "outputs": [
        {
          "components": [
            {
              "internalType": "address",
              "name": "owner",
              "type": "address"
            },
            {
              "internalType": "uint256",
              "name": "productId",
              "type": "uint256"
            },
            {
              "internalType": "uint256",
              "name": "price",
              "type": "uint256"
            },
            {
              "internalType": "uint256",
              "name": "shipping",
              "type": "uint256"
            },
            {
              "internalType": "uint256",
              "name": "quantity",
              "type": "uint256"
            },
            {
              "internalType": "string",
              "name": "uri",
              "type": "string"
            }
          ],
          "internalType": "struct Marketplace.Product",
          "name": "",
          "type": "tuple"
        }
      ],
      "stateMutability": "view",
      "type": "function"
    }
  ],
  "bytecode": "0x60c06040523480156200001157600080fd5b506200002e678cba0718b6baea9d60c01b6200010e60201b60201c565b6200004a672728351abe9847f260c01b6200010e60201b60201c565b30336040516200005a9062000111565b6200006792919062000164565b604051809103906000f08015801562000084573d6000803e3d6000fd5b5073ffffffffffffffffffffffffffffffffffffffff1660808173ffffffffffffffffffffffffffffffffffffffff1681525050620000d4671cec51448ecf20b160c01b6200010e60201b60201c565b3373ffffffffffffffffffffffffffffffffffffffff1660a08173ffffffffffffffffffffffffffffffffffffffff168152505062000191565b50565b6130dc8062001c4083390190565b600073ffffffffffffffffffffffffffffffffffffffff82169050919050565b60006200014c826200011f565b9050919050565b6200015e816200013f565b82525050565b60006040820190506200017b600083018562000153565b6200018a602083018462000153565b9392505050565b60805160a051611a82620001be600039600061068e01526000818161019d01526109520152611a826000f3fe6080604052600436106100555760003560e01c8063122fd48a1461005a5780633873ab24146100855780633f70c2b4146100b0578063893d20e8146100ed578063beff957714610118578063ecb6a82514610134575b600080fd5b34801561006657600080fd5b5061006f61015d565b60405161007c9190610fba565b60405180910390f35b34801561009157600080fd5b5061009a6101c1565b6040516100a791906111d8565b60405180910390f35b3480156100bc57600080fd5b506100d760048036038101906100d2919061123a565b6103d7565b6040516100e491906112f0565b60405180910390f35b3480156100f957600080fd5b5061010261064e565b60405161010f9190610fba565b60405180910390f35b610132600480360381019061012d9190611312565b6106b2565b005b34801561014057600080fd5b5061015b6004803603810190610156919061149a565b610c5f565b005b600061017367a53baa258f9529c560c01b610f2a565b61018767b820cc60119840cc60c01b610f2a565b61019b67d22f2a7586cbdd5f60c01b610f2a565b7f0000000000000000000000000000000000000000000000000000000000000000905090565b60606101d7678f3beef1e6d012cc60c01b610f2a565b6101eb67d93472929deb934260c01b610f2a565b6101ff67afb736e0d00afdb260c01b610f2a565b6000600160003373ffffffffffffffffffffffffffffffffffffffff1673ffffffffffffffffffffffffffffffffffffffff168152602001908152602001600020805480602002602001604051908101604052809291908181526020016000905b828210156103a257838290600052602060002090600602016040518060c00160405290816000820160009054906101000a900473ffffffffffffffffffffffffffffffffffffffff1673ffffffffffffffffffffffffffffffffffffffff1673ffffffffffffffffffffffffffffffffffffffff1681526020016001820154815260200160028201548152602001600382015481526020016004820154815260200160058201805461031190611560565b80601f016020809104026020016040519081016040528092919081815260200182805461033d90611560565b801561038a5780601f1061035f5761010080835404028352916020019161038a565b820191906000526020600020905b81548152906001019060200180831161036d57829003601f168201915b50505050508152505081526020019060010190610260565b5050505090506103bc67304bfc94b862c8a860c01b610f2a565b6103d067013f30b9b3acae8860c01b610f2a565b8091505090565b6103df610f2d565b6103f3672919e17af44cca1260c01b610f2a565b6104076729002e00adc2424160c01b610f2a565b61041b67ca28008dec5fdaf360c01b610f2a565b600073ffffffffffffffffffffffffffffffffffffffff1660008084815260200190815260200160002060000160009054906101000a900473ffffffffffffffffffffffffffffffffffffffff1673ffffffffffffffffffffffffffffffffffffffff16036104de5761049867dbd555c739b803bc60c01b610f2a565b6104ac6718e44bb9899b65e160c01b610f2a565b6040517ffa130d1500000000000000000000000000000000000000000000000000000000815260040160405180910390fd5b6104f2678707fd7731edad7660c01b610f2a565b61050667f3d89efbed7f649e60c01b610f2a565b61051a67e141312109dd5c6460c01b610f2a565b6000808381526020019081526020016000206040518060c00160405290816000820160009054906101000a900473ffffffffffffffffffffffffffffffffffffffff1673ffffffffffffffffffffffffffffffffffffffff1673ffffffffffffffffffffffffffffffffffffffff168152602001600182015481526020016002820154815260200160038201548152602001600482015481526020016005820180546105c590611560565b80601f01602080910402602001604051908101604052809291908181526020018280546105f190611560565b801561063e5780601f106106135761010080835404028352916020019161063e565b820191906000526020600020905b81548152906001019060200180831161062157829003601f168201915b5050505050815250509050919050565b6000610664677c224eca154187de60c01b610f2a565b610678674366aad32eb8da1460c01b610f2a565b61068c6780a9977995c733bf60c01b610f2a565b7f0000000000000000000000000000000000000000000000000000000000000000905090565b6106c667ba4f4f6e70232ab460c01b610f2a565b6106da67b70a2cbca9b61ae560c01b610f2a565b6106ee676cbbf2d75ed3b38760c01b610f2a565b60006106f9846103d7565b905061070f67cdc6124ddae38cdc60c01b610f2a565b61072367bfe1aaf2f28b033460c01b610f2a565b3373ffffffffffffffffffffffffffffffffffffffff16816000015173ffffffffffffffffffffffffffffffffffffffff16036107b45761076e67b310304797123f1960c01b610f2a565b61078267ab891a1c6434d1f160c01b610f2a565b6040517f143bcd5c00000000000000000000000000000000000000000000000000000000815260040160405180910390fd5b6107c867566a2184866756c360c01b610f2a565b6107dc67e43581d3dabf0d3260c01b610f2a565b6107f0676fdd6aff41ebab6e60c01b610f2a565b806080015183111561085657610810679cca827127eb215360c01b610f2a565b610824672bda5d0bdc72ea6260c01b610f2a565b6040517f2b2e799600000000000000000000000000000000000000000000000000000000815260040160405180910390fd5b61086a673f5007c728eb356260c01b610f2a565b61087e6706cd1a06041a98f560c01b610f2a565b61089267c23f32ceb89d37a660c01b610f2a565b80606001518382604001516108a791906115c0565b6108b19190611602565b341015610912576108cc6768218f3b7bfcb19660c01b610f2a565b6108e06757f0086508ebbc7b60c01b610f2a565b6040517f250c003600000000000000000000000000000000000000000000000000000000815260040160405180910390fd5b6109266787443c07dd8fd9e260c01b610f2a565b61093a67bc7b29cfaa113a2360c01b610f2a565b61094e6775ae833b39b8de6f60c01b610f2a565b60007f000000000000000000000000000000000000000000000000000000000000000073ffffffffffffffffffffffffffffffffffffffff16633bf3110f83606001518685604001516109a191906115c0565b6109ab9190611602565b8460000151338660200151888a6040518763ffffffff1660e01b81526004016109d8959493929190611645565b60206040518083038185885af11580156109f6573d6000803e3d6000fd5b50505050506040513d601f19601f82011682018060405250810190610a1b91906116ad565b9050610a3167b790ab9981ab4d9360c01b610f2a565b610a4567bdc8426709bf66a560c01b610f2a565b60008260600151858460400151610a5c91906115c0565b610a669190611602565b34610a7191906116da565b9050610a876705dfa6510fcef07b60c01b610f2a565b610a9b67dc975a4b4aaff93560c01b610f2a565b6000811115610bed57610ab867b3c125875cde631760c01b610f2a565b610acc67f09e8b817b6bfd3e60c01b610f2a565b610ae067e038e8f5d75b29c860c01b610f2a565b60003373ffffffffffffffffffffffffffffffffffffffff1682604051610b069061173f565b60006040518083038185875af1925050503d8060008114610b43576040519150601f19603f3d011682016040523d82523d6000602084013e610b48565b606091505b50509050610b6067bb1749eefa776ca660c01b610f2a565b610b74676aa45fa9af11113160c01b610f2a565b80610bd357610b8d67bdbef0c8e72bc77360c01b610f2a565b610ba1674361d1c7dacea6ca60c01b610f2a565b6040517f3a06d36900000000000000000000000000000000000000000000000000000000815260040160405180910390fd5b610be7670cbad85b3d5c7f4c60c01b610f2a565b50610c02565b610c0167bb1ccc7538e0ab8760c01b610f2a565b5b610c1667fb379026e6d0f73760c01b610f2a565b610c2a6768e17effb2527aa760c01b610f2a565b817fca570940fc0de1684a030665039469593dd4c228a17d8da38a53bbe884c07caf60405160405180910390a2505050505050565b610c7367188d9b6ae7fa488660c01b610f2a565b610c87673c531b4f106d86e760c01b610f2a565b610c9b6792d60c865e6bd71c60c01b610f2a565b60006040518060c001604052803373ffffffffffffffffffffffffffffffffffffffff168152602001878152602001858152602001848152602001838152602001868152509050610cf6674b5d2268eac551fa60c01b610f2a565b8060008088815260200190815260200160002060008201518160000160006101000a81548173ffffffffffffffffffffffffffffffffffffffff021916908373ffffffffffffffffffffffffffffffffffffffff1602179055506020820151816001015560408201518160020155606082015181600301556080820151816004015560a0820151816005019081610d8d9190611900565b50905050610da5676c26e830ff756b9860c01b610f2a565b610db967ad022cef9961901460c01b610f2a565b600160003373ffffffffffffffffffffffffffffffffffffffff1673ffffffffffffffffffffffffffffffffffffffff16815260200190815260200160002081908060018154018082558091505060019003906000526020600020906006020160009091909190915060008201518160000160006101000a81548173ffffffffffffffffffffffffffffffffffffffff021916908373ffffffffffffffffffffffffffffffffffffffff1602179055506020820151816001015560408201518160020155606082015181600301556080820151816004015560a0820151816005019081610ea69190611900565b505050610ebd6755780eb4d433c7fe60c01b610f2a565b610ed167bade7bcacc13433560c01b610f2a565b853373ffffffffffffffffffffffffffffffffffffffff167f752c6e59798f934c2c159f893dcff42eca6bb9529f328570f172e50c9774cb548688604051610f1a929190611a1c565b60405180910390a3505050505050565b50565b6040518060c00160405280600073ffffffffffffffffffffffffffffffffffffffff16815260200160008152602001600081526020016000815260200160008152602001606081525090565b600073ffffffffffffffffffffffffffffffffffffffff82169050919050565b6000610fa482610f79565b9050919050565b610fb481610f99565b82525050565b6000602082019050610fcf6000830184610fab565b92915050565b600081519050919050565b600082825260208201905092915050565b6000819050602082019050919050565b61100a81610f99565b82525050565b6000819050919050565b61102381611010565b82525050565b600081519050919050565b600082825260208201905092915050565b60005b83811015611063578082015181840152602081019050611048565b60008484015250505050565b6000601f19601f8301169050919050565b600061108b82611029565b6110958185611034565b93506110a5818560208601611045565b6110ae8161106f565b840191505092915050565b600060c0830160008301516110d16000860182611001565b5060208301516110e4602086018261101a565b5060408301516110f7604086018261101a565b50606083015161110a606086018261101a565b50608083015161111d608086018261101a565b5060a083015184820360a08601526111358282611080565b9150508091505092915050565b600061114e83836110b9565b905092915050565b6000602082019050919050565b600061116e82610fd5565b6111788185610fe0565b93508360208202850161118a85610ff1565b8060005b858110156111c657848403895281516111a78582611142565b94506111b283611156565b925060208a0199505060018101905061118e565b50829750879550505050505092915050565b600060208201905081810360008301526111f28184611163565b905092915050565b6000604051905090565b600080fd5b600080fd5b61121781611010565b811461122257600080fd5b50565b6000813590506112348161120e565b92915050565b6000602082840312156112505761124f611204565b5b600061125e84828501611225565b91505092915050565b600060c08301600083015161127f6000860182611001565b506020830151611292602086018261101a565b5060408301516112a5604086018261101a565b5060608301516112b8606086018261101a565b5060808301516112cb608086018261101a565b5060a083015184820360a08601526112e38282611080565b9150508091505092915050565b6000602082019050818103600083015261130a8184611267565b905092915050565b60008060006060848603121561132b5761132a611204565b5b600061133986828701611225565b935050602061134a86828701611225565b925050604061135b86828701611225565b9150509250925092565b600080fd5b600080fd5b7f4e487b7100000000000000000000000000000000000000000000000000000000600052604160045260246000fd5b6113a78261106f565b810181811067ffffffffffffffff821117156113c6576113c561136f565b5b80604052505050565b60006113d96111fa565b90506113e5828261139e565b919050565b600067ffffffffffffffff8211156114055761140461136f565b5b61140e8261106f565b9050602081019050919050565b82818337600083830152505050565b600061143d611438846113ea565b6113cf565b9050828152602081018484840111156114595761145861136a565b5b61146484828561141b565b509392505050565b600082601f83011261148157611480611365565b5b813561149184826020860161142a565b91505092915050565b600080600080600060a086880312156114b6576114b5611204565b5b60006114c488828901611225565b955050602086013567ffffffffffffffff8111156114e5576114e4611209565b5b6114f18882890161146c565b945050604061150288828901611225565b935050606061151388828901611225565b925050608061152488828901611225565b9150509295509295909350565b7f4e487b7100000000000000000000000000000000000000000000000000000000600052602260045260246000fd5b6000600282049050600182168061157857607f821691505b60208210810361158b5761158a611531565b5b50919050565b7f4e487b7100000000000000000000000000000000000000000000000000000000600052601160045260246000fd5b60006115cb82611010565b91506115d683611010565b92508282026115e481611010565b915082820484148315176115fb576115fa611591565b5b5092915050565b600061160d82611010565b915061161883611010565b92508282019050808211156116305761162f611591565b5b92915050565b61163f81611010565b82525050565b600060a08201905061165a6000830188610fab565b6116676020830187610fab565b6116746040830186611636565b6116816060830185611636565b61168e6080830184611636565b9695505050505050565b6000815190506116a78161120e565b92915050565b6000602082840312156116c3576116c2611204565b5b60006116d184828501611698565b91505092915050565b60006116e582611010565b91506116f083611010565b925082820390508181111561170857611707611591565b5b92915050565b600081905092915050565b50565b600061172960008361170e565b915061173482611719565b600082019050919050565b600061174a8261171c565b9150819050919050565b60008190508160005260206000209050919050565b60006020601f8301049050919050565b600082821b905092915050565b6000600883026117b67fffffffffffffffffffffffffffffffffffffffffffffffffffffffffffffffff82611779565b6117c08683611779565b95508019841693508086168417925050509392505050565b6000819050919050565b60006117fd6117f86117f384611010565b6117d8565b611010565b9050919050565b6000819050919050565b611817836117e2565b61182b61182382611804565b848454611786565b825550505050565b600090565b611840611833565b61184b81848461180e565b505050565b5b8181101561186f57611864600082611838565b600181019050611851565b5050565b601f8211156118b45761188581611754565b61188e84611769565b8101602085101561189d578190505b6118b16118a985611769565b830182611850565b50505b505050565b600082821c905092915050565b60006118d7600019846008026118b9565b1980831691505092915050565b60006118f083836118c6565b9150826002028217905092915050565b61190982611029565b67ffffffffffffffff8111156119225761192161136f565b5b61192c8254611560565b611937828285611873565b600060209050601f83116001811461196a5760008415611958578287015190505b61196285826118e4565b8655506119ca565b601f19841661197886611754565b60005b828110156119a05784890151825560018201915060208501945060208101905061197b565b868310156119bd57848901516119b9601f8916826118c6565b8355505b6001600288020188555050505b505050505050565b600082825260208201905092915050565b60006119ee82611029565b6119f881856119d2565b9350611a08818560208601611045565b611a118161106f565b840191505092915050565b6000604082019050611a316000830185611636565b8181036020830152611a4381846119e3565b9050939250505056fea26469706673582212203d2bf6d863e6e50c9fa4c2442d27a4fc267a9eb7c695b1262335f500295b6a7f64736f6c6343000813003360a06040523480156200001157600080fd5b50604051620030dc380380620030dc833981810160405281019062000037919062000174565b62000053671d41a94ba5554dcb60c01b6200010760201b60201c565b6200006f676024235befca135f60c01b6200010760201b60201c565b806000806101000a81548173ffffffffffffffffffffffffffffffffffffffff021916908373ffffffffffffffffffffffffffffffffffffffff160217905550620000cb67a13a725db37137b360c01b6200010760201b60201c565b8173ffffffffffffffffffffffffffffffffffffffff1660808173ffffffffffffffffffffffffffffffffffffffff16815250505050620001bb565b50565b600080fd5b600073ffffffffffffffffffffffffffffffffffffffff82169050919050565b60006200013c826200010f565b9050919050565b6200014e816200012f565b81146200015a57600080fd5b50565b6000815190506200016e8162000143565b92915050565b600080604083850312156200018e576200018d6200010a565b5b60006200019e858286016200015d565b9250506020620001b1858286016200015d565b9150509250929050565b608051612efe620001de6000396000818161173601526122770152612efe6000f3fe6080604052600436106100865760003560e01c8063700db75211610059578063700db7521461014a578063893d20e814610175578063bb8fe785146101a0578063c0cfa7e5146101cb578063c819998b146101f457610086565b8063278ecde11461008b57806337bdc99b146100b45780633bf3110f146100dd57806342b50a7a1461010d575b600080fd5b34801561009757600080fd5b506100b260048036038101906100ad91906129fe565b61021f565b005b3480156100c057600080fd5b506100db60048036038101906100d691906129fe565b610bec565b005b6100f760048036038101906100f29190612a89565b6116e2565b6040516101049190612b13565b60405180910390f35b34801561011957600080fd5b50610134600480360381019061012f91906129fe565b611d30565b6040516101419190612c65565b60405180910390f35b34801561015657600080fd5b5061015f611fb3565b60405161016c9190612dd3565b60405180910390f35b34801561018157600080fd5b5061018a6121d3565b6040516101979190612e04565b60405180910390f35b3480156101ac57600080fd5b506101b5612237565b6040516101c29190612e04565b60405180910390f35b3480156101d757600080fd5b506101f260048036038101906101ed91906129fe565b61229b565b005b34801561020057600080fd5b5061020961271d565b6040516102169190612dd3565b60405180910390f35b610233678adf54609f03c12d60c01b61293d565b8061024867a986cefeec85818760c01b61293d565b61025c679468e128eae60b1a60c01b61293d565b6102706796010dfaecf65cf660c01b61293d565b600060036000838152602001908152602001600020604051806101000160405290816000820160009054906101000a900473ffffffffffffffffffffffffffffffffffffffff1673ffffffffffffffffffffffffffffffffffffffff1673ffffffffffffffffffffffffffffffffffffffff1681526020016001820160009054906101000a900473ffffffffffffffffffffffffffffffffffffffff1673ffffffffffffffffffffffffffffffffffffffff1673ffffffffffffffffffffffffffffffffffffffff168152602001600282015481526020016003820154815260200160048201548152602001600582015481526020016006820160009054906101000a900460ff16600381111561038a57610389612b4c565b5b600381111561039c5761039b612b4c565b5b815260200160078201548152505090506103c0677a4fa443f0dd646b60c01b61293d565b6103d46707ba95f796c8a10260c01b61293d565b600060038111156103e8576103e7612b4c565b5b8160c0015160038111156103ff576103fe612b4c565b5b14158015610435575060038081111561041b5761041a612b4c565b5b8160c00151600381111561043257610431612b4c565b5b14155b156104945761044e67088091dfa12640c660c01b61293d565b610462677d44f4b501c4318360c01b61293d565b6040517f8a22693e00000000000000000000000000000000000000000000000000000000815260040160405180910390fd5b6104a86721c50106825c897d60c01b61293d565b6104bc67a7c7c5dfad30ec6560c01b61293d565b6104d067dfda96af9380697a60c01b61293d565b6104e4672eacbbaf4bd1038160c01b61293d565b826104f967527eb98e367f366c60c01b61293d565b61050d679810e0b36380003060c01b61293d565b61052167010c170a31d2120c60c01b61293d565b600060036000838152602001908152602001600020604051806101000160405290816000820160009054906101000a900473ffffffffffffffffffffffffffffffffffffffff1673ffffffffffffffffffffffffffffffffffffffff1673ffffffffffffffffffffffffffffffffffffffff1681526020016001820160009054906101000a900473ffffffffffffffffffffffffffffffffffffffff1673ffffffffffffffffffffffffffffffffffffffff1673ffffffffffffffffffffffffffffffffffffffff168152602001600282015481526020016003820154815260200160048201548152602001600582015481526020016006820160009054906101000a900460ff16600381111561063b5761063a612b4c565b5b600381111561064d5761064c612b4c565b5b815260200160078201548152505090506106716745d3b41a49d7ae0260c01b61293d565b610685677dd3f87b173f7fd660c01b61293d565b60008054906101000a900473ffffffffffffffffffffffffffffffffffffffff1673ffffffffffffffffffffffffffffffffffffffff163373ffffffffffffffffffffffffffffffffffffffff1614801561070857506003808111156106ee576106ed612b4c565b5b8160c00151600381111561070557610704612b4c565b5b14155b156107675761072167539a28d4bbb2f8bb60c01b61293d565b61073567964e40ee2cdeb52360c01b61293d565b6040517f8ab9b32900000000000000000000000000000000000000000000000000000000815260040160405180910390fd5b61077b6785176212632737a660c01b61293d565b61078f674c7003b2a701628760c01b61293d565b3373ffffffffffffffffffffffffffffffffffffffff16816000015173ffffffffffffffffffffffffffffffffffffffff161415801561081b575060008054906101000a900473ffffffffffffffffffffffffffffffffffffffff1673ffffffffffffffffffffffffffffffffffffffff163373ffffffffffffffffffffffffffffffffffffffff1614155b1561087a5761083467b8512d8a4a233cd460c01b61293d565b6108486722912976bd78484960c01b61293d565b6040517f76df155600000000000000000000000000000000000000000000000000000000815260040160405180910390fd5b61088e671738f3f3759d663d60c01b61293d565b6108a2678e687d28d1f0071d60c01b61293d565b806000015173ffffffffffffffffffffffffffffffffffffffff163373ffffffffffffffffffffffffffffffffffffffff1614801561090857506003808111156108ef576108ee612b4c565b5b8160c00151600381111561090657610905612b4c565b5b145b156109675761092167dfa79c7729e9ccc960c01b61293d565b6109356729062cc8dc02374160c01b61293d565b6040517f26b095e100000000000000000000000000000000000000000000000000000000815260040160405180910390fd5b61097b674bf8d5847ee50bf060c01b61293d565b61098f67a8cf46a670d916b060c01b61293d565b6109a367415590abf35f6c1660c01b61293d565b6109b76720dc0852a289c78660c01b61293d565b6109cb67587e37be3e2a8a9f60c01b61293d565b6109df675f071e8a3096ee0560c01b61293d565b6000600360008781526020019081526020016000209050610a0a67a4f4e0f2571abc7c60c01b61293d565b60028160060160006101000a81548160ff02191690836003811115610a3257610a31612b4c565b5b0217905550610a4b67fef194e3b5a36af260c01b61293d565b610a5f67c7d0a25614147d7a60c01b61293d565b60008160010160009054906101000a900473ffffffffffffffffffffffffffffffffffffffff1673ffffffffffffffffffffffffffffffffffffffff168260030154604051610aad90612e50565b60006040518083038185875af1925050503d8060008114610aea576040519150601f19603f3d011682016040523d82523d6000602084013e610aef565b606091505b50509050610b07676ade4ee43526370060c01b61293d565b610b1b67e5572a0ca148689e60c01b61293d565b80610b7a57610b3467d5fffa5233beb7b360c01b61293d565b610b48676954edc2badc589a60c01b61293d565b6040517f4abcf95000000000000000000000000000000000000000000000000000000000815260040160405180910390fd5b610b8e6762149c2c0697814060c01b61293d565b610ba267f65636fa082b6db760c01b61293d565b610bb667ea9568a7c09d234960c01b61293d565b867f6cbb2f5fc1a460905eb3b50b6c769589d8b1a201f03b7f04b1f3ce09c3aee78b60405160405180910390a250505050505050565b610c00670670fa0c97e324c060c01b61293d565b80610c1567a986cefeec85818760c01b61293d565b610c29679468e128eae60b1a60c01b61293d565b610c3d6796010dfaecf65cf660c01b61293d565b600060036000838152602001908152602001600020604051806101000160405290816000820160009054906101000a900473ffffffffffffffffffffffffffffffffffffffff1673ffffffffffffffffffffffffffffffffffffffff1673ffffffffffffffffffffffffffffffffffffffff1681526020016001820160009054906101000a900473ffffffffffffffffffffffffffffffffffffffff1673ffffffffffffffffffffffffffffffffffffffff1673ffffffffffffffffffffffffffffffffffffffff168152602001600282015481526020016003820154815260200160048201548152602001600582015481526020016006820160009054906101000a900460ff166003811115610d5757610d56612b4c565b5b6003811115610d6957610d68612b4c565b5b81526020016007820154815250509050610d8d677a4fa443f0dd646b60c01b61293d565b610da16707ba95f796c8a10260c01b61293d565b60006003811115610db557610db4612b4c565b5b8160c001516003811115610dcc57610dcb612b4c565b5b14158015610e025750600380811115610de857610de7612b4c565b5b8160c001516003811115610dff57610dfe612b4c565b5b14155b15610e6157610e1b67088091dfa12640c660c01b61293d565b610e2f677d44f4b501c4318360c01b61293d565b6040517f8a22693e00000000000000000000000000000000000000000000000000000000815260040160405180910390fd5b610e756721c50106825c897d60c01b61293d565b610e8967a7c7c5dfad30ec6560c01b61293d565b610e9d6787c4f702bfa41c4960c01b61293d565b610eb16702a89420d0376b4f60c01b61293d565b82610ec667ba63a8469acf7ec760c01b61293d565b610eda671b786cbfc5bbddb660c01b61293d565b610eee67d2a7682fbe9b96a560c01b61293d565b600060036000838152602001908152602001600020604051806101000160405290816000820160009054906101000a900473ffffffffffffffffffffffffffffffffffffffff1673ffffffffffffffffffffffffffffffffffffffff1673ffffffffffffffffffffffffffffffffffffffff1681526020016001820160009054906101000a900473ffffffffffffffffffffffffffffffffffffffff1673ffffffffffffffffffffffffffffffffffffffff1673ffffffffffffffffffffffffffffffffffffffff168152602001600282015481526020016003820154815260200160048201548152602001600582015481526020016006820160009054906101000a900460ff16600381111561100857611007612b4c565b5b600381111561101a57611019612b4c565b5b8152602001600782015481525050905061103e671614c4ab1e3c0e7860c01b61293d565b611052675d9eba9467bf36dc60c01b61293d565b60008054906101000a900473ffffffffffffffffffffffffffffffffffffffff1673ffffffffffffffffffffffffffffffffffffffff163373ffffffffffffffffffffffffffffffffffffffff161480156110d557506003808111156110bb576110ba612b4c565b5b8160c0015160038111156110d2576110d1612b4c565b5b14155b15611134576110ee67daa96c08f8cfbaeb60c01b61293d565b61110267d53a0eeba684915c60c01b61293d565b6040517f8ab9b32900000000000000000000000000000000000000000000000000000000815260040160405180910390fd5b61114867713e500cf31766c860c01b61293d565b61115c67982e8deea799826060c01b61293d565b3373ffffffffffffffffffffffffffffffffffffffff16816000015173ffffffffffffffffffffffffffffffffffffffff160361125c576111a7672910437015357dbb60c01b61293d565b6111bb670577ae683f7dab1060c01b61293d565b6111cf67c517ea917b60667060c01b61293d565b62278d008160800151426111e39190612e94565b1015611243576111fd671a195938f297bfe260c01b61293d565b611211674cf94b57c9058e2260c01b61293d565b6040517f586f49f700000000000000000000000000000000000000000000000000000000815260040160405180910390fd5b611257675f537d3611769a9f60c01b61293d565b611471565b611270678e213de2e7c0f3e960c01b61293d565b611284673da8eb50c5965f2460c01b61293d565b3373ffffffffffffffffffffffffffffffffffffffff16816020015173ffffffffffffffffffffffffffffffffffffffff1614158015611310575060008054906101000a900473ffffffffffffffffffffffffffffffffffffffff1673ffffffffffffffffffffffffffffffffffffffff163373ffffffffffffffffffffffffffffffffffffffff1614155b1561136f5761132967ea6c141a9ec09eee60c01b61293d565b61133d671b8d04d6aa36dae760c01b61293d565b6040517f492aab8600000000000000000000000000000000000000000000000000000000815260040160405180910390fd5b611383674f1337c4080ba2bd60c01b61293d565b61139767797479d6d3ab781160c01b61293d565b806020015173ffffffffffffffffffffffffffffffffffffffff163373ffffffffffffffffffffffffffffffffffffffff161480156113fd57506003808111156113e4576113e3612b4c565b5b8160c0015160038111156113fb576113fa612b4c565b5b145b1561145c57611416679967075ce7c0ed2d60c01b61293d565b61142a6710487ba0b33925a960c01b61293d565b6040517f26b095e100000000000000000000000000000000000000000000000000000000815260040160405180910390fd5b611470671416ec0410b1a7d460c01b61293d565b5b61148567081048211811fab560c01b61293d565b61149967ef0c336e0486155860c01b61293d565b6114ad6788916614ddb5604a60c01b61293d565b6114c16756289fca248217c160c01b61293d565b6114d56774a52728903ebc6860c01b61293d565b6000600360008781526020019081526020016000209050611500677bd10de6a7cabf1e60c01b61293d565b60018160060160006101000a81548160ff0219169083600381111561152857611527612b4c565b5b021790555061154167eca099b30beed68b60c01b61293d565b611555676b42d809763e0cb560c01b61293d565b60008160000160009054906101000a900473ffffffffffffffffffffffffffffffffffffffff1673ffffffffffffffffffffffffffffffffffffffff1682600301546040516115a390612e50565b60006040518083038185875af1925050503d80600081146115e0576040519150601f19603f3d011682016040523d82523d6000602084013e6115e5565b606091505b505090506115fd6772f4c21739eedc9f60c01b61293d565b611611676b52d77bcc5684f160c01b61293d565b806116705761162a67a0cd571f8e1d9e0a60c01b61293d565b61163e6715211b0b91d88cb460c01b61293d565b6040517f4abcf95000000000000000000000000000000000000000000000000000000000815260040160405180910390fd5b61168467befc3620270ff0f260c01b61293d565b611698673be2368da88b39f960c01b61293d565b6116ac671d10082a2ac305ca60c01b61293d565b867fd7c4eded732389526228283d2661ca619ed8096fffca8c0f0c3a6e2a7f4c449d60405160405180910390a250505050505050565b60006116f867067f3ff20160c53a60c01b61293d565b61170c676d8adabdabb8e40860c01b61293d565b611720674b677f51e981752d60c01b61293d565b61173467cc76fcbb1316d35360c01b61293d565b7f000000000000000000000000000000000000000000000000000000000000000073ffffffffffffffffffffffffffffffffffffffff163373ffffffffffffffffffffffffffffffffffffffff16146117e15761179b67298044c1cac2b2c360c01b61293d565b6117af67480d1a4a154abaec60c01b61293d565b6040517fab24dd7c00000000000000000000000000000000000000000000000000000000815260040160405180910390fd5b6117f567fa91eaed2c59f76e60c01b61293d565b611809678682a9107a6fd2c160c01b61293d565b61181d67f02905bc239efdd760c01b61293d565b6118316783bb511f2f4f471b60c01b61293d565b611845673c515e0c4f04e20860c01b61293d565b61185967458b5498b635041460c01b61293d565b60006040518061010001604052808873ffffffffffffffffffffffffffffffffffffffff1681526020018773ffffffffffffffffffffffffffffffffffffffff168152602001868152602001348152602001428152602001858152602001600060038111156118cb576118ca612b4c565b5b81526020018481525090506118ea67d053eb58535e341b60c01b61293d565b6118fe678ef53031548ea11260c01b61293d565b600160008773ffffffffffffffffffffffffffffffffffffffff1673ffffffffffffffffffffffffffffffffffffffff16815260200190815260200160002081908060018154018082558091505060019003906000526020600020906008020160009091909190915060008201518160000160006101000a81548173ffffffffffffffffffffffffffffffffffffffff021916908373ffffffffffffffffffffffffffffffffffffffff16021790555060208201518160010160006101000a81548173ffffffffffffffffffffffffffffffffffffffff021916908373ffffffffffffffffffffffffffffffffffffffff16021790555060408201518160020155606082015181600301556080820151816004015560a0820151816005015560c08201518160060160006101000a81548160ff02191690836003811115611a4857611a47612b4c565b5b021790555060e082015181600701555050611a6d67f64da947f2a6055560c01b61293d565b611a81674b43e0ebd8b8ed4960c01b61293d565b600260008873ffffffffffffffffffffffffffffffffffffffff1673ffffffffffffffffffffffffffffffffffffffff16815260200190815260200160002081908060018154018082558091505060019003906000526020600020906008020160009091909190915060008201518160000160006101000a81548173ffffffffffffffffffffffffffffffffffffffff021916908373ffffffffffffffffffffffffffffffffffffffff16021790555060208201518160010160006101000a81548173ffffffffffffffffffffffffffffffffffffffff021916908373ffffffffffffffffffffffffffffffffffffffff16021790555060408201518160020155606082015181600301556080820151816004015560a0820151816005015560c08201518160060160006101000a81548160ff02191690836003811115611bcb57611bca612b4c565b5b021790555060e082015181600701555050611bf067cd72c06404fb756860c01b61293d565b806003600086815260200190815260200160002060008201518160000160006101000a81548173ffffffffffffffffffffffffffffffffffffffff021916908373ffffffffffffffffffffffffffffffffffffffff16021790555060208201518160010160006101000a81548173ffffffffffffffffffffffffffffffffffffffff021916908373ffffffffffffffffffffffffffffffffffffffff16021790555060408201518160020155606082015181600301556080820151816004015560a0820151816005015560c08201518160060160006101000a81548160ff02191690836003811115611ce557611ce4612b4c565b5b021790555060e08201518160070155905050611d0b670eb3ca56f604eef860c01b61293d565b611d1f673326a407adac532560c01b61293d565b8060a0015191505095945050505050565b611d38612940565b611d4c67178b41e7b125903a60c01b61293d565b611d6067e9aa0b4e1574286860c01b61293d565b611d7467b7b337024c635da460c01b61293d565b600073ffffffffffffffffffffffffffffffffffffffff166003600084815260200190815260200160002060000160009054906101000a900473ffffffffffffffffffffffffffffffffffffffff1673ffffffffffffffffffffffffffffffffffffffff1603611e3857611df267062efda05f81889060c01b61293d565b611e0667628dffc3fab2ddf460c01b61293d565b6040517f56421a5700000000000000000000000000000000000000000000000000000000815260040160405180910390fd5b611e4c67f9165bffd114af6b60c01b61293d565b611e6067782cfc5a013337c960c01b61293d565b611e7467c1839b46b22f3b6360c01b61293d565b60036000838152602001908152602001600020604051806101000160405290816000820160009054906101000a900473ffffffffffffffffffffffffffffffffffffffff1673ffffffffffffffffffffffffffffffffffffffff1673ffffffffffffffffffffffffffffffffffffffff1681526020016001820160009054906101000a900473ffffffffffffffffffffffffffffffffffffffff1673ffffffffffffffffffffffffffffffffffffffff1673ffffffffffffffffffffffffffffffffffffffff168152602001600282015481526020016003820154815260200160048201548152602001600582015481526020016006820160009054906101000a900460ff166003811115611f8c57611f8b612b4c565b5b6003811115611f9e57611f9d612b4c565b5b81526020016007820154815250509050919050565b6060611fc9675630e77e0f7a210d60c01b61293d565b611fdd67548eaf65cf62560260c01b61293d565b611ff1671b8b13407c0938ae60c01b61293d565b6000600260003373ffffffffffffffffffffffffffffffffffffffff1673ffffffffffffffffffffffffffffffffffffffff168152602001908152602001600020805480602002602001604051908101604052809291908181526020016000905b8282101561219e5783829060005260206000209060080201604051806101000160405290816000820160009054906101000a900473ffffffffffffffffffffffffffffffffffffffff1673ffffffffffffffffffffffffffffffffffffffff1673ffffffffffffffffffffffffffffffffffffffff1681526020016001820160009054906101000a900473ffffffffffffffffffffffffffffffffffffffff1673ffffffffffffffffffffffffffffffffffffffff1673ffffffffffffffffffffffffffffffffffffffff168152602001600282015481526020016003820154815260200160048201548152602001600582015481526020016006820160009054906101000a900460ff16600381111561216f5761216e612b4c565b5b600381111561218157612180612b4c565b5b815260200160078201548152505081526020019060010190612052565b5050505090506121b86794793333fe2f079d60c01b61293d565b6121cc67772e1bf2ba854aef60c01b61293d565b8091505090565b60006121e9677d7411a39e1149c360c01b61293d565b6121fd67cf0552636919536060c01b61293d565b61221167f4df7bac6551b71f60c01b61293d565b60008054906101000a900473ffffffffffffffffffffffffffffffffffffffff16905090565b600061224d6768c626dcdd1cee0460c01b61293d565b6122616708dbabe6e49b837860c01b61293d565b612275678d2ffa62da82f61360c01b61293d565b7f0000000000000000000000000000000000000000000000000000000000000000905090565b6122af67b6521838e3348bb060c01b61293d565b806122c46758c8fea77f50a14160c01b61293d565b6122d867fcddb68f9c9cc26d60c01b61293d565b6122ec67ef3f468eca27f67e60c01b61293d565b600060036000838152602001908152602001600020604051806101000160405290816000820160009054906101000a900473ffffffffffffffffffffffffffffffffffffffff1673ffffffffffffffffffffffffffffffffffffffff1673ffffffffffffffffffffffffffffffffffffffff1681526020016001820160009054906101000a900473ffffffffffffffffffffffffffffffffffffffff1673ffffffffffffffffffffffffffffffffffffffff1673ffffffffffffffffffffffffffffffffffffffff168152602001600282015481526020016003820154815260200160048201548152602001600582015481526020016006820160009054906101000a900460ff16600381111561240657612405612b4c565b5b600381111561241857612417612b4c565b5b8152602001600782015481525050905061243c67f145d9f0b5b9eea060c01b61293d565b612450677fc0f059cbb7702260c01b61293d565b806000015173ffffffffffffffffffffffffffffffffffffffff163373ffffffffffffffffffffffffffffffffffffffff16141580156124c05750806020015173ffffffffffffffffffffffffffffffffffffffff163373ffffffffffffffffffffffffffffffffffffffff1614155b1561251f576124d967746f2bdd3eb0fd9c60c01b61293d565b6124ed67c88b3f2a7594271d60c01b61293d565b6040517f96b88c5100000000000000000000000000000000000000000000000000000000815260040160405180910390fd5b6125336747d00b45b5d7c4b060c01b61293d565b6125476783bf8d88684d9e8c60c01b61293d565b61255b67780ada794685c76e60c01b61293d565b61256f6710c326611e268a9160c01b61293d565b61258367265199fb51b21ef360c01b61293d565b61259767803583427c68b03560c01b61293d565b60006003600085815260200190815260200160002090506125c26755a5679af814216860c01b61293d565b6125d667670a39492e2fbec560c01b61293d565b600060038111156125ea576125e9612b4c565b5b8160060160009054906101000a900460ff16600381111561260e5761260d612b4c565b5b1461266d57612627678d4872af48d7af1760c01b61293d565b61263b67f321c11113ce73b260c01b61293d565b6040517ff609f42000000000000000000000000000000000000000000000000000000000815260040160405180910390fd5b61268167eaf59ce00d33cf9e60c01b61293d565b61269567289df4c4ff94ac8a60c01b61293d565b60038160060160006101000a81548160ff021916908360038111156126bd576126bc612b4c565b5b02179055506126d6674ac76f16116646b260c01b61293d565b6126ea674ea2110c63157fda60c01b61293d565b837f912a1e013de32e96d992fc6c81600eb5480705bfabb226c0b69811abf2b3abac60405160405180910390a250505050565b60606127336705e1e19b581157e460c01b61293d565b612747679707f403254cde5a60c01b61293d565b61275b67ceb693f2332168bd60c01b61293d565b6000600160003373ffffffffffffffffffffffffffffffffffffffff1673ffffffffffffffffffffffffffffffffffffffff168152602001908152602001600020805480602002602001604051908101604052809291908181526020016000905b828210156129085783829060005260206000209060080201604051806101000160405290816000820160009054906101000a900473ffffffffffffffffffffffffffffffffffffffff1673ffffffffffffffffffffffffffffffffffffffff1673ffffffffffffffffffffffffffffffffffffffff1681526020016001820160009054906101000a900473ffffffffffffffffffffffffffffffffffffffff1673ffffffffffffffffffffffffffffffffffffffff1673ffffffffffffffffffffffffffffffffffffffff168152602001600282015481526020016003820154815260200160048201548152602001600582015481526020016006820160009054906101000a900460ff1660038111156128d9576128d8612b4c565b5b60038111156128eb576128ea612b4c565b5b8152602001600782015481525050815260200190600101906127bc565b5050505090506129226721dfbe3fccf4c45160c01b61293d565b61293667c4f5d0024044adca60c01b61293d565b8091505090565b50565b604051806101000160405280600073ffffffffffffffffffffffffffffffffffffffff168152602001600073ffffffffffffffffffffffffffffffffffffffff16815260200160008152602001600081526020016000815260200160008152602001600060038111156129b6576129b5612b4c565b5b8152602001600081525090565b600080fd5b6000819050919050565b6129db816129c8565b81146129e657600080fd5b50565b6000813590506129f8816129d2565b92915050565b600060208284031215612a1457612a136129c3565b5b6000612a22848285016129e9565b91505092915050565b600073ffffffffffffffffffffffffffffffffffffffff82169050919050565b6000612a5682612a2b565b9050919050565b612a6681612a4b565b8114612a7157600080fd5b50565b600081359050612a8381612a5d565b92915050565b600080600080600060a08688031215612aa557612aa46129c3565b5b6000612ab388828901612a74565b9550506020612ac488828901612a74565b9450506040612ad5888289016129e9565b9350506060612ae6888289016129e9565b9250506080612af7888289016129e9565b9150509295509295909350565b612b0d816129c8565b82525050565b6000602082019050612b286000830184612b04565b92915050565b612b3781612a4b565b82525050565b612b46816129c8565b82525050565b7f4e487b7100000000000000000000000000000000000000000000000000000000600052602160045260246000fd5b60048110612b8c57612b8b612b4c565b5b50565b6000819050612b9d82612b7b565b919050565b6000612bad82612b8f565b9050919050565b612bbd81612ba2565b82525050565b61010082016000820151612bda6000850182612b2e565b506020820151612bed6020850182612b2e565b506040820151612c006040850182612b3d565b506060820151612c136060850182612b3d565b506080820151612c266080850182612b3d565b5060a0820151612c3960a0850182612b3d565b5060c0820151612c4c60c0850182612bb4565b5060e0820151612c5f60e0850182612b3d565b50505050565b600061010082019050612c7b6000830184612bc3565b92915050565b600081519050919050565b600082825260208201905092915050565b6000819050602082019050919050565b61010082016000820151612cc46000850182612b2e565b506020820151612cd76020850182612b2e565b506040820151612cea6040850182612b3d565b506060820151612cfd6060850182612b3d565b506080820151612d106080850182612b3d565b5060a0820151612d2360a0850182612b3d565b5060c0820151612d3660c0850182612bb4565b5060e0820151612d4960e0850182612b3d565b50505050565b6000612d5b8383612cad565b6101008301905092915050565b6000602082019050919050565b6000612d8082612c81565b612d8a8185612c8c565b9350612d9583612c9d565b8060005b83811015612dc6578151612dad8882612d4f565b9750612db883612d68565b925050600181019050612d99565b5085935050505092915050565b60006020820190508181036000830152612ded8184612d75565b905092915050565b612dfe81612a4b565b82525050565b6000602082019050612e196000830184612df5565b92915050565b600081905092915050565b50565b6000612e3a600083612e1f565b9150612e4582612e2a565b600082019050919050565b6000612e5b82612e2d565b9150819050919050565b7f4e487b7100000000000000000000000000000000000000000000000000000000600052601160045260246000fd5b6000612e9f826129c8565b9150612eaa836129c8565b9250828203905081811115612ec257612ec1612e65565b5b9291505056fea2646970667358221220f10bdd9182d6bcd0dcbb2fa5a3f9f27df11967f9d26290d74106a33ec941241564736f6c63430008130033",
  "linkReferences": {},
  "deployedLinkReferences": {}
}